:020000040800F2
:100000000000032099330008DD330008DD330008C9
:10001000DD330008DD330008DD3300080000000098
:10002000000000000000000000000000D5260008CD
:10003000DD33000800000000DD2800084129000829
:10004000DD330008DD330008DD330008DD33000850
:10005000DD330008DD33000891090008DD330008B6
:10006000DD330008DD330008DD330008DD33000830
:10007000DD330008DD330008DD330008DD33000820
:10008000DD330008DD330008DD330008DD33000810
:10009000DD330008DD330008DD330008DD33000800
:1000A000DD330008DD330008DD330008DD330008F0
:1000B000110A0008DD330008DD330008DD330008D5
:1000C000DD330008DD330008DD330008DD330008D0
:1000D000DD330008DD330008DD330008DD330008C0
:1000E000DD330008DD330008DD330008DD330008B0
:1000F000DD330008DD330008DD330008DD330008A0
:10010000DD330008DD330008DD330008DD3300088F
:10011000DD330008DD330008DD330008DD3300087F
:10012000DD330008DD330008DD330008DD3300086F
:10013000DD330008DD330008DD330008DD3300085F
:10014000DD330008DD330008DD330008DD3300084F
:10015000DD330008DD330008DD330008DD3300083F
:10016000DD330008DD330008DD330008DD3300082F
:10017000DD330008DD330008DD330008DD3300081F
:10018000DD330008DD330008DD330008DD3300080F
:10019000DD330008DD330008DD330008DD330008FF
:1001A000DD330008DD330008DD33000890B484B08F
:1001B00000AF03460A46FB711346BB710023FB6088
:1001C000BB7903F003039B000F2202FA03F3FB60E9
:1001D0001649BB799B08DBB21846144ABB799B08C9
:1001E000DBB2023352F82320FB68DB431A40831C46
:1001F00041F823200D48BB799B08DBB21C460B4A13
:10020000BB799B08DBB2023352F82320F979BB7922
:1002100003F003039B0001FA03F31A43A31C40F805
:10022000232000BF1037BD4690BC70470038014006
:1002300080B500AF00F0F6F800F03AF900F010F8E1
:100240000346002B01D0042308E000F023F801212D
:10025000012000F049F800F071F80023184680BD35
:1002600080B500AF00F026F803461A4640F61103A9
:100270009A4209D0064B1B68002B03D100F0E0FA2C
:10028000034602E0012300E00023184680BD00BFC2
:100290000000002080B500AF0221032000F032F9F9
:1002A000022000F003FB0021032000F02BF90023C3
:1002B000184680BD80B582B000AF0023FB800020CF
:1002C00000F0D0F90346FB80FB881B02FB80012075
:1002D00000F0C8F903469AB2FB881343FB80FB8801
:1002E00018460837BD4680BD80B584B000AF0346D0
:1002F0000A46FB711346BB710023FB73042000F018
:10030000B1F90346FB73BB79002B09D097F907308D
:10031000DB435AB297F90F3013405BB2FB7303E033
:10032000FA7BFB791343FB73FB7B1946042000F037
:10033000E9F8002318461037BD4680BD80B500AFF0
:1003400001210220FFF7D0FF4921202000F0DAF838
:10035000022000F0ABFA0121212000F0D3F80021A7
:100360001E2000F035F89A21412000F0CBF8012141
:100370004A2000F0C7F801214B2000F0C3F800210B
:100380004B2000F0BFF80121562000F0BBF80121FE
:10039000582000F0B7F80321402000F0B3F8FF2107
:1003A0000B2000F0AFF8094B0022DA80074BDA8807
:1003B000064B9A80054B9A88044B5A80034B5A8807
:1003C000024B1A800023184680BD00BF742F012005
:1003D00080B584B000AF03460A46FB711346BB717B
:1003E0000023FB73172000F03DF90346FB73BB7934
:1003F000002B04D0FA7BFB791343FB7308E097F9D9
:100400000730DB435AB297F90F3013405BB2FB73EE
:10041000FB7B1946172000F075F8002318461037AB
:10042000BD4680BD80B582B000AF01214FF4000011
:1004300000F0F2FB012140F2051000F0CDFB01219C
:100440004FF4804000F008FC01214FF4000000F060
:1004500023FC00214FF4000000F01EFC04220821C0
:10046000114801F01BFF04220921104801F016FF7A
:100470004FF480733B6002233B7102237B710123A5
:10048000BB710023FB713B461946074801F05EFE35
:100490004FF400733B603B461946044801F056FE9A
:1004A00000BF0837BD4680BD000002400008024082
:1004B00080B584B000AF114B1B889BB203F00103E1
:1004C000002B17D10023BB804BF6FF73FB8000236A
:1004D0003B814FF480637B814FF48043BB81084BA9
:1004E0003B603B461946054802F0B4FF0121034832
:1004F00003F072F800BF1037BD4680BD005C0040BD
:10050000A086010080B584B000AF03460A46FB71A7
:100510001346BB710023FB6001214C4803F07CF8BB
:100520004B4B4FF440521A600AE0494B1B685A1E6D
:1005300047490A60002B03D100F082F9034680E0AE
:100540004449424803F026F90346002BEDD000222F
:1005500082213E4803F0A0F83D4B4FF440521A6010
:100560000AE03B4B1B685A1E39490A60002B03D135
:1005700000F066F9034664E03749344803F00AF9AD
:100580000346002BEDD0314B1B8B314B4FF44052C7
:100590001A600AE02E4B1B685A1E2D490A60002B78
:1005A00003D100F04DF903464BE02C49274803F0F6
:1005B000F1F80346002BEDD0FB791946234803F0F0
:1005C000CBF8234B4FF440521A600AE0204B1B68D3
:1005D0005A1E1F490A60002B03D100F031F903466F
:1005E0002FE01E49194803F0D5F80346002BEDD043
:1005F000BB791946154803F0AFF8154B4FF440523C
:100600001A600AE0124B1B685A1E11490A60002B3F
:1006100003D100F015F9034613E010490B4803F02D
:10062000B9F80346002BEDD00D49084803F0B2F8A5
:100630000346002BE6D00121044803F00DF8FB68C7
:10064000DBB218461037BD4680BD00BF005C0040DD
:1006500000000020010000100200001080000010C7
:100660000400001080B584B000AF0346FB71002386
:10067000FB7301216B4802F0CFFF6B4B4FF44052EC
:100680001A600AE0684B1B685A1E67490A60002B13
:1006900003D100F0D5F80346C0E06449614803F097
:1006A00079F80346002BEDD000215E4803F012F8E4
:1006B000002282215B4802F0EFFF5B4B4FF4405277
:1006C0001A600AE0584B1B685A1E57490A60002BF3
:1006D00003D100F0B5F80346A0E05549514803F0B6
:1006E00059F80346002BEDD04E4B1B8B4E4B4FF46D
:1006F00040521A600AE04C4B1B685A1E4A490A6075
:10070000002B03D100F09CF8034687E04949454897
:1007100003F040F80346002BEDD0FB791946414821
:1007200003F01AF8404B4FF440521A600AE03E4B77
:100730001B685A1E3C490A60002B03D100F080F868
:1007400003466BE03B49374803F024F80346002B8F
:10075000EDD03949334803F01DF80346002BE6D0AD
:100760000121304802F058FF2F4B4FF440521A60DD
:100770000AE02D4B1B685A1E2B490A60002B03D13F
:1007800000F05EF8034649E02849264803F002F8E5
:100790000346002BEDD001228221224802F07CFF8B
:1007A000214B4FF440521A600AE01F4B1B685A1E3F
:1007B0001D490A60002B03D100F042F803462DE0EA
:1007C0001B49184802F0E6FF0346002BEDD0154BFD
:1007D0001B8B154B4FF440521A600AE0124B1B68FA
:1007E0005A1E11490A60002B03D100F029F8034674
:1007F00014E012490B4802F0CDFF0346002BEDD068
:100800000121084802F028FF064802F0B5FF034620
:10081000FB730121034802F05DFFFB7B1846103794
:10082000BD4680BD005C00400000002001000010BB
:1008300002000010800000100400001040000010B2
:1008400080B584B000AF0121164802F005FF0121F8
:10085000144802F05FFF0021124802F05BFFFFF72F
:10086000E1FD104802F0BCFD0023BB804BF6FF7396
:10087000FB8000233B814FF480637B814FF48043F6
:10088000BB81094B3B600121064802F0A5FE3B46B7
:100890001946044802F0DEFD002318461037BD4615
:1008A00080BD00BF005C0040A086010080B485B020
:1008B00000AF78600023FB607B68084A02FB03F30B
:1008C000FB6002E0FB68013BFB60FB68002BF9D199
:1008D00000BF1437BD465DF8047B7047A086010059
:1008E00080B485B000AF78607B6803F00703FB60DD
:1008F0000C4BDB68BB60BA684FF6FF031340BB606C
:10090000FB681A02BB68134343F0BF6343F4003330
:10091000BB60044ABB68D36000BF1437BD465DF8B6
:10092000047B704700ED00E080B584B004AF4FF465
:100930004070FFF7D5FF002003F01CF9012003F001
:1009400019F9FFF775FC01F0A7FB01F0D7FB0022B6
:1009500001214FF4007002F0E3F80246094B1A60DF
:100960000023039300230293002301930A2300939F
:1009700000234FF400720449044800F073FC00F0B7
:100980003DFDFEE77C2F0120783F000885380008F8
:1009900080B582B000AF012003F064F80346002B5D
:1009A0002BD000214FF0804003F07EF90121154843
:1009B00001F05AFC0346FB7100233B60012003F069
:1009C0006BF84FF0804340F24732DA6201214FF07A
:1009D000804003F069F90C4B18683A46F91D002372
:1009E00002F0E8F93B68002B07D0084B4FF080522B
:1009F0001A60BFF34F8FBFF36F8F00BF0837BD463C
:100A000080BD00BF000002407C2F012004ED00E00B
:100A100080B582B000AF01214FF0804003F088F92B
:100A20000346002B23D001214FF0804003F0AAF9A8
:100A30000121114801F018FC0346FB7100233B60C3
:100A40004FF0804340F29F22DA620C4B18683A461E
:100A5000F91D002302F0AEF93B68002B07D0084BCC
:100A60004FF080521A60BFF34F8FBFF36F8F00BFFC
:100A70000837BD4680BD00BF000002407C2F01202A
:100A800004ED00E080B489B000AF78600023BB6162
:100A900000237B610023FB6102233B610023FB6099
:100AA0000223BB60484B9B6803F00C03BB61BB692E
:100AB000042B07D0082B09D0002B3FD17B68434A79
:100AC0001A603FE07B68424A1A603BE03E4B5B683D
:100AD00003F480039B0DFB603B4B5B6803F03F031B
:100AE000BB60FB68002B0DD0394ABB68B2FBF3F248
:100AF000354B596847F6C0730B409B0903FB02F363
:100B0000FB610CE0314ABB68B2FBF3F22E4B596833
:100B100047F6C0730B409B0903FB02F3FB612A4BB2
:100B20005B6803F440331B0C01335B003B61FA69E3
:100B30003B69B2FBF3F27B681A6003E07B68234AEF
:100B40001A6000BF204B9B6803F0F003BB61BB69D8
:100B50001B09BB611F4ABB6913441B78DBB27B6175
:100B60007B681A687B69DA407B685A60164B9B6821
:100B700003F4E053BB61BB699B0ABB61154ABB69C7
:100B800013441B78DBB27B617B685A687B69DA406F
:100B90007B689A600C4B9B6803F46043BB61BB6944
:100BA0005B0BBB610B4ABB6913441B78DBB27B61F7
:100BB0007B685A687B69DA407B68DA6000BF24375B
:100BC000BD465DF8047B7047003802400024F40005
:100BD00000127A000400002080B483B000AF786077
:100BE0000B46FB70FB78002B06D00A49094B1A6BA9
:100BF0007B6813430B6306E00649064B1A6B7B6860
:100C0000DB4313400B6300BF0C37BD465DF8047B2C
:100C1000704700BF0038024080B483B000AF7860F6
:100C20000B46FB70FB78002B06D00A49094B1A6C67
:100C30007B6813430B6406E00649064B1A6C7B681D
:100C4000DB4313400B6400BF0C37BD465DF8047BEB
:100C5000704700BF0038024080B483B000AF7860B6
:100C60000B46FB70FB78002B06D00A49094B5A6CE7
:100C70007B6813434B6406E00649064B5A6C7B685D
:100C8000DB4313404B6400BF0C37BD465DF8047B6B
:100C9000704700BF0038024080B483B000AF786076
:100CA0000B46FB70FB78002B06D00A49094B1A6AE9
:100CB0007B6813430B6206E00649064B1A6A7B68A1
:100CC000DB4313400B6200BF0C37BD465DF8047B6D
:100CD000704700BF0038024080B586B004AF0023E3
:100CE0007B6000F077FA134B1B68002B0FD00023BA
:100CF0000393002302930023019302230093002314
:100D00004FF482720C490D4800F0ACFA78607B68B1
:100D1000002B09D14FF0500383F31188BFF36F8F7D
:100D2000BFF34F8F3B60FEE77B6818460837BD4630
:100D300080BD00BF680000208C3F0008410E000805
:100D400080B588B000AFF860B9607A603B6000237E
:100D5000FB611A4B1B68002B2AD0BB683B617B6888
:100D60007B61FB68BB61BB68052B18DC01F068F890
:100D70000346022B09D1114B186807F1100100231B
:100D8000BA6A01F023FFF86112E00C4B186807F112
:100D900010010023002201F019FFF86108E0074B61
:100DA000186807F1100100233A6802F003F8F861AF
:100DB000FB6918462037BD4680BD00BF6800002093
:100DC00080B588B002AF786039601C4B1B68DB6867
:100DD000DB687B617B690433184601F035FB7B6976
:100DE000DB69012B21D17B699A697B68D1187B680B
:100DF0003A68786900F0BAF80346012B15D1002350
:100E0000009300237A6800217869FFF799FF386121
:100E10003B69002B09D14FF0500383F31188BFF3D6
:100E20006F8FBFF34F8FFB60FEE77B695B6A78696A
:100E3000984700BF1837BD4680BD00BF6000002046
:100E400080B584B000AF786007F10803184600F061
:100E500049F8F860BB681946F86800F003F800F03C
:100E6000C7F8F1E780B584B000AF7860396000F072
:100E700011FB07F10803184600F058F8F860BB684A
:100E8000002B24D13B68002B0AD17A68FB689A4278
:100E900006D800F00DFBF9687868FFF791FF18E0BD
:100EA0000E4B18687A68FB68D31A3A68194602F044
:100EB00045FA00F0FDFA0346002B0AD1084B4FF02B
:100EC00080521A60BFF34F8FBFF36F8F01E000F0C5
:100ED000EFFA00BF1037BD4680BD00BF680000209C
:100EE00004ED00E080B485B000AF78600E4B1B6865
:100EF0001B68002B0CBF01230023DBB21A467B6862
:100F00001A607B681B68002B05D1074B1B68DB68E8
:100F10001B68FB6001E00023FB60FB681846143788
:100F2000BD465DF8047B70476000002080B584B04A
:100F300000AF786000F050FBF8600B4B1B68FA685C
:100F40009A4205D200F0E6F87B6801221A6002E0BE
:100F50007B6800221A60044AFB681360FB6818462D
:100F60001037BD4680BD00BF6C00002080B586B044
:100F700000AFF860B9607A603B6000237B61FB687A
:100F8000BA685A60FB68FA681A61BA687B689A4264
:100F900012D87A683B68D21AFB689B699A4202D3DE
:100FA00001237B611BE0104B1A68FB680433194670
:100FB000104601F00FFA12E07A683B689A4206D2B6
:100FC000BA683B689A4202D301237B6107E0074B72
:100FD0001A68FB6804331946104601F0FBF97B6977
:100FE00018461837BD4680BD640000206000002010
:100FF00080B58CB002AF7AE0BB68002B77DB3B6931
:101000007B627B6A5B69002B04D07B6A04331846E1
:1010100001F01AFA3B1D1846FFF788FF3862BB68DB
:10102000092B63D801A252F823F000BF5510000825
:101030005510000855100008EF100008AF10000808
:10104000E51000085510000855100008EF100008C2
:10105000AF100008FA687B6A9B69D118FB683A6A8E
:10106000786AFFF783FF0346012B40D17B6A5B6AF6
:10107000786A98477B6ADB69012B38D1FA687B6A0A
:101080009B691A440023009300230021786AFFF72C
:1010900057FEF861FB69002B29D14FF0500383F311
:1010A0001188BFF36F8FBFF34F8F7B61FEE7FA6844
:1010B0007B6A9A617B6A9B69002B09D14FF05003D0
:1010C00083F31188BFF36F8FBFF34F8FBB61FEE7D0
:1010D0007B6A9A693B6AD1183B6A3A6A786AFFF779
:1010E00045FF04E0786A02F02DFD00E000BF084BE8
:1010F000186807F108010023002201F0E7FE03460B
:10110000002B7FF479AF00BF2837BD4680BD00BFFC
:101110006800002080B588B002AF44E02B4B1B680C
:10112000DB681B687B61294B1B68DB68DB683B6104
:101130003B690433184601F087F93B695B6A3869FB
:1011400098473B69DB69012B2DD13B699A697B6923
:101150001344FB60FA687B699A420ED93B69FA68CE
:101160005A603B693A691A61184B1A683B69043343
:101170001946104601F02EF915E0002300930023D4
:101180007A6900213869FFF7DBFDB860BB68002B86
:1011900009D14FF0500383F31188BFF36F8FBFF372
:1011A0004F8F3B60FEE7094B1B681B68002BB5D1D6
:1011B000064B1B687B60064B1B68044A1360044A9D
:1011C0007B68136000BF1837BD4680BD60000020FB
:1011D0006400002080B582B000AF01F029FB1B4BFA
:1011E0001B68002B2BD11A4801F0A2F8194801F016
:1011F0009FF8194B164A1A60184B164A1A600022BB
:101200000C210A2001F08CFC0246104B1A600F4B97
:101210001B68002B09D14FF0500383F31188BFF3F3
:101220006F8FBFF34F8F7B60FEE7084B1B68002B6F
:1012300005D0064B1B680A49184602F057F801F022
:1012400025FB00BF0837BD4680BD00BF68000020F9
:10125000380000204C0000206000002064000020C6
:10126000943F000880B58CB002AFF860B9603B6075
:101270001346FB80FB68002B09D14FF0500383F32A
:101280001188BFF36F8FBFF34F8F3B61FEE73B6B5E
:101290001D2B09D94FF0500383F31188BFF36F8FD3
:1012A000BFF34F8F7B61FEE7FB88B96B184600F0F8
:1012B00065FD38623B6A002B74D03B6A1A6BFB8871
:1012C00003F18043013B9B001344FB61FB6923F066
:1012D0000703FB61FB6903F00703002B09D04FF004
:1012E000500383F31188BFF36F8FBFF34F8FBB6140
:1012F000FEE7FB880093FB6B3A6BB968386A00F035
:1013000037FC3A68F968F86901F094F902463B6ADB
:101310001A607B6B002B02D07B6B3A6A1A6001F07B
:1013200087FA2F4B1B6801332D4A13602D4B1B6826
:10133000002B09D12B4A3B6A1360294B1B68012BF8
:101340000FD100F069FC0CE0274B1B68002B08D183
:10135000244B1B68DA6A3B6B9A4202D8214A3B6AEB
:101360001360224B1B680133204A13603B6ADB6A1F
:1013700001229A401E4B1B6813431D4A13603B6AAF
:10138000DA6A13469B0013449B001A4A1A443B6ACC
:1013900004331946104600F0F9FF01237B6201F087
:1013A00075FA02E04FF0FF337B627B6A012B11D1AB
:1013B0000D4B1B68002B0DD00A4B1B68DA6A3B6B88
:1013C0009A4207D20C4B4FF080521A60BFF34F8FF6
:1013D000BFF36F8F7B6A18462837BD4680BD00BFBC
:1013E0003C03002070000020480300205803002028
:1013F000440300207400002004ED00E080B588B0B4
:1014000004AF0023039300230293002301930023DE
:101410000093002382221A491A48FFF723FFF8603D
:10142000FB68012B02D1FFF757FCF860FB68012B2A
:1014300015D14FF0500383F31188BFF36F8FBFF3C3
:101440004F8F7B60104B4FF0FF321A600F4B012221
:101450001A600F4B00221A6001F05EF90CE0FB6885
:10146000002B09D14FF0500383F31188BFF36F8F26
:10147000BFF34F8FBB60FEE700BF1037BD4680BD96
:101480009C3F0008411B00085C030020480300202B
:101490004003002080B400AF044B1B680133034AB3
:1014A000136000BFBD465DF8047B704760030020F9
:1014B00080B584B000AF0023FB603E4B1B68002B5F
:1014C00009D14FF0500383F31188BFF36F8FBFF33F
:1014D0004F8F7B60FEE701F0ABF9364B1B68013B99
:1014E000344A1360334B1B68002B5BD1324B1B68B3
:1014F000002B57D02EE0314BDB68DB68BB60BB684C
:101500001833184600F0A0FFBB680433184600F0FB
:101510009BFFBB68DB6A01229A40294B1B6813437F
:10152000274A1360BB68DA6A13469B0013449B008A
:10153000244A1A44BB6804331946104600F026FFBB
:10154000BB68DA6A204B1B68DB6A9A4202D31F4BE6
:1015500001221A60194B1B68002BCCD11C4B1B6855
:10156000002B11D00CE000F047F80346002B02D00E
:10157000164B01221A60164B1B68013B144A13607C
:10158000134B1B68002BEED1104B1B68012B09D1AC
:101590000123FB600F4B4FF080521A60BFF34F8F57
:1015A000BFF36F8F01F072F9FB6818461037BD4624
:1015B00080BD00BF600300203C030020FC0200202F
:1015C000440300207400002070000020500300201D
:1015D0004C03002004ED00E080B483B000AF054B65
:1015E0001B687B607B6818460C37BD465DF8047B42
:1015F000704700BF4003002080B586B000AF0023D5
:101600007B61514B1B68002B40F08D804F4B1B685A
:1016100001334E4A13604D4B1B683B613B69002B05
:101620001FD14B4B1B681B68002B09D04FF0500398
:1016300083F31188BFF36F8FBFF34F8F3B60FEE7DB
:10164000434B1B68FB60434B1B68414A1360414A94
:10165000FB681360404B1B6801333F4A136000F086
:10166000C9FB3E4B1B683A699A424DD3384B1B6805
:101670001B68002B01D1012300E00023002B04D0C4
:10168000364B4FF0FF321A603EE0314B1B68DB688F
:10169000DB68BB60BB685B687B603A697B689A42C9
:1016A00003D22E4A7B6813602EE0BB6804331846D1
:1016B00000F0CAFEBB689B6A002B04D0BB681833DD
:1016C000184600F0C1FEBB68DB6A01229A40244B39
:1016D0001B681343224A1360BB68DA6A13469B00F7
:1016E00013449B001F4A1A44BB6804331946104632
:1016F00000F04CFEBB68DA6A1B4B1B68DB6A9A423F
:10170000B4D301237B61B1E7174B1B68DA6A154933
:1017100013469B0013449B000B441B68012B07D905
:1017200001237B6104E0114B1B6801330F4A1360F6
:101730000F4B1B68002B01D001237B617B6918468E
:101740001837BD4680BD00BF600300204003002065
:10175000F4020020F8020020540300205C03002063
:101760004403002074000020700000204C0300207F
:101770005003002080B487B000AF264B1B68002BBD
:1017800003D0254B01221A603EE0234B00221A6051
:10179000224B1B68BB60BB68B3FA83F3FB71FB7918
:1017A000C3F11F033B611E493A6913469B00134472
:1017B0009B000B441B68002B09D14FF0500383F3AF
:1017C0001188BFF36F8FBFF34F8F7B61FEE73A69DC
:1017D00013469B0013449B00114A1344FB60FB68B3
:1017E0005B685A68FB685A60FB685A68FB68083394
:1017F0009A4204D1FB685B685A68FB685A60FB68D0
:101800005B68DB68074A136000BF1C37BD465DF8A4
:10181000047B704760030020500300204403002035
:10182000740000207000002080B584B000AF7860A4
:1018300039607B68002B09D14FF0500383F3118886
:10184000BFF36F8FBFF34F8FBB60FEE7194B1B6871
:1018500018331946786800F0BDFD164B1B68043339
:10186000184600F0F1FD0346002B0BD1114B1B680D
:10187000DB6A012202FA03F3DA430F4B1B681340C1
:101880000D4A13603B68B3F1FF3F07D1094B1B685A
:1018900004331946094800F079FD07E0084B1A683F
:1018A0003B681344FB60F86800F032FA00BF103761
:1018B000BD4680BD700000204403002028030020A6
:1018C0004003002080B586B000AFF860B9607A6050
:1018D000FB68002B09D14FF0500383F31188BFF34D
:1018E0006F8FBFF34F8F3B61FEE7194B1B681833B7
:1018F0001946F86800F04AFD154B1B68043318467A
:1019000000F0A2FD0346002B0BD1114B1B68DB6AD4
:10191000012202FA03F3DA430E4B1B6813400D4A0F
:1019200013607B68012B07D1094B1B6804331946F0
:10193000094800F02BFD07E0084B1A68BB68134408
:101940007B61786900F0E4F900BF1837BD4680BDBF
:1019500070000020440300202803002040030020E2
:1019600080B586B000AF78607B68DB68DB683B6180
:101970003B69002B09D14FF0500383F31188BFF36B
:101980006F8FBFF34F8FFB60FEE73B69183318463C
:1019900000F05AFD1D4B1B68002B1CD13B69043322
:1019A000184600F051FD3B69DB6A01229A40184B52
:1019B0001B681343164A13603B69DA6A13469B009F
:1019C00013449B00134A1A443B69043319461046DA
:1019D00000F0DCFC05E03B69183319460E4800F0C6
:1019E000D5FC3B69DA6A0D4B1B68DB6A9A4205D964
:1019F00001237B610A4B01221A6001E000237B6115
:101A00007B6918461837BD4680BD00BF60030020C3
:101A10004403002074000020FC020020700000201D
:101A20005003002080B485B000AF78607B68002B45
:101A300009D14FF0500383F31188BFF36F8FBFF3C9
:101A40004F8FFB60FEE7074B1A687B681A60064BF6
:101A50001A687B685A6000BF1437BD465DF8047B86
:101A6000704700BF540300204003002080B586B0BB
:101A700000AF786039607B68002B09D14FF05003CC
:101A800083F31188BFF36F8FBFF34F8FBB60FEE707
:101A90003B68002B09D14FF0500383F31188BFF34B
:101AA0006F8FBFF34F8FFB60FEE700F0C1FE1C4B52
:101AB0001B683B613B681B68B3F1FF3F02D1002309
:101AC0007B6126E07B681A68164B1B689A4207D038
:101AD0007B685A683B699A4202D801237B6118E00F
:101AE0007B685B683A69D21A3B681B689A420ED2DF
:101AF0003B681A687B6859683B69CB1A1A443B6893
:101B00001A607868FFF78EFF00237B6101E00123F4
:101B10007B6100F0BBFE7B6918461837BD4680BD6F
:101B2000400300205403002080B400AF034B012287
:101B30001A6000BFBD465DF8047B7047500300206B
:101B400080B582B000AF786000F0A6F8064B1B6845
:101B5000012BF9D9054B4FF080521A60BFF34F8F1C
:101B6000BFF36F8FF0E700BF7400002004ED00E0CA
:101B700080B586B000AFF860B9607A603B60002342
:101B80007B6112E0BA687B6913441978FA687B6953
:101B9000134434330A461A70BA687B6913441B78BD
:101BA000002B06D07B6901337B617B69092BE9D966
:101BB00000E000BFFB68002283F83D207B681D2BFE
:101BC00001D91D237B60FB687A68DA62FB687A685A
:101BD0001A64FB6800225A64FB680433184600F05C
:101BE000C7FBFB681833184600F0C2FBFB68FA68B5
:101BF0001A617B68C3F11E02FB689A61FB68FA6890
:101C00005A62FB6800229A64FB68002283F84C2029
:101C100000BF1837BD4680BD80B582B000AF00233D
:101C20007B600CE07A6813469B0013449B00124AC9
:101C30001344184600F07CFB7B6801337B607B68B3
:101C40001D2BEFD90D4800F073FB0D4800F070FB21
:101C50000C4800F06DFB0C4800F06AFB0B4800F0EC
:101C600067FB0B4B054A1A600A4B054A1A6000BF16
:101C70000837BD4680BD00BF74000020CC020020A4
:101C8000E0020020FC0200201003002028030020B6
:101C9000F4020020F802002080B582B000AF28E0F6
:101CA000FFF7F8FB174B1B68002B0CBF0123002329
:101CB000DBB27B60FFF7FCFB7B68002B19D100F0E7
:101CC000B7FD104BDB68DB683B603B6804331846AC
:101CD00000F0BAFB0C4B1B68013B0B4A13600B4B2B
:101CE0001B68013B094A136000F0D0FD386800F022
:101CF00071F8064B1B68002BD2D100BF0837BD46D8
:101D000080BD00BF100300203C03002024030020FE
:101D100080B582B000AF7860134B1B687A685A6058
:101D2000124B1B687A689A4209D2114B1A680E4B03
:101D30001B6804331946104600F04CFB10E00D4BB5
:101D40001A68094B1B6804331946104600F042FB21
:101D5000094B1B687A689A4202D2074A7B68136073
:101D600000BF0837BD4680BD700000204003002042
:101D7000F8020020F40200205C03002080B584B04B
:101D800000AF03463960FB803B68002B06D1FB881F
:101D90009B00184601F090FE034600E03B68BB60E4
:101DA000BB68002B0ED0502001F086FEF860FB6867
:101DB000002B03D0FB68BA681A6305E0B86801F02D
:101DC000C1FE01E00023FB60FB6818461037BD46EA
:101DD00080BD00BF80B582B000AF78607B681B6BB0
:101DE000184601F0AFFE786801F0ACFE00BF08377E
:101DF000BD4680BD80B483B000AF0F4B1B681B682D
:101E0000002B01D1012300E00023002B04D00B4B59
:101E10004FF0FF321A6008E0074B1B68DB68DB6895
:101E20007B607B685B68054A136000BF0C37BD466A
:101E30005DF8047B704700BFF40200205C030020C3
:101E400080B483B000AF0B4B1B68002B02D1012381
:101E50007B6008E0084B1B68002B02D102237B60EB
:101E600001E000237B607B6818460C37BD465DF8B7
:101E7000047B7047480300206003002080B584B0D5
:101E800000AF78607B68FB607B68002B62D0FB68EA
:101E9000DA6A324B1B68DB6A9A425BD2FB689B6949
:101EA000002B06DB2D4B1B68DB6AC3F11E02FB68AF
:101EB0009A61FB685969FB68DA6A13469B00134410
:101EC0009B00274A1344994201D1012300E00023DB
:101ED000002B3AD0FB680433184600F0B5FA0346ED
:101EE000002B15D1FB68DA6A1D4913469B00134489
:101EF0009B000B441B68002B0AD1FB68DB6A0122A4
:101F000002FA03F3DA43174B1B681340154A1360B8
:101F1000124B1B68DA6AFB68DA62FB68DB6A012233
:101F20009A40104B1B6813430E4A1360FB68DA6A31
:101F300013469B0013449B00094A1A44FB68043370
:101F40001946104600F022FA04E0044B1B68DA6AD6
:101F5000FB68DA6200BF1037BD4680BD700000200C
:101F6000740000204403002080B586B000AF786084
:101F70007B683B6100237B617B68002B6CD0394B15
:101F80001B683A699A4209D04FF0500383F31188D5
:101F9000BFF36F8FBFF34F8FBB60FEE73B695B6C96
:101FA000002B09D14FF0500383F31188BFF36F8FDB
:101FB000BFF34F8FFB60FEE73B695B6C5A1E3B69CA
:101FC0005A643B69DA6A3B691B6C9A4244D03B69AC
:101FD0005B6C002B40D13B690433184600F034FAA7
:101FE0000346002B15D13B69DA6A1F4913469B0053
:101FF00013449B000B441B68002B0AD13B69DB6A2E
:10200000012202FA03F3DA43184B1B681340174A04
:1020100013603B691A6C3B69DA623B69DB6AC3F1A6
:102020001E023B699A613B69DB6A01229A400F4BB1
:102030001B6813430D4A13603B69DA6A13469B0021
:1020400013449B00084A1A443B690433194610465E
:1020500000F09CF901237B617B6918461837BD4667
:1020600080BD00BF700000207400002044030020E9
:1020700080B400AF074B1B68002B04D0054B1B68D6
:102080005A6C01325A64034B1B681846BD465DF812
:10209000047B70477000002080B586B000AF01213E
:1020A0004FF48040FEF7D8FD01210120FEF794FD9A
:1020B00001233B6100233B7502237B750223FB75E3
:1020C00007F1100319460C4800F040F800210020E9
:1020D000FEF76CF80123BB6000233B7310237B7376
:1020E0000123BB7307F10803184601F049FC00BF48
:1020F0001837BD4680BD00BF0000024080B584B0E7
:1021000000AF01210120FEF787FD0023BB800023E3
:10211000FB8040F24733BB600023BB810023BB73CD
:102120003B1D19464FF0804001F052FD0122012174
:102130004FF0804001F0D8FD00214FF0804001F0C9
:10214000B3FD00BF1037BD4680BD00BF80B487B06F
:1021500000AF7860396000237B6100233B6100237E
:10216000FB6000237B6176E001227B6902FA03F3C6
:102170003B613B681A683B691340FB60FA683B6946
:102180009A4265D17B681A687B695B00032101FA7A
:1021900003F3DB431A407B681A607B681A683B686C
:1021A0001B7919467B695B0001FA03F31A437B68CC
:1021B0001A603B681B79012B03D03B681B79022B0B
:1021C0002ED17B689A687B695B00032101FA03F3D7
:1021D000DB431A407B689A607B689A683B685B794E
:1021E00019467B695B0001FA03F31A437B689A6026
:1021F0007B685A687B699BB2012101FA03F3DB43D8
:102200001A407B685A607B685A683B689B7919461C
:102210007B699BB201FA03F39BB21A437B685A6055
:102220007B68DA687B699BB25B00032101FA03F3E8
:10223000DB431A407B68DA607B68DA683B68DB79ED
:1022400019467B695B0001FA03F31A437B68DA6085
:102250007B6901337B617B690F2B85D900BF1C37FC
:10226000BD465DF8047B704780B485B000AF7860F0
:102270000B467B800023FB737B681A697B881340C5
:10228000002B02D00123FB7301E00023FB73FB7BD7
:1022900018461437BD465DF8047B704780B485B09E
:1022A00000AF78600B467B8013467B700023FB6099
:1022B0000023BB607A787B8803F007039B0002FA57
:1022C00003F3FB607B88DB089BB218467B88DB0846
:1022D0009BB21A467B68083253F822207B8803F0B1
:1022E00007039B000F2101FA03F3DB4302EA03011A
:1022F0007B6800F1080243F822107B88DB089BB260
:102300001A467B68083253F82220FB681343BB60EF
:102310007B88DB089BB21A467B680832B96843F8B1
:10232000221000BF1437BD465DF8047B704700BF24
:1023300080B483B000AF78607B6803F108027B68EB
:102340005A607B684FF0FF329A607B6803F10802A5
:102350007B68DA607B6803F108027B681A617B683E
:1023600000221A6000BF0C37BD465DF8047B704741
:1023700080B483B000AF78607B6800221A6100BF30
:102380000C37BD465DF8047B704700BF80B485B054
:1023900000AF786039607B685B68FB603B68FA6817
:1023A0005A60FB689A683B689A60FB689B683A6869
:1023B0005A60FB683A689A603B687A681A617B6881
:1023C0001B685A1C7B681A6000BF1437BD465DF855
:1023D000047B704780B485B000AF786039603B689B
:1023E0001B68BB60BB68B3F1FF3F03D17B681B690F
:1023F000FB600CE07B680833FB6002E0FB685B6815
:10240000FB60FB685B681A68BB689A42F6D9FB6898
:102410005A683B685A603B685B683A689A603B68F8
:10242000FA689A60FB683A685A603B687A681A6191
:102430007B681B685A1C7B681A6000BF1437BD4656
:102440005DF8047B704700BF80B485B000AF786052
:102450007B681B69FB607B685B687A6892689A603E
:102460007B689B687A6852685A60FB685A687B6828
:102470009A4203D17B689A68FB685A607B680022A5
:102480001A61FB681B685A1EFB681A60FB681B68B0
:1024900018461437BD465DF8047B704780B500AF21
:1024A000164A164BD3F8883043F47003C2F88830CC
:1024B000134A134B1B6843F001031360104B0022B7
:1024C0009A600F4A0E4B1B6823F0847323F4803309
:1024D00013600B4B0B4A5A60094A094B1B6823F4E3
:1024E00080231360064B0022DA6000F00DF8034BE6
:1024F0004FF000629A6000BF80BD00BF00ED00E0B9
:10250000003802401030002480B483B000AF0023B4
:102510007B6000233B60434A424B1B6843F480339B
:102520001360404B1B6803F400333B607B6801334E
:102530007B603B68002B03D17B68B3F5A04FF0D1E3
:10254000384B1B6803F40033002B02D001233B609F
:1025500001E000233B603B68012B02D1314B324A42
:102560005A60304A2F4B1B6C43F0805313642F4A40
:102570002E4B1B6843F4404313602A4A294B9B6847
:102580009360284A274B9B6843F400439360254A95
:10259000244B9B6843F4A0539360224A214B1B6851
:1025A00043F08073136000BF1E4B1B6803F0007381
:1025B000002BF9D01D4A1D4B1B6843F48033136078
:1025C00000BF1A4B5B6803F48033002BF9D0174A25
:1025D000164B1B6843F40033136000BF134B5B685A
:1025E00003F40033002BF9D0114B40F205721A604E
:1025F0000C4A0C4B9B6823F003039360094A094B78
:102600009B6843F00203936000BF064B9B6803F096
:102610000C03082BF9D100BF0C37BD465DF8047BD5
:10262000704700BF00380240085A40070070004061
:10263000003C024080B485B000AFF860B9607A60B9
:10264000FB68043BFB60FB684FF080721A60FB681C
:10265000043BFB60BA68FB681A60FB68043BFB60E4
:102660000C4AFB681A60FB68143BFB607A68FB68E5
:102670001A60FB68043BFB60FB686FF002021A60A3
:10268000FB68203BFB60FB6818461437BD465DF8CD
:10269000047B70479926000880B483B000AF0C4BD0
:1026A0001B68B3F1FF3F09D04FF0500383F311884B
:1026B000BFF36F8FBFF34F8F3B60FEE74FF05003C8
:1026C00083F31188BFF36F8FBFF34F8F7B60FEE7FB
:1026D00028000020064B19680868B0E8F04F80F326
:1026E0000988BFF36F8F4FF0000080F311887047A7
:1026F0007000002000BF00BF06480068006880F33B
:10270000088862B661B6BFF34F8FBFF36F8F00DFEB
:1027100000BF00BF08ED00E080B586B000AF3B4BC6
:102720001B683B4A934209D14FF0500383F3118851
:10273000BFF36F8FBFF34F8FFB60FEE7334B1B6818
:10274000344A934209D14FF0500383F31188BFF309
:102750006F8FBFF34F8F3B61FEE72F4B7B617B6930
:102760001B78DBB2BB607B69FF221A707B691B7828
:10277000DBB2FB71FB79DBB203F05003DAB2274B1B
:102780001A70274B07221A6009E0254B1B68013B92
:10279000234A1360FB79DBB25B00DBB2FB71FB7990
:1027A000DBB25BB2002BF0DB1D4B1B681B021C4A2B
:1027B00013601B4B1B6803F4E063194A1360BB688A
:1027C000DAB27B691A70174A164B1B6843F4700320
:1027D0001360144A134B1B6843F07043136000F0FE
:1027E000D3F8114B00221A6000F0EAF80F4A0F4BA1
:1027F0001B6843F040431360FFF77EFFFFF74CFF79
:10280000002318461837BD4680BD00BF00ED00E02C
:1028100071C20F4170C20F4100E400E06403002068
:102820006803002020ED00E02800002034EF00E0E5
:1028300080B483B000AF4FF0500383F31188BFF32F
:102840006F8FBFF34F8F3B600E4B1B6801330D4AF8
:1028500013600C4B1B68012B0ED10B4B1B68DBB2BA
:10286000002B09D04FF0500383F31188BFF36F8F13
:10287000BFF34F8F7B60FEE700BF0C37BD465DF8AE
:10288000047B70472800002004ED00E080B483B092
:1028900000AF114B1B68002B09D14FF0500383F39D
:1028A0001188BFF36F8FBFF34F8F3B60FEE70A4B7A
:1028B0001B68013B084A1360074B1B68002B04D1BF
:1028C00000237B607B6883F3118800BF0C37BD4613
:1028D0005DF8047B704700BF28000020EFF30980FB
:1028E000BFF36F8F144B1A681EF0100F08BF20ED56
:1028F000108A20E9F04F10604DF8043D4FF0500071
:1029000080F31188BFF34F8FBFF36F8FFEF732FF55
:102910004FF0000080F3118808BC19680868B0E81F
:10292000F04F1EF0100F08BFB0EC108A80F309883A
:10293000BFF36F8F704700BF7000002000BF00BF63
:1029400080B584B000AFEFF311824FF0500383F3F2
:102950001188BFF36F8FBFF34F8FBA607B60FEF7B4
:102960004BFE0346002B03D0064B4FF080521A60FB
:102970000023FB60FB6883F3118800BF1037BD465E
:1029800080BD00BF04ED00E080B400AF084A094BF1
:102990001B680949A1FB03139B09013B1360074B0B
:1029A00007221A6000BFBD465DF8047B704700BF78
:1029B00014E000E014000020D34D621010E000E0AD
:1029C000DFF80C00016841F470010160704700BF3E
:1029D00088ED00E080B485B000AFEFF30583FB60C5
:1029E000FB680F2B13D9164AFB6813441B78FB7244
:1029F000144B1B78FA7A9A4209D24FF0500383F3B2
:102A00001188BFF36F8FBFF34F8F3B60FEE70E4B14
:102A10001B6803F4E0620D4B1B689A4209D94FF022
:102A2000500383F31188BFF36F8FBFF34F8F7B6029
:102A3000FEE700BF1437BD465DF8047B704700BF5A
:102A4000F0E300E0640300200CED00E068030020E8
:102A500080B584B000AF786039607B68FB60FB684C
:102A6000002B09D14FF0500383F31188BFF36F8F10
:102A7000BFF34F8FBB60FEE7FFF7DAFEFB681A6813
:102A8000FB68DB6BF968096C01FB03F31A44FB6814
:102A90005A60FB6800229A63FB681A68FB689A60B8
:102AA000FB681A68FB68DB6B013BF968096C01FB8A
:102AB00003F31A44FB68DA60FB684FF0FF325A6494
:102AC000FB684FF0FF329A643B68002B14D1FB681F
:102AD0001B69002B1AD0FB6810331846FEF740FF25
:102AE0000346012B12D10D4B4FF080521A60BFF3F9
:102AF0004F8FBFF36F8F09E0FB6810331846FFF765
:102B000017FCFB6824331846FFF712FCFFF7BEFEE4
:102B1000012318461037BD4680BD00BF04ED00E01C
:102B200080B58AB000AFF860B9601346FB7100232E
:102B30003B62FB68002B09D14FF0500383F31188EF
:102B4000BFF36F8FBFF34F8F7B61FEE7BB68002B36
:102B500002D100237B6205E0FB68BA6802FB03F345
:102B600001337B627B6A4C33184600F0A5FFF861A5
:102B7000FB69002B17D0BB68002B03D1FB69FA69F6
:102B80001A6004E0FB6903F14C02FB691A60FB69FF
:102B9000FA68DA63FB69BA681A640121F869FFF719
:102BA00057FFFB693B623B6A002B09D14FF0500392
:102BB00083F31188BFF36F8FBFF34F8FBB61FEE7C5
:102BC0003B6A18462837BD4680BD00BF80B58EB031
:102BD00000AFF860B9607A603B6000237B63FB68FC
:102BE0003B633B6B002B09D14FF0500383F31188FB
:102BF000BFF36F8FBFF34F8FFB61FEE7BB68002B06
:102C000003D13B6B1B6C002B01D1012300E000239F
:102C1000002B09D14FF0500383F31188BFF36F8F5E
:102C2000BFF34F8F3B62FEE73B68022B03D13B6B48
:102C3000DB6B012B01D1012300E00023002B09D124
:102C40004FF0500383F31188BFF36F8FBFF34F8FA3
:102C50007B62FEE7FFF7F4F80346002B02D17B68A6
:102C6000002B01D1012300E00023002B09D14FF0FC
:102C7000500383F31188BFF36F8FBFF34F8FBB6295
:102C8000FEE7FFF7D5FD3B6B9A6B3B6BDB6B9A4224
:102C900002D33B68022B29D13A68B968386B00F03F
:102CA00019FAF8623B6B5B6A002B10D03B6B243344
:102CB0001846FEF755FE0346012B13D13C4B4FF04F
:102CC00080521A60BFF34F8FBFF36F8F0AE0FB6A29
:102CD000002B07D0364B4FF080521A60BFF34F8F56
:102CE000BFF36F8FFFF7D2FD01235CE07B68002B01
:102CF00003D1FFF7CBFD002355E07B6B002B06D102
:102D000007F114031846FEF78DFE01237B63FFF7DE
:102D1000BDFDFEF7BFFBFFF78BFD3B6B5B6CB3F1BB
:102D2000FF3F02D13B6B00225A643B6B9B6CB3F1BB
:102D3000FF3F02D13B6B00229A64FFF7A7FD3A1DCB
:102D400007F1140311461846FEF790FE0346002BC8
:102D500023D1386B00F0B2FA0346002B17D03B6B3F
:102D600010337A6811461846FEF75EFD386B00F0A6
:102D700043FAFEF79DFB0346002B82D10C4B4FF02C
:102D800080521A60BFF34F8FBFF36F8F79E7386BB4
:102D900000F032FAFEF78CFB73E7386B00F02CFA88
:102DA000FEF786FB002318463837BD4680BD00BFBE
:102DB00004ED00E080B58EB000AFF860B9607A60D5
:102DC0003B60FB683B633B6B002B09D14FF050032A
:102DD00083F31188BFF36F8FBFF34F8FBB61FEE7A3
:102DE000BB68002B03D13B6B1B6C002B01D1012373
:102DF00000E00023002B09D14FF0500383F311882A
:102E0000BFF36F8FBFF34F8FFB61FEE73B68022B71
:102E100003D13B6BDB6B012B01D1012300E00023CD
:102E2000002B09D14FF0500383F31188BFF36F8F4C
:102E3000BFF34F8F3B62FEE7FFF7CCFDEFF311824C
:102E40004FF0500383F31188BFF36F8FBFF34F8FA1
:102E50007A627B617B6ABB623B6B9A6B3B6BDB6B21
:102E60009A4202D33B68022B24D13A68B968386B86
:102E700000F030F93B6B9B6CB3F1FF3F12D13B6B21
:102E80005B6A002B13D03B6B24331846FEF768FDBA
:102E90000346002B0BD07B68002B08D07B680122F7
:102EA0001A6004E03B6B9B6C5A1C3B6B9A640123D9
:102EB0007B6301E000237B63BB6AFB62FB6A83F3F5
:102EC00011887B6B18463837BD4680BD80B58CB005
:102ED00000AFF860B9607A603B600023FB62FB687A
:102EE000BB62BB6A002B09D14FF0500383F31188FA
:102EF000BFF36F8FBFF34F8FBB61FEE7BB68002B43
:102F000003D1BB6A1B6C002B01D1012300E000231D
:102F1000002B09D14FF0500383F31188BFF36F8F5B
:102F2000BFF34F8FFB61FEE7FEF78AFF0346002BDE
:102F300002D17B68002B01D1012300E00023002B8C
:102F400009D14FF0500383F31188BFF36F8FBFF3A4
:102F50004F8F3B62FEE7FFF76BFCBB6A9B6B002B5E
:102F600047D0BB6ADB687B62B968B86A00F01EF9BB
:102F70003B68002B22D1BB6A9B6B5A1EBB6A9A63CB
:102F8000BB6A1B68002B04D1FFF772F80246BB6ACC
:102F90005A60BB6A1B69002B27D0BB6A10331846E6
:102FA000FEF7DEFC0346012B1FD1494B4FF0805248
:102FB0001A60BFF34F8FBFF36F8F16E0BB6A7A6A58
:102FC000DA60BB6A5B6A002B0FD0BB6A24331846F9
:102FD000FEF7C6FC0346002B07D03D4B4FF0805256
:102FE0001A60BFF34F8FBFF36F8FFFF74FFC0123C2
:102FF0006AE07B68002B03D1FFF748FC002363E005
:10300000FB6A002B06D107F110031846FEF70AFDF4
:103010000123FB62FFF73AFCFEF73CFAFFF708FCDE
:10302000BB6A5B6CB3F1FF3F02D1BB6A00225A64FA
:10303000BB6A9B6CB3F1FF3F02D1BB6A00229A646A
:10304000FFF724FC3A1D07F1100311461846FEF75E
:103050000DFD0346002B31D1B86A00F019F9034683
:10306000002B25D0BB6A1B68002B08D1FFF7E0FBC3
:10307000BB6A5B681846FEF701FFFFF707FCBB6AF7
:1030800024337A6811461846FEF7CEFBB86A00F082
:10309000B3F8FEF70DFA0346002B7FF45CAF0C4B40
:1030A0004FF080521A60BFF34F8FBFF36F8F52E71C
:1030B000B86A00F0A1F8FEF7FBF94CE7B86A00F037
:1030C0009BF8FEF7F5F9002318463037BD4680BD62
:1030D00004ED00E080B586B000AFF860B9607A60BA
:1030E00000237B61FB681B6C002B0DD1FB681B6808
:1030F000002B50D1FB685B681846FEF735FF7861FE
:10310000FB6800225A6046E07B68002B19D1FB68FF
:103110009868FB681B6C1A46B96800F045FEFB68AE
:103120009A68FB681B6C1A44FB689A60FB689A6893
:10313000FB685B689A422ED3FB681A68FB689A604A
:1031400029E0FB68D868FB681B6C1A46B96800F078
:103150002BFEFB68DA68FB681B6C5B421A44FB6859
:10316000DA60FB68DA68FB681B689A4207D2FB6882
:103170005A68FB681B6C5B421A44FB68DA607B6828
:10318000022B08D1FB689B6B002B04D0FB689B6B68
:103190005A1EFB689A63FB689B6B5A1CFB689A6318
:1031A0007B6918461837BD4680BD00BF80B582B028
:1031B00000AF786039607B681B6C002B18D07B688F
:1031C000DA687B681B6C1A447B68DA607B68DA68B3
:1031D0007B685B689A4203D37B681A687B68DA6015
:1031E0007B68D9687B681B6C1A46386800F0DCFD88
:1031F00000BF0837BD4680BD80B582B000AF7860A3
:10320000FFF716FB12E07B685B6A002B13D07B682C
:1032100024331846FEF7A4FB0346002B01D0FEF72B
:1032200083FC7B689B6C5A1E7B689A647B689B6CF2
:10323000002BE8DC00E000BF7B684FF0FF329A64AF
:10324000FFF724FBFFF7F4FA12E07B681B69002B01
:1032500013D07B6810331846FEF782FB0346002B21
:1032600001D0FEF761FC7B685B6C5A1E7B685A6478
:103270007B685B6C002BE8DC00E000BF7B684FF0F4
:10328000FF325A64FFF702FB00BF0837BD4680BD1E
:1032900080B584B000AF7860FFF7CAFA7B689B6B9B
:1032A000002B02D10123FB6001E00023FB60FFF74C
:1032B000EDFAFB6818461037BD4680BD80B584B076
:1032C00000AF7860FFF7B4FA7B689A6B7B68DB6BC2
:1032D0009A4202D10123FB6001E00023FB60FFF76B
:1032E000D5FAFB6818461037BD4680BD80B485B05E
:1032F00000AF786039600023FB6014E00E4AFB6881
:1033000052F83330002B0BD10B49FB683A6841F877
:103310003320094AFB68DB0013447A685A6005E0F1
:10332000FB680133FB60FB68072BE7D900BF14374C
:10333000BD465DF8047B7047802F012080B586B0C4
:1033400000AFF860B9607A60FB687B61FFF770FAE4
:103350007B695B6CB3F1FF3F02D17B6900225A6449
:103360007B699B6CB3F1FF3F02D17B6900229A64B9
:10337000FFF78CFA7B699B6B002B06D17B692433AA
:103380007A68B9681846FEF79DFA7869FFF734FF46
:1033900000BF1837BD4680BD002103E00A4B5B58D3
:1033A0004350043109480A4B42189A42F6D3094A5D
:1033B00002E0002342F8043B074B9A42F9D3FFF79F
:1033C0006DF8FDF7B1FA7047C53F00080000002016
:1033D0003800002038000020C02F0120FEE7000048
:1033E00080B582B000AF78607B68174A93420AD1FB
:1033F00001214FF40010FDF74FFC00214FF40010A5
:10340000FDF74AFC1CE07B68104A93420AD1012177
:103410004FF48000FDF740FC00214FF48000FDF7E1
:103420003BFC0DE07B680A4A934209D101214FF42D
:103430000000FDF731FC00214FF40000FDF72CFCEB
:1034400000BF0837BD4680BD005400400058004012
:10345000005C004080B58AB000AF7860396000231E
:10346000FB8400237B840423BB84574BFB617B6874
:103470009B88FB84FB8C23F03F03FB8407F10C0348
:103480001846FDF7FFFA7B69FB61FB694F4AA2FB17
:1034900003239B0C7B84FA8C7B8C1343FB847B681B
:1034A000FA8C9A807B681B889BB223F001039AB246
:1034B0007B681A800023FB843B681B68444A934264
:1034C00015D83B681B685B00FA69B2FBF3F3BB8459
:1034D000BB8C032B01D80423BB84FA8CBB8C134315
:1034E000FB847B8C01339AB27B681A8440E03B6892
:1034F000DB884BF6FF72934209D13B681A6813468A
:103500005B001344FA69B2FBF3F3BB840EE03B6843
:103510001A6813469B0013449A001344FA69B2FBDD
:10352000F3F3BB84BB8C43F48043BB84BB8CC3F3F9
:103530000B03002B03D1BB8C43F00103BB84BA8C7B
:10354000FB8C13439BB26FEA43436FEA5343FB8404
:103550007B8C4FF4967202FB03F31E4A82FB03122C
:103560009211DB17D31A9BB201339AB27B681A848B
:103570007B68FA8C9A837B681B889BB243F00103BB
:103580009AB27B681A807B681B88FB84FB8C23F4CF
:10359000816323F00203FB843B689A883B685B8964
:1035A00013439AB2FB8C1343FB847B68FA8C1A801A
:1035B0003B689A893B681B8913439AB27B681A81DE
:1035C00000BF2837BD4680BD00127A0083DE1B4352
:1035D000A0860100D34D621080B483B000AF786044
:1035E0000B46FB70FB78002B08D07B681B889BB2D6
:1035F00043F001039AB27B681A8007E07B681B885E
:103600009BB223F001039AB27B681A8000BF0C378B
:10361000BD465DF8047B704780B483B000AF78602E
:103620000B46FB70FB78002B08D07B681B889BB295
:1036300043F480739AB27B681A8007E07B681B882A
:103640009BB223F480739AB27B681A8000BF0C3758
:10365000BD465DF8047B704780B483B000AF7860EE
:103660000B46FB70FB78002B08D07B681B889BB255
:1036700043F400739AB27B681A8007E07B681B886A
:103680009BB223F400739AB27B681A8000BF0C3798
:10369000BD465DF8047B704780B483B000AF7860AE
:1036A0000B46FB701346BB70BB78002B04D0FB7835
:1036B00043F00103FB7003E0FB7823F00103FB7090
:1036C000FB789AB27B681A8200BF0C37BD465DF862
:1036D000047B704780B483B000AF78600B46FB700A
:1036E000FB78002B08D07B681B889BB243F4806377
:1036F0009AB27B681A8007E07B681B889BB223F430
:1037000080639AB27B681A8000BF0C37BD465DF8B3
:10371000047B704780B483B000AF78600B46FB70C9
:10372000FB78002B0AD07B681B889BB26FEA43436F
:103730006FEA53439AB27B681A8007E07B681B8864
:103740009BB2C3F30E039AB27B681A8000BF0C379A
:10375000BD465DF8047B704780B483B000AF7860ED
:103760000B46FB70FB789AB27B681A8200BF0C375D
:10377000BD465DF8047B704780B483B000AF7860CD
:103780007B681B8A9BB2DBB218460C37BD465DF8DE
:10379000047B704780B487B000AF78603960002345
:1037A000FB7500233B610023FB607B68FB603B688B
:1037B0001B0F3B613B6823F07F433B603B69002B61
:1037C00003D0FB681433FB6005E03B681B0C3B60D7
:1037D000FB681833FB60FB681A683B681340002BDA
:1037E00002D00123FB7501E00023FB75FB7D184629
:1037F0001C37BD465DF8047B704700BF80B483B0C2
:1038000000AF0346FB71094997F907305B09FA7964
:1038100002F01F02012000FA02F241F8232000BF4B
:103820000C37BD465DF8047B704700BF00E100E047
:1038300080B483B000AF03463960FB7197F907305D
:10384000002B0BDA0D49FB7903F00F03043B3A68B8
:10385000D2B21201D2B20B441A7609E0084997F9A4
:1038600007303A68D2B21201D2B20B4483F8002377
:1038700000BF0C37BD465DF8047B704700ED00E0EB
:1038800000E100E080B5B6B000AF7860002387F8B3
:10389000D730002387F8D63007F11003C02200216B
:1038A000184600F01BFB0023FB73002387F8D5307C
:1038B000002387F8D430002387F8D3304F21062027
:1038C000FFF7B6FF0620FFF799FF4E211C20FFF7F8
:1038D000AFFF1C20FFF792FF274B186807F10F017D
:1038E00000234FF0FF32FFF7F1FA97F8D720FB7B68
:1038F000194697F8D630581C87F8D60001FA03F31A
:10390000D9B207F1D80313440A4603F8C82C97F834
:10391000D530013387F8D530FB7B002B12D197F8D7
:10392000D430013387F8D43097F8D430072BD3D173
:10393000012387F8D330002387F8D630002387F897
:10394000D730C9E7002387F8D43097F8D630082B52
:10395000C2D1002387F8D63097F8D730013387F8E3
:10396000D730064B1B7897F8D7209A42B4D1002362
:1039700087F8D730B0E700BF7C2F0120A13F0008B7
:1039800080B485B000AF78600023FB60344BFB60EF
:103990007B689B79002B4FD03149314B1A687B688B
:1039A0001B68DB4313400B602D492D4B5A687B6825
:1039B0001B68DB4313404B607B681B791A46FB682E
:1039C0001344FB60FB68FA6811687A6812680A435E
:1039D0001A602349224B9A687B681B68DB431340BB
:1039E0008B601F491E4BDA687B681B68DB43134002
:1039F000CB607B685B79102B0ED11949184B9A6804
:103A00007B681B6813438B601549154BDA687B682C
:103A10001B681343CB601DE0114BFB607B685B7937
:103A20001A46FB681344FB60FB68FA6811687A6801
:103A300012680A431A600DE07B681B791A46FB681E
:103A40001344FB60FB68FA6811687A681268D24315
:103A50000A401A6000BF1437BD465DF8047B70470A
:103A6000003C014080B485B000AF78600023FB7358
:103A7000084B5A697B681340002B02D00123FB736B
:103A800001E00023FB73FB7B18461437BD465DF84D
:103A9000047B7047003C014080B483B000AF786085
:103AA000044A7B68536100BF0C37BD465DF8047B58
:103AB000704700BF003C014080B584B000AF786023
:103AC0000023FB607B6803F00703002B04D07B68B6
:103AD00023F0070308337B60FDF7DCFC154B1B6804
:103AE000002B05D1144B23F007031A46114B1A6023
:103AF000124B1A687B681344114A934213D80F4B38
:103B00001A687B681A440D4B1B689A420BD9094B03
:103B10001A680A4B1B681344FB60084B1A687B68E1
:103B20001344064A1360FDF7C3FCFB6818461037C0
:103B3000BD4680BD702F0120740300206C2F012032
:103B4000F72B010080B485B000AF78607B68002B54
:103B500009D04FF0500383F31188BFF36F8FBFF389
:103B60004F8FFB60FEE700BF1437BD465DF8047B56
:103B7000704700BF80B584B000AF0346FB71FB798E
:103B8000104A52F8233001211846FDF725F8FB7939
:103B90000D4A32F81330BB6001233B730023BB7323
:103BA0000123FB7302237B73FB79084A52F823300D
:103BB00007F1080211461846FEF7C8FA00BF103791
:103BC000BD4680BDA83F0008A43F00082C0000208F
:103BD00080B485B000AF786039600023FB817B68DA
:103BE0001B88FB817B68294A934213D07B68284A53
:103BF00093420FD07B68B3F1804F0BD07B68254A8E
:103C0000934207D07B68244A934203D07B68234ABF
:103C1000934208D1FB8923F07003FB813B685A88EB
:103C2000FB891343FB817B681D4A93420CD07B6860
:103C30001C4A934208D0FB8923F44073FB813B6804
:103C40001A89FB891343FB817B68FA891A803B68D8
:103C50005A687B68DA623B681A887B681A857B68D9
:103C60000A4A934203D07B68094A934204D13B68D5
:103C70009B7A9AB27B681A867B6801229A8200BF7F
:103C80001437BD465DF8047B704700BF000001405B
:103C9000000401400004004000080040000C004007
:103CA000001000400014004080B483B000AF786082
:103CB0000B46FB70FB78002B08D07B681B889BB2FF
:103CC00043F001039AB27B681A8007E07B681B8887
:103CD0009BB223F001039AB27B681A8000BF0C37B5
:103CE000BD465DF8047B704780B483B000AF786058
:103CF0000B467B8013467B707B78002B08D07B685B
:103D00009B899AB27B8813439AB27B689A8109E0B7
:103D10007B689B899AB27B88DB439BB213409AB243
:103D20007B689A8100BF0C37BD465DF8047B704705
:103D300080B485B000AF78600B467B800023FB73B6
:103D40000023BB8100237B817B681B8A9AB27B881E
:103D50001340BB817B689B899AB27B8813407B812F
:103D6000BB89002B05D07B89002B02D00123FB737C
:103D700001E00023FB73FB7B18461437BD465DF85A
:103D8000047B704780B483B000AF78600B467B80C3
:103D90007B88DB439AB27B681A8200BF0C37BD4632
:103DA0005DF8047B704700BF844641EA000313F0CE
:103DB00003036DD1403A41D351F8043B40F8043B32
:103DC00051F8043B40F8043B51F8043B40F8043BF5
:103DD00051F8043B40F8043B51F8043B40F8043BE5
:103DE00051F8043B40F8043B51F8043B40F8043BD5
:103DF00051F8043B40F8043B51F8043B40F8043BC5
:103E000051F8043B40F8043B51F8043B40F8043BB4
:103E100051F8043B40F8043B51F8043B40F8043BA4
:103E200051F8043B40F8043B51F8043B40F8043B94
:103E300051F8043B40F8043B403ABDD2303211D334
:103E400051F8043B40F8043B51F8043B40F8043B74
:103E500051F8043B40F8043B51F8043B40F8043B64
:103E6000103AEDD20C3205D351F8043B40F8043B34
:103E7000043AF9D2043208D0D2071CBF11F8013B32
:103E800000F8013B01D30B8803806046704700BFF8
:103E9000082A13D38B078DD010F003038AD0C3F107
:103EA0000403D21ADB071CBF11F8013B00F8013BE9
:103EB00080D331F8023B20F8023B7BE7043AD9D3A8
:103EC000013A11F8013B00F8013BF9D20B7803707D
:103ED0004B7843708B7883706046704770B484076A
:103EE00046D0541E002A41D0CDB2034602E0621EE5
:103EF000E4B3144603F8015B9A07F8D1032C2ED9DA
:103F0000CDB245EA05250F2C45EA054519D903F13F
:103F100010022646103E0F2E42F8105C42F80C5C50
:103F200042F8085C42F8045C02F11002F2D8A4F1F5
:103F3000100222F00F0204F00F041032032C13447D
:103F40000DD91E462246043A032A46F8045BFAD8E5
:103F5000221F22F003020432134404F003042CB1A4
:103F6000C9B21C4403F8011BA342FBD170BC7047CB
:103F700014460346C2E700BF5461736B5F5472611D
:103F80006E736365697665725F525800546D722076
:103F900053766300546D72510000000049444C4553
:103FA00000C0000000200040400000004000000071
:103FB00001000000010000000100000000000000FE
:053FC0000000000006F6
:103FC50000300000000000000102030401020304A8
:103FD500060708090095BA0A000000000000000065
:103FE5000102030406070809AAAAAAAA00180240A2
:083FF500001802400000024028
:0400000508000000EF
:00000001FF
