:020000040800F2
:1000000000000320F93700083D3800083D3800089B
:100010003D3800083D3800083D3800080000000069
:10002000000000000000000000000000352B000868
:100030003D380008000000003D2D0008A12D0008FB
:100040003D3800083D3800083D3800083D380008BC
:100050003D3800083D3800083D3800083D380008AC
:100060003D3800083D3800083D3800083D3800089C
:100070003D3800083D3800083D3800083D3800088C
:100080003D3800083D3800083D3800083D3800087C
:100090003D3800083D3800083D3800081D0D0008B7
:1000A0003D3800083D3800083D3800083D3800085C
:1000B000C50D00083D3800083D3800083D380008EF
:1000C0003D3800083D3800083D3800083D3800083C
:1000D0003D3800083D3800083D3800083D3800082C
:1000E0003D3800083D3800083D3800083D3800081C
:1000F0003D3800083D3800083D3800083D3800080C
:100100003D3800083D3800083D3800083D380008FB
:100110003D3800083D3800083D3800083D380008EB
:100120003D3800083D3800083D3800083D380008DB
:100130003D3800083D3800083D3800083D380008CB
:100140003D3800083D3800083D3800083D380008BB
:100150003D3800083D3800083D3800083D380008AB
:100160003D3800083D3800083D3800083D3800089B
:100170003D3800083D3800083D3800083D3800088B
:100180003D3800083D3800083D3800083D3800087B
:100190003D3800083D3800083D3800083D3800086B
:1001A0003D3800083D3800083D38000890B484B060
:1001B00000AF03460A46FB711346BB710023FB6088
:1001C000BB7903F003039B000F2202FA03F3FB60E9
:1001D0001649BB799B08DBB21846144ABB799B08C9
:1001E000DBB2023352F82320FB68DB431A40831C46
:1001F00041F823200D48BB799B08DBB21C460B4A13
:10020000BB799B08DBB2023352F82320F979BB7922
:1002100003F003039B0001FA03F31A43A31C40F805
:10022000232000BF1037BD4690BC70470038014006
:1002300080B500AF00F0F2F800F036F900F010F8E9
:100240000346002B01D0042308E000F023F801212D
:10025000012000F049F800F06FF80023184680BD37
:1002600080B500AF00F026F803461A4640F61103A9
:100270009A4209D0064B1B68002B03D100F0DCFA30
:10028000034602E0012300E00023184680BD00BFC2
:100290000000002080B500AF0221032000F02EF9FD
:1002A000022000F0FFFA0021032000F027F90023CC
:1002B000184680BD80B582B000AF0023FB800020CF
:1002C00000F0CCF90346FB80FB881B02FB80012079
:1002D00000F0C4F903469AB2FB881343FB80FB8805
:1002E00018460837BD4680BD80B584B000AF0346D0
:1002F0000A46FB711346BB710023FB73042000F018
:10030000ADF90346FB73BB79002B07D0FB79DB43C8
:10031000DAB2FB7B1340DBB2FB7303E0FA7BFB79C1
:100320001343FB73FB7B1946042000F0E7F800231E
:1003300018461037BD4680BD80B500AF01210220B0
:10034000FFF7D2FF4921202000F0D8F8022000F06A
:10035000A9FA0121212000F0D1F800211E2000F08F
:1003600035F89A21412000F0C9F801214A2000F017
:10037000C5F801214B2000F0C1F800214B2000F00E
:10038000BDF80121562000F0B9F80121582000F0F5
:10039000B5F80321402000F0B1F8FF210B2000F058
:1003A000ADF8094B0022DA80074BDA88064B9A80B9
:1003B000054B9A88044B5A80034B5A88024B1A808B
:1003C0000023184680BD00BFA82F012080B584B04F
:1003D00000AF03460A46FB711346BB710023FB7353
:1003E000172000F03BF90346FB73BB79002B04D0C8
:1003F000FA7BFB791343FB7306E0FB79DB43DAB24C
:10040000FB7B1340DBB2FB73FB7B1946172000F02C
:1004100075F8002318461037BD4680BD80B582B000
:1004200000AF01214FF4000000F0E0FD012140F297
:10043000051000F0BBFD01214FF4804000F0F6FDF7
:1004400001214FF4000000F011FE00214FF40000E4
:1004500000F00CFE04220821114802F04FF904229A
:100460000921104802F04AF94FF480733B600223DF
:100470003B7102237B710123BB710023FB713B465F
:100480001946074802F058F84FF400733B603B46AA
:100490001946044802F050F800BF0837BD4680BD39
:1004A000000002400008024080B584B000AF114B4C
:1004B0001B889BB203F00103002B17D10023BB80E4
:1004C0004BF6FF73FB8000233B814FF480637B81FD
:1004D0004FF48043BB81084B3B603B4619460548BF
:1004E00003F0E8F90121034803F0A6FA00BF103732
:1004F000BD4680BD005C0040A086010080B584B090
:1005000000AF03460A46FB711346BB710023FB6034
:1005100001214C4803F0B0FA4B4B4FF440521A60A3
:100520000AE0494B1B685A1E47490A60002B03D159
:1005300000F082F9034680E04449424803F05AFB48
:100540000346002BEDD0002282213E4803F0D4FA6E
:100550003D4B4FF440521A600AE03B4B1B685A1E59
:1005600039490A60002B03D100F066F9034664E0C4
:100570003749344803F03EFB0346002BEDD0314BA6
:100580001B8B314B4FF440521A600AE02E4B1B6814
:100590005A1E2D490A60002B03D100F04DF9034685
:1005A0004BE02C49274803F025FB0346002BEDD0F8
:1005B000FB791946234803F0FFFA234B4FF44052CE
:1005C0001A600AE0204B1B685A1E1F490A60002B64
:1005D00003D100F031F903462FE01E49194803F01A
:1005E00009FB0346002BEDD0BB791946154803F0F3
:1005F000E3FA154B4FF440521A600AE0124B1B68A5
:100600005A1E11490A60002B03D100F015F9034668
:1006100013E010490B4803F0EDFA0346002BEDD030
:100620000D49084803F0E6FA0346002BE6D0012105
:10063000044803F041FAFB68DBB218461037BD46A8
:1006400080BD00BF005C00400000002001000010E1
:1006500002000010800000100400001080B584B07B
:1006600000AF0346FB710023FB7301216B4803F0CD
:1006700003FA6B4B4FF440521A600AE0684B1B6858
:100680005A1E67490A60002B03D100F0D5F80346D3
:10069000C0E06449614803F0ADFA0346002BEDD099
:1006A00000215E4803F046FA002282215B4803F0F5
:1006B00023FA5B4B4FF440521A600AE0584B1B6818
:1006C0005A1E57490A60002B03D100F0B5F80346C3
:1006D000A0E05549514803F08DFA0346002BEDD0B8
:1006E0004E4B1B8B4E4B4FF440521A600AE04C4B62
:1006F0001B685A1E4A490A60002B03D100F09CF87F
:10070000034687E04949454803F074FA0346002B45
:10071000EDD0FB791946414803F04EFA404B4FF4B7
:1007200040521A600AE03E4B1B685A1E3C490A6060
:10073000002B03D100F080F803466BE03B493748BB
:1007400003F058FA0346002BEDD03949334803F043
:1007500051FA0346002BE6D00121304803F08CF912
:100760002F4B4FF440521A600AE02D4B1B685A1E63
:100770002B490A60002B03D100F05EF8034649E0E4
:100780002849264803F036FA0346002BEDD0012213
:100790008221224803F0B0F9214B4FF440521A60F5
:1007A0000AE01F4B1B685A1E1D490A60002B03D12B
:1007B00000F042F803462DE01B49184803F01AFAEE
:1007C0000346002BEDD0154B1B8B154B4FF44052BD
:1007D0001A600AE0124B1B685A1E11490A60002B6E
:1007E00003D100F029F8034614E012490B4803F046
:1007F00001FA0346002BEDD00121084803F05CF913
:10080000064803F0E9F90346FB730121034803F0AE
:1008100091F9FB7B18461037BD4680BD005C004057
:1008200000000020010000100200001080000010F5
:10083000040000104000001080B584B000AF01211A
:10084000164803F039F90121144803F093F9002107
:10085000124803F08FF9FFF7E1FD104802F0F0FFB6
:100860000023BB804BF6FF73FB8000233B814FF4DA
:1008700080637B814FF48043BB81094B3B60012146
:10088000064803F0D9F83B461946044803F012F82D
:10089000002318461037BD4680BD00BF005C0040F5
:1008A000A086010080B485B000AF78600023FB60B3
:1008B0007B68084A02FB03F3FB6002E0FB68013B34
:1008C000FB60FB68002BF9D100BF1437BD465DF813
:1008D000047B7047A086010080B485B000AF7860CB
:1008E0007A6813886FF30A0313807A6853786FF37A
:1008F000C30353707A6853786FF307135370002360
:10090000FB730023FB7307E0FB7B5A1CFA731A4648
:100910007B68134400229A70FB7B072BF4D97A681A
:1009200053896FF30E0353817A68D37A6FF3C71339
:10093000D37200BF1437BD465DF8047B704700BF1B
:1009400080B485B000AF03460A46FB711346BB7105
:100950000023FB73BB79072B09D8FA79BB790121F6
:1009600001FA03F31A40BB7922FA03F3FB73FB7B12
:1009700018461437BD465DF8047B704780B588B0D3
:1009800000AFF8600B467A60FB720023FB77072309
:10099000BB7700237B7700233B770723FB760E236F
:1009A000BB7600237B7600233B760023FB750A236E
:1009B000BB7505237B75FF233B757868FFF78CFFBC
:1009C00036E1FB7FFA6813441B78BA7F114618465C
:1009D000FFF7B6FF0346FB74BB7F002B05D107234F
:1009E000BB77FB7F0133FB7702E0BB7F013BBB772B
:1009F000FB7D052B16D87A7FFB7C9A4203D17B7E48
:100A000001337B760EE07B7E052B09D100237B76BC
:100A1000FB7C012B14BF01230023DBB27B7707E1B2
:100A200001237B7697F91730082B00F2FF8001A293
:100A300052F823F0590A0008710A0008BB0A00089E
:100A4000D90A0008370B0008810B0008C30B000807
:100A5000DB0B0008030C0008FB7C002B05D1FB7DA1
:100A6000DBB20133DBB2FB75E0E0FF23FB75DDE0B9
:100A70007B681B88C3F30A039BB21946FA7C97F97B
:100A8000163002FA03F39BB20B449BB2C3F30A0382
:100A900099B27A68138861F30A03138097F91630C4
:100AA000002B04D1FB7DDBB20133DBB2FB75BB7DD8
:100AB000DBB2013BDBB2BB75B8E0FB7C03F00103AA
:100AC000D9B27A68537861F3C3035370FB7DDBB20C
:100AD0000133DBB2FB75A9E07B7D032B25D87B6856
:100AE0005B78C3F30313DBB21946FA7C97F9153030
:100AF00002FA03F3DBB20B44DBB203F00F03D9B20B
:100B00007A68537861F30713537097F91530002B07
:100B10000BD17B685B78C3F30313DBB2013B3B77FC
:100B2000FB7DDBB20133DBB2FB757B7DDBB2013BCE
:100B3000DBB27B757AE03B7F3A7F79680A44917833
:100B4000F87CFA7E00FA02F2D2B20A44D1B27A6894
:100B500013440A469A70FB7E002B0DD13B7F002B7D
:100B600005D1FB7DDBB20133DBB2FB7504E008236A
:100B7000FB763B7F013B3B77FB7E013BFB7655E001
:100B80007B685B89C3F30E039BB21946FA7CBB7E7C
:100B900002FA03F39BB20B449BB2C3F30E0399B268
:100BA0007A68538961F30E035381BB7E002B04D115
:100BB000FB7DDBB20133DBB2FB75BB7E013BBB7659
:100BC00034E0FB7C012B05D1FB7DDBB20133DBB2D2
:100BD000FB752BE0FF23FB7528E097F91430B3F188
:100BE000FF3F02D1FB7C3B7520E0FB7C012B05D154
:100BF000FB7DDBB20133DBB2FB7517E0FF23FB7536
:100C000014E0FB7C012B0BD13B7E01333B763B7E1A
:100C1000072B0AD1FB7DDBB20133DBB2FB7504E0AD
:100C2000FB7DDBB20133DBB2FB7500BFFB7C7B7766
:100C300097F91730082B05DC97F91730B3F1FF3F10
:100C40007FF4BFAE97F91730092B04D17A68D37AB5
:100C500043F08003D37200BF2037BD4680BD00BF84
:100C600080B485B000AF78607B6803F00703FB6059
:100C70000C4BDB68BB60BA684FF6FF031340BB60E8
:100C8000FB681A02BB68134343F0BF6343F40033AD
:100C9000BB60044ABB68D36000BF1437BD465DF833
:100CA000047B704700ED00E080B584B004AF4FF4E2
:100CB0004070FFF7D5FF002003F018FA012003F081
:100CC00015FAFFF7B5FA01F0D1FB01F00DFC002297
:100CD00001214FF4806002F053F902460B4B1A6079
:100CE0000023039300230293002301930A2300931C
:100CF00000234FF400720649064800F09DFC00F006
:100D000067FD0549242003F0D5FAFEE7B02F012046
:100D1000F0460008E53C00080447000880B582B0B2
:100D200000AF202003F05AF90346002B40D00021E9
:100D30004FF0804003F074FB40211F4801F0A4FCF9
:100D40000346002B04D140211B4801F0B7FC03E00F
:100D50004021194801F0C2FC2021174801F07AFC1B
:100D60000346FB7100233B60202003F051F94FF054
:100D7000804340F6BE02DA6200214FF0804003F06B
:100D800041FB01214FF0804003F04AFB0B4B1868F8
:100D90003A46F91D002302F03DFA3B68002B07D0CC
:100DA000074B4FF080521A60BFF34F8FBFF36F8F26
:100DB00000BF0837BD4680BD00000240B02F0120B3
:100DC00004ED00E080B582B000AF01214FF080401B
:100DD00003F06AFB0346002B33D040211B4801F08F
:100DE00053FC0346002B04D14021184801F066FC57
:100DF00003E04021154801F071FC01214FF08040D3
:100E000003F07CFB2021114801F024FC0346FB7118
:100E100000233B604FF0804340F28F62DA620C4B5C
:100E200018683A46F91D002302F0F4F93B68002BDC
:100E300007D0084B4FF080521A60BFF34F8FBFF3BB
:100E40006F8F00BF0837BD4680BD00BF0000024065
:100E5000B02F012004ED00E080B489B000AF7860CD
:100E60000023BB6100237B610023FB6102233B6104
:100E70000023FB600223BB60484B9B6803F00C031C
:100E8000BB61BB69042B07D0082B09D0002B3FD1D5
:100E90007B68434A1A603FE07B68424A1A603BE045
:100EA0003E4B5B6803F480039B0DFB603B4B5B6830
:100EB00003F03F03BB60FB68002B0DD0394ABB68D1
:100EC000B2FBF3F2354B596847F6C0730B409B09F0
:100ED00003FB02F3FB610CE0314ABB68B2FBF3F2A7
:100EE0002E4B596847F6C0730B409B0903FB02F376
:100EF000FB612A4B5B6803F440331B0C01335B003E
:100F00003B61FA693B69B2FBF3F27B681A6003E06C
:100F10007B68234A1A6000BF204B9B6803F0F003F4
:100F2000BB61BB691B09BB611F4ABB6913441B78CA
:100F3000DBB27B617B681A687B69DA407B685A6048
:100F4000164B9B6803F4E053BB61BB699B0ABB6112
:100F5000154ABB6913441B78DBB27B617B685A6816
:100F60007B69DA407B689A600C4B9B6803F46043B2
:100F7000BB61BB695B0BBB610B4ABB6913441B784C
:100F8000DBB27B617B685A687B69DA407B68DA6038
:100F900000BF2437BD465DF8047B7047003802402F
:100FA0000024F40000127A000400002080B483B012
:100FB00000AF78600B46FB70FB78002B06D00A4927
:100FC000094B1A6B7B6813430B6306E00649064B1B
:100FD0001A6B7B68DB4313400B6300BF0C37BD46C5
:100FE0005DF8047B704700BF0038024080B483B0D6
:100FF00000AF78600B46FB70FB78002B06D00A49E7
:10100000094B1A6C7B6813430B6406E00649064BD8
:101010001A6C7B68DB4313400B6400BF0C37BD4682
:101020005DF8047B704700BF0038024080B483B095
:1010300000AF78600B46FB70FB78002B06D00A49A6
:10104000094B5A6C7B6813434B6406E00649064B18
:101050005A6C7B68DB4313404B6400BF0C37BD46C2
:101060005DF8047B704700BF0038024080B483B055
:1010700000AF78600B46FB70FB78002B06D00A4966
:10108000094B1A6A7B6813430B6206E00649064B5C
:101090001A6A7B68DB4313400B6200BF0C37BD4606
:1010A0005DF8047B704700BF0038024080B586B011
:1010B00004AF00237B6000F077FA134B1B68002B12
:1010C0000FD00023039300230293002301930223F4
:1010D000009300234FF482720C490D4800F0ACFAE3
:1010E00078607B68002B09D14FF0500383F311889F
:1010F000BFF36F8FBFF34F8F3B60FEE77B681846EF
:101100000837BD4680BD00BF90000020144700088E
:101110001512000880B588B000AFF860B9607A6039
:101120003B600023FB611A4B1B68002B2AD0BB6875
:101130003B617B687B61FB68BB61BB68052B18DC8E
:1011400001F068F80346022B09D1114B186807F12A
:1011500010010023BA6A01F069FFF86112E00C4B3C
:10116000186807F110010023002201F05FFFF86109
:1011700008E0074B186807F1100100233A6802F0F5
:1011800049F8F861FB6918462037BD4680BD00BFAD
:101190009000002080B588B002AF786039601C4BA9
:1011A0001B68DB68DB687B617B690433184601F0F0
:1011B0007BFB7B69DB69012B21D17B699A697B68A9
:1011C000D1187B683A68786900F0BAF80346012BB9
:1011D00015D10023009300237A6800217869FFF776
:1011E00099FF38613B69002B09D14FF0500383F31D
:1011F0001188BFF36F8FBFF34F8FFB60FEE77B69F2
:101200005B6A7869984700BF1837BD4680BD00BF4C
:101210008800002080B584B000AF786007F1080333
:10122000184600F049F8F860BB681946F86800F005
:1012300003F800F0C7F8F1E780B584B000AF78603C
:10124000396000F011FB07F10803184600F058F868
:10125000F860BB68002B24D13B68002B0AD17A6868
:10126000FB689A4206D800F00DFBF9687868FFF732
:1012700091FF18E00E4B18687A68FB68D31A3A6839
:10128000194602F08BFA00F0FDFA0346002B0AD152
:10129000084B4FF080521A60BFF34F8FBFF36F8F30
:1012A00001E000F0EFFA00BF1037BD4680BD00BF7F
:1012B0009000002004ED00E080B485B000AF7860BD
:1012C0000E4B1B681B68002B0CBF01230023DBB2F5
:1012D0001A467B681A607B681B68002B05D1074B98
:1012E0001B68DB681B68FB6001E00023FB60FB6898
:1012F00018461437BD465DF8047B7047880000200F
:1013000080B584B000AF786000F050FBF8600B4B04
:101310001B68FA689A4205D200F0E6F87B68012261
:101320001A6002E07B6800221A60044AFB681360BE
:10133000FB6818461037BD4680BD00BF94000020F2
:1013400080B586B000AFF860B9607A603B6000237A
:101350007B61FB68BA685A60FB68FA681A61BA6810
:101360007B689A4212D87A683B68D21AFB689B69FC
:101370009A4202D301237B611BE0104B1A68FB6881
:1013800004331946104601F055FA12E07A683B68BA
:101390009A4206D2BA683B689A4202D301237B6123
:1013A00007E0074B1A68FB6804331946104601F042
:1013B00041FA7B6918461837BD4680BD8C00002075
:1013C0008800002080B58CB002AF7AE0BB68002BAB
:1013D00077DB3B697B627B6A5B69002B04D07B6AAD
:1013E0000433184601F060FA3B1D1846FFF788FFEA
:1013F0003862BB68092B63D801A252F823F000BF02
:10140000291400082914000829140008C31400082E
:1014100083140008B91400082914000829140008CE
:10142000C314000883140008FA687B6A9B69D1180A
:10143000FB683A6A786AFFF783FF0346012B40D1C5
:101440007B6A5B6A786A98477B6ADB69012B38D1D3
:10145000FA687B6A9B691A440023009300230021E9
:10146000786AFFF757FEF861FB69002B29D14FF02E
:10147000500383F31188BFF36F8FBFF34F8F7B61EE
:10148000FEE7FA687B6A9A617B6A9B69002B09D147
:101490004FF0500383F31188BFF36F8FBFF34F8F6B
:1014A000BB61FEE77B6A9A693B6AD1183B6A3A6A7C
:1014B000786AFFF745FF04E0786A02F0FFFD00E07C
:1014C00000BF084B186807F108010023002201F053
:1014D0002DFF0346002B7FF479AF00BF2837BD46B0
:1014E00080BD00BF9000002080B588B002AF44E00E
:1014F0002B4B1B68DB681B687B61294B1B68DB6817
:10150000DB683B613B690433184601F0CDF93B6968
:101510005B6A386998473B69DB69012B2DD13B69D0
:101520009A697B691344FB60FA687B699A420ED919
:101530003B69FA685A603B693A691A61184B1A6844
:101540003B6904331946104601F074F915E0002395
:10155000009300237A6900213869FFF7DBFDB8604A
:10156000BB68002B09D14FF0500383F31188BFF300
:101570006F8FBFF34F8F3B60FEE7094B1B681B6803
:10158000002BB5D1064B1B687B60064B1B68044AD9
:101590001360044A7B68136000BF1837BD4680BDE6
:1015A000880000208C00002080B582B000AF01F0E0
:1015B0006FFB1B4B1B68002B2BD11A4801F0E8F87E
:1015C000194801F0E5F8194B164A1A60184B164AEB
:1015D0001A6000220C210A2001F0D2FC0246104BB6
:1015E0001A600F4B1B68002B09D14FF0500383F397
:1015F0001188BFF36F8FBFF34F8F7B60FEE7084BFF
:101600001B68002B05D0064B1B680A49184602F0E0
:101610009DF801F06BFB00BF0837BD4680BD00BFE1
:10162000900000206000002074000020880000204E
:101630008C0000201C47000880B58CB002AFF86019
:10164000B9603B601346FB80FB68002B09D14FF06B
:10165000500383F31188BFF36F8FBFF34F8F3B614C
:10166000FEE73B6B1D2B09D94FF0500383F3118824
:10167000BFF36F8FBFF34F8F7B61FEE7FB88B96BC2
:10168000184600F065FD38623B6A002B74D03B6A57
:101690001A6BFB8803F18043013B9B001344FB6101
:1016A000FB6923F00703FB61FB6903F00703002BD1
:1016B00009D04FF0500383F31188BFF36F8FBFF34E
:1016C0004F8FBB61FEE7FB880093FB6B3A6BB968F9
:1016D000386A00F037FC3A68F968F86901F0DAF91D
:1016E00002463B6A1A607B6B002B02D07B6B3A6A26
:1016F0001A6001F0CDFA2F4B1B6801332D4A13609D
:101700002D4B1B68002B09D12B4A3B6A1360294BD8
:101710001B68012B0FD100F069FC0CE0274B1B6804
:10172000002B08D1244B1B68DA6A3B6B9A4202D823
:10173000214A3B6A1360224B1B680133204A136025
:101740003B6ADB6A01229A401E4B1B6813431D4A09
:1017500013603B6ADA6A13469B0013449B001A4AE3
:101760001A443B6A04331946104601F03FF801233E
:101770007B6201F0BBFA02E04FF0FF337B627B6AD1
:10178000012B11D10D4B1B68002B0DD00A4B1B6890
:10179000DA6A3B6B9A4207D20C4B4FF080521A60C8
:1017A000BFF34F8FBFF36F8F7B6A18462837BD4654
:1017B00080BD00BF6403002098000020700300205B
:1017C000800300206C0300209C00002004ED00E05A
:1017D00080B588B004AF0023039300230293002355
:1017E000019300230093002382221A491A48FFF72D
:1017F00023FFF860FB68012B02D1FFF757FCF8606C
:10180000FB68012B15D14FF0500383F31188BFF310
:101810006F8FBFF34F8F7B60104B4FF0FF321A601A
:101820000F4B01221A600F4B00221A6001F0A4F93D
:101830000CE0FB68002B09D14FF0500383F31188B3
:10184000BFF36F8FBFF34F8FBB60FEE700BF103752
:10185000BD4680BD24470008151F000884030020F2
:10186000700300206803002080B400AF044B1B68A5
:101870000133034A136000BFBD465DF8047B704727
:101880008803002080B584B000AF0023FB603E4B8E
:101890001B68002B09D14FF0500383F31188BFF36D
:1018A0006F8FBFF34F8F7B60FEE701F0F1F9364B8E
:1018B0001B68013B344A1360334B1B68002B5BD120
:1018C000324B1B68002B57D02EE0314BDB68DB68B6
:1018D000BB60BB681833184600F0E6FFBB680433F2
:1018E000184600F0E1FFBB68DB6A01229A40294BF1
:1018F0001B681343274A1360BB68DA6A13469B00D0
:1019000013449B00244A1A44BB680433194610460A
:1019100000F06CFFBB68DA6A204B1B68DB6A9A42F6
:1019200002D31F4B01221A60194B1B68002BCCD12C
:101930001C4B1B68002B11D00CE000F047F803464D
:10194000002B02D0164B01221A60164B1B68013B7C
:10195000144A1360134B1B68002BEED1104B1B680D
:10196000012B09D10123FB600F4B4FF080521A600D
:10197000BFF34F8FBFF36F8F01F0B8F9FB681846C4
:101980001037BD4680BD00BF8803002064030020DF
:10199000240300206C0300209C00002098000020FD
:1019A000780300207403002004ED00E080B483B0CD
:1019B00000AF054B1B687B607B6818460C37BD4643
:1019C0005DF8047B704700BF6803002080B586B0D7
:1019D00000AF00237B61514B1B68002B40F08D80D2
:1019E0004F4B1B6801334E4A13604D4B1B683B61E4
:1019F0003B69002B1FD14B4B1B681B68002B09D088
:101A00004FF0500383F31188BFF36F8FBFF34F8FF5
:101A10003B60FEE7434B1B68FB60434B1B68414A3E
:101A20001360414AFB681360404B1B6801333F4A17
:101A3000136000F0C9FB3E4B1B683A699A424DD3D4
:101A4000384B1B681B68002B01D1012300E00023E9
:101A5000002B04D0364B4FF0FF321A603EE0314B82
:101A60001B68DB68DB68BB60BB685B687B603A69EE
:101A70007B689A4203D22E4A7B6813602EE0BB68D3
:101A80000433184600F010FFBB689B6A002B04D09B
:101A9000BB681833184600F007FFBB68DB6A0122F9
:101AA0009A40244B1B681343224A1360BB68DA6ACE
:101AB00013469B0013449B001F4A1A44BB6804331F
:101AC0001946104600F092FEBB68DA6A1B4B1B6891
:101AD000DB6A9A42B4D301237B61B1E7174B1B68E1
:101AE000DA6A154913469B0013449B000B441B689C
:101AF000012B07D901237B6104E0114B1B680133E3
:101B00000F4A13600F4B1B68002B01D001237B6130
:101B10007B6918461837BD4680BD00BF880300208A
:101B2000680300201C030020200300207C03002009
:101B3000840300206C0300209C00002098000020FB
:101B4000740300207803002080B487B000AF264BD8
:101B50001B68002B03D0254B01221A603EE0234B6B
:101B600000221A60224B1B68BB60BB68B3FA83F388
:101B7000FB71FB79C3F11F033B611E493A691346B0
:101B80009B0013449B000B441B68002B09D14FF0B2
:101B9000500383F31188BFF36F8FBFF34F8F7B61C7
:101BA000FEE73A6913469B0013449B00114A134415
:101BB000FB60FB685B685A68FB685A60FB685A68A0
:101BC000FB6808339A4204D1FB685B685A68FB687B
:101BD0005A60FB685B68DB68074A136000BF1C370C
:101BE000BD465DF8047B7047880300207803002021
:101BF0006C0300209C0000209800002080B584B079
:101C000000AF786039607B68002B09D14FF050033A
:101C100083F31188BFF36F8FBFF34F8FBB60FEE775
:101C2000194B1B6818331946786800F003FE164BF1
:101C30001B680433184600F037FE0346002B0BD117
:101C4000114B1B68DB6A012202FA03F3DA430F4BE4
:101C50001B6813400D4A13603B68B3F1FF3F07D187
:101C6000094B1B6804331946094800F0BFFD07E023
:101C7000084B1A683B681344FB60F86800F032FABE
:101C800000BF1037BD4680BD980000206C030020C7
:101C9000500300206803002080B586B000AFF860D4
:101CA000B9607A60FB68002B09D14FF0500383F3D1
:101CB0001188BFF36F8FBFF34F8F3B61FEE7194B66
:101CC0001B6818331946F86800F090FD154B1B6827
:101CD0000433184600F0E8FD0346002B0BD1114BEE
:101CE0001B68DB6A012202FA03F3DA430E4B1B681E
:101CF00013400D4A13607B68012B07D1094B1B6809
:101D000004331946094800F071FD07E0084B1A68D2
:101D1000BB6813447B61786900F0E4F900BF1837B1
:101D2000BD4680BD980000206C03002050030020B9
:101D30006803002080B586B000AF78607B68DB6800
:101D4000DB683B613B69002B09D14FF0500383F303
:101D50001188BFF36F8FBFF34F8FFB60FEE73B69C6
:101D60001833184600F0A0FD1D4B1B68002B1CD13A
:101D70003B690433184600F097FD3B69DB6A01229A
:101D80009A40184B1B681343164A13603B69DA6A82
:101D900013469B0013449B00134A1A443B690433C7
:101DA0001946104600F022FD05E03B69183319463C
:101DB0000E4800F01BFD3B69DA6A0D4B1B68DB6ABD
:101DC0009A4205D901237B610A4B01221A6001E086
:101DD00000237B617B6918461837BD4680BD00BF74
:101DE000880300206C0300209C00002024030020B6
:101DF000980000207803002080B485B000AF7860A0
:101E00007B68002B09D14FF0500383F31188BFF397
:101E10006F8FBFF34F8FFB60FEE7074B1A687B683D
:101E20001A60064B1A687B685A6000BF1437BD46BB
:101E30005DF8047B704700BF7C030020680300202E
:101E400080B586B000AF786039607B68002B09D11F
:101E50004FF0500383F31188BFF36F8FBFF34F8FA1
:101E6000BB60FEE73B68002B09D14FF0500383F3C2
:101E70001188BFF36F8FBFF34F8FFB60FEE700F059
:101E800007FF1C4B1B683B613B681B68B3F1FF3FBE
:101E900002D100237B6126E07B681A68164B1B6821
:101EA0009A4207D07B685A683B699A4202D801235C
:101EB0007B6118E07B685B683A69D21A3B681B68F3
:101EC0009A420ED23B681A687B6859683B69CB1A04
:101ED0001A443B681A607868FFF78EFF00237B6125
:101EE00001E001237B6100F001FF7B691846183790
:101EF000BD4680BD680300207C03002080B400AF95
:101F0000034B01221A6000BFBD465DF8047B704799
:101F10007803002080B582B000AF786000F0A6F8AA
:101F2000064B1B68012BF9D9054B4FF080521A6004
:101F3000BFF34F8FBFF36F8FF0E700BF9C0000200F
:101F400004ED00E080B586B000AFF860B9607A605B
:101F50003B6000237B6112E0BA687B691344197807
:101F6000FA687B69134434330A461A70BA687B698D
:101F700013441B78002B06D07B6901337B617B699E
:101F8000092BE9D900E000BFFB68002283F83D205F
:101F90007B681D2B01D91D237B60FB687A68DA62A0
:101FA000FB687A681A64FB6800225A64FB68043391
:101FB000184600F00DFCFB681833184600F008FCCA
:101FC000FB68FA681A617B68C3F11E02FB689A61BC
:101FD000FB68FA685A62FB6800229A64FB68002278
:101FE00083F84C2000BF1837BD4680BD80B582B055
:101FF00000AF00237B600CE07A6813469B0013441B
:102000009B00124A1344184600F0C2FB7B68013360
:102010007B607B681D2BEFD90D4800F0B9FB0D48A4
:1020200000F0B6FB0C4800F0B3FB0C4800F0B0FB2E
:102030000B4800F0ADFB0B4B054A1A600A4B054AF2
:102040001A6000BF0837BD4680BD00BF9C0000205D
:10205000F40200200803002024030020380300209D
:10206000500300201C0300202003002080B582B014
:1020700000AF28E0FFF7F8FB174B1B68002B0CBFE5
:1020800001230023DBB27B60FFF7FCFB7B68002BA6
:1020900019D100F0FDFD104BDB68DB683B603B684D
:1020A0000433184600F000FC0C4B1B68013B0B4A44
:1020B00013600B4B1B68013B094A136000F016FECE
:1020C000386800F071F8064B1B68002BD2D100BFB6
:1020D0000837BD4680BD00BF3803002064030020E0
:1020E0004C03002080B582B000AF7860134B1B68B2
:1020F0007A685A60124B1B687A689A4209D2114B6F
:102100001A680E4B1B6804331946104600F092FB08
:1021100010E00D4B1A68094B1B6804331946104632
:1021200000F088FB094B1B687A689A4202D2074A82
:102130007B68136000BF0837BD4680BD9800002053
:1021400068030020200300201C03002084030020DB
:1021500080B584B000AF03463960FB803B68002B3C
:1021600006D1FB889B00184601F062FF034600E0A1
:102170003B68BB60BB68002B0ED0502001F058FFBD
:10218000F860FB68002B03D0FB68BA681A6305E0AF
:10219000B86801F093FF01E00023FB60FB6818467C
:1021A0001037BD4680BD00BF80B582B000AF7860FB
:1021B0007B681B6B184601F081FF786801F07EFF99
:1021C00000BF0837BD4680BD80B483B000AF0F4B61
:1021D0001B681B68002B01D1012300E00023002BAA
:1021E00004D00B4B4FF0FF321A6008E0074B1B681E
:1021F000DB68DB687B607B685B68054A136000BF57
:102200000C37BD465DF8047B704700BF1C030020FF
:102210008403002080B483B000AF0B4B1B68002BFD
:1022200002D101237B6008E0084B1B68002B02D120
:1022300002237B6001E000237B607B6818460C373B
:10224000BD465DF8047B70477003002088030020C2
:1022500080B584B000AF78607B68FB607B68002B42
:1022600062D0FB68DA6A324B1B68DB6A9A425BD247
:10227000FB689B69002B06DB2D4B1B68DB6AC3F1F7
:102280001E02FB689A61FB685969FB68DA6A1346AB
:102290009B0013449B00274A1344994201D1012318
:1022A00000E00023002B3AD0FB680433184600F00E
:1022B000FBFA0346002B15D1FB68DA6A1D49134669
:1022C0009B0013449B000B441B68002B0AD1FB6846
:1022D000DB6A012202FA03F3DA43174B1B6813404F
:1022E000154A1360124B1B68DA6AFB68DA62FB68F6
:1022F000DB6A01229A40104B1B6813430E4A13609D
:10230000FB68DA6A13469B0013449B00094A1A448F
:10231000FB6804331946104600F068FA04E0044BE9
:102320001B68DA6AFB68DA6200BF1037BD4680BD01
:10233000980000209C0000206C03002080B586B02F
:1023400000AF78607B683B6100237B617B68002B7A
:102350006CD0394B1B683A699A4209D04FF0500350
:1023600083F31188BFF36F8FBFF34F8FBB60FEE71E
:102370003B695B6C002B09D14FF0500383F311884C
:10238000BFF36F8FBFF34F8FFB60FEE73B695B6C62
:102390005A1E3B695A643B69DA6A3B691B6C9A4274
:1023A00044D03B695B6C002B40D13B690433184639
:1023B00000F07AFA0346002B15D13B69DA6A1F490F
:1023C00013469B0013449B000B441B68002B0AD14F
:1023D0003B69DB6A012202FA03F3DA43184B1B68FC
:1023E0001340174A13603B691A6C3B69DA623B6918
:1023F000DB6AC3F11E023B699A613B69DB6A012219
:102400009A400F4B1B6813430D4A13603B69DA6A0D
:1024100013469B0013449B00084A1A443B6904334B
:102420001946104600F0E2F901237B617B691846EA
:102430001837BD4680BD00BF980000209C000020DA
:102440006C03002080B400AF074B1B68002B04D046
:10245000054B1B685A6C01325A64034B1B681846C3
:10246000BD465DF8047B70479800002080B584B0BD
:1024700000AF01214FF48040FEF7D8FD012101207B
:10248000FEF794FD2023BB6000233B7302237B7384
:102490000223FB7307F108031946124800F04CF8B9
:1024A0004023BB6001233B7302237B730023FB7338
:1024B00007F1080319460B4800F03EF805210020FB
:1024C000FDF774FE20233B6000233B7110237B71DA
:1024D0000123BB713B46184601F00EFD00BF1037CB
:1024E000BD4680BD0000024080B584B000AF012130
:1024F0000120FEF77BFD0023BB800023FB8040F220
:10250000A313BB600023BB810023BB733B1D194693
:102510004FF0804001F00AFF012201214FF080407E
:1025200001F09EFF00214FF0804001F079FF00BFD5
:102530001037BD4680BD00BF80B487B000AF786063
:10254000396000237B6100233B610023FB60002393
:102550007B6176E001227B6902FA03F33B613B6811
:102560001A683B691340FB60FA683B699A4265D17F
:102570007B681A687B695B00032101FA03F3DB4384
:102580001A407B681A607B681A683B681B79194699
:102590007B695B0001FA03F31A437B681A603B68AE
:1025A0001B79012B03D03B681B79022B2ED17B6852
:1025B0009A687B695B00032101FA03F3DB431A404D
:1025C0007B689A607B689A683B685B7919467B698F
:1025D0005B0001FA03F31A437B689A607B685A68D0
:1025E0007B699BB2012101FA03F3DB431A407B684C
:1025F0005A607B685A683B689B7919467B699BB235
:1026000001FA03F39BB21A437B685A607B68DA686D
:102610007B699BB25B00032101FA03F3DB431A40A1
:102620007B68DA607B68DA683B68DB7919467B692E
:102630005B0001FA03F31A437B68DA607B690133BC
:102640007B617B690F2B85D900BF1C37BD465DF8C8
:10265000047B704780B485B000AF78600B467B8008
:102660000023FB737B681A697B881340002B02D020
:102670000123FB7301E00023FB73FB7B1846143737
:10268000BD465DF8047B704780B485B000AF7860CC
:102690000B467B800023FB737B685A697B88134061
:1026A000002B02D00123FB7301E00023FB73FB7BB3
:1026B00018461437BD465DF8047B704780B483B07C
:1026C00000AF78600B467B807B687A881A8300BFF6
:1026D0000C37BD465DF8047B704700BF80B483B003
:1026E00000AF78600B467B807B687A885A8300BF96
:1026F0000C37BD465DF8047B704700BF80B485B0E1
:1027000000AF78600B467B8013467B700023FB6034
:102710000023BB607A787B8803F007039B0002FAF2
:1027200003F3FB607B88DB089BB218467B88DB08E1
:102730009BB21A467B68083253F822207B8803F04C
:1027400007039B000F2101FA03F3DB4302EA0301B5
:102750007B6800F1080243F822107B88DB089BB2FB
:102760001A467B68083253F82220FB681343BB608B
:102770007B88DB089BB21A467B680832B96843F84D
:10278000221000BF1437BD465DF8047B704700BFC0
:1027900080B483B000AF78607B6803F108027B6887
:1027A0005A607B684FF0FF329A607B6803F1080241
:1027B0007B68DA607B6803F108027B681A617B68DA
:1027C00000221A6000BF0C37BD465DF8047B7047DD
:1027D00080B483B000AF78607B6800221A6100BFCC
:1027E0000C37BD465DF8047B704700BF80B485B0F0
:1027F00000AF786039607B685B68FB603B68FA68B3
:102800005A60FB689A683B689A60FB689B683A6804
:102810005A60FB683A689A603B687A681A617B681C
:102820001B685A1C7B681A6000BF1437BD465DF8F0
:10283000047B704780B485B000AF786039603B6836
:102840001B68BB60BB68B3F1FF3F03D17B681B69AA
:10285000FB600CE07B680833FB6002E0FB685B68B0
:10286000FB60FB685B681A68BB689A42F6D9FB6834
:102870005A683B685A603B685B683A689A603B6894
:10288000FA689A60FB683A685A603B687A681A612D
:102890007B681B685A1C7B681A6000BF1437BD46F2
:1028A0005DF8047B704700BF80B485B000AF7860EE
:1028B0007B681B69FB607B685B687A6892689A60DA
:1028C0007B689B687A6852685A60FB685A687B68C4
:1028D0009A4203D17B689A68FB685A607B68002241
:1028E0001A61FB681B685A1EFB681A60FB681B684C
:1028F00018461437BD465DF8047B704780B500AFBD
:10290000164A164BD3F8883043F47003C2F8883067
:10291000134A134B1B6843F001031360104B002252
:102920009A600F4A0E4B1B6823F0847323F48033A4
:1029300013600B4B0B4A5A60094A094B1B6823F47E
:1029400080231360064B0022DA6000F00DF8034B81
:102950004FF000629A6000BF80BD00BF00ED00E054
:10296000003802401030002480B483B000AF002350
:102970007B6000233B60434A424B1B6843F4803337
:102980001360404B1B6803F400333B607B680133EA
:102990007B603B68002B03D17B68B3F5A04FF0D17F
:1029A000384B1B6803F40033002B02D001233B603B
:1029B00001E000233B603B68012B02D1314B324ADE
:1029C0005A60304A2F4B1B6C43F0805313642F4ADC
:1029D0002E4B1B6843F4404313602A4A294B9B68E3
:1029E0009360284A274B9B6843F400439360254A31
:1029F000244B9B6843F4A0539360224A214B1B68ED
:102A000043F08073136000BF1E4B1B6803F000731C
:102A1000002BF9D01D4A1D4B1B6843F48033136013
:102A200000BF1A4B5B6803F48033002BF9D0174AC0
:102A3000164B1B6843F40033136000BF134B5B68F5
:102A400003F40033002BF9D0114B40F205721A60E9
:102A50000C4A0C4B9B6823F003039360094A094B13
:102A60009B6843F00203936000BF064B9B6803F032
:102A70000C03082BF9D100BF0C37BD465DF8047B71
:102A8000704700BF00380240085A400700700040FD
:102A9000003C024080B485B000AFF860B9607A6055
:102AA000FB68043BFB60FB684FF080721A60FB68B8
:102AB000043BFB60BA68FB681A60FB68043BFB6080
:102AC0000C4AFB681A60FB68143BFB607A68FB6881
:102AD0001A60FB68043BFB60FB686FF002021A603F
:102AE000FB68203BFB60FB6818461437BD465DF869
:102AF000047B7047F92A000880B483B000AF0C4B08
:102B00001B68B3F1FF3F09D04FF0500383F31188E6
:102B1000BFF36F8FBFF34F8F3B60FEE74FF0500363
:102B200083F31188BFF36F8FBFF34F8F7B60FEE796
:102B300028000020064B19680868B0E8F04F80F3C1
:102B40000988BFF36F8F4FF0000080F31188704742
:102B50009800002000BF00BF06480068006880F3AE
:102B6000088862B661B6BFF34F8FBFF36F8F00DF87
:102B700000BF00BF08ED00E080B586B000AF3B4B62
:102B80001B683B4A934209D14FF0500383F31188ED
:102B9000BFF36F8FBFF34F8FFB60FEE7334B1B68B4
:102BA000344A934209D14FF0500383F31188BFF3A5
:102BB0006F8FBFF34F8F3B61FEE72F4B7B617B69CC
:102BC0001B78DBB2BB607B69FF221A707B691B78C4
:102BD000DBB2FB71FB79DBB203F05003DAB2274BB7
:102BE0001A70274B07221A6009E0254B1B68013B2E
:102BF000234A1360FB79DBB25B00DBB2FB71FB792C
:102C0000DBB2DBB25BB2002BEFDB1D4B1B681B02A0
:102C10001B4A13601A4B1B6803F4E063184A1360E5
:102C2000BB68DAB27B691A70164A164B1B6843F40C
:102C300070031360134A134B1B6843F07043136017
:102C400000F0D2F8104B00221A6000F0E9F80F4AA9
:102C50000E4B1B6843F040431360FFF77DFFFFF707
:102C60004BFF002318461837BD4680BD00ED00E03D
:102C700071C20F4170C20F4100E400E08C030020DC
:102C80009003002020ED00E02800002034EF00E059
:102C900080B483B000AF4FF0500383F31188BFF3CB
:102CA0006F8FBFF34F8F3B600E4B1B6801330D4A94
:102CB00013600C4B1B68012B0ED10B4B1B68DBB256
:102CC000002B09D04FF0500383F31188BFF36F8FAF
:102CD000BFF34F8F7B60FEE700BF0C37BD465DF84A
:102CE000047B70472800002004ED00E080B483B02E
:102CF00000AF114B1B68002B09D14FF0500383F339
:102D00001188BFF36F8FBFF34F8F3B60FEE70A4B15
:102D10001B68013B084A1360074B1B68002B04D15A
:102D200000237B607B6883F3118800BF0C37BD46AE
:102D30005DF8047B704700BF28000020EFF3098096
:102D4000BFF36F8F144B1A681EF0100F08BF20EDF1
:102D5000108A20E9F04F10604DF8043D4FF050000C
:102D600080F31188BFF34F8FBFF36F8FFEF7ECFE38
:102D70004FF0000080F3118808BC19680868B0E8BB
:102D8000F04F1EF0100F08BFB0EC108A80F30988D6
:102D9000BFF36F8F704700BF9800002000BF00BFD7
:102DA00080B584B000AFEFF311824FF0500383F38E
:102DB0001188BFF36F8FBFF34F8FBA607B60FEF750
:102DC00005FE0346002B03D0064B4FF080521A60DD
:102DD0000023FB60FB6883F3118800BF1037BD46FA
:102DE00080BD00BF04ED00E080B400AF084A094B8D
:102DF0001B680949A1FB03139B09013B1360074BA7
:102E000007221A6000BFBD465DF8047B704700BF13
:102E100014E000E014000020D34D621010E000E048
:102E2000DFF80C00016841F470010160704700BFD9
:102E300088ED00E080B485B000AFEFF30583FB6060
:102E4000FB680F2B13D9164AFB6813441B78FB72DF
:102E5000144B1B78FA7A9A4209D24FF0500383F34D
:102E60001188BFF36F8FBFF34F8F3B60FEE70E4BB0
:102E70001B6803F4E0620D4B1B689A4209D94FF0BE
:102E8000500383F31188BFF36F8FBFF34F8F7B60C5
:102E9000FEE700BF1437BD465DF8047B704700BFF6
:102EA000F0E300E08C0300200CED00E09003002034
:102EB00080B584B000AF786039607B68FB60FB68E8
:102EC000002B09D14FF0500383F31188BFF36F8FAC
:102ED000BFF34F8FBB60FEE7FFF7DAFEFB681A68AF
:102EE000FB68DB6BF968096C01FB03F31A44FB68B0
:102EF0005A60FB6800229A63FB681A68FB689A6054
:102F0000FB681A68FB68DB6B013BF968096C01FB25
:102F100003F31A44FB68DA60FB684FF0FF325A642F
:102F2000FB684FF0FF329A643B68002B14D1FB68BA
:102F30001B69002B1AD0FB6810331846FEF7FAFE07
:102F40000346012B12D10D4B4FF080521A60BFF394
:102F50004F8FBFF36F8F09E0FB6810331846FFF700
:102F600017FCFB6824331846FFF712FCFFF7BEFE80
:102F7000012318461037BD4680BD00BF04ED00E0B8
:102F800080B58AB000AFF860B9601346FB710023CA
:102F90003B62FB68002B09D14FF0500383F311888B
:102FA000BFF36F8FBFF34F8F7B61FEE7BB68002BD2
:102FB00002D100237B6205E0FB68BA6802FB03F3E1
:102FC00001337B627B6A4C33184601F031F8F861BB
:102FD000FB69002B17D0BB68002B03D1FB69FA6992
:102FE0001A6004E0FB6903F14C02FB691A60FB699B
:102FF000FA68DA63FB69BA681A640121F869FFF7B5
:1030000057FFFB693B623B6A002B09D14FF050032D
:1030100083F31188BFF36F8FBFF34F8FBB61FEE760
:103020003B6A18462837BD4680BD00BF80B58EB0CC
:1030300000AFF860B9607A603B6000237B63FB6897
:103040003B633B6B002B09D14FF0500383F3118896
:10305000BFF36F8FBFF34F8FFB61FEE7BB68002BA1
:1030600003D13B6B1B6C002B01D1012300E000233B
:10307000002B09D14FF0500383F31188BFF36F8FFA
:10308000BFF34F8F3B62FEE73B68022B03D13B6BE4
:10309000DB6B012B01D1012300E00023002B09D1C0
:1030A0004FF0500383F31188BFF36F8FBFF34F8F3F
:1030B0007B62FEE7FFF7AEF80346002B02D17B6888
:1030C000002B01D1012300E00023002B09D14FF098
:1030D000500383F31188BFF36F8FBFF34F8FBB6231
:1030E000FEE7FFF7D5FD3B6B9A6B3B6BDB6B9A42C0
:1030F00002D33B68022B29D13A68B968386B00F0DB
:1031000019FAF8623B6B5B6A002B10D03B6B2433DF
:103110001846FEF70FFE0346012B13D13C4B4FF030
:1031200080521A60BFF34F8FBFF36F8F0AE0FB6AC4
:10313000002B07D0364B4FF080521A60BFF34F8FF1
:10314000BFF36F8FFFF7D2FD01235CE07B68002B9C
:1031500003D1FFF7CBFD002355E07B6B002B06D19D
:1031600007F114031846FEF747FE01237B63FFF7C0
:10317000BDFDFEF779FBFFF78BFD3B6B5B6CB3F19D
:10318000FF3F02D13B6B00225A643B6B9B6CB3F157
:10319000FF3F02D13B6B00229A64FFF7A7FD3A1D67
:1031A00007F1140311461846FEF74AFE0346002BAA
:1031B00023D1386B00F0B2FA0346002B17D03B6BDB
:1031C00010337A6811461846FEF718FD386B00F088
:1031D00043FAFEF757FB0346002B82D10C4B4FF00E
:1031E00080521A60BFF34F8FBFF36F8F79E7386B50
:1031F00000F032FAFEF746FB73E7386B00F02CFA6A
:10320000FEF740FB002318463837BD4680BD00BF9F
:1032100004ED00E080B58EB000AFF860B9607A6070
:103220003B60FB683B633B6B002B09D14FF05003C5
:1032300083F31188BFF36F8FBFF34F8FBB61FEE73E
:10324000BB68002B03D13B6B1B6C002B01D101230E
:1032500000E00023002B09D14FF0500383F31188C5
:10326000BFF36F8FBFF34F8FFB61FEE73B68022B0D
:1032700003D13B6BDB6B012B01D1012300E0002369
:10328000002B09D14FF0500383F31188BFF36F8FE8
:10329000BFF34F8F3B62FEE7FFF7CCFDEFF31182E8
:1032A0004FF0500383F31188BFF36F8FBFF34F8F3D
:1032B0007A627B617B6ABB623B6B9A6B3B6BDB6BBD
:1032C0009A4202D33B68022B24D13A68B968386B22
:1032D00000F030F93B6B9B6CB3F1FF3F12D13B6BBD
:1032E0005B6A002B13D03B6B24331846FEF722FD9C
:1032F0000346002B0BD07B68002B08D07B68012293
:103300001A6004E03B6B9B6C5A1C3B6B9A64012374
:103310007B6301E000237B63BB6AFB62FB6A83F390
:1033200011887B6B18463837BD4680BD80B58CB0A0
:1033300000AFF860B9607A603B600023FB62FB6815
:10334000BB62BB6A002B09D14FF0500383F3118895
:10335000BFF36F8FBFF34F8FBB61FEE7BB68002BDE
:1033600003D1BB6A1B6C002B01D1012300E00023B9
:10337000002B09D14FF0500383F31188BFF36F8FF7
:10338000BFF34F8FFB61FEE7FEF744FF0346002BC0
:1033900002D17B68002B01D1012300E00023002B28
:1033A00009D14FF0500383F31188BFF36F8FBFF340
:1033B0004F8F3B62FEE7FFF76BFCBB6A9B6B002BFA
:1033C00047D0BB6ADB687B62B968B86A00F01EF957
:1033D0003B68002B22D1BB6A9B6B5A1EBB6A9A6367
:1033E000BB6A1B68002B04D1FFF72CF80246BB6AAE
:1033F0005A60BB6A1B69002B27D0BB6A1033184682
:10340000FEF798FC0346012B1FD1494B4FF0805229
:103410001A60BFF34F8FBFF36F8F16E0BB6A7A6AF3
:10342000DA60BB6A5B6A002B0FD0BB6A2433184694
:10343000FEF780FC0346002B07D03D4B4FF0805237
:103440001A60BFF34F8FBFF36F8FFFF74FFC01235D
:103450006AE07B68002B03D1FFF748FC002363E0A0
:10346000FB6A002B06D107F110031846FEF7C4FCD7
:103470000123FB62FFF73AFCFEF7F6F9FFF708FCC1
:10348000BB6A5B6CB3F1FF3F02D1BB6A00225A6496
:10349000BB6A9B6CB3F1FF3F02D1BB6A00229A6406
:1034A000FFF724FC3A1D07F1100311461846FEF7FA
:1034B000C7FC0346002B31D1B86A00F019F9034666
:1034C000002B25D0BB6A1B68002B08D1FFF7E0FB5F
:1034D000BB6A5B681846FEF7BBFEFFF707FCBB6ADA
:1034E00024337A6811461846FEF788FBB86A00F064
:1034F000B3F8FEF7C7F90346002B7FF45CAF0C4B23
:103500004FF080521A60BFF34F8FBFF36F8F52E7B7
:10351000B86A00F0A1F8FEF7B5F94CE7B86A00F018
:103520009BF8FEF7AFF9002318463037BD4680BD43
:1035300004ED00E080B586B000AFF860B9607A6055
:1035400000237B61FB681B6C002B0DD1FB681B68A3
:10355000002B50D1FB685B681846FEF7EFFE7861E0
:10356000FB6800225A6046E07B68002B19D1FB689B
:103570009868FB681B6C1A46B96800F0D1FFFB68BD
:103580009A68FB681B6C1A44FB689A60FB689A682F
:10359000FB685B689A422ED3FB681A68FB689A60E6
:1035A00029E0FB68D868FB681B6C1A46B96800F014
:1035B000B7FFFB68DA68FB681B6C5B421A44FB6868
:1035C000DA60FB68DA68FB681B689A4207D2FB681E
:1035D0005A68FB681B6C5B421A44FB68DA607B68C4
:1035E000022B08D1FB689B6B002B04D0FB689B6B04
:1035F0005A1EFB689A63FB689B6B5A1CFB689A63B4
:103600007B6918461837BD4680BD00BF80B582B0C3
:1036100000AF786039607B681B6C002B18D07B682A
:10362000DA687B681B6C1A447B68DA607B68DA684E
:103630007B685B689A4203D37B681A687B68DA60B0
:103640007B68D9687B681B6C1A46386800F068FF95
:1036500000BF0837BD4680BD80B582B000AF78603E
:10366000FFF716FB12E07B685B6A002B13D07B68C8
:1036700024331846FEF75EFB0346002B01D0FEF70D
:103680003DFC7B689B6C5A1E7B689A647B689B6CD4
:10369000002BE8DC00E000BF7B684FF0FF329A644B
:1036A000FFF724FBFFF7F4FA12E07B681B69002B9D
:1036B00013D07B6810331846FEF73CFB0346002B03
:1036C00001D0FEF71BFC7B685B6C5A1E7B685A645A
:1036D0007B685B6C002BE8DC00E000BF7B684FF090
:1036E000FF325A64FFF702FB00BF0837BD4680BDBA
:1036F00080B584B000AF7860FFF7CAFA7B689B6B37
:10370000002B02D10123FB6001E00023FB60FFF7E7
:10371000EDFAFB6818461037BD4680BD80B584B011
:1037200000AF7860FFF7B4FA7B689A6B7B68DB6B5D
:103730009A4202D10123FB6001E00023FB60FFF706
:10374000D5FAFB6818461037BD4680BD80B485B0F9
:1037500000AF786039600023FB6014E00E4AFB681C
:1037600052F83330002B0BD10B49FB683A6841F813
:103770003320094AFB68DB0013447A685A6005E08D
:10378000FB680133FB60FB68072BE7D900BF1437E8
:10379000BD465DF8047B7047B42F012080B586B02C
:1037A00000AFF860B9607A60FB687B61FFF770FA80
:1037B0007B695B6CB3F1FF3F02D17B6900225A64E5
:1037C0007B699B6CB3F1FF3F02D17B6900229A6455
:1037D000FFF78CFA7B699B6B002B06D17B69243346
:1037E0007A68B9681846FEF757FA7869FFF734FF28
:1037F00000BF1837BD4680BD002103E00A4B5B586F
:103800004350043109480A4B42189A42F6D3094AF8
:1038100002E0002342F8043B074B9A42F9D3FFF73A
:103820006DF8FDF741FA7047207100080000002094
:103830006000002060000020F42F0120FEE700005F
:1038400080B582B000AF78607B68174A93420AD196
:1038500001214FF40010FDF709FC00214FF4001086
:10386000FDF704FC1CE07B68104A93420AD1012159
:103870004FF48000FDF7FAFB00214FF48000FDF7C4
:10388000F5FB0DE07B680A4A934209D101214FF410
:103890000000FDF7EBFB00214FF40000FDF7E6FB15
:1038A00000BF0837BD4680BD0054004000580040AE
:1038B000005C004080B58AB000AF786039600023BA
:1038C000FB8400237B840423BB84574BFB617B6810
:1038D0009B88FB84FB8C23F03F03FB8407F10C03E4
:1038E0001846FDF7B9FA7B69FB61FB694F4AA2FBF9
:1038F00003239B0C7B84FA8C7B8C1343FB847B68B7
:10390000FA8C9A807B681B889BB223F001039AB2E1
:103910007B681A800023FB843B681B68444A9342FF
:1039200015D83B681B685B00FA69B2FBF3F3BB84F4
:10393000BB8C032B01D80423BB84FA8CBB8C1343B0
:10394000FB847B8C01339AB27B681A8440E03B682D
:10395000DB884BF6FF72934209D13B681A68134625
:103960005B001344FA69B2FBF3F3BB840EE03B68DF
:103970001A6813469B0013449A001344FA69B2FB79
:10398000F3F3BB84BB8C43F48043BB84BB8CC3F395
:103990000B03002B03D1BB8C43F00103BB84BA8C17
:1039A000FB8C13439BB26FEA43436FEA5343FB84A0
:1039B0007B8C4FF4967202FB03F31E4A82FB0312C8
:1039C0009211DB17D31A9BB201339AB27B681A8427
:1039D0007B68FA8C9A837B681B889BB243F0010357
:1039E0009AB27B681A807B681B88FB84FB8C23F46B
:1039F000816323F00203FB843B689A883B685B8900
:103A000013439AB2FB8C1343FB847B68FA8C1A80B5
:103A10003B689A893B681B8913439AB27B681A8179
:103A200000BF2837BD4680BD00127A0083DE1B43ED
:103A3000A0860100D34D621080B483B000AF7860DF
:103A40000B46FB70FB78002B08D07B681B889BB271
:103A500043F001039AB27B681A8007E07B681B88F9
:103A60009BB223F001039AB27B681A8000BF0C3727
:103A7000BD465DF8047B704780B483B000AF7860CA
:103A80000B46FB70FB78002B08D07B681B889BB231
:103A900043F480739AB27B681A8007E07B681B88C6
:103AA0009BB223F480739AB27B681A8000BF0C37F4
:103AB000BD465DF8047B704780B483B000AF78608A
:103AC0000B46FB70FB78002B08D07B681B889BB2F1
:103AD00043F400739AB27B681A8007E07B681B8806
:103AE0009BB223F400739AB27B681A8000BF0C3734
:103AF000BD465DF8047B704780B483B000AF78604A
:103B00000B46FB701346BB70BB78002B04D0FB78D0
:103B100043F00103FB7003E0FB7823F00103FB702B
:103B2000FB789AB27B681A8200BF0C37BD465DF8FD
:103B3000047B704780B483B000AF78600B46FB70A5
:103B4000FB78002B08D07B681B889BB243F4806312
:103B50009AB27B681A8007E07B681B889BB223F4CB
:103B600080639AB27B681A8000BF0C37BD465DF84F
:103B7000047B704780B483B000AF78600B46FB7065
:103B8000FB78002B0AD07B681B889BB26FEA43430B
:103B90006FEA53439AB27B681A8007E07B681B8800
:103BA0009BB2C3F30E039AB27B681A8000BF0C3736
:103BB000BD465DF8047B704780B483B000AF786089
:103BC0000B46FB70FB789AB27B681A8200BF0C37F9
:103BD000BD465DF8047B704780B483B000AF786069
:103BE0007B681B8A9BB2DBB218460C37BD465DF87A
:103BF000047B704780B487B000AF786039600023E1
:103C0000FB7500233B610023FB607B68FB603B6826
:103C10001B0F3B613B6823F07F433B603B69002BFC
:103C200003D0FB681433FB6005E03B681B0C3B6072
:103C3000FB681833FB60FB681A683B681340002B75
:103C400002D00123FB7501E00023FB75FB7D1846C4
:103C50001C37BD465DF8047B704700BF80B483B05D
:103C600000AF0346FB71094997F907305B09FA7900
:103C700002F01F02012000FA02F241F8232000BFE7
:103C80000C37BD465DF8047B704700BF00E100E0E3
:103C900080B483B000AF03463960FB7197F90730F9
:103CA000002B0BDA0D49FB7903F00F03043B3A6854
:103CB000D2B21201D2B20B441A7609E0084997F940
:103CC00007303A68D2B21201D2B20B4483F8002313
:103CD00000BF0C37BD465DF8047B704700ED00E087
:103CE00000E100E080B5EAB000AF3B1D18600023A2
:103CF00087F8A731002387F8A631072387F8A53175
:103D000007F5867355220021184600F0A3FC07F141
:103D10000C031846FF231A46002100F09BFC0023E9
:103D200087F8A43107F10B0300221A70002387F8EB
:103D3000A331002387F8A231002387F8A1310023A3
:103D400087F8A0314F211720FFF7A2FF1720FFF7B8
:103D500085FF4E211C20FFF79BFF1C20FFF77EFFF5
:103D6000634B186807F10B0100234FF0FF32FFF798
:103D7000DDFA97F8A631002B13D197F8A531072B60
:103D80000FD197F8A231002B0BD197F8A63107F588
:103D9000D4721344002203F89C2C012387F8A2312B
:103DA00002E0002387F8A23197F8A231002BD7D187
:103DB00097F8A4315A1C87F8A4211A4607F10B037F
:103DC000197807F10C03995497F8A63197F8A621B2
:103DD00007F5D4710A4412F89C2CD1B207F10B02FA
:103DE0001278104697F8A52100FA02F2D2B20A43DF
:103DF000D2B2D2B207F5D4710B4403F89C2C97F8D9
:103E0000A131013387F8A13107F10B031B78012B96
:103E100012D197F8A031013387F8A03197F8A0317B
:103E2000072B0CD1012387F8A331072387F8A5318D
:103E3000002387F8A63102E0002387F8A03197F825
:103E4000A531002B19D1072387F8A53197F8A631A2
:103E5000013387F8A631274B1B7897F8A6219A42A1
:103E600002D1002387F8A63197F8A63107F5D4725E
:103E70001344002203F89C2C04E097F8A531013B81
:103E800087F8A53197F8A331012B7FF469AF0021A2
:103E90004FF0804000F0C4FA002387F8A33197F870
:103EA000A72107F5B27113465B0013449B00CA18A3
:103EB00007F5867300211846FCF760FD002387F89C
:103EC000A131002387F8A031002387F8A63107230A
:103ED00087F8A53197F8A731042B03D1002387F881
:103EE000A7313DE797F8A731013387F8A73137E7C6
:103EF000B02F01202947000880B485B000AF78605A
:103F00000023FB60344BFB607B689B79002B4FD018
:103F10003149314B1A687B681B68DB4313400B60E7
:103F20002D492D4B5A687B681B68DB4313404B605F
:103F30007B681B791A46FB681344FB60FB68FA68D0
:103F400011687A6812680A431A602349224B9A68FA
:103F50007B681B68DB4313408B601F491E4BDA688C
:103F60007B681B68DB431340CB607B685B79102B5D
:103F70000ED11949184B9A687B681B6813438B60F4
:103F80001549154BDA687B681B681343CB601DE04D
:103F9000114BFB607B685B791A46FB681344FB603E
:103FA000FB68FA6811687A6812680A431A600DE0C3
:103FB0007B681B791A46FB681344FB60FB68FA6850
:103FC00011687A681268D2430A401A6000BF143739
:103FD000BD465DF8047B7047003C014080B485B06D
:103FE00000AF78600023FB73084B5A697B6813406D
:103FF000002B02D00123FB7301E00023FB73FB7B4A
:1040000018461437BD465DF8047B7047003C0140FC
:1040100080B483B000AF7860044A7B68536100BF0E
:104020000C37BD465DF8047B704700BF003C014083
:1040300080B584B000AF78600023FB607B6803F03C
:104040000703002B04D07B6823F0070308337B6051
:10405000FDF70AFC154B1B68002B05D1144B23F010
:1040600007031A46114B1A60124B1A687B681344F7
:10407000114A934213D80F4B1A687B681A440D4BB0
:104080001B689A420BD9094B1A680A4B1B681344E8
:10409000FB60084B1A687B681344064A1360FDF7FF
:1040A000F1FBFB6818461037BD4680BD982F0120F4
:1040B0009C030020942F0120F72B010080B485B0D1
:1040C00000AF78607B68002B09D04FF0500383F37A
:1040D0001188BFF36F8FBFF34F8FFB60FEE700BF08
:1040E0001437BD465DF8047B704700BF80B584B0CF
:1040F00000AF0346FB71FB79104A52F823300121CF
:104100001846FCF753FFFB790D4A32F81330BB60B9
:1041100001233B730023BB730123FB7302237B73D7
:10412000FB79084A52F8233007F108021146184675
:10413000FEF702FA00BF1037BD4680BD30470008C9
:104140002C4700082C00002080B487B000AF034645
:104150003A60FB800B46BB8000237B6100233B6100
:104160000023BB600023FB60FA8813461B019B1AE7
:104170005B01BB60BB88FA681344FB6000237B6172
:104180005FE000233B614AE07B695B003A681344CF
:104190001B881946314B1B689B88314AA2FB0323BD
:1041A000DB089BB2DB0080229A403B6942FA03F3B2
:1041B0000B40002B04D1294B1B689B880C2B11D979
:1041C0007B695B003A6813441B881A463B6942FAD4
:1041D00003F303F00103002B10D1204B1B689B88D5
:1041E0000C2B0BD9FB685A001E4B1B681A44BB688A
:1041F00013441A461C4B1B8813800AE0FB685A00C4
:10420000184B1B681A44BB6813441A46174B1B888B
:104210001380FB680133FB603B6901333B610F4B4B
:104220001B689B881A463B699A42ADD80B4B1B68AA
:104230009B881A46FB689B1AF033FB607B6901334D
:104240007B61064B1B68DB881A467B699A4298D8CB
:1042500000BF1C37BD465DF8047B70479C2F0120D2
:10426000ABAAAAAA5C00002058000020A02F0120C1
:1042700080B582B000AF0346FB800B46BB8013467F
:10428000FB70FB78203BFB70094B1B681A68FB78BE
:1042900007490968C98801FB03F35B001A44B98820
:1042A000FB881846FFF750FF00BF0837BD4680BDAA
:1042B0009C2F012080B584B000AF03463960FB809D
:1042C0000023FB810FE03B681A78F989FB881846C8
:1042D000FFF7CEFF144B1B689A88FB891344FB81C0
:1042E0003B6801333B60FB89EF2B18D83B681B7898
:1042F000002B14BF01230023DAB2FB890A490968A5
:1043000089880B449BB20849096889888B42ACBFF5
:1043100001230023DBB21340DBB2002BD3D100BF5B
:104320001037BD4680BD00BF9C2F012080B485B0F2
:1043300000AF786039600023FB817B681B88FB81BC
:104340007B68294A934213D07B68284A93420FD056
:104350007B68B3F1804F0BD07B68254A934207D02E
:104360007B68244A934203D07B68234A934208D156
:10437000FB8923F07003FB813B685A88FB89134358
:10438000FB817B681D4A93420CD07B681C4A934298
:1043900008D0FB8923F44073FB813B681A89FB89B1
:1043A0001343FB817B68FA891A803B685A687B68F3
:1043B000DA623B681A887B681A857B680A4A9342EE
:1043C00003D07B68094A934204D13B689B7A9AB236
:1043D0007B681A867B6801229A8200BF1437BD462B
:1043E0005DF8047B704700BF0000014000040140FD
:1043F0000004004000080040000C00400010004095
:104400000014004080B483B000AF786039607B68EE
:104410003A685A6200BF0C37BD465DF8047B7047AE
:1044200080B483B000AF78600B46FB70FB78002B44
:1044300008D07B681B889BB243F001039AB27B686B
:104440001A8007E07B681B889BB223F001039AB2B5
:104450007B681A8000BF0C37BD465DF8047B70474F
:1044600080B483B000AF78600B467B8013467B70CE
:104470007B78002B08D07B689B899AB27B8813439A
:104480009AB27B689A8109E07B689B899AB27B88A3
:10449000DB439BB213409AB27B689A8100BF0C3712
:1044A000BD465DF8047B704780B485B000AF78608E
:1044B0000B467B800023FB730023BB8100237B81A1
:1044C0007B681B8A9AB27B881340BB817B689B897F
:1044D0009AB27B8813407B81BB89002B05D07B89F6
:1044E000002B02D00123FB7301E00023FB73FB7B55
:1044F00018461437BD465DF8047B704780B483B01E
:1045000000AF78600B467B807B88DB439AB27B6888
:104510001A8200BF0C37BD465DF8047B704700BFB0
:10452000844641EA000313F003036DD1403A41D3BE
:1045300051F8043B40F8043B51F8043B40F8043B7D
:1045400051F8043B40F8043B51F8043B40F8043B6D
:1045500051F8043B40F8043B51F8043B40F8043B5D
:1045600051F8043B40F8043B51F8043B40F8043B4D
:1045700051F8043B40F8043B51F8043B40F8043B3D
:1045800051F8043B40F8043B51F8043B40F8043B2D
:1045900051F8043B40F8043B51F8043B40F8043B1D
:1045A00051F8043B40F8043B51F8043B40F8043B0D
:1045B000403ABDD2303211D351F8043B40F8043BAD
:1045C00051F8043B40F8043B51F8043B40F8043BED
:1045D00051F8043B40F8043B103AEDD20C3205D3BD
:1045E00051F8043B40F8043B043AF9D2043208D0B5
:1045F000D2071CBF11F8013B00F8013B01D30B8827
:1046000003806046704700BF082A13D38B078DD004
:1046100010F003038AD0C3F10403D21ADB071CBFD6
:1046200011F8013B00F8013B80D331F8023B20F840
:10463000023B7BE7043AD9D3013A11F8013B00F879
:10464000013BF9D20B7803704B7843708B78837001
:104650006046704770B4840746D0541E002A41D08B
:10466000CDB2034602E0621EE4B3144603F8015BD8
:104670009A07F8D1032C2ED9CDB245EA05250F2C87
:1046800045EA054519D903F110022646103E0F2EC2
:1046900042F8105C42F80C5C42F8085C42F8045C9A
:1046A00002F11002F2D8A4F1100222F00F0204F07D
:1046B0000F041032032C13440DD91E462246043A2F
:1046C000032A46F8045BFAD8221F22F003020432C0
:1046D000134404F003042CB1C9B21C4403F8011BB9
:1046E000A342FBD170BC704714460346C2E700BF2B
:1046F0005461736B5F5472616E7363656976657242
:104700005F525800496E6974207375636365656410
:1047100000000000546D722053766300546D725196
:104720000000000049444C450055000000200040B6
:1047300040000000400000000100000001000000F7
:104740000100000000000000000000000600000062
:104750000000000000000000000000000000000059
:104760000000000000000000000000000000000049
:104770000000000000000000000000000000000039
:1047800000008001800180018001800180018001A2
:104790008001800180018001800180010000000013
:1047A0008001800100000000000000000000000007
:1047B00000000000CC00CC00CC00CC00CC00CC0031
:1047C00000000000000000000000000000000000E9
:1047D00000000000000000000000000000000000D9
:1047E000000000000000000000000000600C600CF1
:1047F000600C30063006FE1FFE1F30063807180317
:10480000FE1FFE1F180318038C018C018C01000091
:1048100000008000E003F80F9C0E8C1C8C188C00AC
:104820009800F801E007800E801C8C188C189C18EA
:10483000B80CF00FE00380008000000000000000D2
:104840000000000000000E181B0C110C11061106D0
:10485000110311039B018E01C038C06C6044604499
:10486000304430441844186C0C380000000000003C
:104870000000E001F0033807180618063003F001C5
:10488000F000F8009C310E33061E061C061C063F85
:10489000FC73F02100000000000000000000000098
:1048A000000000000C000C000C000C000C000C00C0
:1048B00000000000000000000000000000000000F8
:1048C00000000000000000000000000000000000E8
:1048D0000000000200038001C000C0006000600012
:1048E0003000300030003000300030003000300048
:1048F00060006000C000C0008001000300020000F2
:10490000000020006000C00080018001000300035F
:104910000006000600060006000600060006000667
:104920000003000380018001C0006000200000003F
:10493000000000000000000000000000C000C000F7
:10494000D806F807E0013003380700000000000037
:104950000000000000000000000000000000000057
:104960000000000000000000000000008001800145
:10497000800180018001FC3FFC3F800180018001BB
:104980008001800100000000000000000000000025
:104990000000000000000000000000000000000017
:1049A0000000000000000000000000000000000007
:1049B0000000800180010001000180000000000073
:1049C00000000000000000000000000000000000E7
:1049D0000000000000000000E007E0070000000009
:1049E00000000000000000000000000000000000C7
:1049F00000000000000000000000000000000000B7
:104A000000000000000000000000000000000000A6
:104A10000000C000C0000000000000000000000016
:104A20000000000C000C0006000600060003000356
:104A300000038003800180018001C000C000C0002D
:104A400060006000000000000000000000000000A6
:104A50000000E003F007380E180C0C180C180C18A6
:104A60000C180C180C180C180C180C18180C380E04
:104A7000F007E0030000000000000000000000005C
:104A8000000000018001C001F0019801880180014F
:104A9000800180018001800180018001800180010E
:104AA0008001800100000000000000000000000004
:104AB0000000E003F80F180C0C180C180018001870
:104AC000000C000600038001C000600030001800E8
:104AD000FC1FFC1F000000000000000000000000A0
:104AE0000000E001F807180E0C0C0C0C000C00067E
:104AF000C003C007000C001800180C180C18180C84
:104B0000F807E003000000000000000000000000C3
:104B10000000000C000E000F000F800DC00C600C98
:104B2000600C300C180C0C0CFC3FFC3F000C000C13
:104B3000000C000C0000000000000000000000005D
:104B40000000F80FF80F180018000C00EC03FC0729
:104B50001C0E001C0018001800180C181C0C180E55
:104B6000F807E00300000000000000000000000063
:104B70000000C007F00F381C181818000C00CC03F8
:104B8000EC0F3C0E1C1C0C180C180C18181C380EC2
:104B9000F007E0030000000000000000000000003B
:104BA0000000FC1FFC1F000C000600060003800331
:104BB0008001C001C000E0006000600070003000B3
:104BC0003000300000000000000000000000000085
:104BD0000000E003F007380E180C180C180C38060B
:104BE000F007F007180C0C180C180C180C18380CDF
:104BF000F80FE003000000000000000000000000CB
:104C00000000E003F007380E1C0C0C180C180C18F0
:104C10001C1C381EF81BE0190018000C000C1C0EA0
:104C2000F807F00100000000000000000000000094
:104C30000000000000000000000000008001800172
:104C40000000000000000000000000000000000064
:104C50008001800100000000000000000000000052
:104C60000000000000000000000000008001800142
:104C70000000000000000000000000000000000034
:104C800080018001000100018000000000000000A0
:104C90000000000000000000000000000000000014
:104CA0000010001C800FE003F8001800F800E0037B
:104CB000800F001C00100000000000000000000039
:104CC00000000000000000000000000000000000E4
:104CD000F81F000000000000F81F000000000000A6
:104CE00000000000000000000000000000000000C4
:104CF00000000000000000000000000000000000B4
:104D000008003800F001C007001F0018001FC0078E
:104D1000F001380008000000000000000000000062
:104D20000000E003F80F180C0C180C180018000C09
:104D3000000600038001C000C000C00000000000A9
:104D4000C000C000000000000000000000000000E3
:104D500000000000E00718180420C229224A11446C
:104D600009440944094409221113E20C02400420B9
:104D70001818E0070000000000000000000000001C
:104D8000000080038003C006C006C006600C600CF3
:104D9000301830183018F83FF83F1C700C600C6069
:104DA00006C006C000000000000000000000000077
:104DB0000000FC03FC0F0C0C0C180C180C180C0C4D
:104DC000FC07FC0F0C180C300C300C300C300C189D
:104DD000FC1FFC07000000000000000000000000B5
:104DE0000000C007F01F38381C300C700660060049
:104DF0000600060006000600060006600C701C3067
:104E0000F01FE007000000000000000000000000AC
:104E10000000FE03FE0F060E0618061806300630C8
:104E20000630063006300630063006180618060E24
:104E3000FE0FFE0300000000000000000000000064
:104E40000000FC3FFC3F0C000C000C000C000C00B0
:104E5000FC1FFC1F0C000C000C000C000C000C00D4
:104E6000FC3FFC3F000000000000000000000000CC
:104E70000000F83FF83F180018001800180018004C
:104E8000F81FF81F18001800180018001800180064
:104E900018001800000000000000000000000000E2
:104EA0000000E00FF83F3C780E6006E007C003000A
:104EB000030003FE03FE03C007C006C00EC03CF0A3
:104EC000F83FE00F000000000000000000000000BC
:104ED00000000C300C300C300C300C300C300C302E
:104EE000FC3FFC3F0C300C300C300C300C300C30E4
:104EF0000C300C300000000000000000000000003A
:104F0000000080018001800180018001800180011A
:104F10008001800180018001800180018001800189
:104F2000800180010000000000000000000000007F
:104F30000000000600060006000600060006000647
:104F400000060006000600060006180618063807C8
:104F5000F003E0010000000000000000000000007D
:104F6000000006300618060C060606038601C60079
:104F700066007600DE008E0106030606060C0618A3
:104F80000630066000000000000000000000000085
:104F90000000180018001800180018001800180069
:104FA0001800180018001800180018001800180041
:104FB000F81FF81F000000000000000000000000C3
:104FC00000000EE01EF01EF01EF036D836D836D89F
:104FD00036D866CC66CC66CCC6C6C6C6C6C6C6C6FD
:104FE00086C386C30000000000000000000000002F
:104FF00000000C301C303C303C306C306C30CC301D
:10500000CC308C310C330C330C360C360C3C0C3C55
:105010000C380C3000000000000000000000000010
:105020000000E007F81F1C380E70066003C003C0C4
:1050300003C003C003C003C003C006600E701C3869
:10504000F81FE00700000000000000000000000062
:105050000000FC0FFC1F0C380C300C300C300C30F6
:105060000C18FC1FFC070C000C000C000C000C00C2
:105070000C000C0000000000000000000000000018
:105080000000E007F81F1C380E70066003E003C044
:1050900003C003C003C003C007E006630E3F1C3C0F
:1050A000F83FE0F700C00000000000000000000032
:1050B0000000FE0FFE1F06380630063006300638A8
:1050C000FE1FFE0706030606060C06180618063025
:1050D0000630066000000000000000000000000034
:1050E0000000E003F80F1C0C0C180C180C001C003E
:1050F000F803E00F001E0038063006300E301C1C8E
:10510000F80FE007000000000000000000000000B1
:105110000000FE7FFE7F8001800180018001800110
:105120008001800180018001800180018001800177
:10513000800180010000000000000000000000006D
:1051400000000C300C300C300C300C300C300C30BB
:105150000C300C300C300C300C300C300C3018187B
:10516000F81FE00700000000000000000000000041
:10517000000003600630063006300C180C180C18BE
:10518000180C180C380E30063006700760036003E8
:10519000C001C0010000000000000000000000008D
:1051A00000000360C361C361C36166336633663365
:1051B0006633663366336C1B6C1B6C1B2C1A3C1EEF
:1051C000380E380E00000000000000000000000053
:1051D00000000FE00C7018303018700C600EC00723
:1051E00080038003C003E006700C301C18180C30DC
:1051F0000E6007E00000000000000000000000005A
:10520000000003C006600C301C383818300C6006F3
:10521000E007C003800180018001800180018001DE
:10522000800180010000000000000000000000007C
:105230000000FC7FFC7F006000300018000C0006BE
:1052400000038001C0006000300018000C00060060
:10525000FE7FFE7F00000000000000000000000054
:105260000000E003E0036000600060006000600098
:10527000600060006000600060006000600060002E
:1052800060006000600060006000E003E003000078
:10529000000030003000600060006000C000C0000E
:1052A000C000C001800180018001000300030003F1
:1052B00000060006000000000000000000000000E2
:1052C0000000E003E0030003000300030003000309
:1052D00000030003000300030003000300030003B6
:1052E00000030003000300030003E003E0030000E9
:1052F00000000000C001C0016003600360033006CD
:105300003006180C180C000000000000000000001F
:10531000000000000000000000000000000000008D
:10532000000000000000000000000000000000007D
:10533000000000000000000000000000000000006D
:105340000000FFFFFFFF0000000000000000000061
:1053500000000C000C000C000C000C000C00000005
:10536000000000000000000000000000000000003D
:10537000000000000000000000000000000000002D
:10538000000000000000000000000000F003F8072B
:105390001C0C0C0C000FF00FF80C0C0C0C0C1C0F60
:1053A000F80FF018000000000000000000000000EE
:1053B000000018001800180018001800D803F80F93
:1053C000380C181818181818181818181818380C35
:1053D000F80FD803000000000000000000000000EB
:1053E000000000000000000000000000C003F00703
:1053F000300E180C1800180018001800180C300E89
:10540000F007C003000000000000000000000000E2
:10541000000000180018001800180018C01BF01F2A
:10542000301C181818181818181818181818301CC4
:10543000F01FC01B00000000000000000000000082
:10544000000000000000000000000000C003F00F9A
:10545000300C1818F81FF81F180018003818301CE6
:10546000F00FC00700000000000000000000000076
:105470000000800FC00FC000C000C000F007F007A0
:10548000C000C000C000C000C000C000C000C0001C
:10549000C000C0000000000000000000000000008C
:1054A000000000000000000000000000E00DF80F08
:1054B000180E0C0C0C0C0C0C0C0C0C0C0C0C180E10
:1054C000F80FE00D000C0C0C1C06F807F0010000B2
:1054D000000018001800180018001800D807F80F6E
:1054E000381C181818181818181818181818181818
:1054F000181818180000000000000000000000004C
:105500000000C000C000000000000000C000C0009B
:10551000C000C000C000C000C000C000C000C0008B
:10552000C000C000000000000000000000000000FB
:105530000000C000C000000000000000C000C0006B
:10554000C000C000C000C000C000C000C000C0005B
:10555000C000C000C000C000C000F800780000001B
:1055600000000C000C000C000C000C000C0C0C06D5
:105570000C038C01CC006C00FC009C018C030C0320
:105580000C060C0C000000000000000000000000F1
:105590000000C000C000C000C000C000C000C000CB
:1055A000C000C000C000C000C000C000C000C000FB
:1055B000C000C0000000000000000000000000006B
:1055C0000000000000000000000000007C3CFF7EA6
:1055D000C7E383C183C183C183C183C183C183C145
:1055E00083C183C100000000000000000000000033
:1055F0000000000000000000000000009807F80F05
:10560000381C1818181818181818181818181818F6
:10561000181818180000000000000000000000002A
:10562000000000000000000000000000C003F00FB8
:10563000300C181818181818181818181818300CD2
:10564000F00FC00300000000000000000000000098
:10565000000000000000000000000000D803F80F68
:10566000380C181818181818181818181818380C92
:10567000F80FD803180018001800180018000000D0
:10568000000000000000000000000000C01BF01F30
:10569000301C181818181818181818181818301C52
:1056A000F01FC01B00180018001800180018000098
:1056B000000000000000000000000000B007F00340
:1056C000700030003000300030003000300030001A
:1056D000300030000000000000000000000000006A
:1056E000000000000000000000000000E003F003E4
:1056F000380E180C3800F003C007000C180C380ED8
:10570000F007E003000000000000000000000000BF
:10571000000000008000C000C000C000F007F007DB
:10572000C000C000C000C000C000C000C000C00079
:10573000C00780070000000000000000000000001B
:1057400000000000000000000000000018181818F9
:105750001818181818181818181818181818381CA5
:10576000F01FE01900000000000000000000000031
:105770000000000000000000000000000C18180CE1
:10578000180C180C30063006300660036003600306
:10579000C001C00100000000000000000000000087
:1057A000000000000000000000000000C141C141F5
:1057B000C3616363636363633636363636361C1CF7
:1057C0001C1C1C1C00000000000000000000000069
:1057D0000000000000000000000000001C38381C21
:1057E000300C600660036003600360036006300CE9
:1057F000381C1C3800000000000000000000000001
:105800000000000000000000000000001830301808
:1058100030187018600C600CE00CC006C0068003E5
:105820008003800380018001C001F000700000004F
:10583000000000000000000000000000FC1FFC1F32
:10584000000C000600038001C0006000300018005A
:10585000FC1FFC1F00000000000000000000000012
:10586000000000038001C000C000C000C000C000F4
:10587000C00060006000300060004000C000C00058
:10588000C000C000C000C000800100030000000094
:105890000000800180018001800180018001800181
:1058A00080018001800180018001800180018001F0
:1058B0008001800180018001800180018001000061
:1058C00000006000C000C0018001800180018001F3
:1058D0008001000300030006000300018001800135
:1058E0008001800180018001C00060000000000094
:1058F00000000000000000000000000000000000A8
:10590000F010F81F080F0000000000000000000069
:105910000000000000000000000000000000000087
:105920000000000000000000000000000000000077
:105930000000000000000000000000200020002007
:1059400000200020002000200000002000000000B7
:105950000000005000500050000000000000000057
:105960000000000000000000000000090009001213
:10597000007F0012007F00120024002400000000BD
:10598000001000380054005000500038001400543B
:105990000054003800100000000080300049004929
:1059A000004AC032200520092009C0100000000074
:1059B0000000000C00120012001400180025002343
:1059C0000023801D00000000000000400040004057
:1059D00000000000000000000000000000000000C7
:1059E000000000080010001000200020002000200F
:1059F00000200020001000100000004000200020C7
:105A000000100010001000100010001000200020F6
:105A10000000002000700020005000000000000086
:105A2000000000000000000000000000000000086E
:105A30000008007F000800080000000000000000CF
:105A40000000000000000000000000000000000056
:105A500000000020002000400000000000000000C6
:105A600000000000007000000000000000000000C6
:105A70000000000000000000000000000000000026
:105A800000000020000000000000001000100010C6
:105A90000020002000200020004000400000000006
:105AA000000000100028004400440044004400446A
:105AB000002800100000000000000010003000501E
:105AC0000010001000100010001000100000000076
:105AD00000000030004800440004000800100020CE
