:020000040800F2
:10000000000003204555000889550008895500085F
:10001000895500088955000889550008000000002E
:10002000000000000000000000000000594000082F
:10003000895500080000000061420008C542000820
:100040008955000889550008895500088955000818
:100050008955000889550008895500088955000808
:1000600089550008895500088955000889550008F8
:1000700089550008895500088955000889550008E8
:1000800089550008895500088955000889550008D8
:1000900089550008895500088955000889550008C8
:1000A00089550008895500088955000889550008B8
:1000B00089550008895500088955000889550008A8
:1000C0008955000889550008895500088955000898
:1000D0008955000889550008895500088955000888
:1000E0008955000889550008895500088955000878
:1000F0008955000889550008895500088955000868
:100100008955000889550008895500088955000857
:100110008955000889550008895500088955000847
:100120008955000889550008895500088955000837
:100130008955000889550008895500088955000827
:100140008955000889550008895500088955000817
:100150008955000889550008895500088955000807
:1001600089550008895500088955000889550008F7
:1001700089550008895500088955000889550008E7
:1001800089550008895500088955000889550008D7
:1001900089550008895500088955000889550008C7
:1001A00089550008895500088955000890B484B025
:1001B00000AF03460A46FB711346BB710023FB6088
:1001C000BB7903F003039B000F2202FA03F3FB60E9
:1001D0001649BB799B08DBB21846144ABB799B08C9
:1001E000DBB2023352F82320FB68DB431A40831C46
:1001F00041F823200D48BB799B08DBB21C460B4A13
:10020000BB799B08DBB2023352F82320F979BB7922
:1002100003F003039B0001FA03F31A43A31C40F805
:10022000232000BF1037BD4690BC70470038014006
:1002300080B588B000AF0346FB71FB79002B5AD024
:10024000304B1B68002B58D0FB790F2B03D92E485D
:1002500001F0C8FC52E02D4B1B68002B03D02C484A
:1002600001F0C0FC4AE0EFF310837B617B69BB6166
:100270000123BB60BB6883F31088244B1B680133E8
:10028000224A1360234B1B681B6B002B28D0FB7981
:100290002133DB10204AD35C1A46FB79213303F06B
:1002A000070342FA03F303F00103002B18D14FF6C2
:1002B000FF7001F0EDFC03467B82FB797B7401F05B
:1002C000E3F9F860FB68002B0AD0FB6802221A7081
:1002D000FB687A8A5A80FB687A7C5A7001F0BAFC13
:1002E0000A4B1B68013B094A1360BB69FB61FB6950
:1002F00083F3108802E000BF00E000BF2037BD4656
:1003000080BD00BF000000202C610008EC00002030
:100310006C610008E80000204C00002080B58EB021
:1003200000AFF860B9607A60414B1B68002B7BD04E
:100330007B68002B03DA7B685B427B6301E07B68B0
:100340007B63EFF31083BB62BB6AFB6201237B61BB
:100350007B6983F31088374B1B680133354A136080
:10036000354B1A687B681344334A1360304B1B6863
:100370001B6B002B4DD0314B93F90030002B03D178
:100380002F4B1B78002B44D1FF2001F081FC03464A
:1003900087F82730796B4FF6FF7000F09DF9034620
:1003A000BB8401F071F938623B6A002B31D03B6AA3
:1003B00097F827205A703B6A00221A703B6ABA8C61
:1003C0005A8001F047FCB9684FF6FF7000F084F9DD
:1003D0000346FB8300237B7701F056F9B861BB69C4
:1003E000002B16D0BB69FA8B5A80BB697A7F5A7092
:1003F000FB68DBB20133DAB2BB691A70FB68DAB2B0
:100400003B6A1A7001F026FC094B1B680A4A126805
:100410001A65084B1B68013B064A1360FB6A3B6385
:100420003B6B83F3108800E000BF3837BD4680BDCA
:10043000E8000020EC0000204800002044000020DC
:100440004600002080B58AB000AFF8600B467A60A5
:10045000FB72FB68FE2B03D9414801F0C3FB7BE034
:10046000FB7A062B03D93F4801F0BCFB74E03E4BFE
:100470001A68FB7A134493F864301A467B689A42F0
:1004800003D23A4801F0AEFB66E0394B1B68002B03
:1004900003D0384801F0A6FB5EE0374B1B78002BF9
:1004A00059D0EFF31083FB61FB693B6201233B6191
:1004B0003B6983F310882E4B1B6801332C4A136071
:1004C000294B1B681B6B002B3AD02C4B93F9003047
:1004D000002B03D12A4B1B78002B31D17B68DAB279
:1004E000FB7A1146184604F07DFF0346002B27D106
:1004F000FB68DB08234AD35C1A46FB6803F007035A
:1005000042FA03F303F00103002B19D14FF6FF70F9
:1005100001F0BEFB03467B837B687B7601F0B4F879
:1005200078617B69002B0BD07B697A8B5A80FB68E2
:10053000DAB27B691A707B697A7E5A7001F08AFBA5
:100540000B4B1B68013B0A4A13603B6A7B627B6A68
:1005500083F3108800E000BF2837BD4680BD00BF90
:10056000DC61000810620008E80000205462000806
:10057000EC000020986200084500002044000020A4
:10058000460000205400002080B58AB000AFF8601B
:100590007A603B600B46FB72FB68FE2B03D9444834
:1005A00001F020FB81E0FB7A062B03D9414801F0E2
:1005B00019FB7AE0404B1A68FB7A134493F86430D5
:1005C0001A467B689A4203D23C4801F00BFB6CE070
:1005D0003B4B1B68002B03D03A4801F003FB64E05F
:1005E000EFF31083FB61FB693B6201233B613B69D5
:1005F00083F31088324B1B680133314A13602E4B52
:100600001B681B6B002B46D02F4B1B78002B42D056
:100610002E4B1B78002B04D02D4B93F90030002B70
:1006200039D07B68DAB2FB7A1146184604F0DAFE5C
:100630000346002B2FD1FB68DB08264AD35C1A4601
:10064000FB6803F0070342FA03F303F00103002BF6
:1006500021D1FF2001F01CFB0346FB763968FF2007
:1006600000F03AF80346BB767B687B7601F00CF825
:1006700078617B69002B0ED07B69FA7EDA70FB68AB
:10068000DAB27B691A707B697A7E5A707B69BA7EAE
:100690009A7001F0DFFA0A4B1B68013B084A1360AD
:1006A0003B6A7B627B6A83F310882837BD4680BD36
:1006B000D062000808630008E800002054630008C6
:1006C000EC000020A4630008450000204600002044
:1006D000440000205400002080B584B000AF786052
:1006E00039607B68FF2B09D07B684FF6FF7293421D
:1006F00004D0164801F076FA3B6823E03A687B683C
:100700009A4201D83B681DE000F0BEFFF860FB682C
:10071000002B14D0FB6801221A707B68DA433B6817
:1007200013401B0ADAB2FB685A707B68DA433B68F5
:1007300013401B0C9AB2FB685A8001F08BFA3A689E
:100740007B68134018461037BD4680BDDC63000847
:1007500080B58AB000AF786039600023FB847B6885
:10076000FE2B03D9324801F03DFA5EE0314B1B68A5
:10077000002B03D0304801F035FA56E0EFF3108338
:10078000BB61BB69FB610123FB60FB6883F31088DD
:10079000284B1B680133274A1360284B1B681B6BCF
:1007A000002B38D0264B1B78002B34D0254B1B78E0
:1007B000002B04D0244B93F90030002B2BD07B6806
:1007C000DB08224AD35C1A467B6803F0070342FA2F
:1007D00003F303F00103002B1DD1FF2001F058FAB1
:1007E0000346FB7539684FF6FF70FFF775FF034648
:1007F000FB8400F049FF38613B69002B0BD03B695B
:10080000FA7D5A707B68DAB23B691A703B69FA8CE0
:100810005A8001F01FFA074B1B68013B054A136021
:10082000FB693B623B6A83F310882837BD4680BD75
:1008300018640008EC0000206C640008E800002048
:100840004500002046000020440000205400002005
:1008500080B58AB000AF0346FB71002387F82730CC
:10086000FB790F2B03D93F4801F0BCF977E0FB7906
:100870002133DB103C4AD35C1A46FB79213303F069
:10088000070342FA03F303F00103002B06D0012310
:1008900087F82730354B01221A7002E0334B0022D3
:1008A0001A70EFF31083BB61BB69FB610123FB602E
:1008B000FB6883F310882E4B1B6801332C4A1360AE
:1008C0002C4B1B78FA799A4202D1012387F8273002
:1008D000294B1B681B6B002B02D1012387F82730A3
:1008E00097F92730002B30D14FF6FF7001F0D0F987
:1008F0000346FB821F4AFB7913701E4B1B787B75E6
:1009000000F0C2FE38613B69002B1ED0194B1B78EA
:100910001946032000F0A2F90346012B03D13B69DD
:1009200007221A7002E03B6906221A703B69FA8AB4
:100930005A803B697A7D5A700E4B1B78012219460A
:10094000032000F04FF901F085F9094B1B68013BCA
:10095000074A1360FB693B623B6A83F310882837C0
:10096000BD4680BDA46400084C0000204600002065
:10097000EC00002045000020E800002090B587B082
:1009800000AF03460A46FB711346BB71BB79062BC9
:1009900003D9204801F026F939E01F4B1A68BB79CA
:1009A000134493F86430FA799A4203D91B4801F052
:1009B00019F92CE0184B1B681B6B002B27D0FB7917
:1009C000FB75154B1C68BA79FB791146184600F087
:1009D0007FFE03468833234404333B61002138699A
:1009E00001F0B0F80346FB8100F04EFEB860BB6832
:1009F000002B0CD0BB790833DAB2BB681A70BB6825
:100A0000FA7D5A70BB68FA895A8001F023F91C37C5
:100A1000BD4690BDE8640008E80000203865000885
:100A200090B585B000AF03460A46FB711346BB7113
:100A3000BB79062B03D92B4801F0D4F84FE02A4BA1
:100A40001A68BB79134493F86430FA799A4203D94F
:100A5000264801F0C7F842E0234B1B681B6B002BB4
:100A60003DD000F011FEF860FB68002B37D0BB7959
:100A7000032B17D11C4B1C68BA79FB791146184619
:100A800000F026FE03461946174B1A68BB7913443B
:100A900093F86C300B440133234493F88C20FB68AB
:100AA0005A7015E0104B1C68BA79FB79114618464C
:100AB00000F00EFE034619460B4B1A68BB7913442F
:100AC00093F86C300B44234493F88C20FB685A70E5
:100AD000BB791033DAB2FB681A7001F0BBF8143737
:100AE000BD4690BD84650008E8000020DC65000874
:100AF00090B583B000AF0346FB710B46BB71134644
:100B00007B71FB79062B03D9144801F06BF822E0C6
:100B1000134B1A68FB79134493F86430BA799A42FC
:100B200003D9104801F05EF815E00D4B1C68FA7906
:100B3000BB791146184600F0CBFD03461946084B19
:100B40001A68FB79134493F86C300B440133234447
:100B50007A7983F88C200C37BD4690BD2C6600084E
:100B6000E80000207466000890B583B000AF03462B
:100B70000A46FB711346BB71FB79062B04D9164854
:100B800001F030F8002322E0144B1A68FB7913447B
:100B900093F86430BA799A4204D9114801F022F8E6
:100BA000002314E00D4B1C68FA79BB7911461846F6
:100BB00000F08EFD03461946084B1A68FB79134472
:100BC00093F86C300B440133234493F88C3018466F
:100BD0000C37BD4690BD00BFB4660008E800002099
:100BE0001067000890B583B000AF0346FB710B4659
:100BF000BB7113467B71FB79062B03D9144800F0B7
:100C0000F1FF21E0134B1A68FB79134493F8643029
:100C1000BA799A4203D9104800F0E4FF14E00D4B72
:100C20001C68FA79BB791146184600F051FD03465D
:100C30001946084B1A68FB79134493F86C300B443F
:100C400023447A7983F88C200C37BD4690BD00BFD1
:100C50008C670008E8000020D067000890B583B0DA
:100C600000AF03460A46FB711346BB71FB79062BA6
:100C700004D9154800F0B6FF002321E0134B1A6891
:100C8000FB79134493F86430BA799A4204D9104836
:100C900000F0A8FF002313E00C4B1C68FA79BB7925
:100CA0001146184600F014FD03461946074B1A6812
:100CB000FB79134493F86C300B44234493F88C3045
:100CC00018460C37BD4690BD0C680008E8000020AF
:100CD0005068000890B583B000AF0346FB71104B1D
:100CE0001B6893F86730FA799A4203D90D4800F0EF
:100CF00079FF11E00A4B1C68FB790321184600F0CC
:100D0000E7FC03461A46064B1B6893F86F30134402
:100D10002344002283F88C200C37BD4690BD00BFD1
:100D2000E80000208C68000880B500AF00F0F6F8FD
:100D300000F03AF900F010F80346002B01D004232C
:100D400008E000F023F80121012000F049F800F04C
:100D500071F80023184680BD80B500AF00F026F87A
:100D600003461A4640F611039A4209D0064B1B6807
:100D7000002B03D100F0E0FA034602E0012300E07B
:100D80000023184680BD00BF0400002080B500AFDE
:100D90000221032000F032F9022000F003FB0021C1
:100DA000032000F02BF90023184680BD80B582B0E7
:100DB00000AF0023FB80002000F0D0F90346FB8049
:100DC000FB881B02FB80012000F0C8F903469AB2A1
:100DD000FB881343FB80FB8818460837BD4680BD5F
:100DE00080B584B000AF03460A46FB711346BB7161
:100DF0000023FB73042000F0B1F90346FB73BB79B9
:100E0000002B09D097F90730DB435AB297F90F301E
:100E100013405BB2FB7303E0FA7BFB791343FB7374
:100E2000FB7B1946042000F0E9F800231846103730
:100E3000BD4680BD80B500AF01210220FFF7D0FF85
:100E40004921202000F0DAF8022000F0ABFA01215D
:100E5000212000F0D3F800211E2000F035F89A215F
:100E6000412000F0CBF801214A2000F0C7F8012111
:100E70004B2000F0C3F800214B2000F0BFF8012107
:100E8000562000F0BBF80121582000F0B7F80321EC
:100E9000402000F0B3F8FF210B2000F0AFF8094B21
:100EA0000022DA80074BDA88064B9A80054B9A8835
:100EB000044B5A80034B5A88024B1A800023184671
:100EC00080BD00BF7430012080B584B000AF034600
:100ED0000A46FB711346BB710023FB73172000F019
:100EE0003DF90346FB73BB79002B04D0FA7BFB79F9
:100EF0001343FB7308E097F90730DB435AB297F9C5
:100F00000F3013405BB2FB73FB7B1946172000F0D8
:100F100075F8002318461037BD4680BD80B582B0F5
:100F200000AF01214FF4000001F0B0F9012140F2BF
:100F3000051001F08BF901214FF4804001F0C6F952
:100F400001214FF4000001F0E1F900214FF400000D
:100F500001F0DCF904220821114802F0CFFD04223F
:100F60000921104802F0CAFD4FF480733B60022350
:100F70003B7102237B710123BB710023FB713B4654
:100F80001946074802F02CFD4FF400733B603B46C6
:100F90001946044802F024FD00BF0837BD4680BD55
:100FA000000002400008024080B584B000AF114B41
:100FB0001B889BB203F00103002B17D10023BB80D9
:100FC0004BF6FF73FB8000233B814FF480637B81F2
:100FD0004FF48043BB81084B3B603B4619460548B4
:100FE00004F00EFB0121034804F0CCFB00BF1037D6
:100FF000BD4680BD005C0040A086010080B584B085
:1010000000AF03460A46FB711346BB710023FB6029
:1010100001214C4804F0D6FB4B4B4FF440521A6070
:101020000AE0494B1B685A1E47490A60002B03D14E
:1010300000F082F9034680E04449424804F080FC15
:101040000346002BEDD0002282213E4804F0FAFB3B
:101050003D4B4FF440521A600AE03B4B1B685A1E4E
:1010600039490A60002B03D100F066F9034664E0B9
:101070003749344804F064FC0346002BEDD0314B73
:101080001B8B314B4FF440521A600AE02E4B1B6809
:101090005A1E2D490A60002B03D100F04DF903467A
:1010A0004BE02C49274804F04BFC0346002BEDD0C5
:1010B000FB791946234804F025FC234B4FF440529A
:1010C0001A600AE0204B1B685A1E1F490A60002B59
:1010D00003D100F031F903462FE01E49194804F00E
:1010E0002FFC0346002BEDD0BB791946154804F0C0
:1010F00009FC154B4FF440521A600AE0124B1B6872
:101100005A1E11490A60002B03D100F015F903465D
:1011100013E010490B4804F013FC0346002BEDD0FC
:101120000D49084804F00CFC0346002BE6D00121D1
:10113000044804F067FBFB68DBB218461037BD4675
:1011400080BD00BF005C00400400002001000010D2
:1011500002000010800000100400001080B584B070
:1011600000AF0346FB710023FB7301216B4804F0C1
:1011700029FB6B4B4FF440521A600AE0684B1B6826
:101180005A1E67490A60002B03D100F0D5F80346C8
:10119000C0E06449614804F0D3FB0346002BEDD066
:1011A00000215E4804F06CFB002282215B4804F0C1
:1011B00049FB5B4B4FF440521A600AE0584B1B68E6
:1011C0005A1E57490A60002B03D100F0B5F80346B8
:1011D000A0E05549514804F0B3FB0346002BEDD085
:1011E0004E4B1B8B4E4B4FF440521A600AE04C4B57
:1011F0001B685A1E4A490A60002B03D100F09CF874
:10120000034687E04949454804F09AFB0346002B12
:10121000EDD0FB791946414804F074FB404B4FF484
:1012200040521A600AE03E4B1B685A1E3C490A6055
:10123000002B03D100F080F803466BE03B493748B0
:1012400004F07EFB0346002BEDD03949334804F00F
:1012500077FB0346002BE6D00121304804F0B2FAB8
:101260002F4B4FF440521A600AE02D4B1B685A1E58
:101270002B490A60002B03D100F05EF8034649E0D9
:101280002849264804F05CFB0346002BEDD00122E0
:101290008221224804F0D6FA214B4FF440521A60C2
:1012A0000AE01F4B1B685A1E1D490A60002B03D120
:1012B00000F042F803462DE01B49184804F040FBBB
:1012C0000346002BEDD0154B1B8B154B4FF44052B2
:1012D0001A600AE0124B1B685A1E11490A60002B63
:1012E00003D100F029F8034614E012490B4804F03A
:1012F00027FB0346002BEDD00121084804F082FAB9
:10130000064804F00FFB0346FB730121034804F079
:10131000B7FAFB7B18461037BD4680BD005C004025
:1013200004000020010000100200001080000010E6
:10133000040000104000001080B584B000AF01210F
:10134000164804F05FFA0121144804F0B9FA0021AC
:10135000124804F0B5FAFFF7E1FD104804F016F961
:101360000023BB804BF6FF73FB8000233B814FF4CF
:1013700080637B814FF48043BB81094B3B6001213B
:10138000064804F0FFF93B461946044804F038F9D2
:10139000002318461037BD4680BD00BF005C0040EA
:1013A000A086010080B485B000AF78600023FB60A8
:1013B0007B68084A02FB03F3FB6002E0FB68013B29
:1013C000FB60FB68002BF9D100BF1437BD465DF808
:1013D000047B7047A086010080B500AF002004F0B8
:1013E000BFFC012004F0BCFC0021002004F0E6FC5E
:1013F000FFF79AFC02F04EFD02F052FD044802F0A5
:10140000C3FD03461A46034B1A8001F0B7FBFEE703
:10141000D46800087C30012080B500AF7D4B1A688D
:101420007D4B1B6813447D4A13607D4B7D4A1A60D7
:101430007B4B1B68002B03D17B4800F0D3FBE8E01B
:10144000774B1B68002B03D1784800F0CBFBE0E022
:10145000734B1B6844F2C0620021184604F094FDEF
:101460006F4B1B6800221A706D4B1B6801225A706B
:101470006B4B1B6802229A70694B1B680322DA705F
:10148000674B1B6870221A71654B1B6871225A7179
:10149000634B1B6872229A71614B1B687322DA716D
:1014A0005F4B1B68F0221A725D4B1B68F1225A7267
:1014B0005B4B1B68F2229A72594B1B68F322DA725B
:1014C000574B1B6841F6A1229A81554B1B68042299
:1014D0009A73534B1B680022DA73514B1B6844F21A
:1014E000C0621A614E4B1B684FF47A629A614C4B92
:1014F0001B684FF0F0325A65494B1B6800229A6511
:1015000003F03CFE464B1B684FF0F132C3F8242435
:10151000434B1B684FF44872C3F82824404B1B68A8
:101520000122C3F82C243E4B1B6803F5FA634FF0ED
:101530007E521A603A4B1B684FF0F232C3F8D8273C
:10154000374B1B6803F2DC7350223949184604F00C
:10155000B9FD334B1B684FF0F332C3F82C28304BE6
:101560001B6803F58D4334330A221A702C4B1B6819
:1015700003F58D4335330B221A70294B1B6803F595
:101580008D4336330C221A70254B1B6803F58D43AF
:1015900037330D221A70224B1B6803F58D43383305
:1015A00071221A701E4B1B6803F58D43393372226A
:1015B0001A701B4B1B6803F58D433A3373221A7064
:1015C000174B1B6803F58D433B3374221A70144B81
:1015D0001B6803F58D433C33F1221A70104B1B68D6
:1015E00003F58D433D33F2221A700D4B1B6803F552
:1015F0008D433E33F3221A70094B1B6803F58D436C
:101600003F33F4221A7003F05DFE00F013F804F08B
:101610003DFA80BD041000E0600400204077012006
:10162000E800002080300120D86800081869000810
:101630004069000880B582B000AF114B1B683B6069
:101640003B681B78002B13D100237B600CE03A68C9
:101650007B68134439687A680A4412780132D2B23E
:101660001A707B6801337B607B680B2BEFD902E03B
:10167000044800F0B7FA00BF0837BD4680BD00BF80
:10168000E80000205469000880B500AF0E4B1B68CD
:101690001B6B002B01D1002313E00B4B1B68DB6994
:1016A000B3F57A6F04D3094800F09CFA002308E0F0
:1016B000054B1A68044B1B68DB699B0003F5036349
:1016C0001344184680BD00BFE80000208069000870
:1016D00080B582B000AF03460A46FB711346BB716A
:1016E000BB79062B04D9224800F07CFA00233AE0AB
:1016F000FB79002B08D01F4B1A68BB79134493F871
:101700006430FA799A4204D91B4800F06BFA00233E
:1017100029E0BB79062B22D8FB79002B1FD0154B73
:101720001A68BB79134493F86430FA799A4216D850
:10173000104B1A68BB793C335B0013449A880D4BFD
:101740001968BB790B4493F8743099B2FB79013B6B
:101750009BB211FB03F39BB213449BB203E0074817
:1017600000F040FA002318460837BD4680BD00BF90
:10177000A8690008E8000020E8690008286A000855
:1017800080B584B000AF0346FB71FB79062B04D90A
:10179000904800F027FA002318E1FB798E4A32F8CE
:1017A00013301A468D4B1A608C4B1B688A4A1344BF
:1017B00093F83830002B14D1884B1A68874B1B687C
:1017C000D9B2FB79844804335B000344DB88DBB285
:1017D000CB1ADBB20133D9B27F4B13440A4683F8EC
:1017E00038207E4B1B687C4A134493F83830FB73D7
:1017F000FB79794A32F81320FB7977490C335B0087
:101800000B449B889A420AD9FB79184603F0AAFD3B
:101810000346184600F0E6F90023FB73D5E0FB7998
:101820006D4A32F81320013291B26B4A22F813103C
:10183000FB79694A32F813301946FB79664A04335A
:101840005B001344DB88CB1ABB60FB79624A14331C
:101850005B0013445B881A46BB689A4209DAFB793D
:10186000BA68D2B291B25C4A14335B0013440A46A0
:101870005A80FB79062B00F2A88001A252F823F0CF
:101880009D180008D1180008031900083519000830
:10189000CB1900086719000899190008FB7BDB08C1
:1018A000DBB21846FB7BDB08DBB21A464C4B9B5C79
:1018B0005AB2FB7B03F00703012101FA03F35BB289
:1018C000DB435BB213405BB2DAB2454B1A547BE0A8
:1018D000FB7B0B33DB10FA7B0B32D21040498A5C66
:1018E00051B2FA7B0B3202F00702012000FA02F239
:1018F00052B2D24352B20A4052B2D1B2384AD15453
:1019000062E0FB7B1633DB10FA7B1632D2103449CF
:101910008A5C51B2FA7B163202F00702012000FA0B
:1019200002F252B2D24352B20A4052B2D1B22C4A5F
:10193000D15449E0FB7B2133DB10FA7B2132D210FA
:1019400027498A5C51B2FA7B213202F0070201205A
:1019500000FA02F252B2D24352B20A4052B2D1B2AB
:101960001F4AD15430E0FB7B3133DB10FA7B31323C
:10197000D2101B498A5C51B2FA7B313202F0070265
:10198000012000FA02F252B2D24352B20A4052B2DD
:10199000D1B2134AD15417E0FB7B3433DB10FA7B0E
:1019A0003432D2100E498A5C51B2FA7B343202F0E2
:1019B0000702012000FA02F252B2D24352B20A40A8
:1019C00052B2D1B2064AD15400BFFB7B1846103741
:1019D000BD4680BD686A000878000020F400002041
:1019E0004C00002080B584B000AF03460A46FB716E
:1019F0001346BB71FB79062B03D91E4800F0F2F8A1
:101A000034E0BB79002B08D01B4B1A68FB791344D8
:101A100093F86430BA799A4203D9184800F0E2F892
:101A200024E0FB79164A32F813305A1EFB79144928
:101A300004335B000B44DB889A4203DA114800F060
:101A4000D1F813E0FB790E4A32F81320013A91B233
:101A50000B4A22F81310FB79094A32F81330FB6065
:101A6000074AFB6813443833BA791A701037BD46F9
:101A700080BD00BFAC6A0008E8000020F06A0008E2
:101A800078000020306B000880B582B000AF0346BC
:101A90003A60FB710B46BB713B68002B03D12348B6
:101AA00000F0A0F83EE0FB79062B03D9204800F0B7
:101AB00099F837E0BB79002B03D11E4800F092F86B
:101AC00030E01D4B1A68FB79134493F86430BA79FF
:101AD0009A4208D9FB79184603F044FC034618469D
:101AE00000F080F81EE0FA79BB7911461846FFF73E
:101AF000EFFD03461A46114B1A80114B1B68002B51
:101B000010D10D4B1A680D4B1B8888331344181DD8
:101B1000094B1A68FB79134493F86C301A463968FC
:101B200004F0D0FA0837BD4680BD00BF606B0008E6
:101B3000906B0008BC6B0008E8000020F800002053
:101B4000F000002080B588B000AF78600B467B8045
:101B50000023FB720023BB727B68002B04D11F485B
:101B600000F040F8002334E007F10B0207F10A030C
:101B70001946786800F07AFAEFF310833B613B690D
:101B80007B610123FB60FB6883F31088144B1B68A7
:101B90000133134A1360B97AFA7A7B88786800F0C7
:101BA0002BF90346FB83FB8B002B07D1B97AFA7A1A
:101BB0007B88786800F09CF90346FB83084B1B6820
:101BC000013B074A13607B69BB61BB6983F31088E3
:101BD000FB8B18462037BD4680BD00BFE86B000870
:101BE000EC00002080B582B000AF78607B68002BED
:101BF00003D11448FFF7F6FF21E0134B1B68002BBD
:101C000003D11248FFF7EEFF19E00F4B1B680022CB
:101C10001A630F4B1B68002B11D10D4A7B681360B0
:101C2000094B1B6803F2DC70094B1B6850221946F4
:101C300004F048FA044B1B680122C3F8D427083784
:101C4000BD4680BD186C0008E8000020406C00080C
:101C5000F000002080B500AF0C4B1B681B6B002B05
:101C600012D00A4B1B685A6901325A61074B1B6834
:101C7000DA690132DA61054B1B68DB69B3F57A6F0B
:101C800003D302F06DF900E000BF80BDE800002042
:101C900090B587B000AF0346FB8000237B61002333
:101CA0003B610023FB60FB88FF2B09D0FB884FF6CC
:101CB000FF72934204D04C48FFF794FF00238FE05B
:101CC00007F10C03184603F01FFFFA68474B1B6827
:101CD000D31A3B61FB68454A1360454B1B685B6A3E
:101CE000002B43D0424B1B685A6A3B699A421DD273
:101CF0003F4B1B683E4A1268D16A3D4A1268526ADD
:101D00003869B0FBF2F20A44DA62394B1968384B91
:101D10001B68986A364B1B685A6A3B69B3FBF2F43E
:101D200002FB04F29B1A03448B6207E0304B1B68F2
:101D30002F4A1268916A3A690A449A622C4B1B68CE
:101D40009A6A2B4B1B685B6A9A4213D3284B1B6819
:101D5000DA6A0132DA62264B1B68254A1268916AF8
:101D6000234A1268526A8A1A9A6203E0204B1B685F
:101D7000FA689A62FA883B699A422CD2FFF784FC8F
:101D800078617B69002B26D0FB884FF6FF72934267
:101D90000BD17B69A9221A703B691B0C9AB27B6933
:101DA0005A807B6900225A7013E0FB88FF2B0DD10B
:101DB0007B69A8221A703B691B0A9AB27B695A8018
:101DC0003B691B0EDAB27B695A7002E00948FFF7E3
:101DD00009FFFFF73FFF3B699AB2FB8813409BB2B4
:101DE00018461C37BD4690BDCC6C0008FC00002096
:101DF000E80000200C6D000880B584B000AF78606A
:101E0000084611461A460346FB700B46BB70134644
:101E10003B80344B1B68FA7802F56A7233F8123053
:101E2000FB817B68002B04D12F48FFF7DBFE0023EA
:101E300053E0BB78002B4AD12C48FFF7D3FE002398
:101E40004BE0284B1A68FB890233134493F8303473
:101E50001A463B88DBB29A4226D1224B1A68FB898C
:101E60000333134493F830349AB23B881B0A9BB275
:101E70009A4219D11B4B1A68FB89191DBB780B4478
:101E8000134493F83034002B0ED1164B1A68FB899B
:101E9000043303F586631344BA787968184604F06E
:101EA000C1F80346002B16D00E4B1A68FB89134469
:101EB00093F830349AB20B4B1968FB8901330B4409
:101EC00093F830349BB21B029BB21344FB81FB8915
:101ED000002BB6D100E000BFFB8918461037BD4685
:101EE00080BD00BFE8000020306D00086C6D000868
:101EF00080B584B000AF7860084611461A460346A4
:101F0000FB700B46BB7013463B800023FB817B6854
:101F1000002B04D15148FFF765FE002399E0BB7800
:101F2000002B04D14E48FFF75DFE002391E04D4B9E
:101F30001B68D3F82C24BB7813440433B3F5487FD3
:101F400005D34948FFF74EFE0023FB8180E0454B57
:101F50001A68444B1B68D3F82C3442490968F87856
:101F600000F56A7031F81010C9B213440A4683F8BC
:101F700030243C4B1A683B4B1B68D3F82C3401339C
:101F800038490968F87800F56A7031F81010090AC4
:101F900089B2C9B213440A4683F83024314B1A6817
:101FA000304B1B68D3F82C3402333988C9B2134440
:101FB0000A4683F830242B4B1A682A4B1B68D3F847
:101FC0002C3403333988090A89B2C9B213440A464A
:101FD00083F83024234B1A68224B1B68D3F82C3427
:101FE000043303F586631344BA787968184604F01D
:101FF00069F81C4B1A681B4B1B68D3F82C14BB7870
:102000000B4404331344002283F83024154B1B681F
:10201000FA7814490968D1F82C1489B202F56A7269
:1020200023F812100F4B1B680E4A1268D2F82C14BA
:10203000BA780A440532C3F82C240A4B1B68D3F83B
:102040002C349AB2BB789BB2D31A9BB2053BFB816E
:10205000FB8918461037BD4680BD00BFA46D00083F
:10206000E06D0008E8000020186E000880B588B018
:1020700000AFF860B9607A600123FB610023BB61A7
:10208000FB68002B03D11948FFF7ACFD2BE0BB68C0
:10209000002B03D11648FFF7A5FD24E07B68002B39
:1020A00003D11448FFF79EFD1DE0FB68002B0FD005
:1020B00006E0FB7DBA691344BB61FB690133FB6138
:1020C000FB685A1CFA601B78FB75FB7D002BF0D176
:1020D000BB69DBB203F03F03DAB2BB681A70FB697D
:1020E000DAB27B681A702037BD4680BD586E000892
:1020F0008C6E0008BC6E000880B489B000AF7860B8
:102100000023BB6100237B610023FB6102233B6151
:102110000023FB600223BB60484B9B6803F00C0369
:10212000BB61BB69042B07D0082B09D0002B3FD122
:102130007B68434A1A603FE07B68424A1A603BE092
:102140003E4B5B6803F480039B0DFB603B4B5B687D
:1021500003F03F03BB60FB68002B0DD0394ABB681E
:10216000B2FBF3F2354B596847F6C0730B409B093D
:1021700003FB02F3FB610CE0314ABB68B2FBF3F2F4
:102180002E4B596847F6C0730B409B0903FB02F3C3
:10219000FB612A4B5B6803F440331B0C01335B008B
:1021A0003B61FA693B69B2FBF3F27B681A6003E0BA
:1021B0007B68234A1A6000BF204B9B6803F0F00342
:1021C000BB61BB691B09BB611F4ABB6913441B7818
:1021D000DBB27B617B681A687B69DA407B685A6096
:1021E000164B9B6803F4E053BB61BB699B0ABB6160
:1021F000154ABB6913441B78DBB27B617B685A6864
:102200007B69DA407B689A600C4B9B6803F46043FF
:10221000BB61BB695B0BBB610B4ABB6913441B7899
:10222000DBB27B617B685A687B69DA407B68DA6085
:1022300000BF2437BD465DF8047B7047003802407C
:102240000024F40000127A000800002080B483B05B
:1022500000AF78600B46FB70FB78002B06D00A4974
:10226000094B1A6B7B6813430B6306E00649064B68
:102270001A6B7B68DB4313400B6300BF0C37BD4612
:102280005DF8047B704700BF0038024080B483B023
:1022900000AF78600B46FB70FB78002B06D00A4934
:1022A000094B1A6C7B6813430B6406E00649064B26
:1022B0001A6C7B68DB4313400B6400BF0C37BD46D0
:1022C0005DF8047B704700BF0038024080B483B0E3
:1022D00000AF78600B46FB70FB78002B06D00A49F4
:1022E000094B5A6C7B6813434B6406E00649064B66
:1022F0005A6C7B68DB4313404B6400BF0C37BD4610
:102300005DF8047B704700BF0038024080B483B0A2
:1023100000AF78600B46FB70FB78002B06D00A49B3
:10232000094B1A6A7B6813430B6206E00649064BA9
:102330001A6A7B68DB4313400B6200BF0C37BD4653
:102340005DF8047B704700BF0038024080B586B05E
:1023500004AF00237B6000F0C3FA134B1B68002B13
:102360000FD00023039300230293104B0193022309
:10237000009300234FF482720D490E4800F0F8FAE2
:1023800078607B68002B09D14FF0500383F31188EC
:10239000BFF36F8FBFF34F8F3B60FEE77B6818463C
:1023A0000837BD4680BD00BF300100203401002049
:1023B000F06E00084D25000880B588B000AFF860C9
:1023C000B9607A603B600023FB613F4B1B68002BC8
:1023D00075D0BB683B617B687B61FB68BB61BB6898
:1023E000052B18DC01F080F90346022B09D1364B8E
:1023F000186807F110010023BA6A02F0E7F8F861E3
:1024000012E0314B186807F110010023002202F09E
:10241000DDF8F86108E02C4B186807F11001002383
:102420003A6802F053FAF861BB68002B47DDBB68DD
:10243000042B0ED1FB69012B01D1B42000E0BD209B
:10244000FB689B6ADBB21A467B680521FEF79CF8A5
:1024500035E0BB68052B20D1FB69012B1DD1FB6842
:102460009B6ADBB21A460521B520FDF7EBFFFB683E
:102470009B6ADBB205211846FEF780FAFB689B6A6F
:10248000DBB205211846FEF7CBFAFB689B6ADBB28C
:1024900019460520FFF7A6FA11E0BB6803F1B00268
:1024A000FB69012B01D1002300E0092313441846E6
:1024B000FB689B6ADBB21A460521FDF7C3FFFB6987
:1024C00018462037BD4680BD3001002080B588B059
:1024D00002AF786039601C4B1B68DB68DB687B618E
:1024E0007B690433184601F0DFFB7B69DB69012B54
:1024F00021D17B699A697B68D1187B683A687869D1
:1025000000F0BAF80346012B15D1002300930023F5
:102510007A6800217869FFF74FFF38613B69002B2B
:1025200009D14FF0500383F31188BFF36F8FBFF3CE
:102530004F8FFB60FEE77B695B6A7869984700BF55
:102540001837BD4680BD00BF2801002080B584B08B
:1025500000AF786007F10803184600F049F8F8600A
:10256000BB681946F86800F003F800F0C7F8F1E717
:1025700080B584B000AF7860396000F04BFB07F1A4
:102580000803184600F058F8F860BB68002B24D107
:102590003B68002B0AD17A68FB689A4206D800F0A3
:1025A00047FBF9687868FFF791FF18E00E4B186851
:1025B0007A68FB68D31A3A68194602F081FD00F088
:1025C00037FB0346002B0AD1084B4FF080521A60AC
:1025D000BFF34F8FBFF36F8F01E000F029FB00BF07
:1025E0001037BD4680BD00BF3001002004ED00E083
:1025F00080B485B000AF78600E4B1B681B68002B61
:102600000CBF01230023DBB21A467B681A607B688B
:102610001B68002B05D1074B1B68DB681B68FB6040
:1026200001E00023FB60FB6818461437BD465DF8E7
:10263000047B70472801002080B584B000AF78602B
:1026400000F090FBF8600B4B1B68FA689A4205D2C9
:1026500000F0E6F87B6801221A6002E07B68002245
:102660001A60044AFB681360FB6818461037BD46C1
:1026700080BD00BF3801002080B586B000AFF86093
:10268000B9607A603B6000237B61FB68BA685A607E
:10269000FB68FA681A61BA687B689A4212D87A684D
:1026A0003B68D21AFB689B699A4202D301237B6183
:1026B0001BE0104B1A68FB6804331946104601F002
:1026C000B9FA12E07A683B689A4206D2BA683B6867
:1026D0009A4202D301237B6107E0074B1A68FB682B
:1026E00004331946104601F0A5FA7B6918461837DD
:1026F000BD4680BD2C0100202801002080B58CB093
:1027000002AF7AE0BB68002B77DB3B697B627B6AB8
:102710005B69002B04D07B6A0433184601F0C4FACD
:102720003B1D1846FFF788FF3862BB68092B63D84A
:1027300001A252F823F000BF6127000861270008BA
:1027400061270008FB270008BB270008F1270008C5
:102750006127000861270008FB270008BB27000845
:10276000FA687B6A9B69D118FB683A6A786AFFF756
:1027700083FF0346012B40D17B6A5B6A786A9847E6
:102780007B6ADB69012B38D1FA687B6A9B691A4442
:102790000023009300230021786AFFF70DFEF86103
:1027A000FB69002B29D14FF0500383F31188BFF34D
:1027B0006F8FBFF34F8F7B61FEE7FA687B6A9A6188
:1027C0007B6A9B69002B09D14FF0500383F311887A
:1027D000BFF36F8FBFF34F8FBB61FEE77B6A9A69D0
:1027E0003B6AD1183B6A3A6A786AFFF745FF04E012
:1027F000786A03F09DFA00E000BF084B186807F103
:1028000008010023002202F039F90346002B7FF46F
:1028100079AF00BF2837BD4680BD00BF3001002022
:1028200080B588B002AF44E02B4B1B68DB681B68A7
:102830007B61294B1B68DB68DB683B613B690433C8
:10284000184601F031FA3B695B6A386998473B6981
:10285000DB69012B2DD13B699A697B691344FB60CD
:10286000FA687B699A420ED93B69FA685A603B69FB
:102870003A691A61184B1A683B69043319461046C5
:1028800001F0D8F915E00023009300237A690021B4
:102890003869FFF791FDB860BB68002B09D14FF094
:1028A000500383F31188BFF36F8FBFF34F8F3B60EB
:1028B000FEE7094B1B681B68002BB5D1064B1B6854
:1028C0007B60064B1B68044A1360044A7B681360F4
:1028D00000BF1837BD4680BD280100202C01002014
:1028E00080B582B000AF01F065FC1B4B1B68002B6C
:1028F0002BD11A4801F04CF9194801F049F9194B4C
:10290000164A1A60184B164A1A6000220C210A2037
:1029100001F0C8FD0246104B1A600F4B1B68002BDC
:1029200009D14FF0500383F31188BFF36F8FBFF3CA
:102930004F8F7B60FEE7084B1B68002B05D0064BD2
:102940001B680A49184602F083FB01F061FC00BFD6
:102950000837BD4680BD00BF3001002000010020C7
:1029600014010020280100202C010020F86E00082E
:1029700080B58CB002AFF860B9603B601346FB8055
:10298000FB68002B09D14FF0500383F31188BFF38C
:102990006F8FBFF34F8F3B61FEE73B6B1D2B09D958
:1029A0004FF0500383F31188BFF36F8FBFF34F8F46
:1029B0007B61FEE7FB88B96B184600F019FE3862B0
:1029C0003B6A002B00F0AA803B6A1A6BFB8803F17C
:1029D0008043013B9B001344FB61FB6923F0070329
:1029E000FB61FB6903F00703002B09D04FF0500394
:1029F00083F31188BFF36F8FBFF34F8FBB61FEE787
:102A0000FB880093FB6B3A6BB968386A00F0EAFC0C
:102A10003A68F968F86901F0CFFA02463B6A1A6031
:102A20007B6B002B02D07B6B3A6A1A6001F0C2FB11
:102A30004B4B1B6801334A4A13604A4B1B68002BFF
:102A400009D1484A3B6A1360454B1B68012B0FD1E3
:102A500000F01CFD0CE0444B1B68002B08D1414BDF
:102A60001B68DA6A3B6B9A4202D83E4A3B6A1360A3
:102A70003E4B1B6801333D4A13603C4B1A683B6A6E
:102A80001A643B6A002B26D00320FEF779FE03462A
:102A90001A463B6A5A64386A02F05AFB03461946E2
:102AA0003B6A34331A460320FEF7EEFF386A02F021
:102AB0004FFB034619463B6ADB6ADBB21A4603202A
:102AC000FEF716F8386A02F043FB03461A46032164
:102AD0001B20FDF7B7FC386A02F03AFB03461846A4
:102AE000FDF7A6FB3B6ADB6A01229A40204B1B687C
:102AF00013431F4A13603B6ADA6A13469B00134470
:102B00009B001C4A1A443B6A04331946104601F0E4
:102B10006DF801237B6201F07BFB07E04FF0FF3390
:102B20007B62002203214320FDF78CFC7B6A012B92
:102B300011D10D4B1B68002B0DD00A4B1B68DA6AB4
:102B40003B6B9A4207D20C4B4FF080521A60BFF396
:102B50004F8FBFF36F8F7B6A18462837BD4680BD05
:102B6000080400203C01002014040020240400205C
:102B7000100400204001002004ED00E080B588B082
:102B800004AF002303930023029300230193002347
:102B90000093002382221A491A48FFF7E9FEF860E1
:102BA000FB68012B02D1FFF7D1FBF860FB68012B1A
:102BB00015D14FF0500383F31188BFF36F8FBFF32C
:102BC0004F8F7B60104B4FF0FF321A600F4B01228A
:102BD0001A600F4B00221A6001F060FA0CE0FB68EB
:102BE000002B09D14FF0500383F31188BFF36F8F8F
:102BF000BFF34F8FBB60FEE700BF1037BD4680BDFF
:102C0000006F0008B53300082804002014040020D9
:102C10000C04002080B400AF044B1B680133034A4E
:102C2000136000BFBD465DF8047B70472C04002094
:102C300080B584B000AF0023FB60414B1B68002BC4
:102C400009D14FF0500383F31188BFF36F8FBFF3A7
:102C50004F8F7B60FEE701F0ADFA394B1B68013BFB
:102C6000374A1360364B1B68002B62D1354B1B680B
:102C7000002B5ED035E0344BDB68DB68BB60BB68A3
:102C80001833184601F010F8BB680433184601F0F9
:102C90000BF8B86802F05CFA03461846FDF7C8FA6C
:102CA000BB68DB6A01229A40284B1B681343274A02
:102CB0001360BB68DA6A13469B0013449B00244AE6
:102CC0001A44BB6804331946104600F08FFFBB68F6
:102CD000DA6A204B1B68DB6A9A4202D31E4B012240
:102CE0001A60194B1B68002BC5D11C4B1B68002BAD
:102CF00011D00CE000F046F80346002B02D0164B32
:102D000001221A60154B1B68013B144A1360134BD8
:102D10001B68002BEED1104B1B68012B09D101233E
:102D2000FB600F4B4FF080521A60BFF34F8FBFF321
:102D30006F8F01F06DFAFB6818461037BD4680BDF5
:102D40002C04002008040020C803002010040020E8
:102D5000400100203C0100201C0400201804002039
:102D600004ED00E080B483B000AF054B1B687B60CE
:102D70007B6818460C37BD465DF8047B704700BF82
:102D80000C04002080B586B000AF00237B615D4B52
:102D90001B68012B03D05C4B1B68002B07D15B4BDE
:102DA0001B680133594A1360002002F0ADFE554BF9
:102DB0001B68544B1B68002B40F09480544B1B68DD
:102DC0000133534A1360524B1B683B613B69002B34
:102DD0001FD1504B1B681B68002B09D04FF05003CC
:102DE00083F31188BFF36F8FBFF34F8F3B60FEE714
:102DF000484B1B68FB60484B1B68464A1360464AB9
:102E0000FB681360454B1B680133444A136000F0B4
:102E100035FC434B1B683A699A4254D33D4B1B68BF
:102E20001B68002B01D1012300E00023002B04D0FC
:102E30003B4B4FF0FF321A6045E0364B1B68DB68B6
:102E4000DB68BB60BB685B687B603A697B689A4201
:102E500003D2334A7B68136035E0BB6804331846FD
:102E600000F022FFBB689B6A002B04D0BB681833BC
:102E7000184600F019FFB86802F06AF903461846D0
:102E8000FDF7D6F9BB68DB6A01229A40254B1B6827
:102E90001343244A1360BB68DA6A13469B00134449
:102EA0009B00214A1A44BB6804331946104600F0BF
:102EB0009DFEBB68DA6A1D4B1B68DB6A9A42ADD384
:102EC00001237B61AAE7194B1B68DA6A164913468E
:102ED0009B0013449B000B441B68012B07D9012363
:102EE0007B6104E0084B1B680133074A1360104BF9
:102EF0001B68002B01D001237B617B6918461837C2
:102F0000BD4680BD2C040020180400205C04002075
:102F10000C040020C0030020C40300202004002073
:102F20002804002010040020400100203C01002063
:102F30001C04002080B586B000AF2A4B1B68002B14
:102F400003D0294B01221A6048E0274B00221A6067
:102F5000264B1B68BB60BB68B3FA83F3FB71FB793C
:102F6000C3F11F033B6122493A6913469B00134496
:102F70009B000B441B68002B09D14FF0500383F3D7
:102F80001188BFF36F8FBFF34F8F7B61FEE73A6904
:102F900013469B0013449B00154A1344FB60FB68D7
:102FA0005B685A68FB685A60FB685A68FB680833BC
:102FB0009A4204D1FB685B685A68FB685A60FB68F8
:102FC0005B68DB680B4A136002F0D0F803461846D2
:102FD00002F0BEF803461846FDF73AFC00BF18376A
:102FE000BD4680BD2C0400201C04002010040020DD
:102FF000400100203C01002080B584B000AF786023
:1030000039607B68002B09D14FF0500383F311889E
:10301000BFF36F8FBFF34F8FBB60FEE7194B1B6889
:1030200018331946786800F005FE164B1B68043308
:10303000184600F039FE0346002B0BD1114B1B68DC
:10304000DB6A012202FA03F3DA430F4B1B681340D9
:103050000D4A13603B68B3F1FF3F07D1094B1B6872
:1030600004331946094800F0C1FD07E0084B1A680F
:103070003B681344FB60F86800F084FA00BF103727
:10308000BD4680BD3C01002010040020F403002058
:103090000C04002080B586B000AFF860B9607A609B
:1030A000FB68002B09D14FF0500383F31188BFF365
:1030B0006F8FBFF34F8F3B61FEE7344B1B681833B4
:1030C0001946F86800F092FD304B1B68043318462F
:1030D00000F0EAFD0346002B0BD12C4B1B68DB6A8A
:1030E000012202FA03F3DA43294B1B681340284AF2
:1030F00013607B68012B25D1244B1B68184602F016
:1031000027F803461A4603218A20FDF79BF91F4B37
:103110001B68184602F01CF803461846FDF7DAFD56
:1031200002F024F80346184602F012F80346184647
:10313000FDF7D0FD154B1B6804331946154800F008
:1031400055FD1EE0144B1A68BB6813447B61796916
:103150008820FDF7FDFA0D4B1B68184601F0F8FFBB
:1031600003461846FDF7B6FD02F000F80346184680
:1031700001F0EEFF03461846FDF7ACFD786900F05C
:1031800001FA00BF1837BD4680BD00BF3C010020DA
:1031900010040020F40300200C04002080B586B049
:1031A00000AF78607B68DB68DB683B613B69002BC4
:1031B00009D14FF0500383F31188BFF36F8FBFF332
:1031C0004F8FFB60FEE73B691833184600F06CFD3B
:1031D000204B1B68002B23D13B690433184600F0B9
:1031E00063FD386901F0B4FF03461846FDF720F887
:1031F0003B69DB6A01229A40174B1B681343164A4E
:1032000013603B69DA6A13469B0013449B00134A20
:103210001A443B6904331946104600F0E7FC05E008
:103220003B69183319460E4800F0E0FC3B69DA6A46
:103230000C4B1B68DB6A9A4205D901237B610A4B60
:1032400001221A6001E000237B617B691846183770
:10325000BD4680BD2C040020100400204001002049
:10326000C80300203C0100201C04002080B485B06D
:1032700000AF78607B68002B09D14FF0500383F3D7
:103280001188BFF36F8FBFF34F8FFB60FEE7074BD3
:103290001A687B681A60064B1A687B685A6000BF20
:1032A0001437BD465DF8047B704700BF2004002042
:1032B0000C04002080B586B000AF786039607B6870
:1032C000002B09D14FF0500383F31188BFF36F8FA8
:1032D000BFF34F8FBB60FEE73B68002B09D14FF077
:1032E000500383F31188BFF36F8FBFF34F8FFB60E1
:1032F000FEE700F05FFF1C4B1B683B613B681B68EF
:10330000B3F1FF3F02D100237B6126E07B681A689E
:10331000164B1B689A4207D07B685A683B699A42F1
:1033200002D801237B6118E07B685B683A69D21A96
:103330003B681B689A420ED23B681A687B685968E2
:103340003B69CB1A1A443B681A607868FFF78EFF16
:1033500000237B6101E001237B6100F059FF7B6961
:1033600018461837BD4680BD0C04002020040020FC
:1033700080B400AF034B01221A6000BFBD465DF868
:10338000047B70471C04002080B485B000AF7860D7
:103390007B68002B05D07B68BB60BB685B6CFB6007
:1033A00001E00023FB60FB6818461437BD465DF85A
:1033B000047B704780B582B000AF786000F0A6F85B
:1033C000064B1B68012BF9D9054B4FF080521A6050
:1033D000BFF34F8FBFF36F8FF0E700BF40010020B6
:1033E00004ED00E080B586B000AFF860B9607A60A7
:1033F0003B6000237B6112E0BA687B691344197853
:10340000FA687B69134434330A461A70BA687B69D8
:1034100013441B78002B06D07B6901337B617B69E9
:10342000092BE9D900E000BFFB68002283F83D20AA
:103430007B681D2B01D91D237B60FB687A68DA62EB
:10344000FB687A689A64FB680022DA64FB680433DC
:10345000184600F0BDFBFB681833184600F0B8FBB7
:10346000FB68FA681A617B68C3F11E02FB689A6107
:10347000FB68FA685A62FB6800221A65FB68002242
:1034800083F8542000BF1837BD4680BD80B582B098
:1034900000AF00237B600CE07A6813469B00134466
:1034A0009B00124A1344184600F072FB7B680133FC
:1034B0007B607B681D2BEFD90D4800F069FB0D4840
:1034C00000F066FB0C4800F063FB0C4800F060FB6A
:1034D0000B4800F05DFB0B4B054A1A600A4B054A8E
:1034E0001A6000BF0837BD4680BD00BF4001002004
:1034F00098030020AC030020C8030020DC03002058
:10350000F4030020C0030020C403002080B582B073
:1035100000AF28E0FFF77EFB174B1B68002B0CBFAA
:1035200001230023DBB27B60FFF782FB7B68002B6B
:1035300019D100F03FFE104BDB68DB683B603B6855
:103540000433184600F0B0FB0C4B1B68013B0B4AE0
:1035500013600B4B1B68013B094A136000F058FED7
:10356000386800F07BF8064B1B68002BD2D100BFF7
:103570000837BD4680BD00BFDC03002008040020E2
:10358000F003002080B582B000AF7860134B1B6859
:103590007A685A60124B1B687A689A4209D2114BBA
:1035A0001A680E4B1B6804331946104600F042FBA4
:1035B00010E00D4B1A68094B1B680433194610467E
:1035C00000F038FB094B1B687A689A4202D2074A1E
:1035D0007B68136000BF0837BD4680BD3C010020FA
:1035E0000C040020C4030020C00300202804002095
:1035F00080B584B000AF03463960FB803B68002B88
:1036000006D1FB889B00184602F042FB034600E00F
:103610003B68BB60BB68002B0ED0582002F038FB23
:10362000F860FB68002B03D0FB68BA681A6305E0FA
:10363000B86802F07DFB01E00023FB60FB68002B13
:1036400007D0FB68186BFB889B001A46A52102F087
:103650009BFCFB6818461037BD4680BD80B582B024
:1036600000AF78607B681B6B184602F061FB7868DE
:1036700002F05EFB00BF0837BD4680BD80B483B05A
:1036800000AF0F4B1B681B68002B01D1012300E02A
:103690000023002B04D00B4B4FF0FF321A6008E0E0
:1036A000074B1B68DB68DB687B607B685B68054AEF
:1036B000136000BF0C37BD465DF8047B704700BF48
:1036C000C00300202804002080B483B000AF054B65
:1036D0001B687B607B6818460C37BD465DF8047B31
:1036E000704700BF3C01002080B483B000AF0B4B9B
:1036F0001B68002B02D101237B6008E0084B1B688C
:10370000002B02D102237B6001E000237B607B68F9
:1037100018460C37BD465DF8047B70471404002042
:103720002C04002090B585B000AF78607B68FB600A
:103730007B68002B00F08B80FB68DA6A464B1B68C5
:10374000DB6A9A4280F08380FB689B69002B06DB72
:10375000414B1B68DB6AC3F11E02FB689A61FB6880
:103760005969FB68DA6A13469B0013449B003B4A85
:103770001344994201D1012300E00023002B41D0E2
:10378000FB680433184600F08FFA0346002B15D16E
:10379000FB68DA6A314913469B0013449B000B44D3
:1037A0001B68002B0AD1FB68DB6A012202FA03F3D3
:1037B000DA432B4B1B681340294A1360264B1B68C6
:1037C000DA6AFB68DA62F86801F0C2FC0346184660
:1037D000FCF72EFDFB68DB6A01229A40204B1B6838
:1037E00013431F4A1360FB68DA6A13469B001344B5
:1037F0009B001A4A1A44FB6804331946104600F02D
:10380000F5F904E0144B1B68DA6AFB68DA62F868C1
:1038100001F09EFC03461C46F86801F099FC034643
:1038200019460320FDF7A0F90346224603218E2006
:10383000FCF7AAFEF86801F08BFC03461946064B1C
:103840001B68DB6ADBB21A460320FDF751F900BFA3
:103850001437BD4690BD00BF3C0100204001002050
:103860001004002090B587B000AF78607B683B61A2
:1038700000237B617B68002B00F093804B4B1B681F
:103880003A699A4209D04FF0500383F31188BFF38D
:103890006F8FBFF34F8FBB60FEE73B69DB6C002B84
:1038A00009D14FF0500383F31188BFF36F8FBFF33B
:1038B0004F8FFB60FEE73B69DB6C5A1E3B69DA64A5
:1038C0003B69DA6A3B699B6C9A426AD03B69DB6C64
:1038D000002B66D13B690433184600F0E5F9034636
:1038E000002B15D13B69DA6A314913469B0013441A
:1038F0009B000B441B68002B0AD13B69DB6A012249
:1039000002FA03F3DA432B4B1B681340294A136076
:10391000386901F01DFC03461C46386901F018FCAB
:10392000034619460320FDF71FF9034622460321EB
:103930008F20FCF729FE386901F00AFC034619467E
:103940003B699B6CDBB21A460320FDF7D1F83B695B
:103950009A6C3B69DA623B69DB6AC3F11E023B6920
:103960009A61386901F0F4FB03461846FCF760FCE5
:103970003B69DB6A01229A400E4B1B6813430D4AD8
:1039800013603B69DA6A13469B0013449B00084AA4
:103990001A443B6904331946104600F027F9012305
:1039A0007B617B6918461C37BD4690BD3C010020F9
:1039B000400100201004002080B400AF074B1B68BA
:1039C000002B04D0054B1B68DA6C0132DA64034B20
:1039D0001B681846BD465DF8047B70473C0100201B
:1039E00080B487B000AF7860396000237B6100232A
:1039F0003B610023FB6000237B6176E001227B6951
:103A000002FA03F33B613B681A683B691340FB60B1
:103A1000FA683B699A4265D17B681A687B695B00EA
:103A2000032101FA03F3DB431A407B681A607B68C9
:103A30001A683B681B7919467B695B0001FA03F33E
:103A40001A437B681A603B681B79012B03D03B68E3
:103A50001B79022B2ED17B689A687B695B0003215E
:103A600001FA03F3DB431A407B689A607B689A682B
:103A70003B685B7919467B695B0001FA03F31A43E3
:103A80007B689A607B685A687B699BB21946012300
:103A90008B40DB431A407B685A607B685B683A68FE
:103AA000927911467A6992B201FA02F292B21A43FD
:103AB0007B685A607B68DA687B699BB25B00032194
:103AC00001FA03F3DB431A407B68DA607B68DA684B
:103AD0003B68DB7919467B695B0001FA03F31A4303
:103AE0007B68DA607B6901337B617B690F2B85D949
:103AF00000BF1C37BD465DF8047B704780B485B0BD
:103B000000AF78600B467B8013467B700023FB6020
:103B10000023BB607A787B8803F007039B0002FADE
:103B200003F3FB607B88DB089BB218467B88DB08CD
:103B30009BB21A467B68083253F822207B8803F038
:103B400007039B000F2101FA03F3DB4302EA0301A1
:103B50007B6800F1080243F822107B88DB089BB2E7
:103B60001A467B68083253F82220FB681343BB6077
:103B70007B88DB089BB21A467B680832B96843F839
:103B8000221000BF1437BD465DF8047B704700BFAC
:103B900080B483B000AF78607B6803F108027B6873
:103BA0005A607B684FF0FF329A607B6803F108022D
:103BB0007B68DA607B6803F108027B681A617B68C6
:103BC00000221A6000BF0C37BD465DF8047B7047C9
:103BD00080B483B000AF78607B6800221A6100BFB8
:103BE0000C37BD465DF8047B704700BF80B485B0DC
:103BF00000AF786039607B685B68FB603B68FA689F
:103C00005A60FB689A683B689A60FB689B683A68F0
:103C10005A60FB683A689A603B687A681A617B6808
:103C20001B685A1C7B681A6000BF1437BD465DF8DC
:103C3000047B704780B485B000AF786039603B6822
:103C40001B68BB60BB68B3F1FF3F03D17B681B6996
:103C5000FB600CE07B680833FB6002E0FB685B689C
:103C6000FB60FB685B681A68BB689A42F6D9FB6820
:103C70005A683B685A603B685B683A689A603B6880
:103C8000FA689A60FB683A685A603B687A681A6119
:103C90007B681B685A1C7B681A6000BF1437BD46DE
:103CA0005DF8047B704700BF80B485B000AF7860DA
:103CB0007B681B69FB607B685B687A6892689A60C6
:103CC0007B689B687A6852685A60FB685A687B68B0
:103CD0009A4203D17B689A68FB685A607B6800222D
:103CE0001A61FB681B685A1EFB681A60FB681B6838
:103CF00018461437BD465DF8047B704780B500AFA9
:103D0000164A164BD3F8883043F47003C2F8883053
:103D1000134A134B1B6843F001031360104B00223E
:103D20009A600F4A0E4B1B6823F0847323F4803390
:103D300013600B4B0B4A5A60094A094B1B6823F46A
:103D400080231360064B0022DA6000F00DF8034B6D
:103D50004FF000629A6000BF80BD00BF00ED00E040
:103D6000003802401030002480B483B000AF00233C
:103D70007B6000233B60434A424B1B6843F4803323
:103D80001360404B1B6803F400333B607B680133D6
:103D90007B603B68002B03D17B68B3F5A04FF0D16B
:103DA000384B1B6803F40033002B02D001233B6027
:103DB00001E000233B603B68012B02D1314B324ACA
:103DC0005A60304A2F4B1B6C43F0805313642F4AC8
:103DD0002E4B1B6843F4404313602A4A294B9B68CF
:103DE0009360284A274B9B6843F400439360254A1D
:103DF000244B9B6843F4A0539360224A214B1B68D9
:103E000043F08073136000BF1E4B1B6803F0007308
:103E1000002BF9D01D4A1D4B1B6843F480331360FF
:103E200000BF1A4B5B6803F48033002BF9D0174AAC
:103E3000164B1B6843F40033136000BF134B5B68E1
:103E400003F40033002BF9D0114B40F205721A60D5
:103E50000C4A0C4B9B6823F003039360094A094BFF
:103E60009B6843F00203936000BF064B9B6803F01E
:103E70000C03082BF9D100BF0C37BD465DF8047B5D
:103E8000704700BF00380240085A400700700040E9
:103E9000003C024080B500AFFDF7BEFA00BF80BD18
:103EA00080B586B000AF0023FB75284B1B68002B44
:103EB00004D12748FDF796FE002343E0254B1B68FD
:103EC000002B3CD1EFF31083BB60BB68FB60012388
:103ED0007B607B6883F310881F4B1B6801331E4A8D
:103EE00013601A4B1B6801221A6301F03FF9034665
:103EF000184601F02DF90346FB75FB7D002B10D110
:103F00000320FDF73DFC0346FB75FB7D134A194674
:103F10000320FDF7B9FDFB7D002219460320FCF7C5
:103F2000E7FDFB7D1846FCF793FC0B4B1B68013B40
:103F3000094A1360FB683B613B6983F31088034BBC
:103F40001B681B6B18461837BD4680BDE800002073
:103F5000086F0008F0000020EC000020546F0008FB
:103F600080B500AF064B1B6800221A63054B1B6827
:103F7000002B02D0034B1B68984700BF80BD00BFD9
:103F8000E80000203004002080B582B000AF7860E7
:103F90007B68002B04D10748FDF724FE002304E0D2
:103FA00000217868FDF7CEFD034618460837BD4668
:103FB00080BD00BF8C72000880B485B000AFF8608F
:103FC000B9607A60FB68043BFB60FB684FF080726D
:103FD0001A60FB68043BFB60BA68FB681A60FB6808
:103FE000043BFB600C4AFB681A60FB68143BFB60F7
:103FF0007A68FB681A60FB68043BFB60FB686FF043
:1040000002021A60FB68203BFB60FB68184614370D
:10401000BD465DF8047B70471D40000880B483B046
:1040200000AF0C4B1B68B3F1FF3F09D04FF05003BA
:1040300083F31188BFF36F8FBFF34F8F3B60FEE7B1
:104040004FF0500383F31188BFF36F8FBFF34F8F8F
:104050007B60FEE72C000020064B19680868B0E87A
:10406000F04F80F30988BFF36F8F4FF0000080F3AB
:10407000118870473C01002000BF00BF064800685F
:10408000006880F3088862B661B6BFF34F8FBFF354
:104090006F8F00DF00BF00BF08ED00E080B586B085
:1040A00000AF3B4B1B683B4A934209D14FF0500392
:1040B00083F31188BFF36F8FBFF34F8FFB60FEE771
:1040C000334B1B68344A934209D14FF0500383F3BA
:1040D0001188BFF36F8FBFF34F8F3B61FEE72F4B0C
:1040E0007B617B691B78DBB2BB607B69FF221A7046
:1040F0007B691B78DBB2FB71FB79DBB203F0500309
:10410000DAB2274B1A70274B07221A6009E0254BB9
:104110001B68013B234A1360FB79DBB25B00DBB217
:10412000FB71FB79DBB25BB2002BF0DB1D4B1B6834
:104130001B021C4A13601B4B1B6803F4E063194A03
:104140001360BB68DAB27B691A70174A164B1B689A
:1041500043F470031360144A134B1B6843F070431D
:10416000136000F0D3F8114B00221A6000F0EAF857
:104170000F4A0F4B1B6843F040431360FFF77EFF6D
:10418000FFF74CFF002318461837BD4680BD00BF1F
:1041900000ED00E071C20F4170C20F4100E400E089
:1041A0004C0400205004002020ED00E02C000020F2
:1041B00034EF00E080B483B000AF4FF0500383F3DE
:1041C0001188BFF36F8FBFF34F8F3B600E4B1B689F
:1041D00001330D4A13600C4B1B68012B0ED10B4BA6
:1041E0001B68DBB2002B09D04FF0500383F311881A
:1041F000BFF36F8FBFF34F8F7B60FEE700BF0C37BD
:10420000BD465DF8047B70472C00002004ED00E003
:1042100080B483B000AF114B1B68002B09D14FF065
:10422000500383F31188BFF36F8FBFF34F8F3B6051
:10423000FEE70A4B1B68013B084A1360074B1B68EB
:10424000002B04D100237B607B6883F3118800BFBF
:104250000C37BD465DF8047B704700BF2C00002082
:10426000EFF30980BFF36F8F144B1A681EF0100F25
:1042700008BF20ED108A20E9F04F10604DF8043D92
:104280004FF0500080F31188BFF34F8FBFF36F8F53
:10429000FEF750FE4FF0000080F3118808BC19684B
:1042A0000868B0E8F04F1EF0100F08BFB0EC108A9D
:1042B00080F30988BFF36F8F704700BF3C01002077
:1042C00000BF00BF80B584B000AFEFF311824FF0A4
:1042D000500383F31188BFF36F8FBFF34F8FBA6022
:1042E0007B60FEF74FFD0346002B03D0064B4FF0DB
:1042F00080521A600023FB60FB6883F3118800BFC3
:104300001037BD4680BD00BF04ED00E080B400AFB3
:10431000084A094B1B680949A1FB03139B09013B90
:104320001360074B07221A6000BFBD465DF8047B8F
:10433000704700BF14E000E018000020D34D621069
:1043400010E000E0DFF80C00016841F4700101604A
:10435000704700BF88ED00E080B485B000AFEFF398
:104360000583FB60FB680F2B13D9164AFB681344C7
:104370001B78FB72144B1B78FA7A9A4209D24FF0E1
:10438000500383F31188BFF36F8FBFF34F8F3B60F0
:10439000FEE70E4B1B6803F4E0620D4B1B689A426C
:1043A00009D94FF0500383F31188BFF36F8FBFF328
:1043B0004F8F7B60FEE700BF1437BD465DF8047B7E
:1043C000704700BFF0E300E04C0400200CED00E07B
:1043D0005004002080B584B000AF786039607B68FD
:1043E000FB60FB68002B09D14FF0500383F3118869
:1043F000BFF36F8FBFF34F8FBB60FEE7FFF7DAFEAF
:10440000FB681A68FB68DB6BF968096C01FB03F356
:104410001A44FB685A60FB6800229A63FB681A68BA
:10442000FB689A60FB681A68FB68DB6B013BF96804
:10443000096C01FB03F31A44FB68DA60FB684FF078
:10444000FF325A64FB684FF0FF329A643B68002BDE
:1044500014D1FB681B69002B1AD0FB681033184677
:10446000FEF79CFE0346012B12D10D4B4FF08052FC
:104470001A60BFF34F8FBFF36F8F09E0FB681033F3
:104480001846FFF785FBFB6824331846FFF780FBCF
:10449000FFF7BEFE012318461037BD4680BD00BFA2
:1044A00004ED00E0B0B58AB000AFF860B960134623
:1044B000FB7100233B62FB68002B09D14FF05003D6
:1044C00083F31188BFF36F8FBFF34F8F7B61FEE7DC
:1044D000BB68002B02D100237B6205E0FB68BA6851
:1044E00002FB03F301337B627B6A5433184601F00D
:1044F000CFFBF861FB69002B53D0BB68002B03D1C5
:10450000FB69FA691A6004E0FB6903F15402FB6974
:104510001A60FB69FA68DA63FB69BA681A640121F8
:10452000F869FFF757FFFB69FA7983F85020F869BB
:1045300000F002FE03461A46234B9B5C1846FDF72B
:104540001FF903461A46FB69DA64F86900F0F4FDC6
:1045500003461A461C4B9B5C1833DBB21D46F869B8
:1045600000F0EAFD03461A46174B9C5CF86900F020
:10457000D5FD03461A4621462846FBF763FFF86936
:1045800000F0DAFD03461A460F4B9C5CF86900F018
:10459000C5FD0346002219462046FCF723FBFB69B4
:1045A0003B623B6A002B09D14FF0500383F3118823
:1045B000BFF36F8FBFF34F8FBB61FEE73B6A1846B7
:1045C0002837BD46B0BD00BF30000020B0B58EB06A
:1045D00000AFF860B9607A603B6000237B63FB68E2
:1045E0003B633B6B002B09D14FF0500383F31188E1
:1045F000BFF36F8FBFF34F8FFB61FEE7BB68002BEC
:1046000003D13B6B1B6C002B01D1012300E0002385
:10461000002B09D14FF0500383F31188BFF36F8F44
:10462000BFF34F8F3B62FEE73B68022B03D13B6B2E
:10463000DB6B012B01D1012300E00023002B09D10A
:104640004FF0500383F31188BFF36F8FBFF34F8F89
:104650007B62FEE7FFF748F80346002B02D17B6838
:10466000002B01D1012300E00023002B09D14FF0E2
:10467000500383F31188BFF36F8FBFF34F8FBB627B
:10468000FEE7FFF797FD3B6B9A6B3B6BDB6B9A4248
:1046900002D33B68022B64D1386B00F04DFD03461A
:1046A0001A46884B9B5C2033DBB21D46386B00F00A
:1046B00043FD03461A46834B9C5C386B00F02EFD8D
:1046C00003461A4621462846FBF7BCFE386B00F02D
:1046D00033FD03461A467B4B9C5C386B00F01EFD95
:1046E00003461D46386B00F027FD03461A46754BFE
:1046F0009B5C022B05D03B6B9B6BDBB20133DBB2C7
:1047000000E000231A4629462046FCF76BFA3A6877
:10471000B968386B00F090FBF8623B6B5B6A002B6A
:1047200010D03B6B24331846FEF738FD0346012BAF
:1047300013D1654B4FF080521A60BFF34F8FBFF318
:104740006F8F0AE0FB6A002B07D05F4B4FF080525F
:104750001A60BFF34F8FBFF36F8FFFF759FD01232F
:10476000ABE07B68002B1DD1FFF752FD386B00F0EA
:10477000E3FC03461A46534B9B5C4833DBB21D46B1
:10478000386B00F0D9FC03461A464E4B9C5C386BE4
:1047900000F0C4FC03461A4621462846FBF752FEA9
:1047A00000238AE07B6B002B06D107F11403184627
:1047B000FEF75CFD01237B63FFF72AFDFEF72AFA73
:1047C000FFF7F8FC3B6B5B6CB3F1FF3F02D13B6B37
:1047D00000225A643B6B9B6CB3F1FF3F02D13B6BF1
:1047E00000229A64FFF714FD3A1D07F114031146E5
:1047F0001846FEF75FFD0346002B3ED1386B00F0F4
:104800000FFC0346002B32D0386B00F095FC0346BA
:104810001A462C4B9B5C7033DBB21D46386B00F0A4
:104820008BFC03461A46274B9C5C386B00F076FCE9
:1048300003461A4621462846FBF704FE3B6B10331D
:104840007A6811461846FEF7D7FB386B00F086FBF6
:10485000FEF7EEF90346002B7FF413AF1A4B4FF02F
:1048600080521A60BFF34F8FBFF36F8F09E7386B29
:1048700000F074FBFEF7DCF903E7386B00F06EFB29
:10488000FEF7D6F9386B00F057FC03461A460D4B7D
:104890009B5C4833DBB21D46386B00F04DFC034691
:1048A0001A46084B9C5C386B00F038FC03461A46ED
:1048B00021462846FBF7C6FD002318463837BD467B
:1048C000B0BD00BF3000002004ED00E0B0B58EB0F8
:1048D00000AFF860B9607A603B60FB683B633B6B9C
:1048E000002B09D14FF0500383F31188BFF36F8F72
:1048F000BFF34F8FBB61FEE7BB68002B03D13B6B5F
:104900001B6C002B01D1012300E00023002B09D1F7
:104910004FF0500383F31188BFF36F8FBFF34F8FB6
:10492000FB61FEE73B68022B03D13B6BDB6B012B8A
:1049300001D1012300E00023002B09D14FF05003E7
:1049400083F31188BFF36F8FBFF34F8F3B62FEE796
:10495000FFF702FDEFF311824FF0500383F311884C
:10496000BFF36F8FBFF34F8F7A627B617B6ABB624D
:104970003B6B9A6B3B6BDB6B9A4202D33B68022B1F
:1049800053D1386B00F0D8FB03461A463A4B9B5C78
:104990003033DBB21D46386B00F0CEFB03461A46BF
:1049A000354B9C5C386B00F0B9FB03461A46214638
:1049B0002846FBF747FD386B00F0BEFB03461A465E
:1049C0002D4B9C5C386B00F0A9FB034619463B6BF2
:1049D0009B6BDBB20133DBB21A462046FCF702F9CF
:1049E0003A68B968386B00F027FA3B6B9B6CB3F1FF
:1049F000FF3F12D13B6B5B6A002B13D03B6B243320
:104A00001846FEF7CBFB0346002B0BD07B68002B30
:104A100008D07B6801221A6004E03B6B9B6C5A1C37
:104A20003B6B9A6401237B631BE0386B00F084FBD3
:104A300003461A46104B9B5C5833DBB21D46386B5D
:104A400000F07AFB03461A460B4B9C5C386B00F077
:104A500065FB03461A4621462846FBF7F3FC002374
:104A60007B63BB6AFB62FB6A83F311887B6B18462E
:104A70003837BD46B0BD00BF30000020B0B58CB0A7
:104A800000AFF860B9607A603B600023FB62FB68AE
:104A9000BB62BB6A002B09D14FF0500383F311882E
:104AA000BFF36F8FBFF34F8FBB61FEE7BB68002B77
:104AB00003D1BB6A1B6C002B01D1012300E0002352
:104AC000002B09D14FF0500383F31188BFF36F8F90
:104AD000BFF34F8FFB61FEE7FEF706FE0346002B98
:104AE00002D17B68002B01D1012300E00023002BC1
:104AF00009D14FF0500383F31188BFF36F8FBFF3D9
:104B00004F8F3B62FEE7FFF755FBBB6A9B6B002BA9
:104B100000F0A380BB6ADB687B62B968B86A00F00A
:104B2000F7F93B68002B63D1B86A00F005FB034638
:104B30001A46B24B9B5C2833DBB21D46B86A00F0C4
:104B4000FBFA03461A46AD4B9C5CB86A00F0E6FAE5
:104B500003461A4621462846FBF774FCB86A00F063
:104B6000EBFA03461A46A54B9C5CB86A00F0D6FAED
:104B700003461D46B86A00F0DFFA03461A469F4B0B
:104B80009B5C022B07D100F0F1FA0346184600F0B7
:104B9000DFFA034604E0BB6A9B6BDBB2013BDBB28E
:104BA0001A4629462046FCF71DF8BB6A9B6B5A1E25
:104BB000BB6A9A63BB6A1B68002B04D1FEF7FCFE3C
:104BC0000246BB6A5A60BB6A1B69002B41D0BB6AB4
:104BD00010331846FEF7E2FA0346012B39D1884B11
:104BE0004FF080521A60BFF34F8FBFF36F8F30E0EA
:104BF000B86A00F0A1FA03461A46804B9B5C7833F2
:104C0000DBB21D46B86A00F097FA03461A467B4BA2
:104C10009C5CB86A00F082FA03461A462146284690
:104C2000FBF710FCBB6A7A6ADA60BB6A5B6A002B2E
:104C30000FD0BB6A24331846FEF7B0FA0346002BA8
:104C400007D06F4B4FF080521A60BFF34F8FBFF306
:104C50006F8FFFF7DDFA0123CBE07B68002B1DD1BE
:104C6000FFF7D6FAB86A00F067FA03461A46634BB4
:104C70009B5C5033DBB21D46B86A00F05DFA034618
:104C80001A465E4B9C5CB86A00F048FA03461A4626
:104C900021462846FBF7D6FB0023AAE0FB6A002B3F
:104CA00006D107F110031846FEF7E0FA0123FB6274
:104CB000FFF7AEFAFDF7AEFFFFF77CFABB6A5B6C5D
:104CC000B3F1FF3F02D1BB6A00225A64BB6A9B6CFE
:104CD000B3F1FF3F02D1BB6A00229A64FFF798FA52
:104CE0003A1D07F1100311461846FEF7E3FA034692
:104CF000002B5ED1B86A00F07DF90346002B52D03C
:104D0000B86A00F019FA03461A463C4B9B5C6833BC
:104D1000DBB21D46B86A00F00FFA03461A46374B5D
:104D20009C5CB86A00F0FAF903461A462146284608
:104D3000FBF788FBB86A00F0FFF903461A462F4BD1
:104D40009B5C022B09D000F011FA0346184600F0D4
:104D5000FFF903461846FBF7BDFFBB6A1B68002B33
:104D600008D1FFF727FABB6A5B681846FEF7DAFC42
:104D7000FFF74EFABB6A24337A6811461846FEF7ED
:104D80003BF9B86A00F0EAF8FDF752FF0346002B42
:104D90007FF4B9AE1A4B4FF080521A60BFF34F8FB9
:104DA000BFF36F8FAFE6B86A00F0D8F8FDF740FFA9
:104DB000A9E6B86A00F0D2F8FDF73AFFB86A00F049
:104DC000BBF903461A460D4B9B5C5033DBB21D46C4
:104DD000B86A00F0B1F903461A46084B9C5CB86A01
:104DE00000F09CF903461A4621462846FBF72AFBA9
:104DF000002318463037BD46B0BD00BF300000204C
:104E000004ED00E080B483B000AF78607B68DB6CB9
:104E100018460C37BD465DF8047B704780B483B0FC
:104E200000AF78607B6893F8503018460C37BD4669
:104E30005DF8047B704700BF80B586B000AFF860B6
:104E4000B9607A6000237B61FB681B6C002B0DD17D
:104E5000FB681B68002B50D1FB685B681846FEF7A7
:104E600001FD7861FB6800225A6046E07B68002BF8
:104E700019D1FB689868FB681B6C1A46B96800F08A
:104E8000E9FFFB689A68FB681B6C1A44FB689A6030
:104E9000FB689A68FB685B689A422ED3FB681A68C5
:104EA000FB689A6029E0FB68D868FB681B6C1A46AF
:104EB000B96800F0CFFFFB68DA68FB681B6C5B42E7
:104EC0001A44FB68DA60FB68DA68FB681B689A4280
:104ED00007D2FB685A68FB681B6C5B421A44FB688C
:104EE000DA607B68022B08D1FB689B6B002B04D037
:104EF000FB689B6B5A1EFB689A63FB689B6B5A1C92
:104F0000FB689A637B6918461837BD4680BD00BFB1
:104F100080B582B000AF786039607B681B6C002B75
:104F200018D07B68DA687B681B6C1A447B68DA608F
:104F30007B68DA687B685B689A4203D37B681A688F
:104F40007B68DA607B68D9687B681B6C1A463868B6
:104F500000F080FF00BF0837BD4680BD80B582B03D
:104F600000AF7860FFF726F912E07B685B6A002BE0
:104F700013D07B6824331846FEF710F90346002B44
:104F800001D0FEF7F5F97B689B6C5A1E7B689A642A
:104F90007B689B6C002BE8DC00E000BF7B684FF077
:104FA000FF329A64FFF734F9FFF704F912E07B68E7
:104FB0001B69002B13D07B6810331846FEF7EEF800
:104FC0000346002B01D0FEF7D3F97B685B6C5A1EB9
:104FD0007B685A647B685B6C002BE8DC00E000BFF8
:104FE0007B684FF0FF325A64FFF712F900BF0837B1
:104FF000BD4680BD80B584B000AF7860FFF7DAF8B9
:105000007B689B6B002B02D10123FB6001E0002336
:10501000FB60FFF7FDF8FB6818461037BD4680BD02
:1050200080B584B000AF7860FFF7C4F87B689A6BF6
:105030007B68DB6B9A4202D10123FB6001E0002315
:10504000FB60FFF7E5F8FB6818461037BD4680BDEA
:1050500090B585B000AF786039600023FB6024E034
:10506000154AFB6852F83330002B1BD11249FB68FC
:105070003A6841F83320104AFB68DB0013447A6831
:105080005A60786800F058F803461A460B4B9C5C4F
:10509000786800F043F803463A6819462046FCF762
:1050A000F3FC05E0FB680133FB60FB68072BD7D9F5
:1050B00000BF1437BD4690BD44770120300000206A
:1050C00080B586B000AFF860B9607A60FB687B613C
:1050D000FFF770F87B695B6CB3F1FF3F02D17B692E
:1050E00000225A647B699B6CB3F1FF3F02D17B695C
:1050F00000229A64FFF78CF87B699B6B002B06D12A
:105100007B6924337A68B9681846FDF7C3FF78696C
:10511000FFF724FF00BF1837BD4680BD80B582B0C1
:1051200000AF78607868FFF76DFE0346DBB2184683
:105130000837BD4680BD00BF80B582B000AF786043
:105140007868FFF76BFE034618460837BD4680BDFA
:1051500080B582B000AF78607868FEF715F9034635
:10516000DBB218460837BD4680BD00BF80B500AF32
:10517000FEF7AAFA0346184680BD00BF80B400AF10
:105180004F4B1B680722DA654D4B1B680A2283F8D8
:1051900064204B4B1B680A2283F86520484B1B6830
:1051A0000A2283F86620464B1B680F2283F867208B
:1051B000434B1B68052283F86820414B1B68022281
:1051C00083F869203E4B1B68022283F86A203C4B1F
:1051D0001B680F2283F86C20394B1B680F2283F861
:1051E0006D20374B1B680F2283F86E20344B1B68F1
:1051F0000F2283F86F20324B1B680F2283F8702038
:105200002F4B1B680F2283F871202D4B1B680F2238
:1052100083F872202A4B1B68102283F87420284BD5
:105220001B68102283F87520254B1B68102283F819
:105230007620234B1B68132283F87720204B1B68B2
:10524000112283F878201E4B1B68102283F87920E6
:105250001B4B1B68132283F87A20194B1B68002212
:10526000A3F87C20164B1B68A022A3F87E20144BC9
:105270001B684FF4A072A3F88020114B1B684FF4F9
:10528000F072A3F882200E4B1B6840F2FD22A3F8B7
:1052900084200B4B1B6840F25232A3F88620084B47
:1052A0001B6840F27232A3F88820054B1B684FF44C
:1052B00066721A6600BFBD465DF8047B704700BF8A
:1052C000E800002080B400AF254B0022DA81244B97
:1052D000DA89234B1A80224B0A221A82204B1A8A1F
:1052E0001F4B5A801E4B14225A821D4B5A8A1C4B4C
:1052F0009A801B4B1E229A82194B9A8A184BDA808D
:10530000174B2D22DA82164BDA8A154B1A81144B71
:1053100032221A83124B1A8B114B5A81104B3422B2
:105320005A830F4B5A8B0E4B9A810D4B09229A834D
:105330000B4B1322DA830A4B1D221A84084B2C22B2
:105340005A84074B31229A84054B3322DA84044B6A
:1053500035221A8500BFBD465DF8047B704700BF4B
:105360007800002080B483B000AF0346FB71FB7966
:10537000062B1FD801A252F823F000BFA953000842
:10538000A1530008A5530008995300089D53000835
:10539000AD530008B15300080A4B0CE00A4B0AE079
:1053A0000A4B08E00A4B06E00A4B04E00A4B02E015
:1053B0000A4B00E00A4B18460C37BD465DF8047BEB
:1053C000704700BFBC720008F47200082C7300081C
:1053D00070730008AC730008E873000824740008B8
:1053E0006874000880B582B000AF03460A46FB71BE
:1053F0001346BB71FB79062B04D94D48FCF7F2FB31
:10540000012391E04B4B1A68FB79134493F8643005
:10541000BA799A4204D94848FCF7E4FB012383E0B7
:10542000FB79062B7CD801A252F823F0B554000872
:105430006D54000891540008495400082155000893
:10544000D9540008FD540008BB792133DB103B4AD6
:10545000D35C5AB2BB79213303F00703012101FA6F
:1054600003F35BB213405BB2DBB25DE0BB790B339D
:10547000DB10324AD35C5AB2BB790B3303F007031B
:10548000012101FA03F35BB213405BB2DBB24BE0E4
:10549000BB791633DB10294AD35C5AB2BB79163379
:1054A00003F00703012101FA03F35BB213405BB27F
:1054B000DBB239E0BB79DB08DBB21A461F4B9B5CE1
:1054C0005AB2BB7903F00703012101FA03F35BB27F
:1054D00013405BB2DBB227E0BB793133DB10174AF4
:1054E000D35C5AB2BB79313303F00703012101FACF
:1054F00003F35BB213405BB2DBB215E0BB7934332C
:10550000DB100E4AD35C5AB2BB79343303F0070385
:10551000012101FA03F35BB213405BB2DBB203E09B
:105520000748FCF75FFB012318460837BD4680BDDE
:1055300098740008E8000020E07400084C00002087
:1055400020750008002103E00A4B5B5843500431EA
:1055500009480A4B42189A42F6D3094A02E000234E
:1055600042F8043B074B9A42F9D3FEF7C7FBFBF71F
:1055700033FF7047BD750008000000204400002084
:105580004400002084770120FEE7000080B582B04F
:1055900000AF78607B68174A93420AD101214FF42B
:1055A0000010FCF7B3FE00214FF40010FCF7AEFE34
:1055B0001CE07B68104A93420AD101214FF480001D
:1055C000FCF7A4FE00214FF48000FCF79FFE0DE0E5
:1055D0007B680A4A934209D101214FF40000FCF78D
:1055E00095FE00214FF40000FCF790FE00BF083745
:1055F000BD4680BD0054004000580040005C0040A3
:1056000080B58AB000AF786039600023FB84002346
:105610007B840423BB84574BFB617B689B88FB84A2
:10562000FB8C23F03F03FB8407F10C031846FCF7C7
:1056300063FD7B69FB61FB694F4AA2FB03239B0C63
:105640007B84FA8C7B8C1343FB847B68FA8C9A8076
:105650007B681B889BB223F001039AB27B681A8097
:105660000023FB843B681B68444A934215D83B687F
:105670001B685B00FA69B2FBF3F3BB84BB8C032BA2
:1056800001D80423BB84FA8CBB8C1343FB847B8C32
:1056900001339AB27B681A8440E03B68DB884BF6A2
:1056A000FF72934209D13B681A6813465B001344AA
:1056B000FA69B2FBF3F3BB840EE03B681A68134649
:1056C0009B0013449A001344FA69B2FBF3F3BB84C2
:1056D000BB8C43F48043BB84BB8CC3F30B03002B14
:1056E00003D1BB8C43F00103BB84BA8CFB8C134306
:1056F0009BB26FEA43436FEA5343FB847B8C4FF4C6
:10570000967202FB03F31E4A82FB03129211DB170F
:10571000D31A9BB201339AB27B681A847B68FA8CE5
:105720009A837B681B889BB243F001039AB27B6823
:105730001A807B681B88FB84FB8C23F4816323F035
:105740000203FB843B689A883B685B8913439AB2E7
:10575000FB8C1343FB847B68FA8C1A803B689A8924
:105760003B681B8913439AB27B681A8100BF2837B4
:10577000BD4680BD00127A0083DE1B43A086010077
:10578000D34D621080B483B000AF78600B46FB70DD
:10579000FB78002B08D07B681B889BB243F0010389
:1057A0009AB27B681A8007E07B681B889BB223F063
:1057B00001039AB27B681A8000BF0C37BD465DF8C2
:1057C000047B704780B483B000AF78600B46FB70F9
:1057D000FB78002B08D07B681B889BB243F4807356
:1057E0009AB27B681A8007E07B681B889BB223F41F
:1057F00080739AB27B681A8000BF0C37BD465DF893
:10580000047B704780B483B000AF78600B46FB70B8
:10581000FB78002B08D07B681B889BB243F4007395
:105820009AB27B681A8007E07B681B889BB223F4DE
:1058300000739AB27B681A8000BF0C37BD465DF8D2
:10584000047B704780B483B000AF78600B46FB7078
:105850001346BB70BB78002B04D0FB7843F00103E8
:10586000FB7003E0FB7823F00103FB70FB789AB236
:105870007B681A8200BF0C37BD465DF8047B704719
:1058800080B483B000AF78600B46FB70FB78002BD0
:1058900008D07B681B889BB243F480639AB27B6814
:1058A0001A8007E07B681B889BB223F480639AB25E
:1058B0007B681A8000BF0C37BD465DF8047B7047DB
:1058C00080B483B000AF78600B46FB70FB78002B90
:1058D0000AD07B681B889BB26FEA43436FEA53434D
:1058E0009AB27B681A8007E07B681B889BB2C3F37F
:1058F0000E039AB27B681A8000BF0C37BD465DF874
:10590000047B704780B483B000AF78600B46FB70B7
:10591000FB789AB27B681A8200BF0C37BD465DF8EF
:10592000047B704780B483B000AF78607B681B8ACB
:105930009BB2DBB218460C37BD465DF8047B70475E
:1059400080B487B000AF786039600023FB75002316
:105950003B610023FB607B68FB603B681B0F3B6186
:105960003B6823F07F433B603B69002B03D0FB681F
:105970001433FB6005E03B681B0C3B60FB6818338D
:10598000FB60FB681A683B681340002B02D00123C0
:10599000FB7501E00023FB75FB7D18461C37BD46F7
:1059A0005DF8047B704700BF80B485B000AF7860BD
:1059B0000023FB60344BFB607B689B79002B4FD04E
:1059C0003149314B1A687B681B68DB4313400B601D
:1059D0002D492D4B5A687B681B68DB4313404B6095
:1059E0007B681B791A46FB681344FB60FB68FA6806
:1059F00011687A6812680A431A602349224B9A6830
:105A00007B681B68DB4313408B601F491E4BDA68C1
:105A10007B681B68DB431340CB607B685B79102B92
:105A20000ED11949184B9A687B681B6813438B6029
:105A30001549154BDA687B681B681343CB601DE082
:105A4000114BFB607B685B791A46FB681344FB6073
:105A5000FB68FA6811687A6812680A431A600DE0F8
:105A60007B681B791A46FB681344FB60FB68FA6885
:105A700011687A681268D2430A401A6000BF14376E
:105A8000BD465DF8047B7047003C014080B500AF27
:105A9000164A164B1B6843F080731360134B1B6848
:105AA000002B03D11248FCF79DF812E0114B1B6844
:105AB00003F00073002B03D00F48FCF793F808E0C5
:105AC0000E4B00221A600B4A0A4B1B6843F001037D
:105AD00013600B4B1B685B6A002B05D1084B1B68DE
