:020000040800F2
:1000000000000320F17B0008357C0008357C0008E7
:10001000357C0008357C0008357C000800000000B5
:10002000000000000000000000000000C1640008A3
:10003000357C000800000000C16600082167000848
:10004000357C0008357C0008357C0008357C0008CC
:10005000357C0008357C0008357C0008357C0008BC
:10006000357C0008357C0008357C0008357C0008AC
:10007000357C0008357C0008357C0008357C00089C
:10008000357C0008357C0008357C0008357C00088C
:10009000357C0008357C0008357C0008357C00087C
:1000A000357C0008357C0008357C0008357C00086C
:1000B000357C0008357C0008357C0008357C00085C
:1000C000357C0008357C0008357C0008357C00084C
:1000D000357C0008357C0008357C0008357C00083C
:1000E000357C0008357C0008357C0008357C00082C
:1000F000357C0008357C0008357C0008357C00081C
:10010000357C0008357C0008357C0008357C00080B
:10011000357C0008357C0008357C0008357C0008FB
:10012000357C0008357C0008357C0008357C0008EB
:10013000357C0008357C0008357C0008357C0008DB
:10014000357C0008357C0008357C0008357C0008CB
:10015000357C0008357C0008357C0008357C0008BB
:10016000357C0008357C0008357C0008357C0008AB
:10017000357C0008357C0008357C0008357C00089B
:10018000357C0008357C0008357C0008357C00088B
:10019000357C0008357C0008357C0008357C00087B
:1001A000357C0008357C0008357C000890B484B0AC
:1001B00000AF03460A46FB711346BB710023FB6088
:1001C000BB7903F003039B000F2202FA03F3FB60E9
:1001D0001649BB799B08DBB21846144ABB799B08C9
:1001E000DBB2023352F82320FB68DB431A40831C46
:1001F00041F823200D48BB799B08DBB21C460B4A13
:10020000BB799B08DBB2023352F82320F979BB7922
:1002100003F003039B0001FA03F31A43A31C40F805
:1002200023201037BD4690BC704700BF0038014006
:1002300080B588B000AF0346FB71FB79002B00D17D
:100240005AE02F4B1B68002B00D155E0FB790F2B98
:1002500003D92C4802F000FB4EE02B4B1B68002B0F
:1002600003D02A4802F0F8FA46E0EFF310833B612E
:100270003B69FB610123FB60FB6883F31088224B21
:100280001B680133204A1360214B1B681B6B002B3A
:1002900028D0FB792133DB101E4AD35C1A46FB7948
:1002A000213303F0070342FA03F303F00103002BA9
:1002B00018D14FF6FF7002F027FB03467B83FB79D2
:1002C0007B7602F015F878617B69002B0AD07B6998
:1002D00002221A707B697A8B5A807B697A7E5A7007
:1002E00002F0F4FA084B1B68013B074A1360FB69F4
:1002F000BB60BB6883F310882037BD4680BD00BF5C
:10030000000000208494000820010020C49400080C
:100310001C0100208000002080B58EB000AFF86086
:10032000B9607A60414B1B68002B00D17BE07B6891
:10033000002B03DA7B685B427B6301E07B687B63B5
:10034000EFF31083FB61FB693B630123BB61BB6976
:1003500083F31088364B1B680133354A1360354BE5
:100360001A687B681344334A1360304B1B681B6B5D
:10037000002B4ED0304B1B78002B03D12F4B1B781A
:10038000002B46D1FF2002F0BFFA034687F82F303A
:100390004FF6FF70796B00F0A3F90346BB8501F0BF
:1003A000A7FFB862BB6A002B33D0BB6A97F82F2037
:1003B0005A70BB6A00221A70BB6ABA8D5A8002F06A
:1003C00085FA4FF6FF70B96800F08AF90346FB849E
:1003D000002387F8253001F08BFF38623B6A002B41
:1003E00017D03B6AFA8C5A803B6A97F825205A70DE
:1003F000FB68DBB20133DAB23B6A1A70FB68DAB22F
:10040000BB6A1A7002F062FA084B1B68094A12684C
:100410001A65074B1B68013B054A13603B6B7B6108
:100420007B6983F310883837BD4680BD1C010020EE
:1004300020010020700000206C0000206E000020D1
:1004400080B58AB000AFF8600B467A60FB72FB683B
:10045000FE2B03D9414802F0FFF97BE0FB7A062B23
:1004600003D93F4802F0F8F974E03E4B1A68FB7A72
:10047000134493F864301A467B689A4203D23A4890
:1004800002F0EAF966E0394B1B68002B03D03848CC
:1004900002F0E2F95EE0374B1B78002B00D159E007
:1004A000EFF31083BB61BB697B6201237B617B69D6
:1004B00083F310882D4B1B6801332C4A1360294BA2
:1004C0001B681B6B002B3BD02B4B1B78002B03D1E5
:1004D0002A4B1B78002B33D17B68DBB2FA7A1046AB
:1004E000194607F03FFA0346002B29D1FB68DB08C9
:1004F000234AD35C1A46FB6803F0070342FA03F36E
:1005000003F00103002B1BD14FF6FF7002F0FCF942
:1005100003467B847B6887F8213001F0E9FEF861AF
:10052000FB69002B0CD0FB697A8C5A80FB68DAB22D
:10053000FB691A70FB6997F821205A7002F0C6F91E
:100540000A4B1B68013B094A13607B6A3B613B69AC
:1005500083F310882837BD4680BD00BF349500085E
:10056000689500081C010020AC95000820010020BF
:10057000F09500086D0000206C0000206E00002047
:100580008800002080B58AB000AFF8607A603B60D8
:100590000B46FB72FB68FE2B03D9474802F05CF95F
:1005A00086E0FB7A062B03D9444802F055F97FE038
:1005B000434B1A68FB7A134493F864301A467B68FD
:1005C0009A4203D23F4802F047F971E03E4B1B6864
:1005D000002B03D03D4802F03FF969E0EFF31083B0
:1005E000BB61BB697B6201237B617B6983F31088FC
:1005F000354B1B680133344A1360314B1B681B6B4E
:10060000002B4BD0324B1B78002B47D0314B1B7843
:10061000002B03D0304B1B78002B3FD07B68DBB224
:10062000FA7A1046194607F09DF90346002B35D19A
:10063000FB68DB08294AD35C1A46FB6803F0070312
:1006400042FA03F303F00103002B27D1FF2002F04D
:100650005BF9034687F82330FF20396800F040F843
:10066000034687F822307B6887F8213001F040FE8E
:10067000F861FB69002B11D0FB6997F82320DA7031
:10068000FB68DAB2FB691A70FB6997F821205A708F
:10069000FB6997F822209A7002F018F90A4B1B6840
:1006A000013B094A13607B6A3B613B6983F3108815
:1006B0002837BD4680BD00BF289600086096000818
:1006C0001C010020AC96000820010020FC960008C8
:1006D0006D0000206E0000206C00002088000020CB
:1006E00080B584B000AF786039607B68FF2B09D09B
:1006F0007B684FF6FF72934204D0174802F0ACF8C3
:100700003B6825E03A687B689A4201D83B681FE065
:1007100001F0EEFDF860FB68002B16D0FB680122AB
:100720001A707B68DA433B68134003F47F431B0A6B
:10073000DAB2FB685A707B68DA433B6813401B0CE3
:100740009AB2FB685A8002F0C1F83A687B6813409D
:1007500018461037BD4680BD3497000880B58AB072
:1007600000AF786039600023FB847B68FE2B03D9DF
:10077000324802F071F85DE0314B1B68002B03D06A
:10078000304802F069F855E0EFF310837B617B6934
:100790003B6201233B613B6983F31088284B1B6854
:1007A0000133274A1360284B1B681B6B002B37D083
:1007B000264B1B78002B33D0254B1B78002B03D006
:1007C000244B1B78002B2BD07B68DB08224AD35CA0
:1007D0001A467B6803F0070342FA03F303F00103B0
:1007E000002B1DD1FF2002F08FF80346FB774FF658
:1007F000FF703968FFF774FF0346FB8401F078FD52
:10080000B861BB69002B0BD0BB69FA7F5A707B685B
:10081000DAB2BB691A70BB69FA8C5A8002F056F8DA
:10082000074B1B68013B064A13603B6AFB60FB6891
:1008300083F310882837BD4680BD00BF709700083D
:1008400020010020C49700081C0100206D0000203A
:100850006E0000206C0000208800002080B58AB067
:1008600000AF0346FB71002387F82730FB790F2B7D
:1008700003D93F4801F0F0FF77E0FB792133DB102B
:100880003C4AD35C1A46FB79213303F0070342FA52
:1008900003F303F00103002B06D0012387F8273070
:1008A000354B01221A7002E0334B00221A70EFF32D
:1008B00010837B617B693B6201233B613B6983F36E
:1008C00010882E4B1B6801332C4A13602C4B1B786D
:1008D000FA799A4202D1012387F82730294B1B6805
:1008E0001B6B002B02D1012387F8273097F92730A3
:1008F000002B30D14FF6FF7002F006F80346FB8361
:100900001F4AFB7913701E4B1B787B7701F0F0FCBC
:10091000B861BB69002B1ED0194B1B780320194608
:1009200000F0A2F90346012B03D1BB6907221A701C
:1009300002E0BB6906221A70BB69FA8B5A80BB6958
:100940007A7F5A700E4B1B7803201946012200F063
:100950004FF901F0BBFF094B1B68013B074A1360CD
:100960003B6AFB60FB6883F310882837BD4680BD77
:10097000FC970008800000206E000020200100206D
:100980006D0000201C01002090B587B000AF034629
:100990000A46FB711346BB71BB79062B03D920486D
:1009A00001F05AFF39E01F4B1A68BB79134493F8E2
:1009B0006430FA799A4203D91B4801F04DFF2CE0CC
:1009C000184B1B681B6B002B27D0FB79FB75154B55
:1009D0001C68FA79BB791046194601F0ADFC034654
:1009E0008833234404333B613869002101F0E4FE7D
:1009F0000346FB8101F07CFCB860BB68002B0CD087
:100A0000BB790833DAB2BB681A70BB68FA7D5A70DA
:100A1000BB68FA895A8001F059FF1C37BD4690BD6A
:100A2000409800081C0100209098000890B585B0FF
:100A300000AF03460A46FB711346BB71BB79062B18
:100A400003D92B4801F008FF4FE02A4B1A68BB7905
:100A5000134493F86430FA799A4203D9264801F096
:100A6000FBFE42E0234B1B681B6B002B3DD001F0CB
:100A70003FFCF860FB68002B37D0BB79032B17D104
:100A80001C4B1C68FA79BB791046194601F054FCDE
:100A900003461946174B1A68BB79134493F86C3018
:100AA0000B440133234493F88C20FB685A7015E003
:100AB000104B1C68FA79BB791046194601F03CFCD2
:100AC000034619460B4B1A68BB79134493F86C30F4
:100AD0000B44234493F88C20FB685A70BB79103385
:100AE000DAB2FB681A7001F0F1FE1437BD4690BD12
:100AF000DC9800081C0100203499000890B583B0F0
:100B000000AF0346FB710B46BB7113467B71FB794B
:100B1000062B03D9144801F09FFE22E0134B1A68FC
:100B2000FB79134493F86430BA799A4203D9104898
:100B300001F092FE15E00D4B1C68BA79FB79104666
:100B4000194601F0F9FB03461946084B1A68FB7970
:100B5000134493F86C300B44013323447A7983F8BF
:100B60008C200C37BD4690BD849900081C010020E4
:100B7000CC99000890B583B000AF03460A46FB71DC
:100B80001346BB71FB79062B04D9164801F064FEAD
:100B9000002322E0144B1A68FB79134493F8643065
:100BA000BA799A4204D9114801F056FE002314E0A4
:100BB0000D4B1C68BA79FB791046194601F0BCFB55
:100BC00003461946084B1A68FB79134493F86C30B6
:100BD0000B440133234493F88C3018460C37BD4640
:100BE00090BD00BF0C9A00081C010020689A000804
:100BF00090B583B000AF0346FB710B46BB71134643
:100C00007B71FB79062B03D9144801F025FE21E006
:100C1000134B1A68FB79134493F86430BA799A42FB
:100C200003D9104801F018FE14E00D4B1C68BA7986
:100C3000FB791046194601F07FFB03461946084B25
:100C40001A68FB79134493F86C300B4423447A7987
:100C500083F88C200C37BD4690BD00BFE49A000895
:100C60001C010020289B000890B583B000AF03460C
:100C70000A46FB711346BB71FB79062B04D9154854
:100C800001F0EAFD002321E0134B1A68FB791344BD
:100C900093F86430BA799A4204D9104801F0DCFD27
:100CA000002313E00C4B1C68BA79FB7910461946F7
:100CB00001F042FB03461946074B1A68FB791344BF
:100CC00093F86C300B44234493F88C3018460C375F
:100CD000BD4690BD649B00081C010020A89B000835
:100CE00090B583B000AF0346FB71104B1B6893F8BF
:100CF0006730FA799A4203D90D4801F0ADFD11E051
:100D00000A4B1C68FB791846032101F015FB0346CA
:100D10001A46064B1B6893F86F3013442344002295
:100D200083F88C200C37BD4690BD00BF1C0100200D
:100D3000E49B000880B500AF00F0F2F800F036F94F
:100D400000F010F80346002B01D0042308E000F067
:100D500023F80120012100F049F800F06FF800238A
:100D6000184680BD80B500AF00F026F803461A464D
:100D700040F611039A4209D0064B1B68002B03D1A1
:100D800000F0E6FB034602E0012300E000231846E2
:100D900080BD00BF0400002080B500AF0320022109
:100DA00000F02EF9022000F009FC0320002100F0E1
:100DB00027F90023184680BD80B582B000AF00231C
:100DC000FB80002000F05EFA0346FB80FB881B02DC
:100DD000FB80012000F056FA03469AB2FB881343C9
:100DE000FB80FB8818460837BD4680BD80B584B0BF
:100DF00000AF03460A46FB711346BB710023FB7329
:100E0000042000F03FFA0346FB73BB79002B07D0A8
:100E1000FB79DB43DAB2FB7B1340DBB2FB7303E00D
:100E2000FA7BFB791343FB73FB7B0420194600F02C
:100E3000E7F8002318461037BD4680BD80B500AFE7
:100E400002200121FFF7D2FF2020492100F0D8F82D
:100E5000022000F0B3FB2120012100F0D1F81E2078
:100E6000002100F035F841209A2100F0C9F84A200D
:100E7000012100F0C5F84B20012100F0C1F84B2002
:100E8000002100F0BDF85620012100F0B9F85820EB
:100E9000012100F0B5F84020032100F0B1F80B204B
:100EA000FF2100F0ADF8094B0022DA80074BDA8809
:100EB000064B9A80054B9A88044B5A80034B5A88FC
:100EC000024B1A800023184680BD00BFD82E012097
:100ED00080B584B000AF03460A46FB711346BB7170
:100EE0000023FB73172000F0CDF90346FB73BB7999
:100EF000002B04D0FA7BFB791343FB7306E0FB79EC
:100F0000DB43DAB2FB7B1340DBB2FB73FB7B1720C6
:100F1000194600F075F8002318461037BD4680BD0D
:100F200080B582B000AF4FF40000012102F04CF810
:100F300040F20510012102F00BF84FF4804001212E
:100F400002F060F84FF40000012102F079F84FF44C
:100F50000000002102F074F812480821042204F075
:100F600079F911480921042204F074F94FF48073CF
:100F70003B6002233B7102237B710123BB71002381
:100F8000FB713B460748194604F0A2F84FF4007382
:100F90003B603B460448194604F09AF80837BD46C2
:100FA00080BD00BF000002400008024080B584B050
:100FB00000AF114B1B889BB203F00103002B17D12C
:100FC0000023BB804BF6FF73FB8000233B814FF473
:100FD00080637B814FF48043BB81084B3B603B4681
:100FE0000548194606F05CFF0348012107F01AF88E
:100FF0001037BD4680BD00BF005C0040A0860100E8
:1010000080B584B000AF03460A46FB711346BB713E
:101010000023FB604C48012107F024F84B4B4FF4B0
:1010200040521A600AE0494B1B685A1E47490A6041
:10103000002B03D100F08CFA034680E0424844497B
:1010400007F0CEF80346002BEDD03F488221002266
:1010500007F048F83D4B4FF440521A600AE03B4B12
:101060001B685A1E39490A60002B03D100F070FA40
:10107000034664E03448374907F0B2F80346002BD2
:10108000EDD0314B1B8B314B4FF440521A600AE0CC
:101090002E4B1B685A1E2D490A60002B03D100F00D
:1010A00057FA03464BE028482B4907F099F80346C6
:1010B000002BEDD0FB792448194607F073F8234B39
:1010C0004FF440521A600AE0204B1B685A1E1F4919
:1010D0000A60002B03D100F03BFA03462FE01A48C8
:1010E0001D4907F07DF80346002BEDD0BB7916486B
:1010F000194607F057F8154B4FF440521A600AE0B2
:10110000124B1B685A1E11490A60002B03D100F0D4
:101110001FFA034613E00C480F4907F061F8034635
:10112000002BEDD008480D4907F05AF80346002B74
:10113000E6D00548012106F0B5FFFB68DBB2184692
:101140001037BD4680BD00BF005C00400400002099
:1011500001000010020000108000001004000010C8
:1011600080B582B000AF03460A46FB711346BB71DF
:101170003E48012106F076FF3D4B4FF440521A6085
:101180000AE03B4B1B685A1E39490A60002B03D109
:1011900000F0DEF9034664E03448364907F020F8F1
:1011A0000346002BEDD0FB7930481946002206F0AB
:1011B00099FF2F4B4FF440521A600AE02C4B1B68EA
:1011C0005A1E2B490A60002B03D100F0C1F90346D7
:1011D00047E02648284907F003F80346002BEDD0E6
:1011E000224B1B8B224B4FF440521A600AE0204BDB
:1011F0001B685A1E1E490A60002B03D100F0A8F993
:1012000003462EE019481D4906F0EAFF0346002B6D
:10121000EDD0BB791548194606F0C4FF144B4FF4C6
:1012200040521A600AE0124B1B685A1E10490A60AD
:10123000002B03D100F08CF9034612E00B480F4954
:1012400006F0CEFF0346002BEDD008480C4906F00F
:10125000C7FF0346002BE6D00448012106F022FF19
:10126000012318460837BD4680BD00BF005C004022
:101270000400002001000010020000108000001097
:101280000400001080B584B000AF0346FB7100235A
:10129000FB736C48012106F0E5FE6B4B4FF44052A6
:1012A0001A600AE0684B1B685A1E67490A60002BE7
:1012B00003D100F04DF90346C0E06248634906F0EF
:1012C0008FFF0346002BEDD05E48002106F028FF7B
:1012D0005C488221002206F005FF5B4B4FF4405230
:1012E0001A600AE0584B1B685A1E57490A60002BC7
:1012F00003D100F02DF90346A0E05248544906F00E
:101300006FFF0346002BEDD04E4B1B8B4E4B4FF423
:1013100040521A600AE04C4B1B685A1E4A490A6048
:10132000002B03D100F014F9034687E045484949F2
:1013300006F056FF0346002BEDD0FB7941481946D5
:1013400006F030FF404B4FF440521A600AE03E4B2B
:101350001B685A1E3C490A60002B03D100F0F8F8C4
:1013600003466BE037483B4906F03AFF0346002B43
:10137000EDD03448384906F033FF0346002BE6D061
:101380003048012106F06EFE2F4B4FF440521A6098
:101390000AE02D4B1B685A1E2B490A60002B03D113
:1013A00000F0D6F8034649E02648284906F018FF21
:1013B0000346002BEDD023488221012206F092FE45
:1013C000214B4FF440521A600AE01F4B1B685A1E13
:1013D0001D490A60002B03D100F0BAF803462DE046
:1013E00018481B4906F0FCFE0346002BEDD0154BB8
:1013F0001B8B154B4FF440521A600AE0124B1B68CE
:101400005A1E11490A60002B03D100F0A1F80346CF
:1014100014E00C48114906F0E3FE0346002BEDD022
:101420000848012106F03EFE064806F0CBFE0346C2
:10143000FB730448012106F073FEFB7B184610374E
:10144000BD4680BD005C004004000020010000108B
:101450000200001080000010040000104000001086
:1014600080B584B000AF0346FB710023FB733348A3
:10147000012106F0F7FD324B4FF440521A600AE0AA
:101480002F4B1B685A1E2E490A60002B03D100F017
:101490005FF803464EE029482A4906F0A1FE0346BC
:1014A000002BEDD02548002106F03AFEFB792348B9
:1014B0001946012206F016FE214B4FF440521A60E5
:1014C0000AE01F4B1B685A1E1D490A60002B03D1FE
:1014D00000F03EF803462DE018481B4906F080FE58
:1014E0000346002BEDD0154B1B8B154B4FF4405290
:1014F0001A600AE0124B1B685A1E11490A60002B41
:1015000003D100F025F8034614E00C480F4906F01B
:1015100067FE0346002BEDD00848012106F0C2FD0E
:10152000064806F04FFE0346FB730448012106F00F
:10153000F7FDFB7B18461037BD4680BD005C0040C0
:101540000400002001000010020000104000001004
:1015500080B584B000AF1748012106F0A3FD1548FF
:10156000012106F0FDFD1348002106F0F9FDFFF70B
:10157000D7FC104806F05AFC0023BB804BF6FF73E3
:10158000FB8000233B814FF480637B814FF48043D9
:10159000BB81094B3B600748012106F043FD3B46F8
:1015A0000448194606F07CFC002318461037BD4657
:1015B00080BD00BF005C0040A086010080B485B003
:1015C00000AF78600023FB607B68084A02FB03F3EE
:1015D000FB6002E0FB68013BFB60FB68002BF9D17C
:1015E0001437BD465DF8047B704700BFA08601003C
:1015F00080B598B000AF786002F02CFF03467B65A1
:101600000023A7F85E300023A7F85C3000237B831B
:10161000012007F01FF840E097F84C30C3F30403B3
:10162000DBB21A46012393409AB2B7F85E301343F7
:101630009BB2A7F85E3097F84C3003F02003DBB282
:10164000002B0ED097F84C30C3F30403DBB21A46DC
:10165000012393409AB2B7F85C301343A7F85C308B
:101660000FE097F84C30C3F30403DBB21A460123B2
:1016700093409BB2DB439AB2B7F85C301340A7F8B3
:101680005C3097F84C30C3F30403DBB23A6D9B0037
:1016900007F160010B4443F8442C4F4B1A6807F1E3
:1016A0004C03104619460022002305F0A7FC034610
:1016B000002BB1D1B7F85E20B7F85C3007F110010C
:1016C0000846464902F0FAFA07F1100324201946A9
:1016D00007F01AFA424B1B68184600214FF0FF3200
:1016E000002305F08BFC07F11A03184600F07AF886
:1016F0003B4B1B68184600210022002305F024FA0A
:10170000002387F85B3056E097F85B30012202FA3D
:1017100003F39AB2B7F85E301340A7F85830B7F821
:101720005830002B42D097F85B3003F01F03DAB239
:101730003B7B62F304033B73B7F85C2097F85B30A4
:1017400042FA03F3DBB203F00103DAB23B7B62F34C
:1017500045133B737B8B1A4697F85B3042FA03F3D1
:1017600003F001033A7BC2F34012D2B293421DD17F
:1017700097F85B309B0007F16002134453F8442C48
:1017800007F10C03104619464FF0FF32012305F014
:10179000DBF997F85B30012202FA03F39BB2DB43DB
:1017A0009AB2B7F85E301340A7F85E3097F85B3016
:1017B000013387F85B3097F85B300B2BA4D90120FD
:1017C00006F060FF32231A4607F15403184611460B
:1017D00002F03CFC1CE700BFF02E0120349C000806
:1017E000E02E012080B582B000AF78607520FFF751
:1017F00037FE03469BB21B029AB27B681A807120A7
:10180000FFF72EFE034619467B681A888BB21343F6
:101810009AB27B681A800837BD4680BD80B58EB00D
:1018200000AF7860844B1B683B63002387F8373038
:101830000023FB76002387F836300CE097F836302B
:1018400007F138021344032203F8102C97F83630BE
:10185000013387F8363097F83630022BEED9002363
:1018600087F83730E2E01820744907F04DF901207D
:1018700000F0F4F897F82C306FF3040387F82C305D
:1018800097F82C3043F0200387F82C306C4B1A6803
:1018900007F12C03104619464FF0FF32012305F0E3
:1018A00053F997F82C30012262F3040387F82C30A7
:1018B000634B1A6807F12C03104619464FF0FF32AC
:1018C000012305F041F997F824306FF3451387F8A9
:1018D000243097F820306FF3451387F82030564BAB
:1018E0001A6807F12403104619464FF0FF3200230F
:1018F00005F084FB504B1A6807F120031046194687
:101900000022002305F07AFB97F82430C3F340133C
:10191000DBB21A4697F82430C3F30403DBB202FAB1
:1019200003F3DAB297F82030C3F34013DBB2194661
:1019300097F82030C3F30403DBB201FA03F3DBB200
:101940001343DBB2DBB2013BDBB2FB76FB7E1A4614
:1019500007F10C0318463B4902F0B0F907F10C03FC
:101960001820194607F0D0F8FB7E07F1380213441F
:1019700013F8103C002B59D0FB7E07F138021A44B3
:1019800012F8102C013AD2B207F138010B4403F8D7
:10199000102C97F82C30022262F3040387F82C30C5
:1019A00097F82C3043F0200387F82C303C20264950
:1019B00007F0AAF8224B1A6807F12C0310461946C3
:1019C0004FF0FF32012305F0BFF83C201F4907F01C
:1019D0009BF8194B1A6807F11C03104619464FF083
:1019E000FF32002305F00AFB3C20194907F08CF870
:1019F000002000F033F8174B1A6807F11B0310465C
:101A000019464FF0FF32012305F09EF8124B1A6879
:101A100007F11C03104619464FF0FF32002305F072
:101A2000EDFA97F83730013387F8373097F83730C9
:101A3000092B7FF418AFFDE6F82E0120489C000822
:101A4000F02E0120589C0008689C00087C9C00082F
:101A5000909C0008E82E0120042F012080B584B05E
:101A600000AF0346FB713B7B6FF304033B73FB79D1
:101A700003F00103DAB23B7B62F345133B73074B80
:101A80001A6807F10C03104619464FF0FF32012384
:101A900005F05AF81037BD4680BD00BFF42E012076
:101AA00080B489B000AF78600023FB610023BB6184
:101AB00000237B6100233B610023FB600023BB60AC
:101AC0003F493F4B9A683F4B13408B607B681B69D3
:101AD0001B04FB613A483A4B9A687B685969FB6979
:101AE0000B43134383603649354BDA68354B13405B
:101AF000CB607B689B691B04BB613148304BDA6863
:101B00007B68D969BB690B431343C3602C492C4BD9
:101B10001A692C4B13400B617B681B6A1B047B61A9
:101B20002748274B1A697B68596A7B690B43134323
:101B300003612349224B5A69224B13404B617B6856
:101B40009B6A1B043B611E481D4B5A697B68D96A1E
:101B50003B690B43134343611949194B9A691A4B6B
:101B600013408B611648164B9A697B6819687B682D
:101B70005B6819437B689B6819437B68DB680B4390
:101B8000134383617B685B6B1B02FB607B681B6B91
:101B90001B04BB600A4A0A4BDB6A03F07F43D36233
:101BA0000748074BDA6AB968FB6819437B689B6B87
:101BB0000B431343C3622437BD465DF8047B704773
:101BC0000068014000F800F08F88FE0F80B483B0F9
:101BD00000AF0346FB71FB79002B06D0084A084B87
:101BE0009B6943F00103936105E0054A044B9B693F
:101BF00023F0010393610C37BD465DF8047B704709
:101C00000068014080B483B000AF0346FB71FB79EC
:101C1000002B06D0084A084B9B6943F4803393613C
:101C200005E0054A044B9B6923F4803393610C372C
:101C3000BD465DF8047B70470068014080B483B006
:101C400000AF7860034A7B6853620C37BD465DF88D
:101C5000047B70470068014080B489B000AF7860B1
:101C600039600023FB610023BB6100237B610023FB
:101C70003B610023FB600023BB603B685B681B0487
:101C8000FB617B685B6803F470427B685A603B6869
:101C90001A68FB691A437B685A603B68DB681B045F
:101CA000BB617B689B6803F470427B689A603B6809
:101CB0009A68BB691A437B689A607B681B6923F04A
:101CC00007027B681A613B681A697B681A613B6886
:101CD000DB691B027B613B681B6A1B043B613B6841
:101CE0005B6A1B06FB607B689B697B6800229A61CC
:101CF0003B689A697B691A433B691A43FB681A433C
:101D00007B689A617B685B6923F0FF027B685A619C
:101D10003B685A697B685A617B68DB6923F4E0633E
:101D200023F007037A68D3613B689A6A3B68DB6AF1
:101D30001A437B68DA617B689B6A7B6800229A623F
:101D40003B681A6B7B689A623B689B6B1B04BB60A9
:101D50007B68DB6A03F0E0227B68DA623B685A6BDF
:101D6000BB681A437B68DA627B681B6B23F4FF63F2
:101D700023F007037A6813633B68DA6B7B681A63A6
:101D80002437BD465DF8047B704700BF80B483B044
:101D900000AF78600B46FB70FB78002B06D07B68A9
:101DA0001B6843F001027B681A6005E07B681B68D2
:101DB00023F001027B681A600C37BD465DF8047B96
:101DC000704700BF80B584B004AF002006F014FC5B
:101DD000012006F011FC0020002106F06BFC06F04B
:101DE000B3FC06F00BFD0120FFF7F0FE012006F02A
:101DF00075FD4FF6FF7006F0AFFD002006F08EFD7A
:101E0000854806F09BFDFEF795FF72200021FFF745
:101E1000A7F90346002B09D0804B01221A7000203D
:101E200006F018FC012006F02DFC08E07B4B002298
:101E30001A70002006F026FC012006F00BFC784BFF
:101E400000221A80774B00221A8004F03BF904F03C
:101E50003FF9052318460821002204F04BFD0246F5
:101E6000714B1A60704B1B68002B01D10123D0E02D
:101E7000052318460121002204F03CFD02466B4B6D
:101E80001A606A4B1B68002B01D10123C1E00120BD
:101E90000121002204F02EFD0246654B1A60644BBE
:101EA0001B68002B01D10123B3E001200121002296
:101EB00004F020FD02465F4B1A605E4B1B68002B4E
:101EC00001D10123A5E001200121002204F012FD2F
:101ED0000246594B1A60584B1B68002B01D1012355
:101EE00097E002200121002204F004FD0246534B3A
:101EF0001A60524B1B68002B01D1012389E001209D
:101F00000121002204F0F6FC02464D4B1A604C4BB6
:101F10001B68002B01D101237BE00120012100225D
:101F200004F0E8FC0246474B1A60464B1B68002B46
:101F300001D101236DE001200121002204F0DAFC2F
:101F40000246414B1A60404B1B68002B01D1012314
:101F50005FE0012004F062FD02463C4B1A603B4BFF
:101F60001B68002B01D1012353E0042300930023BD
:101F700001930023029300230393354835498022BF
:101F8000002301F059FF0523009300230193002350
:101F9000029300230393304830498022002301F04C
:101FA0004BFF03230093002301930023029300239C
:101FB00003932B482B498022002301F03DFF01238E
:101FC00000930023019300230293002303932648E8
:101FD00026498022002301F02FFF022300930023D3
:101FE0000193002302930023039321482149802277
:101FF000002301F021FF204804F0DCF803461A46D4
:102000001E4B1A800C201E4906F07EFD02F02CF9B2
:10201000FEE71846BD4680BD4C0000207C00002035
:102020007A00002076000020F02E0120F42E0120FE
:10203000FC2E0120EC2E0120002F0120F82E012083
:10204000E82E0120042F0120E42E0120E02E0120A3
:10205000F1150008AC9C0008E93C0008BC9C000895
:10206000D57A0008D09C00081D180008E49C0008E0
:1020700081590008F89C0008049D0008082F0120E1
:10208000089D000880B500AF7D4B1A687D4B1B682A
:1020900013447D4A13607D4B7D4A1A607B4B1B685D
:1020A000002B03D17B4800F0D7FBE8E0774B1B689F
:1020B000002B03D1784800F0CFFBE0E0734B1B68A6
:1020C0001846002144F2C06207F00EF96F4B1B68FE
:1020D00000221A706D4B1B6801225A706B4B1B68F3
:1020E00002229A70694B1B680322DA70674B1B68E7
:1020F00070221A71654B1B6871225A71634B1B6801
:1021000072229A71614B1B687322DA715F4B1B68F4
:10211000F0221A725D4B1B68F1225A725B4B1B68EE
:10212000F2229A72594B1B68F322DA72574B1B68E2
:1021300041F6A1229A81554B1B6804229A73534B96
:102140001B680022DA73514B1B6844F2C0621A61AB
:102150004E4B1B684FF47A629A614C4B1B684FF0F0
:10216000F0325A65494B1B6800229A6505F0CAFA9D
:10217000464B1B684FF0F132C3F82424434B1B68D5
:102180004FF44872C3F82824404B1B680122C3F85F
:102190002C243E4B1B6803F5FA634FF07E521A6005
:1021A0003A4B1B684FF0F232C3F8D827374B1B6805
:1021B00003F2DC7318463949502207F02FF9334BEC
:1021C0001B684FF0F332C3F82C28304B1B6803F523
:1021D0008D4334330A221A702C4B1B6803F58D4350
:1021E00035330B221A70294B1B6803F58D433633A8
:1021F0000C221A70254B1B6803F58D4337330D22D3
:102200001A70224B1B6803F58D43383371221A7004
:102210001E4B1B6803F58D43393372221A701B4B1A
:102220001B6803F58D433A3373221A70174B1B68F2
:1022300003F58D433B3374221A70144B1B6803F56E
:102240008D433C33F1221A70104B1B6803F58D430C
:102250003D33F2221A700D4B1B6803F58D433E335C
:10226000F3221A70094B1B6803F58D433F33F422A8
:102270001A7005F0E9FA00F013F806F057F880BD7F
:10228000041000E0B8020020CC7501201C010020E1
:102290000C2F0120149D0008549D00087C9D00080F
:1022A00080B582B000AF104B1B683B603B681B7869
:1022B000002B13D100237B600CE03A687B68134449
:1022C00039687A680A4412780132D2B21A707B688F
:1022D00001337B607B680B2BEFD902E0034800F0F1
:1022E000BBFA0837BD4680BD1C010020909D000848
:1022F00080B500AF0E4B1B681B6B002B01D1002378
:1023000013E00B4B1B68DB69B3F57A6F04D3094804
:1023100000F0A2FA002308E0054B1A68044B1B6882
:10232000DB699B0003F503631344184680BD00BFBF
:102330001C010020BC9D000880B582B000AF0346A0
:102340000A46FB711346BB71BB79062B04D92248A0
:1023500000F082FA00233AE0FB79002B08D01F4BF3
:102360001A68BB79134493F86430FA799A4204D915
:102370001B4800F071FA002329E0BB79062B22D814
:10238000FB79002B1FD0154B1A68BB79134493F8C7
:102390006430FA799A4216D8104B1A68BB793C33EC
:1023A0005B0013449A880D4B1968BB790B4493F872
:1023B000743099B2FB79013B9BB211FB03F39BB2E2
:1023C00013449BB203E0074800F046FA0023184686
:1023D0000837BD4680BD00BFE49D00081C010020F9
:1023E000249E0008649E000880B584B000AF0346B8
:1023F000FB71FB79062B04D9934800F02DFA0023DA
:102400001EE1FB79914A32F813301A46904B1A605C
:102410008F4B1B688D4A134493F83830002B14D12E
:102420008B4B1A688A4B1B68D9B2FB7987480433F7
:102430005B000344DB88DBB2CB1ADBB20133D9B2D9
:10244000824B13440A4683F83820814B1B687F4A2D
:10245000134493F83830FB73FB797C4A32F813202D
:10246000FB797A490C335B000B449B889A420AD96A
:10247000FB79184605F036FA0346184600F0ECF9E9
:102480000023FB73DBE0FB79704A32F81320013242
:1024900091B26E4A22F81310FB796C4A32F813306D
:1024A0001946FB79694A04335B001344DB88CB1A75
:1024B000BB60FB79654A14335B0013445B881A46A2
:1024C000BB689A4209DAFB79BA68D2B291B25F4A24
:1024D00014335B0013440A465A80FB79062B00F242
:1024E000AE8001A252F823F0052500083B25000824
:1024F0006F250008A32500083F260008D7250008FF
:102500000B260008FB7BDB08DBB21946FB7BDB08F4
:10251000DBB21A464F4B9B5CD8B2FB7B03F0070340
:10252000012202FA03F3DBB2DB43DBB202461340C3
:10253000DBB2DAB2474B5A5480E0FB7B0B33DB1043
:10254000FA7B0B32D21043498A5CD0B2FA7B0B3251
:1025500002F00702012101FA02F2D2B2D243D2B252
:1025600001460A40D2B2D1B23A4AD15466E0FB7B6E
:102570001633DB10FA7B1632D21036498A5CD0B2A1
:10258000FA7B163202F00702012101FA02F2D2B2FE
:10259000D243D2B201460A40D2B2D1B22D4AD1546E
:1025A0004CE0FB7B2133DB10FA7B2132D21029492E
:1025B0008A5CD0B2FA7B213202F00702012101FAD3
:1025C00002F2D2B2D243D2B201460A40D2B2D1B262
:1025D000204AD15432E0FB7B3133DB10FA7B3132BD
:1025E000D2101C498A5CD0B2FA7B313202F0070269
:1025F000012101FA02F2D2B2D243D2B201460A401C
:10260000D2B2D1B2134AD15418E0FB7B3433DB1081
:10261000FA7B3432D2100F498A5CD0B2FA7B343262
:1026200002F00702012101FA02F2D2B2D243D2B281
:1026300001460A40D2B2D1B2064AD15400BFFB7B58
:1026400018461037BD4680BDA49E0008AC0000208F
:10265000280100208000002080B584B000AF034630
:102660000A46FB711346BB71FB79062B03D91E4842
:1026700000F0F2F834E0BB79002B08D01B4B1A684D
:10268000FB79134493F86430BA799A4203D9184815
:1026900000F0E2F824E0FB79164A32F813305A1EB3
:1026A000FB79144904335B000B44DB889A4203DA5C
:1026B000114800F0D1F813E0FB790E4A32F81320EC
:1026C000013A91B20B4A22F81310FB79094A32F809
:1026D0001330FB60074AFB6813443833BA791A7029
:1026E0001037BD4680BD00BFE89E00081C010020D9
:1026F0002C9F0008AC0000206C9F000880B582B0C1
:1027000000AF03463A60FB710B46BB713B68002B80
:1027100003D1234800F0A0F83FE0FB79062B03D952
:10272000204800F099F838E0BB79002B03D11E480F
:1027300000F092F831E01D4B1A68FB79134493F8CE
:102740006430BA799A4208D9FB79184605F0CAF87C
:102750000346184600F080F81FE0BA79FB7910466E
:102760001946FFF7E9FD03461A46114B1A80114B33
:102770001B68002B11D10D4B1A680D4B1B88883339
:102780001344191D094B1A68FB79134493F86C30F4
:10279000084639681A4606F041FE0837BD4680BD36
:1027A0009C9F0008CC9F0008F89F00081C01002097
:1027B0002C0100202401002080B588B000AF786093
:1027C0000B467B800023FB720023BB727B68002BCF
:1027D00004D11F4800F040F8002335E007F10A0259
:1027E00007F10B03786811461A4600F07BFAEFF305
:1027F00010837B617B69BB6101233B613B6983F390
:102800001088144B1B680133124A1360B97AFA7AA4
:102810007B88786800F02CF90346FB83FB8B002B48
:1028200007D1B97AFA7A7B88786800F09DF9034677
:10283000FB83084B1B68013B064A1360BB69FB60C6
:10284000FB6883F31088FB8B18462037BD4680BD9C
:1028500024A000082001002080B582B000AF78607D
:102860007B68002B03D11548FFF7F6FF22E0144BDD
:102870001B68002B03D11348FFF7EEFF1AE0104B43
:102880001B6800221A63104B1B68002B12D10E4AE2
:102890007B6813600A4B1B6803F2DC720A4B1B68EF
:1028A00010461946502206F0B9FD054B1B6801225F
:1028B000C3F8D4270837BD4680BD00BF54A0000828
:1028C0001C0100207CA000082401002080B500AF7E
:1028D0000C4B1B681B6B002B00D111E0094B1B68D4
:1028E0005A6901325A61074B1B68DA690132DA61B1
:1028F000044B1B68DB69B3F57A6F01D303F048FC26
:1029000080BD00BF1C01002090B587B000AF03461A
:10291000FB8000237B6100233B610023FB60FB887D
:10292000FF2B09D0FB884FF6FF72934204D04C482E
:10293000FFF792FF00238FE007F10C03184605F024
:1029400033FDFA68474B1B68D31A3B61FB68454A65
:102950001360454B1B685B6A002B43D0424B1B68DE
:102960005A6A3B699A421DD23F4B1B683E4A126825
:10297000D16A3D4A1268526A3869B0FBF2F20A44E1
:10298000DA62394B1968384B1B68986A364B1B68FA
:102990005A6A3B69B3FBF2F402FB04F29B1A03444C
:1029A0008B6207E0304B1B682F4A1268916A3A69C4
:1029B0000A449A622C4B1B689A6A2B4B1B685B6A11
:1029C0009A4213D3284B1B68DA6A0132DA62264B2B
:1029D0001B68254A1268916A234A1268526A8A1A49
:1029E0009A6203E0204B1B68FA689A62FA883B6996
:1029F0009A422CD2FFF77CFC78617B69002B26D0B1
:102A0000FB884FF6FF7293420BD17B69A9221A70A3
:102A10003B691B0C9AB27B695A807B6900225A7011
:102A200013E0FB88FF2B0DD17B69A8221A703B694C
:102A30001B0A9AB27B695A803B691B0EDAB27B692A
:102A40005A7002E00948FFF707FFFFF73FFF3B69B5
:102A50009AB2FB8813409BB218461C37BD4690BD06
:102A600008A10008300100201C01002048A1000836
:102A700080B584B000AF7860084611461A46034618
:102A8000FB700B46BB7013463B80344B1B68FA78D7
:102A900002F56A7233F81230FB817B68002B04D197
:102AA0002F48FFF7D9FE002354E0BB78002B04D158
:102AB0002C48FFF7D1FE00234CE047E0274B1A6873
:102AC000FB890233134493F830341A463B88DBB257
:102AD0009A4228D1214B1A68FB890333134493F897
:102AE00030349AB23B881B0A9BB29A421BD11B4BD3
:102AF0001A68FB89191DBB780B44134493F83034D2
:102B0000002B10D1154B1A68FB89043303F586633B
:102B10001A44BB78104679681A4606F033FC03461F
:102B2000002B00D115E00D4B1A68FB89134493F874
:102B300030349AB2094B1968FB8901330B4493F87E
:102B400030349BB21B029BB21344FB81FB89002BE8
:102B5000B4D1FB8918461037BD4680BD1C0100204A
:102B60006CA10008A8A1000880B584B000AF78600F
:102B7000084611461A460346FB700B46BB701346C7
:102B80003B800023FB817B68002B04D15148FFF779
:102B900063FE00239AE0BB78002B04D14E48FFF778
:102BA0005BFE002392E04D4B1B68D3F82C24BB78CE
:102BB00013440433B3F5487F05D34948FFF74CFE6F
:102BC0000023FB8181E0454B1A68444B1B68D3F816
:102BD0002C3442490968F87800F56A7031F8101011
:102BE000C9B213440A4683F830243C4B1A683B4B65
:102BF0001B68D3F82C34013338490968F87800F59C
:102C00006A7031F81010090A89B2C9B213440A4631
:102C100083F83024314B1A68304B1B68D3F82C34BE
:102C200002333988C9B213440A4683F830242B4B47
:102C30001A682A4B1B68D3F82C3403333988090AE5
:102C400089B2C9B213440A4683F83024234B1A6868
:102C5000224B1B68D3F82C34043303F586631A44E3
:102C6000BB78104679681A4606F0D8FB1B4B1A68E9
:102C70001A4B1B68D3F82C14BB780B440433134451
:102C8000002283F83024154B1B68FA781349096831
:102C9000D1F82C1489B202F56A7223F812100F4B86
:102CA0001B680E4A1268D2F82C14BA780A4405320E
:102CB000C3F82C24094B1B68D3F82C349AB2BB7888
:102CC0009BB2D31A9BB2053BFB81FB891846103798
:102CD000BD4680BDE0A100081CA200081C01002028
:102CE00054A2000880B588B000AFF860B9607A607F
:102CF0000123FB610023BB61FB68002B03D1194852
:102D0000FFF7AAFD2BE0BB68002B03D11648FFF7A5
:102D1000A3FD24E07B68002B03D11448FFF79CFD42
:102D20001DE0FB68002B0FD006E0FB7DBA69134461
:102D3000BB61FB690133FB61FB685A1CFA601B78BD
:102D4000FB75FB7D002BF0D1BB69DBB203F03F03C9
:102D5000DAB2BB681A70FB69DAB27B681A70203786
:102D6000BD4680BD94A20008C8A20008F8A20008D1
:102D700080B485B000AFF860B9607A600749FB683D
:102D80009A01BB681B061A437B681B071343C1F8F3
:102D900088301437BD465DF8047B70470038024028
:102DA00080B483B000AF0346FB71044AFB79136023
:102DB0000C37BD465DF8047B704700BF700047428A
:102DC00080B489B000AF78600023BB6100237B61D1
:102DD0000023FB6102233B610023FB600223BB60F5
:102DE000484B9B6803F00C03BB61BB69042B07D005
:102DF000082B09D0002B3FD17B68434A1A603FE083
:102E00007B68424A1A603BE03E4B5B6803F48003F8
:102E10009B0DFB603B4B5B6803F03F03BB60FB68B3
:102E2000002B0DD0394ABB68B2FBF3F2354B596821
:102E300047F6C0730B409B0903FB02F3FB610CE0F8
:102E4000314ABB68B2FBF3F22E4B596847F6C073A8
:102E50000B409B0903FB02F3FB612A4B5B6803F405
:102E600040331B0C01335B003B61FA693B69B2FBE9
:102E7000F3F27B681A6003E07B68234A1A6000BFA4
:102E8000204B9B6803F0F003BB61BB691B09BB616E
:102E90001F4ABB6913441B78DBB27B617B681A68ED
:102EA0007B69DA407B685A60164B9B6803F4E053F9
:102EB000BB61BB699B0ABB61154ABB6913441B78A4
:102EC000DBB27B617B685A687B69DA407B689A6019
:102ED0000C4B9B6803F46043BB61BB695B0BBB613C
:102EE0000B4ABB6913441B78DBB27B617B685A6871
:102EF0007B69DA407B68DA602437BD465DF8047B85
:102F0000704700BF003802400024F40000127A002D
:102F10000800002080B485B000AF78600023FB601B
:102F20000A4BD3F88C30FB60FB6823F44033FB6022
:102F3000FA687B681343FB60044AFB68C2F88C3074
:102F40001437BD465DF8047B704700BF003802406F
:102F500080B483B000AF78600B46FB70FB78002B29
:102F600006D00949084B1A6B7B6813430B6306E0D4
:102F70000549054B1A6B7B68DB4313400B630C3729
:102F8000BD465DF8047B70470038024080B483B0D2
:102F900000AF78600B46FB70FB78002B06D0094928
:102FA000084B9A6B7B6813438B6306E00549054B1E
:102FB0009A6B7B68DB4313408B630C37BD465DF82F
:102FC000047B70470038024080B483B000AF786063
:102FD0000B46FB70FB78002B06D00949084B1A6C96
:102FE0007B6813430B6406E00549054B1A6C7B684C
:102FF000DB4313400B640C37BD465DF8047B704720
:103000000038024080B483B000AF78600B46FB709C
:10301000FB78002B06D00949084B5A6C7B68134398
:103020004B6406E00549054B5A6C7B68DB43134053
:103030004B640C37BD465DF8047B70470038024096
:1030400080B483B000AF78600B46FB70FB78002B38
:1030500006D00949084B1A6A7B6813430B6206E0E5
:103060000549054B1A6A7B68DB4313400B620C373A
:10307000BD465DF8047B70470038024080B483B0E1
:1030800000AF78600B46FB70FB78002B06D0094937
:10309000084B5A6A7B6813434B6206E00549054BAF
:1030A0005A6A7B68DB4313404B620C37BD465DF8C0
:1030B000047B70470038024080B487B000AF0346FD
:1030C000FB710023FB6000237B610023FB74FB7911
:1030D0005B09DBB2FB60FB68012B03D1124B1B6861
:1030E0007B6109E0FB68022B03D10F4B1B6F7B61F7
:1030F00002E00D4B5B6F7B61FB7903F01F03FB600C
:10310000FB687A6922FA03F303F00103002B02D073
:103110000123FB7401E00023FB74FB7C18461C3781
:10312000BD465DF8047B70470038024080B586B02C
:1031300004AF00237B6000F0CFFA134B1B68002B19
:103140000FD002230093114B01930023029300231D
:1031500003930F480F494FF48272002300F06CFE76
:1031600078607B68002B09D14FF0500383F31188FE
:10317000BFF36F8FBFF34F8F3B60FEE77B6818464E
:103180000837BD4680BD00BF6401002068010020F3
:103190003D3300082CA3000880B588B000AFF8606C
:1031A000B9607A603B600023FB61434B1B68002BD6
:1031B0007DD0BB683B617B687B61FB68BB61BB68A2
:1031C000052B1CDC01F002FE0346022B0BD13A4B0F
:1031D0001A6807F1100310461946BA6A002303F073
:1031E000B3FCF86116E0344B1A6807F1100310467F
:1031F00019460022002303F0A7FCF8610AE02E4BD9
:103200001A6807F11003104619463A68002303F0C4
:103210001DFEF861BB68002B49DDBB68042B0FD194
:10322000FB69012B01D1B42200E0BD22FB689B6A3F
:10323000DBB2104605211A467B68FDF7A3F936E09C
:10324000BB68052B20D1FB69012B1DD1FB689B6A54
:10325000DBB2B52005211A46FDF7F2F8FB689B6A40
:10326000DBB218460521FDF78FFBFB689B6ADBB2DA
:1032700018460521FDF7DAFBFB689B6ADBB20520E7
:103280001946FFF7E9F912E0BB6803F1B002FB69E8
:10329000012B01D1002300E0092313441A46FB68E7
:1032A0009B6ADBB2104605211A46FDF7C9F8FB6997
:1032B00018462037BD4680BD6401002080B588B027
:1032C00002AF786039601C4B1B68DB68DB687B6190
:1032D0007B690433184602F061FA7B69DB69012BD4
:1032E00022D17B699A697B681344786919463A68E8
:1032F0007B6800F0B9F80346012B15D10023009339
:10330000786900217A680023FFF746FF38613B693E
:10331000002B09D14FF0500383F31188BFF36F8F57
:10332000BFF34F8FFB60FEE77B695B6A7869984764
:103330001837BD4680BD00BF5C01002080B584B059
:1033400000AF786007F10803184600F049F8F8600C
:10335000BB68F868194600F003F800F0C7F8F1E719
:1033600080B584B000AF7860396000F0C9FF07F124
:103370000803184600F058F8F860BB68002B25D108
:103380003B68002B0AD17A68FB689A4206D800F0A5
:10339000C5FF7868F968FFF791FF19E00E4B1968CF
:1033A0007A68FB68D31A084619463A6804F04CF963
:1033B00000F0B4FF0346002B0AD1084B4FF08052B7
:1033C0001A60BFF34F8FBFF36F8F01E000F0A6FFCD
:1033D0001037BD4680BD00BF6401002004ED00E051
:1033E00080B485B000AF78600E4B1B681B68002B63
:1033F0000CBF01230023DBB21A467B681A607B688E
:103400001B68002B05D1074B1B68DB681B68FB6042
:1034100001E00023FB60FB6818461437BD465DF8E9
:10342000047B70475C01002080B584B000AF7860F9
:1034300001F010F8F8600B4B1B68FA689A4205D24D
:1034400000F0EAF87B6801221A6002E07B68002243
:103450001A60044AFB681360FB6818461037BD46C3
:1034600080BD00BF6C01002080B586B000AFF86061
:10347000B9607A603B6000237B61FB68BA685A6080
:10348000FB68FA681A61BA687B689A4212D87A684F
:103490003B68D21AFB689B699A4202D301237B6185
:1034A0001BE0104B1A68FB6804331046194602F003
:1034B0003DF912E07A683B689A4206D2BA683B68E6
:1034C0009A4202D301237B6107E0074B1A68FB682D
:1034D00004331046194602F029F97B69184618375B
:1034E000BD4680BD600100205C01002080B58CB02D
:1034F00002AF7DE0BB68002B7ADB3B697B627B6AB5
:103500005B69002B04D07B6A0433184602F046F94D
:103510003B1D1846FFF788FF3862BB68092B66D849
:1035200001A252F823F000BF5135000851350008C0
:1035300051350008F1350008AF350008E7350008BF
:103540005135000851350008F1350008AF35000845
:10355000FA687B6A9B691A44FB68786A11463A6A82
:10356000FFF782FF0346012B20D17B6A5B6A786AF2
:1035700098477B6ADB69012B18D1FA687B6A9B69E3
:103580001A4400230093786A00210023FFF704FE09
:10359000F861FB69002B09D14FF0500383F31188C8
:1035A000BFF36F8FBFF34F8FBB61FEE720E0FA6878
:1035B0007B6A9A617B6A9B69002B09D14FF05003AB
:1035C00083F31188BFF36F8FBFF34F8F7B61FEE7EB
:1035D0007B6A9A693B6A1344786A19463A6A3B6A7D
:1035E000FFF742FF04E0786A04F0F0FF00E000BF5C
:1035F000084B1A6807F108031046194600220023F9
:1036000003F0FCFC0346002B7FF474AF2837BD4663
:1036100080BD00BF6401002080B588B002AF44E0E7
:103620002B4B1B68DB681B687B61294B1B68DB68C5
:10363000DB683B613B690433184602F0AFF83B6935
:103640005B6A386998473B69DB69012B2DD13B697F
:103650009A697B691344FB60FA687B699A420ED9C8
:103660003B69FA685A603B693A691A61184B1A68F3
:103670003B6904331046194602F058F815E0002360
:103680000093386900217A690023FFF785FDB8604F
:10369000BB68002B09D14FF0500383F31188BFF3AF
:1036A0006F8FBFF34F8F3B60FEE7094B1B681B68B2
:1036B000002BB5D1064B1B687B60064B1B68044A88
:1036C0001360044A7B6813601837BD4680BD00BF95
:1036D0005C0100206001002080B582B000AF02F0E4
:1036E0009BFF1A4B1B68002B2BD1194801F0CEFF12
:1036F000184801F0CBFF184B154A1A60174B154AB2
:103700001A600A200C21002203F0F4F802460F4B45
:103710001A600E4B1B68002B09D14FF0500383F346
:103720001188BFF36F8FBFF34F8F7B60FEE7074BAE
:103730001B68002B05D0054B1B681846084903F091
:103740004BFF02F097FF0837BD4680BD64010020A3
:1037500034010020480100205C01002060010020AD
:1037600034A3000880B483B000AF78600B46FB70D0
:103770007B68FA781A70012318460C37BD465DF84D
:10378000047B704780B485B000AF78603960002357
:10379000FB600AE07B685A1C7A603A68511C396009
:1037A00012781A70FB680133FB603B681B78002BB2
:1037B000F0D1FB6818461437BD465DF8047B7047AE
:1037C00080B586B000AFF8607A603B600B46FB7254
:1037D00000237B617B68013B7B603B68092B10D930
:1037E0003B681E4AA2FB0323DB08FA7AF8681146FD
:1037F0007A68FFF7E5FF78617B69FA681344FB603C
:1038000011E00DE0FB7AF8681946FFF7ABFFFB68A3
:103810000133FB607B6901337B617B68013B7B602B
:103820007B68002BEEDC39680C4BA3FB0123DA0824
:1038300013469B0013445B00CA1AD3B23033DBB289
:10384000F8681946FFF78EFF02467B6913447B61D7
:103850007B6918461837BD4680BD00BFCDCCCCCCA7
:1038600090B587B000AFF8607A603B600B46FB72A2
:1038700000237B613B68002B03DA3B685B423B61C2
:1038800001E03B683B617B68013B7B603B69092B46
:1038900025D93B68002B0FDA3B69314AA2FB032391
:1038A000DB085B421C46FB7AF86819467A682346B7
:1038B000FFF7D6FF78610DE03B69294AA2FB03239D
:1038C000DB081C46FB7AF86819467A682346FFF73E
:1038D000C7FF78617B69FA681344FB6025E03B68A9
:1038E000002B02DA7B68013B7B600DE0FB7AF86815
:1038F0001946FFF737FFFB680133FB607B69013333
:103900007B617B68013B7B607B68002BEEDC3B6866
:10391000002B0ADAF8682D21FFF724FF02467B69A5
:1039200013447B61FB680133FB6039690C4BA3FBDB
:103930000123DA0813469B0013445B00CA1AD3B272
:103940003033DBB2F8681946FFF70CFF02467B699B
:1039500013447B617B6918461C37BD4690BD00BF90
:10396000CDCCCCCC90B589B002AFF8607A601A4665
:103970000B46FB721346BB7200237B617B68013BE5
:103980007B60BB6A1B09002B13D0BB6A1B09FA7A48
:10399000BC7A0093F86811467A682346FFF7E2FF85
:1039A00002467B6913447B617B69FA681344FB60C0
:1039B00011E00DE0FB7AF8681946FFF7D3FEFB68CB
:1039C0000133FB607B6901337B617B68013B7B607A
:1039D0007B68002BEEDCBB6A03F00F03092B0BD8CE
:1039E000BB6ADBB203F00F03DBB23033DBB2F86843
:1039F0001946FFF7B7FE19E0BB7A002B0BD0BB6A64
:103A0000DBB203F00F03DBB23733DBB2F8681946E1
:103A1000FFF7A8FE0AE0BB6ADBB203F00F03DBB2DC
:103A20005733DBB2F8681946FFF79CFE7B69013318
:103A30007B617B6918461C37BD4690BD90B58BB045
:103A400002AFF860B9607A603B600023BB6100237D
:103A50007B61FB68002B02D0FB6800221A70FCE03F
:103A60007B681B78252B0BD0FB685A1CFA607A68A0
:103A7000511C796012781A707B6901337B61ECE02C
:103A80007B6801331B78252B0BD1FB685A1CFA602D
:103A900025221A707B6802337B607B6901337B616E
:103AA000DBE02023FB770023BB777B6801337B605F
:103AB0007B681B78302B04D13023FB777B68013384
:103AC0007B600EE0BB7F1A46920013445B00DAB2C3
:103AD0007B681B781344DBB2303BBB777B680133D8
:103AE0007B607B681B782F2B03D97B681B78392B75
:103AF000E8D9BA7F7B6913441A46BB689A4205D954
:103B0000BB68DAB27B69DBB2D31ABB777B681B7800
:103B1000583B202B00F2938001A252F823F000BF03
:103B2000F73B00083F3C00083F3C00083F3C0008D2
:103B30003F3C00083F3C00083F3C00083F3C000879
:103B40003F3C00083F3C00083F3C0008293C00087F
:103B5000A53B00083F3C00083F3C00083F3C0008F4
:103B60003F3C0008A53B00083F3C00083F3C0008E4
:103B70003F3C00083F3C00083F3C00083F3C000839
:103B80003F3C00083F3C00083F3C0008153C000853
:103B90003F3C0008BF3B00083F3C00083F3C00089A
:103BA000D93B0008BC7F3B681A1D3A601B68FA7F4E
:103BB000F86811462246FFF753FEB86142E0BC7F29
:103BC0003B681A1D3A601B68FA7FF8681146224666
:103BD000FFF7F6FDB86135E0BC7F3B681A1D3A601F
:103BE0001B68FA7F0093F868114622460023FFF70E
:103BF000B9FEB86126E0BC7F3B681A1D3A601B68BD
:103C0000FA7F0093F868114622460123FFF7AAFEC7
:103C1000B86117E03B681A1D3A601B68F8681946DE
:103C2000FFF7B0FDB8610DE03B681A1D3A601B68F4
:103C3000DBB2F8681946FFF795FDB86102E04FF076
:103C4000FF3325E07B6801337B60BB69FA6813446E
:103C5000FB607A69BB6913447B617B681B78002B2E
:103C600004D07A69BB689A42FFF4FAAE7A69BB68FD
:103C70009A4203D2FB6800221A7008E0FB68013BFD
:103C8000FB60FB6800221A707B69013B7B617B69EA
:103C900018462437BD4690BD80B584B000AFF860AB
:103CA000B9607A60F8686421BA687B68FFF7C6FE7D
:103CB000034618461037BD4680BD00BF0EB480B520
:103CC00085B000AF786007F12003BB607868F969C0
:103CD000BA68FFF7E1FFF860FB6818461437BD4685
:103CE000BDE8804003B0704780B588B000AF786011
:103CF00000F0B0FBF8610023BB760023FB76444B59
:103D00001A6807F11803104619464FF0FF320023D6
:103D100003F074F93B7E03F02003DBB2002B0ED0DE
:103D20003B7EC3F30403DBB21A4601239340DAB2AD
:103D3000BB7EDBB21343DBB2DBB2BB760FE03B7E74
:103D4000C3F30403DBB21A4601239340DBB2DB4327
:103D5000DAB2BB7EDBB21340DBB2DBB2BB7624E06F
:103D60003B7E03F02003DBB2002B0ED03B7EC3F37F
:103D70000403DBB21A4601239340DAB2BB7EDBB206
:103D80001343DBB2DBB2BB760FE03B7EC3F304032D
:103D9000DBB21A4601239340DBB2DB43DAB2BB7ECF
:103DA000DBB21340DBB2DBB2BB76194B1A6807F10A
:103DB0001803104619460022002303F01FF903469A
:103DC000002BCDD1BB7E1A4607F1080318461149D6
:103DD000FFF774FF07F108033020194604F094FE42
:103DE0000D4B1B68184600214FF0FF32002303F0F3
:103DF00005F907F11A03184600F010F8064B1B6886
:103E0000184600210022002302F09EFE77E700BF43
:103E1000F42E012044A30008E02E012080B582B0DA
:103E200000AF78607B681B7872201946FDF798F91F
:103E30000837BD4680BD00BF80B58CB002AFF860CA
:103E4000B9603B601346FB80FB68002B09D14FF043
:103E5000500383F31188BFF36F8FBFF34F8FBB61A4
:103E6000FEE73B6B052B09D94FF0500383F3118814
:103E7000BFF36F8FBFF34F8F7B61FEE7FB88184660
:103E8000B96B00F027FF38623B6A002B00F0AE8070
:103E90003B6A1A6BFB8803F18043013B9B00134490
:103EA000FB61FB6923F00703FB61FB6903F0070378
:103EB000002B09D04FF0500383F31188BFF36F8FAD
:103EC000BFF34F8F3B61FEE7FB880093386AB96808
:103ED0003A6BFB6B00F0FEFDF869F9683A6802F096
:103EE0009FFA02463B6A1A607B6B002B02D07B6B09
:103EF0003A6A1A6002F090FB4D4B1B6801334C4A42
:103F000013604C4B1B68002B09D14A4A3B6A136073
:103F1000474B1B68012B0FD100F02EFE0CE0464BE7
:103F20001B68002B08D1434B1B68DA6A3B6B9A4233
:103F300002D8404A3B6A1360404B1B6801333F4A3A
:103F400013603E4B1A683B6A1A643B6A002B28D008
:103F50000320FEF749FA03461A463B6A5A64386A58
:103F600003F0BAFB03461A463B6A3433032011467A
:103F70001A46FEF7C3FB386A03F0AEFB03461A4647
:103F80003B6ADB6ADBB2032011461A46FCF7B6FD3A
:103F9000386A03F0A1FB03461B2003211A46FCF7F5
:103FA0004FFA386A03F098FB03461846FCF740F9CD
:103FB0003B6ADB6A1A46012303FA02F2204B1B68B4
:103FC00013431F4A13603B6ADA6A13469B0013448B
:103FD0009B001C4A1A443B6A04331046194601F000
:103FE00081FB01237B6202F045FB07E04FF0FF33CA
:103FF0007B62432003210022FCF722FA7B6A012B1B
:1040000011D10D4B1B68002B0DD00A4B1B68DA6ACF
:104010003B6B9A4207D20C4B4FF080521A60BFF3B1
:104020004F8FBFF36F8F7B6A18462837BD4680BD20
:104030005C0200207001002068020020780200204D
:10404000640200207401002004ED00E080B58AB015
:1040500000AF7860396000237B627B68002B09D158
:104060004FF0500383F31188BFF36F8FBFF34F8F6F
:104070007B61FEE73B68002B09D14FF0500383F3CF
:104080001188BFF36F8FBFF34F8F3B61FEE73D4B4E
:104090001B68002B09D04FF0500383F31188BFF346
:1040A0006F8FBFF34F8FFB60FEE700F029F9364BAF
:1040B0001B683B627B681A683B681344FB617B6842
:1040C0001A683B6A9A420BD97B681A68FB699A4264
:1040D00011D9FA693B6A9A420DD901237B620AE041
:1040E0007B681A68FB699A4203D8FA693B6A9A426C
:1040F00001D901237B627B68FA691A607B6A002B15
:104100002ED08820F969FCF729FB204B1B68184644
:1041100003F0E2FA03461846FCF7E2FD03F0EAFA80
:104120000346184603F0D8FA03461846FCF7D8FDB4
:10413000164B1B680433184601F030FB0346002B76
:104140000BD1124B1B68DB6A1A4601239340DA43FA
:104150000F4B1B6813400E4A1360F86900F084FD92
:1041600000F0DCF8B861BB69002B07D1094B4FF0B8
:1041700080521A60BFF34F8FBFF36F8F2837BD4651
:1041800080BD00BF8002002060020020700100207E
:104190006402002004ED00E080B586B000AF7860D6
:1041A00000237B617B68002B46D02A4B1B68002BC9
:1041B00009D04FF0500383F31188BFF36F8FBFF323
:1041C0004F8FFB60FEE700F09BF889207968FCF7D1
:1041D000C5FA214B1B68184603F07EFA03461846C1
:1041E000FCF77EFD03F086FA0346184603F074FAE6
:1041F00003461846FCF774FD184B1A687B68134495
:104200003B61154B1B680433184601F0C7FA03469F
:10421000002B0BD1104B1B68DB6A1A46012393401D
:10422000DA430F4B1B6813400D4A1360386900F0E6
:104230001BFD00F073F878617B69002B07D1094BF7
:104240004FF080521A60BFF34F8FBFF36F8F183754
:10425000BD4680BD80020020700100206002002069
:104260006402002004ED00E080B588B004AF0023B4
:1042700000930023019300230293002303931B4820
:104280001B4982220023FFF7D7FDF860FB68012B52
:1042900002D1FEF74BFFF860FB68012B15D14FF000
:1042A000500383F31188BFF36F8FBFF34F8FBB6051
:1042B000104B4FF0FF321A600F4B01221A600F4B68
:1042C00000221A6002F01CF90CE0FB68002B09D1F7
:1042D0004FF0500383F31188BFF36F8FBFF34F8FFD
:1042E0007B60FEE71037BD4680BD00BFA54A0008D1
:1042F00058A300087C020020680200206002002011
:1043000080B400AF044B1B680133034A1360BD4601
:104310005DF8047B704700BF8002002080B584B048
:1043200000AF0023FB60424B1B68002B09D14FF00C
:10433000500383F31188BFF36F8FBFF34F8F7B6000
:10434000FEE702F069F93A4B1B68013B384A1360FB
:10435000374B1B68002B64D1364B1B68002B60D099
:1043600037E0354BDB68DB68BB60BB681833184649
:1043700001F014FABB680433184601F00FFAB8686C
:1043800003F0AAF903461846FBF752FFBB68DB6A45
:104390001A46012303FA02F2284B1B681343274AEB
:1043A0001360BB68DA6A13469B0013449B00244ADF
:1043B0001A44BB6804331046194601F093F9BB68F0
:1043C000DA6A204B1B68DB6A9A4202D31E4B012239
:1043D0001A60194B1B68002BC3D11C4B1B68002BA8
:1043E00011D00CE000F046F80346002B02D0164B2B
:1043F00001221A60154B1B68013B144A1360134BD2
:104400001B68002BEED1104B1B68012B09D1012337
:10441000FB600F4B4FF080521A60BFF34F8FBFF31A
:104420006F8F02F027F9FB6818461037BD4680BD34
:10443000800200205C0200201C0200206402002098
:104440007401002070010020700200206C02002026
:1044500004ED00E080B483B000AF054B1B687B60C7
:104460007B6818460C37BD465DF8047B704700BF7B
:104470006002002080B586B000AF00237B615E4BF8
:104480001B68012B03D05D4B1B68002B07D15C4BD5
:104490001B6801335A4A1360002003F085FF564B16
:1044A0001B68554B1B68002B40F09680554B1B68D2
:1044B0000133544A1360534B1B683B613B69002B2B
:1044C0001FD1514B1B681B68002B09D04FF05003C4
:1044D00083F31188BFF36F8FBFF34F8F3B60FEE70D
:1044E000494B1B68FB60494B1B68474A1360474AAE
:1044F000FB681360464B1B680133454A136000F0AC
:1045000031FC444B1B683A699A4256D33E4B1B68B8
:104510001B68002B01D1012300E00023002B04D0F5
:104520003C4B4FF0FF321A6047E0374B1B68DB68AB
:10453000DB68BB60BB685B687B603A697B689A42FA
:1045400003D2344A7B68136037E0BB6804331846F3
:1045500001F024F9BB689B6A002B04D0BB681833B8
:10456000184601F01BF9B86803F0B6F80346184680
:10457000FBF75EFEBB68DB6A1A46012303FA02F210
:10458000254B1B681343244A1360BB68DA6A134641
:104590009B0013449B00214A1A44BB680433104615
:1045A000194601F09FF8BB68DA6A1D4B1B68DB6A8D
:1045B0009A4201D301237B61A8E7194B1B68DA6A91
:1045C000164913469B0013449B000B441B68012BA8
:1045D00007D901237B6104E0084B1B680133074ABC
:1045E0001360104B1B68002B01D001237B617B699A
:1045F00018461837BD4680BD800200206C0200209E
:10460000B4020020600200201402002018020020E2
:10461000740200207C02002064020020740100204B
:10462000700100207002002080B586B000AF2A4BD8
:104630001B68002B03D0294B01221A6048E0274B4E
:1046400000221A60264B1B68FB60FB68B3FA83F3F9
:10465000FB72FB7AC3F11F037B6122497A6913461F
:104660009B0013449B000B441B68002B09D14FF0A7
:10467000500383F31188BFF36F8FBFF34F8F7B60BD
:10468000FEE77A6913469B0013449B00154A1344C6
:104690003B613B695B685A683B695A603B695A6891
:1046A0003B6908339A4204D13B695B685A683B69AD
:1046B0005A603B695B68DB680B4A136003F01AF8C9
:1046C0000346184603F008F803461846FCF7C6F8F8
:1046D0001837BD4680BD00BF800200207002002058
:1046E00064020020740100207001002080B584B0B5
:1046F00000AF786039607B68002B09D14FF0500320
:1047000083F31188BFF36F8FBFF34F8FBB60FEE75A
:10471000194B1B6818337868194601F007F8164BD7
:104720001B680433184601F039F80346002B0BD1FF
:10473000114B1B68DB6A1A4601239340DA430F4B87
:104740001B6813400D4A13603B68B3F1FF3F07D16C
:10475000094B1B6804330A48194600F0C3FF07E001
:10476000084B1A683B681344FB60F86800F07CFA59
:104770001037BD4680BD00BF7001002064020020DC
:10478000480200206002002080B586B000AFF860CB
:10479000B9607A60FB68002B09D14FF0500383F3B6
:1047A0001188BFF36F8FBFF34F8F3B61FEE7334B31
:1047B0001B681833F868194600F094FF2F4B1B68EC
:1047C0000433184600F0EAFF0346002B0BD12B4BB5
:1047D0001B68DB6A1A4601239340DA43284B1B68A7
:1047E0001340274A13607B68012B25D1234B1B689C
:1047F000184602F071FF03468A2003211A46FBF790
:104800001FFE1E4B1B68184602F066FF0346184643
:10481000FCF766FA02F06EFF0346184602F05CFFF2
:1048200003461846FCF75CFA144B1B680433154822
:10483000194600F057FF1EE0134B1A68BB6813447B
:104840007B6188207969FBF789FF0C4B1B68184650
:1048500002F042FF03461846FCF742FA02F04AFF14
:104860000346184602F038FF03461846FCF738FAAC
:10487000786900F0F9F91837BD4680BD7001002055
:1048800064020020480200206002002080B586B04B
:1048900000AF78607B68DB68DB683B613B69002BBD
:1048A00009D14FF0500383F31188BFF36F8FBFF32B
:1048B0004F8FFB60FEE73B691833184600F06EFF30
:1048C000214B1B68002B25D13B690433184600F0AF
:1048D00065FF386902F000FF03461846FBF7A8FCA5
:1048E0003B69DB6A1A46012303FA02F2174B1B6885
:1048F0001343164A13603B69DA6A13469B0013445C
:104900009B00134A1A443B6904331046194600F0D1
:10491000E9FE05E03B6918330E48194600F0E2FE57
:104920003B69DA6A0C4B1B68DB6A9A4205D90123A2
:104930007B610A4B01221A6001E000237B617B69E5
:1049400018461837BD4680BD800200206402002052
:10495000740100201C020020700100207002002061
:1049600080B485B000AF78607B68002B09D14FF030
:10497000500383F31188BFF36F8FBFF34F8FFB603A
:10498000FEE7064B1A687B681A60054B1A687B685D
:104990005A601437BD465DF8047B704774020020EE
:1049A0006002002080B586B000AF786039607B6817
:1049B000002B09D14FF0500383F31188BFF36F8FA1
:1049C000BFF34F8FFB60FEE73B68002B09D14FF030
:1049D000500383F31188BFF36F8FBFF34F8FBB601A
:1049E000FEE701F019FE1C4B1B683B613B681B682E
:1049F000B3F1FF3F02D100237B6126E07B681A6898
:104A0000164B1B689A4207D07B685A683B699A42EA
:104A100002D801237B6118E07B685B683A69D21A8F
:104A20003B681B689A420ED23B681A687B685968DB
:104A30003B69CB1A1A443B681A607868FFF790FF0D
:104A400000237B6101E001237B6101F013FE7B69A0
:104A500018461837BD4680BD600200207402002051
:104A600080B400AF034B01221A60BD465DF8047BA1
:104A7000704700BF7002002080B485B000AF78603E
:104A80007B68002B05D07B68BB60BB685B6CFB6000
:104A900001E00023FB60FB6818461437BD465DF853
:104AA000047B704780B582B000AF786000F0A2F858
:104AB000064B1B68012B07D9054B4FF080521A603B
:104AC000BFF34F8FBFF36F8FF0E700BF740100207B
:104AD00004ED00E080B586B000AFF860B9607A60A0
:104AE0003B6000237B6113E0BA687B69134419784B
:104AF000FA687B69134430330A461A71BA687B69D5
:104B000013441B78002B00D105E07B6901337B61E6
:104B10007B69092BE8D9FB68002283F83D207B687C
:104B2000052B01D905237B60FB687A68DA62FB6894
:104B30007A689A64FB680022DA64FB6804331846DA
:104B400000F0C4FDFB681833184600F0BFFDFB6899
:104B5000FA681A617B68C3F10602FB689A61FB6818
:104B6000FA685A62FB6800221A65FB68002283F823
:104B700054201837BD4680BD80B582B000AF0023F9
:104B80007B600CE07A6813469B0013449B00114A3B
:104B90001344184600F07AFD7B6801337B607B6824
:104BA000052BEFD90C4800F071FD0C4800F06EFDAC
:104BB0000B4800F06BFD0B4800F068FD0A4800F060
:104BC00065FD0A4B044A1A60094B044A1A6008370B
:104BD000BD4680BD74010020EC01002000020020D1
:104BE0001C02002030020020480200201402002095
:104BF0001802002080B582B000AF28E0FFF780FBEC
:104C0000164B1B68002B0CBF01230023DBB27B601B
:104C1000FFF784FB7B68002B19D101F0FDFC0F4BE3
:104C2000DB68DB683B603B680433184600F0B6FD88
:104C30000B4B1B68013B0A4A13600A4B1B68013B84
:104C4000084A136001F016FD386800F07BF8054B48
:104C50001B68002BD2D10837BD4680BD3002002032
:104C60005C0200204402002080B582B000AF786072
:104C7000134B1B687A685A60124B1B687A689A4219
:104C800009D2114B1A680E4B1B68043310461946A3
:104C900000F04CFD10E00D4B1A68094B1B68043303
:104CA0001046194600F042FD094B1B687A689A428B
:104CB00002D2074A7B6813600837BD4680BD00BF3B
:104CC0007001002060020020180200201402002061
:104CD0007C02002080B584B000AF03463960FB80C1
:104CE0003B68002B06D1FB889B00184603F01EFC96
:104CF000034600E03B68BB60BB68002B0ED0582029
:104D000003F014FCF860FB68002B03D0FB68BA6862
:104D10001A6305E0B86803F059FC01E00023FB606A
:104D2000FB68002B08D0FB681A6BFB889B001046C1
:104D3000A5211A4604F0D8FAFB6818461037BD467C
:104D400080BD00BF80B582B000AF78607B681B6B10
:104D5000184603F03BFC786803F038FC0837BD4682
:104D600080BD00BF80B483B000AF0E4B1B681B68D2
:104D7000002B01D1012300E00023002B04D00A4BBB
:104D80004FF0FF321A6008E0064B1B68DB68DB68F7
:104D90007B607B685B68044A13600C37BD465DF836
:104DA000047B7047140200207C02002080B483B092
:104DB00000AF054B1B687B607B6818460C37BD460F
:104DC0005DF8047B704700BF7001002080B483B0A1
:104DD00000AF0B4B1B68002B02D101237B6008E066
:104DE000084B1B68002B02D102237B6001E00023EB
:104DF0007B607B6818460C37BD465DF8047B7047C6
:104E0000680200208002002090B585B000AF786075
:104E10007B68FB607B68002B00F08E80FB68DA6AA1
:104E2000474B1B68DB6A9A4280F08680FB689B696F
:104E3000002B06DB424B1B68DB6AC3F10602FB68F2
:104E40009A61FB685969FB68DA6A13469B00134450
:104E50009B003C4A1344994201D1012300E0002306
:104E6000002B43D0FB680433184600F097FC034640
:104E7000002B15D1FB68DA6A324913469B001344B4
:104E80009B000B441B68002B0AD1FB68DB6A1A46A7
:104E900001239340DA432C4B1B6813402A4A1360CA
:104EA000274B1B68DA6AFB68DA62F86802F014FCC8
:104EB00003461846FBF7BCF9FB68DB6A1A46012378
:104EC00003FA02F2204B1B6813431F4A1360FB686E
:104ED000DA6A13469B0013449B001A4A1A44FB6883
:104EE00004331046194600F0FDFB04E0144B1B6828
:104EF000DA6AFB68DA62F86802F0EEFB03461C46E9
:104F0000F86802F0E9FB034603201946FBF732FE7E
:104F100003468E2003212246FBF734FBF86802F09B
:104F2000DBFB03461A46064B1B68DB6ADBB2032039
:104F300011461A46FBF7E2FD1437BD4690BD00BF8F
:104F400070010020740100206402002090B587B039
:104F500000AF78607B683B6100237B617B68002B3E
:104F600000F096804D4B1B683A699A4209D04FF089
:104F7000500383F31188BFF36F8FBFF34F8FFB6034
:104F8000FEE73B69DB6C002B09D14FF0500383F344
:104F90001188BFF36F8FBFF34F8FBB60FEE73B6994
:104FA000DB6C5A1E3B69DA643B69DA6A3B699B6CCD
:104FB0009A426DD03B69DB6C002B69D13B690433AD
:104FC000184600F0EBFB0346002B15D13B69DA6A6B
:104FD000334913469B0013449B000B441B68002B72
:104FE0000AD13B69DB6A1A4601239340DA432D4B11
:104FF0001B6813402B4A1360386902F06DFB0346AF
:105000001C46386902F068FB034603201946FBF78B
:10501000B1FD03468F2003212246FBF7B3FA38691E
:1050200002F05AFB03461A463B699B6CDBB2032035
:1050300011461A46FBF762FD3B699A6C3B69DA62DE
:105040003B69DB6AC3F106023B699A61386902F089
:1050500043FB03461846FBF7EBF83B69DB6A1A464D
:10506000012303FA02F20F4B1B6813430D4A13602E
:105070003B69DA6A13469B0013449B00084A1A44B2
:105080003B6904331046194600F02CFB01237B6179
:105090007B6918461C37BD4690BD00BF70010020DB
:1050A000740100206402002080B400AF074B1B682D
:1050B000002B04D0054B1B68DA6C0132DA64034B19
:1050C0001B681846BD465DF8047B704770010020E0
:1050D00080B487B000AF7860396000237B61002323
:1050E0003B610023FB6000237B6176E07B6901224A
:1050F00002FA03F33B613B681A683B691340FB60AB
:10510000FA683B699A4265D17B681A687B695B00E3
:10511000194603238B40DB431A407B681A607B6887
:105120001A683B681B7919467B695B0001FA03F337
:105130001A437B681A603B681B79012B03D03B68DC
:105140001B79022B2ED17B689A687B695B0019461C
:1051500003238B40DB431A407B689A607B689A6824
:105160003B685B7919467B695B0001FA03F31A43DC
:105170007B689A607B685A687B699BB219460123F9
:105180008B40DB431A407B685A607B685B683A68F7
:10519000927911467A6992B201FA02F292B21A43F6
:1051A0007B685A607B68DA687B699BB25B0003218D
:1051B00001FA03F3DB431A407B68DA607B68DA6844
:1051C0003B68DB7919467B695B0001FA03F31A43FC
:1051D0007B68DA607B6901337B617B690F2B85D942
:1051E0001C37BD465DF8047B704700BF80B483B0B8
:1051F00000AF78600B467B807B687A881A830C3717
:10520000BD465DF8047B704780B483B000AF786022
:105210000B467B807B687A885A830C37BD465DF8E5
:10522000047B704780B483B000AF78600B467B800E
:1052300013467B707B78002B03D07B687A881A83B7
:1052400002E07B687A885A830C37BD465DF8047BA0
:10525000704700BF80B485B000AF78600B467B809C
:1052600013467B700023FB600023BB607B787A8849
:1052700002F0070292009340FB607B88DB089BB240
:1052800018467B88DB089BB21A467B68083253F8C5
:1052900022207B8803F007039B0019460F238B40D5
:1052A000DB4302EA03017B6800F1080243F82210A5
:1052B0007B88DB089BB21A467B68083253F82220B1
:1052C000FB681343BB607B88DB089BB21A467B6894
:1052D0000832B96843F822101437BD465DF8047BE4
:1052E000704700BF80B592B000AF00F035F80120E4
:1052F0000121FDF74BFE02233B6007237B60042363
:10530000BB600723FB6002233B6102237B61022316
:10531000BB610123FB6100233B6204237B621023FA
:10532000BB624023FB624FF4C0733B6300237B638B
:105330004FF40063BB630023FB634FF400533B64F3
:105340003B467B6407F11C03184600F04BFF00F05E
:105350000DF94837BD4680BD80B582B000AF7E20D4
:105360000121FDF7F5FD02233B7102237B71002330
:10537000BB710023FB71774805210C22FFF76AFF00
:10538000744806210C22FFF765FF60233B603B4613
:1053900070481946FFF79CFE6F4800210C22FFF76A
:1053A00059FF01233B603B466B481946FFF790FECF
:1053B0006A4800210C22FFF74DFF684801210C22AA
:1053C000FFF748FF654808210C22FFF743FF6348B9
:1053D00009210C22FFF73EFF60480A210C22FFF74B
:1053E00039FF5E480E210C22FFF734FF5B480F2186
:1053F0000C22FFF72FFF4CF203733B603B465748EC
:105400001946FFF765FE564800210C22FFF722FFE0
:10541000534801210C22FFF71DFF514807210C22A0
:10542000FFF718FF4E4808210C22FFF713FF4C48E6
:1054300009210C22FFF70EFF49480A210C22FFF731
:1054400009FF47480B210C22FFF704FF44480C21B9
:105450000C22FFF7FFFE42480D210C22FFF7FAFE57
:105460003F480E210C22FFF7F5FE3D480F210C228C
:10547000FFF7F0FE4FF683733B603B463848194612
:10548000FFF726FE374800210C22FFF7E3FE3548E0
:1054900001210C22FFF7DEFE324802210C22FFF729
:1054A000D9FE304803210C22FFF7D4FE2D480421F9
:1054B0000C22FFF7CFFE2B4805210C22FFF7CAFE76
:1054C00028480B210C22FFF7C5FE26480C210C2290
:1054D000FFF7C0FE23480D210C22FFF7BBFE214839
:1054E0000E210C22FFF7B6FE1E480F210C22FFF7FB
:1054F000B1FE4FF63F033B603B461A481946FFF7A3
:10550000E7FD194800210C22FFF7A4FE16480121EF
:105510000C22FFF79FFE144804210C22FFF79AFE8D
:10552000114805210C22FFF795FE0F4808210C2297
:10553000FFF790FE0C480F210C22FFF78BFE48F27C
:1055400033133B603B4608481946FFF7C1FD083757
:10555000BD4680BD0004024000080240000C02402D
:1055600000100240001402400018024080B586B0CE
:1055700000AF00237B6101237B600823BB60012314
:10558000FB6000233B6100BF0120202100F00AFFE7
:105590000346002BF8D13B1D184600F0D1FE0A202F
:1055A00000F05AF802237B600823BB600123FB60F4
:1055B00000233B6100BF0120202100F0F3FE0346E1
:1055C000002BF8D13B1D184600F0BAFE03237B6088
:1055D0000823BB600423FB6000233B6100BF012064
:1055E000202100F0DFFE0346002BF8D13B1D1846BA
:1055F00000F0A6FE00BF0120202100F0D3FE0346EC
:10560000002BF8D13B1D184600F09AFE40F23123E2
:105610007B6104237B600823BB600123FB607B6903
:105620003B6100BF0120202100F0BCFE0346002B9F
:10563000F8D13B1D184600F083FE40F26A5000F09E
:105640009FFE00BF0120202100F0ACFE0346002B8E
:10565000F8D11837BD4680BD80B485B000AF786002
:105660000023FB607B68084A02FB03F3FB6002E057
:10567000FB68013BFB60FB68002BF9D11437BD468A
:105680005DF8047B704700BFA086010080B483B042
:1056900000AF78607B6803F108027B685A607B6822
:1056A0004FF0FF329A607B6803F108027B68DA6092
:1056B0007B6803F108027B681A617B6800221A602C
:1056C0000C37BD465DF8047B704700BF80B483B0E3
:1056D00000AF78607B6800221A610C37BD465DF828
:1056E000047B704780B485B000AF786039607B6818
:1056F0005B68FB603B68FA685A60FB689A683B68C5
:105700009A60FB689B683A685A60FB683A689A60DE
:105710003B687A681A617B681B685A1C7B681A6050
:105720001437BD465DF8047B704700BF80B485B078
:1057300000AF786039603B681B68BB60BB68B3F141
:10574000FF3F03D17B681B69FB600CE07B6808337B
:10575000FB6002E0FB685B68FB60FB685B681A68E3
:10576000BB689A42F6D9FB685A683B685A603B6846
:105770005B683A689A603B68FA689A60FB683A68C6
:105780005A603B687A681A617B681B685A1C7B68A0
:105790001A601437BD465DF8047B704780B485B04D
:1057A00000AF78607B681B69FB607B685B687A6828
:1057B00092689A607B689B687A6852685A60FB6856
:1057C0005A687B689A4203D17B689A68FB685A6082
:1057D0007B6800221A61FB681B685A1EFB681A600E
:1057E000FB681B6818461437BD465DF8047B70479C
:1057F00080B500AF154A154BD3F8883043F47003D9
:10580000C2F88830124A124B1B6843F00103136040
:105810000F4B00229A600E4A0D4B1B6823F08473D5
:1058200023F4803313600A4B0A4A5A60084A084B33
:105830001B6823F480231360054B0022DA6000F01C
:105840000BF8024B4FF000629A6080BD00ED00E063
:10585000003802401030002480B483B000AF002331
:105860007B6000233B60424A414B1B6843F480331A
:1058700013603F4B1B6803F400333B607B680133CC
:105880007B603B68002B03D17B68B3F5A04FF0D160
:10589000374B1B6803F40033002B02D001233B601D
:1058A00001E000233B603B68012B02D1304B314AC1
:1058B0005A602F4A2E4B1B6C43F0805313642E4AC0
:1058C0002D4B1B6843F440431360294A284B9B68C7
:1058D0009360274A264B9B6843F400439360244A15
:1058E000234B9B6843F4A0539360214A204B1B68D1
:1058F00043F08073136000BF1D4B1B6803F00073FF
:10590000002BF9D01C4A1C4B1B6843F480331360F6
:1059100000BF194B5B6803F48033002BF9D0164AA3
:10592000154B1B6843F40033136000BF124B5B68D8
:1059300003F40033002BF9D0104B40F205721A60CB
:105940000B4A0B4B9B6823F003039360084A084BF8
:105950009B6843F00203936000BF054B9B6803F014
:105960000C03082BF9D10C37BD465DF8047B70475A
:1059700000380240085A400700700040003C0240D6
:1059800080B58AB000AF78604C4B1B683B624C4AD4
:1059900007F118031188927819809A70002387F80C
:1059A00026300123FB750123BB7500F003FA0023A9
:1059B0003B750020002100F08FF8424B1A6807F178
:1059C0001403104619464FF0FF32002301F016FB76
:1059D0003B7D1A4607F1080318463B49FEF76EF96E
:1059E00007F108034820194603F08EF8012000F063
:1059F000A7FA364B1A6807F11603104619464FF0FE
:105A0000FF32012301F0A0F83A7D3B7D07F1280128
:105A10000B4413F8103C1046194600F05DF83B7D2E
:105A200007F128021A4412F8102C013AD2B207F1F9
:105A300028010B4403F8102C254B1A6807F11503B5
:105A4000104619464FF0FF32012301F0D7FA00202B
:105A500000F076FA3B7E1A467B7E1344BA7E1344EE
:105A6000002B2AD1002387F827300CE097F8273045
:105A700007F128021344032203F8102C97F827306B
:105A8000013387F8273097F82730022BEED9104BD7
:105A90001A6807F11503104619464FF0FF3200232C
:105AA00001F0ACFA0B4B1A6807F1170310461946C0
:105AB0004FF0FF32012301F047F878E7F82E01207C
:105AC00074A30008E82E012068A30008042F012019
:105AD000EC2E0120002F012080B594B000AF0346CA
