:020000040800F2
:1000000000000320B9550008FD550008FD55000803
:10001000FD550008FD550008FD55000800000000D2
:10002000000000000000000000000000BD400008CB
:10003000FD55000800000000C542000829430008E3
:10004000FD550008FD550008FD550008FD55000848
:10005000FD550008FD550008FD550008FD55000838
:10006000FD550008FD550008FD550008FD55000828
:10007000FD550008FD550008FD550008FD55000818
:10008000FD550008FD550008FD550008FD55000808
:10009000FD550008FD550008FD550008FD550008F8
:1000A000FD550008FD550008FD550008FD550008E8
:1000B000FD550008FD550008FD550008FD550008D8
:1000C000FD550008FD550008FD550008FD550008C8
:1000D000FD550008FD550008FD550008FD550008B8
:1000E000FD550008FD550008FD550008FD550008A8
:1000F000FD550008FD550008FD550008FD55000898
:10010000FD550008FD550008FD550008FD55000887
:10011000FD550008FD550008FD550008FD55000877
:10012000FD550008FD550008FD550008FD55000867
:10013000FD550008FD550008FD550008FD55000857
:10014000FD550008FD550008FD550008FD55000847
:10015000FD550008FD550008FD550008FD55000837
:10016000FD550008FD550008FD550008FD55000827
:10017000FD550008FD550008FD550008FD55000817
:10018000FD550008FD550008FD550008FD55000807
:10019000FD550008FD550008FD550008FD550008F7
:1001A000FD550008FD550008FD55000890B484B0C9
:1001B00000AF03460A46FB711346BB710023FB6088
:1001C000BB7903F003039B000F2202FA03F3FB60E9
:1001D0001649BB799B08DBB21846144ABB799B08C9
:1001E000DBB2023352F82320FB68DB431A40831C46
:1001F00041F823200D48BB799B08DBB21C460B4A13
:10020000BB799B08DBB2023352F82320F979BB7922
:1002100003F003039B0001FA03F31A43A31C40F805
:10022000232000BF1037BD4690BC70470038014006
:1002300080B588B000AF0346FB71FB79002B5AD024
:10024000304B1B68002B58D0FB790F2B03D92E485D
:1002500001F0ECFC52E02D4B1B68002B03D02C4826
:1002600001F0E4FC4AE0EFF310837B617B69BB6142
:100270000123BB60BB6883F31088244B1B680133E8
:10028000224A1360234B1B681B6B002B28D0FB7981
:100290002133DB10204AD35C1A46FB79213303F06B
:1002A000070342FA03F303F00103002B18D14FF6C2
:1002B000FF7001F011FD03467B82FB797B7401F036
:1002C00001FAF860FB68002B0AD0FB6802221A7062
:1002D000FB687A8A5A80FB687A7C5A7001F0DEFCEF
:1002E0000A4B1B68013B094A1360BB69FB61FB6950
:1002F00083F3108802E000BF00E000BF2037BD4656
:1003000080BD00BF0000002018620008EC00002043
:1003100058620008E80000204C00002080B58EB034
:1003200000AFF860B9607A60414B1B68002B7AD04F
:100330007B68002B03DA7B685B427B6301E07B68B0
:100340007B63EFF31083BB62BB6AFB6201237B61BB
:100350007B6983F31088374B1B680133354A136080
:10036000354B1A687B681344334A1360304B1B6863
:100370001B6B002B4CD0314B1B78002B03D1304B27
:100380001B78002B44D1FF2001F0A6FC034687F820
:100390002730796B4FF6FF7000F09CF90346BB8461
:1003A00001F090F938623B6A002B31D03B6A97F834
:1003B00027205A703B6A00221A703B6ABA8C5A8016
:1003C00001F06CFCB9684FF6FF7000F083F903464A
:1003D000FB8300237B7701F075F9B861BB69002BC3
:1003E00016D0BB69FA8B5A80BB697A7F5A70FB685A
:1003F000DBB20133DAB2BB691A70FB68DAB23B6A6E
:100400001A7001F04BFC0A4B1B680B4A12681A6504
:10041000084B1B68013B074A1360FB6A3B633B6B5D
:1004200083F3108800E000BF3837BD4680BD00BFB1
:10043000E8000020EC0000204800002044000020DC
:100440004600002080B58AB000AFF8600B467A60A5
:10045000FB72FB68FE2B03D9404801F0E7FB7AE012
:10046000FB7A062B03D93E4801F0E0FB73E03D4BDD
:100470001A68FB7A134493F864301A467B689A42F0
:1004800003D2394801F0D2FB65E0384B1B68002BE2
:1004900003D0374801F0CAFB5DE0364B1B78002BD8
:1004A00058D0EFF31083FB61FB693B6201233B6192
:1004B0003B6983F310882D4B1B6801332B4A136073
:1004C000284B1B681B6B002B39D02B4B1B78002B48
:1004D00003D12A4B1B78002B31D17B68DAB2FB7A2F
:1004E0001146184604F0B0FF0346002B27D1FB68E5
:1004F000DB08234AD35C1A46FB6803F0070342FA81
:1005000003F303F00103002B19D14FF6FF7001F044
:10051000E3FB03467B837B687B7601F0D3F878614D
:100520007B69002B0BD07B697A8B5A80FB68DAB22F
:100530007B691A707B697A7E5A7001F0AFFB0B4BB6
:100540001B68013B094A13603B6A7B627B6A83F349
:10055000108800E000BF2837BD4680BDC862000893
:10056000FC620008E800002040630008EC00002066
:10057000846300084500002044000020460000205D
:100580005400002080B58AB000AFF8607A603B600C
:100590000B46FB72FB68FE2B03D9444801F046FB77
:1005A00080E0FB7A062B03D9414801F03FFB79E05C
:1005B000404B1A68FB7A134493F864301A467B6800
:1005C0009A4203D23C4801F031FB6BE03B4B1B6885
:1005D000002B03D03A4801F029FB63E0EFF31083CE
:1005E000FB61FB693B6201233B613B6983F310883C
:1005F000324B1B680133314A13602E4B1B681B6B57
:10060000002B45D02F4B1B78002B41D02E4B1B7855
:10061000002B03D02D4B1B78002B39D07B68DAB22E
:10062000FB7A1146184604F00FFF0346002B2FD12A
:10063000FB68DB08264AD35C1A46FB6803F0070315
:1006400042FA03F303F00103002B21D1FF2001F054
:1006500043FB0346FB763968FF2000F03BF8034676
:10066000BB767B687B7601F02DF878617B69002B87
:100670000ED07B69FA7EDA70FB68DAB27B691A7099
:100680007B697A7E5A707B69BA7E9A7001F006FBAC
:100690000A4B1B68013B094A13603B6A7B627B6A19
:1006A00083F310882837BD4680BD00BFBC630008B7
:1006B000F4630008E800002040640008EC0000201B
:1006C00090640008450000204600002044000020FF
:1006D0005400002080B584B000AF786039607B683A
:1006E000FF2B09D07B684FF6FF72934204D0164867
:1006F00001F09CFA3B6823E03A687B689A4201D893
:100700003B681DE000F0DEFFF860FB68002B14D0B2
:10071000FB6801221A707B68DA433B6813401B0AAE
:10072000DAB2FB685A707B68DA433B6813401B0CF3
:100730009AB2FB685A8001F0B1FA3A687B681340BC
:1007400018461037BD4680BDC864000880B58AB021
:1007500000AF786039600023FB847B68FE2B03D9EF
:10076000324801F063FA5DE0314B1B68002B03D087
:10077000304801F05BFA55E0EFF31083BB61BB69D1
:10078000FB610123FB60FB6883F31088284B1B6827
:100790000133274A1360284B1B681B6B002B37D093
:1007A000264B1B78002B33D0254B1B78002B03D016
:1007B000244B1B78002B2BD07B68DB08224AD35CB0
:1007C0001A467B6803F0070342FA03F303F00103C0
:1007D000002B1DD1FF2001F07FFA0346FB7539681D
:1007E0004FF6FF70FFF776FF0346FB8400F06AFFC9
:1007F00038613B69002B0BD03B69FA7D5A707B68EE
:10080000DAB23B691A703B69FA8C5A8001F046FAF9
:10081000074B1B68013B064A1360FB693B623B6A5E
:1008200083F310882837BD4680BD00BF04650008EB
:10083000EC00002058650008E8000020450000207A
:1008400046000020440000205400002080B58AB0FB
:1008500000AF0346FB71002387F82730FB790F2B8D
:1008600003D93F4801F0E2F977E0FB792133DB104F
:100870003C4AD35C1A46FB79213303F0070342FA62
:1008800003F303F00103002B06D0012387F8273080
:10089000354B01221A7002E0334B00221A70EFF33D
:1008A0001083BB61BB69FB610123FB60FB6883F3C1
:1008B00010882E4B1B6801332C4A13602C4B1B787D
:1008C000FA799A4202D1012387F82730294B1B6815
:1008D0001B6B002B02D1012387F8273097F92730B3
:1008E000002B30D14FF6FF7001F0F6F90346FB8282
:1008F0001F4AFB7913701E4B1B787B7500F0E2FEDC
:1009000038613B69002B1ED0194B1B781946032018
:1009100000F0A2F90346012B03D13B6907221A70AC
:1009200002E03B6906221A703B69FA8A5A803B69E9
:100930007A7D5A700E4B1B7801221946032000F075
:100940004FF901F0ABF9094B1B68013B074A1360F3
:10095000FB693B623B6A83F310882837BD4680BD44
:10096000906500084C00002046000020EC000020AC
:1009700045000020E800002090B587B000AF034696
:100980000A46FB711346BB71BB79062B03D920487D
:1009900001F04CF939E01F4B1A68BB79134493F806
:1009A0006430FA799A4203D91B4801F03FF92CE0F0
:1009B000184B1B681B6B002B27D0FB79FB75154B65
:1009C0001C68BA79FB791146184600F09FFE034671
:1009D0008833234404333B610021386901F0D6F8A1
:1009E0000346FB8100F06EFEB860BB68002B0CD0A4
:1009F000BB790833DAB2BB681A70BB68FA7D5A70EB
:100A0000BB68FA895A8001F049F91C37BD4690BD90
:100A1000D4650008E80000202466000890B585B081
:100A200000AF03460A46FB711346BB71BB79062B28
:100A300003D92B4801F0FAF84FE02A4B1A68BB792A
:100A4000134493F86430FA799A4203D9264801F0A6
:100A5000EDF842E0234B1B681B6B002B3DD000F0F0
:100A600031FEF860FB68002B37D0BB79032B17D120
:100A70001C4B1C68BA79FB791146184600F046FEFB
:100A800003461946174B1A68BB79134493F86C3028
:100A90000B440133234493F88C20FB685A7015E013
:100AA000104B1C68BA79FB791146184600F02EFEEF
:100AB000034619460B4B1A68BB79134493F86C3004
:100AC0000B44234493F88C20FB685A70BB79103395
:100AD000DAB2FB681A7001F0E1F81437BD4690BD38
:100AE00070660008E8000020C866000890B583B072
:100AF00000AF0346FB710B46BB7113467B71FB795C
:100B0000062B03D9144801F091F822E0134B1A6820
:100B1000FB79134493F86430BA799A4203D91048A8
:100B200001F084F815E00D4B1C68FA79BB79114689
:100B3000184600F0EBFD03461946084B1A68FB798E
:100B4000134493F86C300B44013323447A7983F8CF
:100B50008C200C37BD4690BD18670008E8000020C7
:100B60006067000890B583B000AF03460A46FB718A
:100B70001346BB71FB79062B04D9164801F056F8D1
:100B8000002322E0144B1A68FB79134493F8643075
:100B9000BA799A4204D9114801F048F8002314E0C8
:100BA0000D4B1C68FA79BB791146184600F0AEFD72
:100BB00003461946084B1A68FB79134493F86C30C6
:100BC0000B440133234493F88C3018460C37BD4650
:100BD00090BD00BFA0670008E8000020FC67000887
:100BE00090B583B000AF0346FB710B46BB71134653
:100BF0007B71FB79062B03D9144801F017F821E02B
:100C0000134B1A68FB79134493F86430BA799A420B
:100C100003D9104801F00AF814E00D4B1C68FA796A
:100C2000BB791146184600F071FD03461946084B82
:100C30001A68FB79134493F86C300B4423447A7997
:100C400083F88C200C37BD4690BD00BF7868000843
:100C5000E8000020BC68000890B583B000AF0346F0
:100C60000A46FB711346BB71FB79062B04D9154864
:100C700000F0DCFF002321E0134B1A68FB791344DA
:100C800093F86430BA799A4204D9104800F0CEFF44
:100C9000002313E00C4B1C68FA79BB791146184607
:100CA00000F034FD03461946074B1A68FB791344DC
:100CB00093F86C300B44234493F88C3018460C376F
:100CC000BD4690BDF8680008E80000203C690008B7
:100CD00090B583B000AF0346FB71104B1B6893F8CF
:100CE0006730FA799A4203D90D4800F09FFF11E06E
:100CF0000A4B1C68FB790321184600F007FD0346E8
:100D00001A46064B1B6893F86F30134423440022A5
:100D100083F88C200C37BD4690BD00BFE800002052
:100D20007869000880B500AF00F0F2F800F036F9FD
:100D300000F010F80346002B01D0042308E000F077
:100D400023F80121012000F049F800F06FF800239A
:100D5000184680BD80B500AF00F026F803461A465D
:100D600040F611039A4209D0064B1B68002B03D1B1
:100D700000F0DCFA034602E0012300E000231846FD
:100D800080BD00BF0400002080B500AF0221032019
:100D900000F02EF9022000F0FFFA0021032000F0FD
:100DA00027F90023184680BD80B582B000AF00232C
:100DB000FB80002000F0CCF90346FB80FB881B027F
:100DC000FB80012000F0C4F903469AB2FB8813436C
:100DD000FB80FB8818460837BD4680BD80B584B0CF
:100DE00000AF03460A46FB711346BB710023FB7339
:100DF000042000F0ADF90346FB73BB79002B07D04C
:100E0000FB79DB43DAB2FB7B1340DBB2FB7303E01D
:100E1000FA7BFB791343FB73FB7B1946042000F03C
:100E2000E7F8002318461037BD4680BD80B500AFF7
:100E300001210220FFF7D2FF4921202000F0D8F83D
:100E4000022000F0A9FA0121212000F0D1F80021B0
:100E50001E2000F035F89A21412000F0C9F8012148
:100E60004A2000F0C5F801214B2000F0C1F8002114
:100E70004B2000F0BDF80121562000F0B9F8012107
:100E8000582000F0B5F80321402000F0B1F8FF2110
:100E90000B2000F0ADF8094B0022DA80074BDA880E
:100EA000064B9A80054B9A88044B5A80034B5A880C
:100EB000024B1A800023184680BD00BF7430012009
:100EC00080B584B000AF03460A46FB711346BB7180
:100ED0000023FB73172000F03BF90346FB73BB793B
:100EE000002B04D0FA7BFB791343FB7306E0FB79FC
:100EF000DB43DAB2FB7B1340DBB2FB73FB7B1946AF
:100F0000172000F075F8002318461037BD4680BD45
:100F100080B582B000AF01214FF4000001F0DCF990
:100F2000012140F2051001F0B7F901214FF4804092
:100F300001F0F2F901214FF4000001F00DFA002157
:100F40004FF4000001F008FA04220821114802F0D1
:100F500007FE04220921104802F002FE4FF48073BC
:100F60003B6002233B7102237B710123BB71002391
:100F7000FB713B461946074802F064FD4FF40073CD
:100F80003B603B461946044802F05CFD00BF083751
:100F9000BD4680BD000002400008024080B584B01C
:100FA00000AF114B1B889BB203F00103002B17D13C
:100FB0000023BB804BF6FF73FB8000233B814FF483
:100FC00080637B814FF48043BB81084B3B603B4691
:100FD0001946054804F04EFB0121034804F00CFCBF
:100FE00000BF1037BD4680BD005C0040A0860100F8
:100FF00080B584B000AF03460A46FB711346BB714F
:101000000023FB6001214C4804F016FC4B4B4FF4CD
:1010100040521A600AE0494B1B685A1E47490A6051
:10102000002B03D100F082F9034680E04449424896
:1010300004F0C0FC0346002BEDD0002282213E4884
:1010400004F03AFC3D4B4FF440521A600AE03B4B2F
:101050001B685A1E39490A60002B03D100F066F95B
:10106000034664E03749344804F0A4FC0346002BEF
:10107000EDD0314B1B8B314B4FF440521A600AE0DC
:101080002E4B1B685A1E2D490A60002B03D100F01D
:101090004DF903464BE02C49274804F08BFC0346EE
:1010A000002BEDD0FB791946234804F065FC234B57
:1010B0004FF440521A600AE0204B1B685A1E1F4929
:1010C0000A60002B03D100F031F903462FE01E49DE
:1010D000194804F06FFC0346002BEDD0BB7919468C
:1010E000154804F049FC154B4FF440521A600AE0D1
:1010F000124B1B685A1E11490A60002B03D100F0E5
:1011000015F9034613E010490B4804F053FC03465D
:10111000002BEDD00D49084804F04CFC0346002B91
:10112000E6D00121044804F0A7FBFB68DBB21846B7
:101130001037BD4680BD00BF005C004004000020A9
:1011400001000010020000108000001004000010D8
:1011500080B584B000AF0346FB710023FB7301210F
:101160006B4804F069FB6B4B4FF440521A600AE085
:10117000684B1B685A1E67490A60002B03D100F0B8
:10118000D5F80346C0E06449614804F013FC034607
:10119000002BEDD000215E4804F0ACFB0022822140
:1011A0005B4804F089FB5B4B4FF440521A600AE045
:1011B000584B1B685A1E57490A60002B03D100F098
:1011C000B5F80346A0E05549514804F0F3FB034647
:1011D000002BEDD04E4B1B8B4E4B4FF440521A6000
:1011E0000AE04C4B1B685A1E4A490A60002B03D187
:1011F00000F09CF8034687E04949454804F0DAFBD3
:101200000346002BEDD0FB791946414804F0B4FBAE
:10121000404B4FF440521A600AE03E4B1B685A1E86
:101220003C490A60002B03D100F080F803466BE0D4
:101230003B49374804F0BEFB0346002BEDD039494B
:10124000334804F0B7FB0346002BE6D001213048B9
:1012500004F0F2FA2F4B4FF440521A600AE02D4B83
:101260001B685A1E2B490A60002B03D100F05EF860
:10127000034649E02849264804F09CFB0346002B1E
:10128000EDD001228221224804F016FB214B4FF4BD
:1012900040521A600AE01F4B1B685A1E1D490A6023
:1012A000002B03D100F042F803462DE01B491848FB
:1012B00004F080FB0346002BEDD0154B1B8B154B28
:1012C0004FF440521A600AE0124B1B685A1E114933
:1012D0000A60002B03D100F029F8034614E01249FC
:1012E0000B4804F067FB0346002BEDD001210848B2
:1012F00004F0C2FA064804F04FFB0346FB730121D9
:10130000034804F0F7FAFB7B18461037BD4680BD52
:10131000005C0040040000200100001002000010EA
:1013200080000010040000104000001080B584B060
:1013300000AF0121164804F09FFA0121144804F07F
:10134000F9FA0021124804F0F5FAFFF7E1FD104820
:1013500004F056F90023BB804BF6FF73FB8000239B
:101360003B814FF480637B814FF48043BB81094B09
:101370003B600121064804F03FFA3B461946044809
:1013800004F078F9002318461037BD4680BD00BF31
:10139000005C0040A086010080B485B000AF78609A
:1013A0000023FB607B68084A02FB03F3FB6002E05A
:1013B000FB68013BFB60FB68002BF9D100BF1437D1
:1013C000BD465DF8047B7047A086010080B584B0FF
:1013D00004AF002004F00AFD012004F007FD002105
:1013E000002004F061FDFFF79DFC02F085FD02F096
:1013F00089FD134802F0FAFD03461A46114B1A8084
:101400000023039300230293002301930A230093F4
:10141000002380220C490D4801F0DCFA00230393DD
:1014200000230293002301930A23009300238022C8
:101430000549074801F0CEFA01F0D2FBFEE700BFF4
:10144000C06900087C300120C46900081D5A0008EA
:10145000BD29000880B500AF7D4B1A687D4B1B6825
:1014600013447D4A13607D4B7D4A1A607B4B1B6899
:10147000002B03D17B4800F0D9FBE8E0774B1B68D9
:10148000002B03D1784800F0D1FBE0E0734B1B68E0
:1014900044F2C0620021184604F0ECFD6F4B1B685B
:1014A00000221A706D4B1B6801225A706B4B1B682F
:1014B00002229A70694B1B680322DA70674B1B6823
:1014C00070221A71654B1B6871225A71634B1B683D
:1014D00072229A71614B1B687322DA715F4B1B6831
:1014E000F0221A725D4B1B68F1225A725B4B1B682B
:1014F000F2229A72594B1B68F322DA72574B1B681F
:1015000041F6A1229A81554B1B6804229A73534BD2
:101510001B680022DA73514B1B6844F2C0621A61E7
:101520004E4B1B684FF47A629A614C4B1B684FF02C
:10153000F0325A65494B1B6800229A6503F050FE51
:10154000464B1B684FF0F132C3F82424434B1B6811
:101550004FF44872C3F82824404B1B680122C3F89B
:101560002C243E4B1B6803F5FA634FF07E521A6041
:101570003A4B1B684FF0F232C3F8D827374B1B6841
:1015800003F2DC7350223949184604F011FE334B44
:101590001B684FF0F332C3F82C28304B1B6803F55F
:1015A0008D4334330A221A702C4B1B6803F58D438C
:1015B00035330B221A70294B1B6803F58D433633E4
:1015C0000C221A70254B1B6803F58D4337330D220F
:1015D0001A70224B1B6803F58D43383371221A7041
:1015E0001E4B1B6803F58D43393372221A701B4B57
:1015F0001B6803F58D433A3373221A70174B1B682F
:1016000003F58D433B3374221A70144B1B6803F5AA
:101610008D433C33F1221A70104B1B6803F58D4348
:101620003D33F2221A700D4B1B6803F58D433E3398
:10163000F3221A70094B1B6803F58D433F33F422E4
:101640001A7003F071FE00F013F804F065FA80BD23
:10165000041000E06004002040770120E800002032
:1016600080300120D8690008186A0008406A000824
:1016700080B582B000AF114B1B683B603B681B78A4
:10168000002B13D100237B600CE03A687B68134485
:1016900039687A680A4412780132D2B21A707B68CB
:1016A00001337B607B680B2BEFD902E0044800F02C
:1016B000BDFA00BF0837BD4680BD00BFE80000206E
:1016C000546A000880B500AF0E4B1B681B6B002BE3
:1016D00001D1002313E00B4B1B68DB69B3F57A6F74
:1016E00004D3094800F0A2FA002308E0054B1A6869
:1016F000044B1B68DB699B0003F503631344184626
:1017000080BD00BFE8000020806A000880B582B07C
:1017100000AF03460A46FB711346BB71BB79062B2B
:1017200004D9224800F082FA00233AE0FB79002B2A
:1017300008D01F4B1A68BB79134493F86430FA79C8
:101740009A4204D91B4800F071FA002329E0BB79C2
:10175000062B22D8FB79002B1FD0154B1A68BB79BA
:10176000134493F86430FA799A4216D8104B1A68E9
:10177000BB793C335B0013449A880D4B1968BB79E5
:101780000B4493F8743099B2FB79013B9BB211FB87
:1017900003F39BB213449BB203E0074800F046FA00
:1017A000002318460837BD4680BD00BFA86A000860
:1017B000E8000020E86A0008286B000880B584B0C3
:1017C00000AF0346FB71FB79062B04D9934800F068
:1017D0002DFA00231EE1FB79914A32F813301A46A4
:1017E000904B1A608F4B1B688D4A134493F8383026
:1017F000002B14D18B4B1A688A4B1B68D9B2FB792A
:10180000874804335B000344DB88DBB2CB1ADBB2CE
:101810000133D9B2824B13440A4683F83820814BF6
:101820001B687F4A134493F83830FB73FB797C4A7A
:1018300032F81320FB797A490C335B000B449B8808
:101840009A420AD9FB79184603F0BEFD03461846B2
:1018500000F0ECF90023FB73DBE0FB79704A32F80F
:101860001320013291B26E4A22F81310FB796C4AB0
:1018700032F813301946FB79694A04335B0013448C
:10188000DB88CB1ABB60FB79654A14335B001344D9
:101890005B881A46BB689A4209DAFB79BA68D2B209
:1018A00091B25F4A14335B0013440A465A80FB79B5
:1018B000062B00F2AE8001A252F823F0D9180008DE
:1018C0000F1900084319000877190008131A0008B7
:1018D000AB190008DF190008FB7BDB08DBB21946F7
:1018E000FB7BDB08DBB21A464F4B9B5CD8B2FB7B21
:1018F00003F00703012202FA03F3DBB2DB43DBB29E
:1019000002461340DBB2DAB2474B5A5480E0FB7B0D
:101910000B33DB10FA7B0B32D21043498A5CD0B216
:10192000FA7B0B3202F00702012101FA02F2D2B275
:10193000D243D2B201460A40D2B2D1B23A4AD154CD
:1019400066E0FB7B1633DB10FA7B1632D210364989
:101950008A5CD0B2FA7B163202F00702012101FA4A
:1019600002F2D2B2D243D2B201460A40D2B2D1B2CE
:101970002D4AD1544CE0FB7B2133DB10FA7B213222
:10198000D21029498A5CD0B2FA7B213202F00702D8
:10199000012101FA02F2D2B2D243D2B201460A4088
:1019A000D2B2D1B2204AD15432E0FB7B3133DB10CA
:1019B000FA7B3132D2101C498A5CD0B2FA7B3132C8
:1019C00002F00702012101FA02F2D2B2D243D2B2EE
:1019D00001460A40D2B2D1B2134AD15418E0FB7B7F
:1019E0003433DB10FA7B3432D2100F498A5CD0B228
:1019F000FA7B343202F00702012101FA02F2D2B27C
:101A0000D243D2B201460A40D2B2D1B2064AD15430
:101A100000BFFB7B18461037BD4680BD686B0008D1
:101A200078000020F40000204C00002080B584B035
:101A300000AF03460A46FB711346BB71FB79062BC8
:101A400003D91E4800F0F2F834E0BB79002B08D02F
:101A50001B4B1A68FB79134493F86430BA799A42A5
:101A600003D9184800F0E2F824E0FB79164A32F86E
:101A700013305A1EFB79144904335B000B44DB8896
:101A80009A4203DA114800F0D1F813E0FB790E4ACC
:101A900032F81320013A91B20B4A22F81310FB7965
:101AA000094A32F81330FB60074AFB6813443833A5
:101AB000BA791A701037BD4680BD00BFAC6B000804
:101AC000E8000020F06B000878000020306C00086F
:101AD00080B582B000AF03463A60FB710B46BB7124
:101AE0003B68002B03D1234800F0A0F83EE0FB79CF
:101AF000062B03D9204800F099F837E0BB79002B7A
:101B000003D11E4800F092F830E01D4B1A68FB79B3
:101B1000134493F86430BA799A4208D9FB7918468D
:101B200003F052FC0346184600F080F81EE0FA79F4
:101B3000BB7911461846FFF7E9FD03461A46114BDB
:101B40001A80114B1B68002B10D10D4B1A680D4BDE
:101B50001B8888331344181D094B1A68FB791344FA
:101B600093F86C301A46396804F022FB0837BD46FA
:101B700080BD00BF606C0008906C0008BC6C000861
:101B8000E8000020F8000020F000002080B588B0B8
:101B900000AF78600B467B800023FB720023BB7292
:101BA0007B68002B04D11F4800F040F8002334E08C
:101BB00007F10B0207F10A031946786800F07CFA76
:101BC000EFF310833B613B697B610123FB60FB68A2
:101BD00083F31088144B1B680133134A1360B97ADE
:101BE000FA7A7B88786800F02DF90346FB83FB8B3B
:101BF000002B07D1B97AFA7A7B88786800F09EF9D1
:101C00000346FB83084B1B68013B074A13607B6953
:101C1000BB61BB6983F31088FB8B18462037BD4638
:101C200080BD00BFE86C0008EC00002080B582B0E9
:101C300000AF78607B68002B03D11448FFF7F6FFF4
:101C400021E0134B1B68002B03D11248FFF7EEFF76
:101C500019E00F4B1B6800221A630F4B1B68002B07
:101C600011D10D4A7B681360094B1B6803F2DC70CD
:101C7000094B1B685022194604F09AFA044B1B6862
:101C80000122C3F8D4270837BD4680BD186D00086F
:101C9000E8000020406D0008F000002080B500AF93
:101CA0000C4B1B681B6B002B12D00A4B1B685A692C
:101CB00001325A61074B1B68DA690132DA61054B60
:101CC0001B68DB69B3F57A6F03D302F07BF900E0A0
:101CD00000BF80BDE800002090B587B000AF03468C
:101CE000FB8000237B6100233B610023FB60FB88BA
:101CF000FF2B09D0FB884FF6FF72934204D04D486A
:101D0000FFF794FF002390E007F10C03184603F05F
:101D100041FFFA68484B1B68D31A3B61FB68464A8F
:101D20001360464B1B685B6A002B43D0434B1B6818
:101D30005A6A3B699A421DD2404B1B683F4A12685F
:101D4000D16A3E4A1268526A3869B0FBF2F20A441C
:101D5000DA623A4B1968394B1B68986A374B1B6833
:101D60005A6A3B69B3FBF2F402FB04F29B1A034488
:101D70008B6207E0314B1B68304A1268916A3A69FE
:101D80000A449A622D4B1B689A6A2C4B1B685B6A4B
:101D90009A4213D3294B1B68DA6A0132DA62274B65
:101DA0001B68264A1268916A244A1268526A8A1A83
:101DB0009A6203E0214B1B68FA689A62FA883B69D1
:101DC0009A422CD2FFF77EFC78617B69002B26D0EB
:101DD000FB884FF6FF7293420BD17B69A9221A70E0
:101DE0003B691B0C9AB27B695A807B6900225A704E
:101DF00013E0FB88FF2B0DD17B69A8221A703B6989
:101E00001B0A9AB27B695A803B691B0EDAB27B6966
:101E10005A7002E00A48FFF709FFFFF73FFF3B69EE
:101E20009AB2FB8813409BB29BB218461C37BD4642
:101E300090BD00BFCC6D0008FC000020E800002031
:101E40000C6E000880B584B000AF7860084611467B
:101E50001A460346FB700B46BB7013463B80344B5F
:101E60001B68FA7802F56A7233F81230FB817B68DE
:101E7000002B04D12F48FFF7D9FE002353E0BB7895
:101E8000002B4AD12C48FFF7D1FE00234BE0284B12
:101E90001A68FB890233134493F830341A463B889E
:101EA000DBB29A4226D1224B1A68FB8903331344D2
:101EB00093F830349AB23B881B0A9BB29A4219D1EC
:101EC0001B4B1A68FB89191DBB780B44134493F80C
:101ED0003034002B0ED1164B1A68FB89043303F5FE
:101EE00086631344BA787968184604F011F90346FA
:101EF000002B16D00E4B1A68FB89134493F830342C
:101F00009AB20B4B1968FB8901330B4493F83034B8
:101F10009BB21B029BB21344FB81FB89002BB6D101
:101F200000E000BFFB8918461037BD4680BD00BFEA
:101F3000E8000020306E00086C6E000880B584B0A8
:101F400000AF7860084611461A460346FB700B4600
:101F5000BB7013463B800023FB817B68002B04D1C0
:101F60005148FFF763FE002399E0BB78002B04D1B2
:101F70004E48FFF75BFE002391E04D4B1B68D3F802
:101F80002C24BB7813440433B3F5487F05D3494868
:101F9000FFF74CFE0023FB8180E0454B1A68444B61
:101FA0001B68D3F82C3442490968F87800F56A7048
:101FB00031F81010C9B213440A4683F830243C4B60
:101FC0001A683B4B1B68D3F82C3401333849096835
:101FD000F87800F56A7031F81010090A89B2C9B2B0
:101FE00013440A4683F83024314B1A68304B1B687F
:101FF000D3F82C3402333988C9B213440A4683F823
:1020000030242B4B1A682A4B1B68D3F82C3403332B
:102010003988090A89B2C9B213440A4683F83024C0
:10202000234B1A68224B1B68D3F82C34043303F576
:1020300086631344BA787968184604F0B9F81C4BE3
:102040001A681B4B1B68D3F82C14BB780B44043361
:102050001344002283F83024154B1B68FA78144986
:102060000968D1F82C1489B202F56A7223F81210AB
:102070000F4B1B680E4A1268D2F82C14BA780A4427
:102080000532C3F82C240A4B1B68D3F82C349AB2BF
:10209000BB789BB2D31A9BB2053BFB81FB891846E8
:1020A0001037BD4680BD00BFA46E0008E06E00087A
:1020B000E8000020186F000880B588B000AFF86015
:1020C000B9607A600123FB610023BB61FB68002BD0
:1020D00003D11948FFF7AAFD2BE0BB68002B03D101
:1020E0001648FFF7A3FD24E07B68002B03D11448BA
:1020F000FFF79CFD1DE0FB68002B0FD006E0FB7D89
:10210000BA691344BB61FB690133FB61FB685A1C6C
:10211000FA601B78FB75FB7D002BF0D1BB69DBB24D
:1021200003F03F03DAB2BB681A70FB69DAB27B686E
:102130001A702037BD4680BD586F00088C6F0008AC
:10214000BC6F000880B489B000AF78600023BB6129
:1021500000237B610023FB6102233B610023FB60C2
:102160000223BB60484B9B6803F00C03BB61BB6957
:10217000042B07D0082B09D0002B3FD17B68434AA2
:102180001A603FE07B68424A1A603BE03E4B5B6866
:1021900003F480039B0DFB603B4B5B6803F03F0344
:1021A000BB60FB68002B0DD0394ABB68B2FBF3F271
:1021B000354B596847F6C0730B409B0903FB02F38C
:1021C000FB610CE0314ABB68B2FBF3F22E4B59685D
:1021D00047F6C0730B409B0903FB02F3FB612A4BDC
:1021E0005B6803F440331B0C01335B003B61FA690D
:1021F0003B69B2FBF3F27B681A6003E07B68234A19
:102200001A6000BF204B9B6803F0F003BB61BB6901
:102210001B09BB611F4ABB6913441B78DBB27B619E
:102220007B681A687B69DA407B685A60164B9B684A
:1022300003F4E053BB61BB699B0ABB61154ABB69F0
:1022400013441B78DBB27B617B685A687B69DA4098
:102250007B689A600C4B9B6803F46043BB61BB696D
:102260005B0BBB610B4ABB6913441B78DBB27B6120
:102270007B685A687B69DA407B68DA6000BF243784
:10228000BD465DF8047B7047003802400024F4002E
:1022900000127A000800002080B483B000AF78609C
:1022A0000B46FB70FB78002B06D00A49094B1A6BD2
:1022B0007B6813430B6306E00649064B1A6B7B6889
:1022C000DB4313400B6300BF0C37BD465DF8047B56
:1022D000704700BF0038024080B483B000AF786020
:1022E0000B46FB70FB78002B06D00A49094B1A6C91
:1022F0007B6813430B6406E00649064B1A6C7B6847
:10230000DB4313400B6400BF0C37BD465DF8047B14
:10231000704700BF0038024080B483B000AF7860DF
:102320000B46FB70FB78002B06D00A49094B5A6C10
:102330007B6813434B6406E00649064B5A6C7B6886
:10234000DB4313404B6400BF0C37BD465DF8047B94
:10235000704700BF0038024080B483B000AF78609F
:102360000B46FB70FB78002B06D00A49094B1A6A12
:102370007B6813430B6206E00649064B1A6A7B68CA
:10238000DB4313400B6200BF0C37BD465DF8047B96
:10239000704700BF0038024080B586B004AF00230C
:1023A0007B6000F0C3FA134B1B68002B0FD0002397
:1023B000039300230293104B019302230093002305
:1023C0004FF482720D490E4800F004FB78607B6880
:1023D000002B09D14FF0500383F31188BFF36F8FA7
:1023E000BFF34F8F3B60FEE77B6818460837BD465A
:1023F00080BD00BF3001002034010020F06F0008D4
:102400009925000880B588B000AFF860B9607A609F
:102410003B600023FB613F4B1B68002B74D0BB6803
:102420003B617B687B61FB68BB61BB68052B18DC8B
:1024300001F08CF90346022B09D1364B186807F1DD
:1024400010010023BA6A02F0F3F8F86112E0314B90
:10245000186807F110010023002202F0E9F8F86182
:1024600008E02C4B186807F1100100233A6802F0CD
:102470005FFAF861BB68002B46DDBB68042B0DD109
:10248000FB69012B01D1B42000E0BD20FB689B6AF1
:10249000DAB27B680521FEF775F835E0BB68052BDD
:1024A00020D1FB69012B1DD1FB689B6ADBB21A4668
:1024B0000521B520FDF7C6FFFB689B6ADBB205214D
:1024C0001846FEF759FAFB689B6ADBB205211846ED
:1024D000FEF7A4FAFB689B6ADBB219460520FFF7FA
:1024E000A5FA11E0BB6803F1B002FB69012B01D131
:1024F000002300E0092313441846FB689B6ADBB203
:102500001A460521FDF79EFFFB6918462037BD4698
:1025100080BD00BF3001002080B588B002AF786078
:1025200039601C4B1B68DB68DB687B617B690433AB
:10253000184601F0EBFB7B69DB69012B21D17B693C
:102540009A697B68D1187B683A68786900F0BAF8B4
:102550000346012B15D10023009300237A68002144
:102560007869FFF74FFF38613B69002B09D14FF0C5
:10257000500383F31188BFF36F8FBFF34F8FFB605E
:10258000FEE77B695B6A7869984700BF1837BD46EC
:1025900080BD00BF2801002080B584B000AF786006
:1025A00007F10803184600F049F8F860BB681946BF
:1025B000F86800F003F800F0C7F8F1E780B584B0E0
:1025C00000AF7860396000F057FB07F10803184648
:1025D00000F058F8F860BB68002B24D13B68002B52
:1025E0000AD17A68FB689A4206D800F053FBF96872
:1025F0007868FFF791FF18E00E4B18687A68FB685F
:10260000D31A3A68194602F08DFD00F043FB0346E9
:10261000002B0AD1084B4FF080521A60BFF34F8F46
:10262000BFF36F8F01E000F035FB00BF1037BD46F0
:1026300080BD00BF3001002004ED00E080B485B013
:1026400000AF78600E4B1B681B68002B0CBF01238A
:102650000023DBB21A467B681A607B681B68002B7C
:1026600005D1074B1B68DB681B68FB6001E000239A
:10267000FB60FB6818461437BD465DF8047B704765
:102680002801002080B584B000AF786000F09CFB8A
:10269000F8600B4B1B68FA689A4205D200F0E6F826
:1026A0007B6801221A6002E07B6800221A60044AFB
:1026B000FB681360FB6818461037BD4680BD00BF3D
:1026C0003801002080B586B000AFF860B9607A604C
:1026D0003B6000237B61FB68BA685A60FB68FA685C
:1026E0001A61BA687B689A4212D87A683B68D21A33
:1026F000FB689B699A4202D301237B611BE0104B6C
:102700001A68FB6804331946104601F0C5FA12E056
:102710007A683B689A4206D2BA683B689A4202D30A
:1027200001237B6107E0074B1A68FB6804331946F5
:10273000104601F0B1FA7B6918461837BD4680BDD6
:102740002C0100202801002080B58CB002AF7AE077
:10275000BB68002B77DB3B697B627B6A5B69002B84
:1027600004D07B6A0433184601F0D0FA3B1D1846AA
:10277000FFF788FF3862BB68092B63D801A252F8C3
:1027800023F000BFAD270008AD270008AD270008E3
:1027900047280008072800083D280008AD27000842
:1027A000AD2700084728000807280008FA687B6A58
:1027B0009B69D118FB683A6A786AFFF783FF034682
:1027C000012B40D17B6A5B6A786A98477B6ADB6938
:1027D000012B38D1FA687B6A9B691A440023009365
:1027E00000230021786AFFF70DFEF861FB69002BDA
:1027F00029D14FF0500383F31188BFF36F8FBFF3DC
:102800004F8F7B61FEE7FA687B6A9A617B6A9B69FE
:10281000002B09D14FF0500383F31188BFF36F8F62
:10282000BFF34F8FBB61FEE77B6A9A693B6AD118A1
:102830003B6A3A6A786AFFF745FF04E0786A03F07A
:10284000BDFA00E000BF084B186807F1080100233B
:10285000002202F045F90346002B7FF479AF00BF58
:102860002837BD4680BD00BF3001002080B588B04C
:1028700002AF44E02B4B1B68DB681B687B61294B74
:102880001B68DB68DB683B613B690433184601F079
:102890003DFA3B695B6A386998473B69DB69012B04
:1028A0002DD13B699A697B691344FB60FA687B69A7
:1028B0009A420ED93B69FA685A603B693A691A61D3
:1028C000184B1A683B6904331946104601F0E4F9C5
:1028D00015E00023009300237A6900213869FFF78F
:1028E00091FDB860BB68002B09D14FF0500383F312
:1028F0001188BFF36F8FBFF34F8F3B60FEE7094B2B
:102900001B681B68002BB5D1064B1B687B60064B10
:102910001B68044A1360044A7B68136000BF1837C1
:10292000BD4680BD280100202C01002080B582B06A
:1029300000AF01F071FC1B4B1B68002B2BD11A4818
:1029400001F058F9194801F055F9194B164A1A6067
:10295000184B164A1A6000220C210A2001F0D4FDFF
:102960000246104B1A600F4B1B68002B09D14FF029
:10297000500383F31188BFF36F8FBFF34F8F7B60DA
:10298000FEE7084B1B68002B05D0064B1B680A4965
:10299000184602F08FFB01F06DFC00BF0837BD4602
:1029A00080BD00BF30010020000100201401002084
:1029B000280100202C010020F86F000880B582B0AB
:1029C00000AF7860012003F03FFA012003F054FAD1
:1029D000F8E700BF80B58CB002AFF860B9603B602B
:1029E0001346FB80FB68002B09D14FF0500383F3A3
:1029F0001188BFF36F8FBFF34F8F3B61FEE73B6BD7
:102A00001D2B09D94FF0500383F31188BFF36F8F4B
:102A1000BFF34F8F7B61FEE7FB88B96B184600F070
:102A200019FE38623B6A002B00F0AA803B6A1A6BE1
:102A3000FB8803F18043013B9B001344FB61FB696E
:102A400023F00703FB61FB6903F00703002B09D0A8
:102A50004FF0500383F31188BFF36F8FBFF34F8F95
:102A6000BB61FEE7FB880093FB6B3A6BB968386A81
:102A700000F0EAFC3A68F968F86901F0CFFA02461A
:102A80003B6A1A607B6B002B02D07B6B3A6A1A6040
:102A900001F0C2FB4B4B1B6801334A4A13604A4B9F
:102AA0001B68002B09D1484A3B6A1360454B1B68E1
:102AB000012B0FD100F01CFD0CE0444B1B68002BD8
:102AC00008D1414B1B68DA6A3B6B9A4202D83E4AF6
:102AD0003B6A13603E4B1B6801333D4A13603C4B1D
:102AE0001A683B6A1A643B6A002B26D00320FEF763
:102AF00065FE03461A463B6A5A64386A02F05AFB7E
:102B0000034619463B6A34331A460320FEF7E0FFBA
:102B1000386A02F04FFB034619463B6ADB6ADBB2B8
:102B20001A460320FDF7E2FF386A02F043FB034632
:102B30001A4603211B20FDF785FC386A02F03AFB98
:102B400003461846FDF774FB3B6ADB6A01229A4094
:102B5000204B1B6813431F4A13603B6ADA6A134613
:102B60009B0013449B001C4A1A443B6A04331946D9
:102B7000104601F06DF801237B6201F07BFB07E05A
:102B80004FF0FF337B62002203214320FDF75AFC04
:102B90007B6A012B11D10D4B1B68002B0DD00A4B0A
:102BA0001B68DA6A3B6B9A4207D20C4B4FF080529B
:102BB0001A60BFF34F8FBFF36F8F7B6A18462837B9
:102BC000BD4680BD080400203C0100201404002004
:102BD00024040020100400204001002004ED00E047
:102BE00080B588B004AF0023039300230293002331
:102BF000019300230093002382221A491A48FFF709
:102C0000E9FEF860FB68012B02D1FFF7C5FBF86015
:102C1000FB68012B15D14FF0500383F31188BFF3EC
:102C20006F8FBFF34F8F7B60104B4FF0FF321A60F6
:102C30000F4B01221A600F4B00221A6001F060FA5C
:102C40000CE0FB68002B09D14FF0500383F311888F
:102C5000BFF36F8FBFF34F8FBB60FEE700BF10372E
:102C6000BD4680BD0070000819340008280400200B
:102C7000140400200C04002080B400AF044B1B6837
:102C80000133034A136000BFBD465DF8047B704703
:102C90002C04002080B584B000AF0023FB60414BC2
:102CA0001B68002B09D14FF0500383F31188BFF349
:102CB0006F8FBFF34F8F7B60FEE701F0ADFA394BAA
:102CC0001B68013B374A1360364B1B68002B62D1EF
:102CD000354B1B68002B5ED035E0344BDB68DB687E
:102CE000BB60BB681833184601F010F8BB680433AA
:102CF000184601F00BF8B86802F05CFA0346184673
:102D0000FDF796FABB68DB6A01229A40284B1B68E4
:102D10001343274A1360BB68DA6A13469B001344C7
:102D20009B00244A1A44BB6804331946104600F03D
:102D30008FFFBB68DA6A204B1B68DB6A9A4202D3BA
:102D40001E4B01221A60194B1B68002BC5D11C4B6E
:102D50001B68002B11D00CE000F046F80346002B56
:102D600002D0164B01221A60154B1B68013B144A16
:102D70001360134B1B68002BEED1104B1B68012B0B
:102D800009D10123FB600F4B4FF080521A60BFF353
:102D90004F8FBFF36F8F01F06DFAFB681846103745
:102DA000BD4680BD2C04002008040020C80300207C
:102DB00010040020400100203C0100201C040020E1
:102DC0001804002004ED00E080B483B000AF054B90
:102DD0001B687B607B6818460C37BD465DF8047B3A
:102DE000704700BF0C04002080B586B000AF002300
:102DF0007B615D4B1B68012B03D05C4B1B68002B78
:102E000007D15B4B1B680133594A1360002002F065
:102E1000C1FE554B1B68544B1B68002B40F094803F
:102E2000544B1B680133534A1360524B1B683B6180
:102E30003B69002B1FD1504B1B681B68002B09D02E
:102E40004FF0500383F31188BFF36F8FBFF34F8FA1
:102E50003B60FEE7484B1B68FB60484B1B68464ADB
:102E60001360464AFB681360454B1B680133444AB4
:102E7000136000F035FC434B1B683A699A4254D307
:102E80003D4B1B681B68002B01D1012300E0002390
:102E9000002B04D03B4B4FF0FF321A6045E0364B1D
:102EA0001B68DB68DB68BB60BB685B687B603A699A
:102EB0007B689A4203D2334A7B68136035E0BB6873
:102EC0000433184600F022FFBB689B6A002B04D035
:102ED000BB681833184600F019FFB86802F06AF9A9
:102EE00003461846FDF7A4F9BB68DB6A01229A4045
:102EF000254B1B681343244A1360BB68DA6A1346E8
:102F00009B0013449B00214A1A44BB6804331946B2
:102F1000104600F09DFEBB68DA6A1D4B1B68DB6A39
:102F20009A42ADD301237B61AAE7194B1B68DA6A89
:102F3000164913469B0013449B000B441B68012B4E
:102F400007D901237B6104E0084B1B680133074A62
:102F50001360104B1B68002B01D001237B617B6940
:102F600018461837BD4680BD2C04002018040020E8
:102F70005C0400200C040020C0030020C4030020D7
:102F8000200400202804002010040020400100201C
:102F90003C0100201C04002080B586B000AF2A4B05
:102FA0001B68002B03D0294B01221A6048E0274BF5
:102FB00000221A60264B1B68BB60BB68B3FA83F320
:102FC000FB71FB79C3F11F033B6122493A69134648
:102FD0009B0013449B000B441B68002B09D14FF04E
:102FE000500383F31188BFF36F8FBFF34F8F7B6163
:102FF000FEE73A6913469B0013449B00154A1344AD
:10300000FB60FB685B685A68FB685A60FB685A683B
:10301000FB6808339A4204D1FB685B685A68FB6816
:103020005A60FB685B68DB680B4A136002F0D0F8FB
:103030000346184602F0BEF803461846FDF706FCA4
:1030400000BF1837BD4680BD2C0400201C040020A2
:1030500010040020400100203C01002080B584B015
:1030600000AF786039607B68002B09D14FF05003C6
:1030700083F31188BFF36F8FBFF34F8FBB60FEE701
:10308000194B1B6818331946786800F005FE164B7B
:103090001B680433184600F039FE0346002B0BD1A1
:1030A000114B1B68DB6A012202FA03F3DA430F4B70
:1030B0001B6813400D4A13603B68B3F1FF3F07D113
:1030C000094B1B6804331946094800F0C1FD07E0AD
:1030D000084B1A683B681344FB60F86800F084FAF8
:1030E00000BF1037BD4680BD3C0100201004002009
:1030F000F40300200C04002080B586B000AFF86017
:10310000B9607A60FB68002B09D14FF0500383F35C
:103110001188BFF36F8FBFF34F8F3B61FEE7344BD6
:103120001B6818331946F86800F092FD304B1B6895
:103130000433184600F0EAFD0346002B0BD12C4B5C
:103140001B68DB6A012202FA03F3DA43294B1B688E
:103150001340284A13607B68012B25D1244B1B6840
:10316000184602F027F803461A4603218A20FDF785
:1031700069F91F4B1B68184602F01CF803461846F5
:10318000FDF7A6FD02F024F80346184602F012F8F7
:1031900003461846FDF79CFD154B1B680433194682
:1031A000154800F055FD1EE0144B1A68BB68134427
:1031B0007B6179698820FDF7C9FA0D4B1B681846B9
:1031C00001F0F8FF03461846FDF782FD02F000F813
:1031D0000346184601F0EEFF03461846FDF778FD5A
:1031E000786900F001FA00BF1837BD4680BD00BF06
:1031F0003C01002010040020F40300200C040020F7
:1032000080B586B000AF78607B68DB68DB683B61C7
:103210003B69002B09D14FF0500383F31188BFF3B2
:103220006F8FBFF34F8FFB60FEE73B691833184683
:1032300000F06CFD204B1B68002B23D13B6904334D
:10324000184600F063FD386901F0B4FF03461846E4
:10325000FCF7EEFF3B69DB6A01229A40174B1B68C3
:103260001343164A13603B69DA6A13469B00134402
:103270009B00134A1A443B6904331946104600F078
:10328000E7FC05E03B69183319460E4800F0E0FC06
:103290003B69DA6A0C4B1B68DB6A9A4205D9012349
:1032A0007B610A4B01221A6001E000237B617B698C
:1032B00018461837BD4680BD2C040020100400209D
:1032C00040010020C80300203C0100201C04002015
:1032D00080B485B000AF78607B68002B09D14FF0D7
:1032E000500383F31188BFF36F8FBFF34F8FFB60E1
:1032F000FEE7074B1A687B681A60064B1A687B6802
:103300005A6000BF1437BD465DF8047B704700BFAC
:10331000200400200C04002080B586B000AF786047
:1033200039607B68002B09D14FF0500383F311887B
:10333000BFF36F8FBFF34F8FBB60FEE73B68002B7F
:1033400009D14FF0500383F31188BFF36F8FBFF3A0
:103350004F8FFB60FEE700F05FFF1C4B1B683B617B
:103360003B681B68B3F1FF3F02D100237B6126E07D
:103370007B681A68164B1B689A4207D07B685A68AC
:103380003B699A4202D801237B6118E07B685B6845
:103390003A69D21A3B681B689A420ED23B681A6897
:1033A0007B6859683B69CB1A1A443B681A60786895
:1033B000FFF78EFF00237B6101E001237B6100F0BA
:1033C00059FF7B6918461837BD4680BD0C040020A4
:1033D0002004002080B400AF034B01221A6000BF1C
:1033E000BD465DF8047B70471C04002080B485B0A6
:1033F00000AF78607B68002B05D07B68BB60BB6842
:103400005B6CFB6001E00023FB60FB68184614372F
:10341000BD465DF8047B704780B582B000AF786030
:1034200000F0A6F8064B1B68012BF9D9054B4FF0AD
:1034300080521A60BFF34F8FBFF36F8FF0E700BF6A
:103440004001002004ED00E080B586B000AFF860D8
:10345000B9607A603B6000237B6112E0BA687B69E7
:1034600013441978FA687B69134434330A461A7096
:10347000BA687B6913441B78002B06D07B69013343
:103480007B617B69092BE9D900E000BFFB68002262
:1034900083F83D207B681D2B01D91D237B60FB68D1
:1034A0007A68DA62FB687A689A64FB680022DA64F8
:1034B000FB680433184600F0BDFBFB681833184660
:1034C00000F0B8FBFB68FA681A617B68C3F11E0262
:1034D000FB689A61FB68FA685A62FB6800221A6509
:1034E000FB68002283F8542000BF1837BD4680BD1A
:1034F00080B582B000AF00237B600CE07A68134691
:103500009B0013449B00124A1344184600F072FBC0
:103510007B6801337B607B681D2BEFD90D4800F081
:1035200069FB0D4800F066FB0C4800F063FB0C489B
:1035300000F060FB0B4800F05DFB0B4B054A1A6086
:103540000A4B054A1A6000BF0837BD4680BD00BF60
:103550004001002098030020AC030020C803002095
:10356000DC030020F4030020C0030020C40300207B
:1035700080B582B000AF28E0FFF77EFB174B1B68D9
:10358000002B0CBF01230023DBB27B60FFF782FB23
:103590007B68002B19D100F03FFE104BDB68DB6825
:1035A0003B603B680433184600F0B0FB0C4B1B68D3
:1035B000013B0B4A13600B4B1B68013B094A13602C
:1035C00000F058FE386800F07BF8064B1B68002BB3
:1035D000D2D100BF0837BD4680BD00BFDC0300204C
:1035E00008040020F003002080B582B000AF7860AE
:1035F000134B1B687A685A60124B1B687A689A42B0
:1036000009D2114B1A680E4B1B6804331946104639
:1036100000F042FB10E00D4B1A68094B1B680433A5
:103620001946104600F038FB094B1B687A689A422D
:1036300002D2074A7B68136000BF0837BD4680BDD1
:103640003C0100200C040020C4030020C003002023
:103650002804002080B584B000AF03463960FB80A9
:103660003B68002B06D1FB889B00184602F056FBF6
:10367000034600E03B68BB60BB68002B0ED05820BF
:1036800002F04CFBF860FB68002B03D0FB68BA68C3
:103690001A6305E0B86802F091FB01E00023FB60CB
:1036A000FB68002B07D0FB68186BFB889B001A4651
:1036B000A52102F0DFFCFB6818461037BD4680BD2F
:1036C00080B582B000AF78607B681B6B184602F053
:1036D00075FB786802F072FB00BF0837BD4680BDFD
:1036E00080B483B000AF0F4B1B681B68002B01D167
:1036F000012300E00023002B04D00B4B4FF0FF32DE
:103700001A6008E0074B1B68DB68DB687B607B683E
:103710005B68054A136000BF0C37BD465DF8047B4B
:10372000704700BFC00300202804002080B483B08D
:1037300000AF054B1B687B607B6818460C37BD46A5
:103740005DF8047B704700BF3C01002080B483B06B
:1037500000AF0B4B1B68002B02D101237B6008E0FC
:10376000084B1B68002B02D102237B6001E0002381
:103770007B607B6818460C37BD465DF8047B70475C
:10378000140400202C04002090B585B000AF7860B0
:103790007B68FB607B68002B00F08B80FB68DA6A3B
:1037A000464B1B68DB6A9A4280F08380FB689B690A
:1037B000002B06DB414B1B68DB6AC3F11E02FB6872
:1037C0009A61FB685969FB68DA6A13469B001344E7
:1037D0009B003B4A1344994201D1012300E000239E
:1037E000002B41D0FB680433184600F08FFA0346E3
:1037F000002B15D1FB68DA6A314913469B0013444C
:103800009B000B441B68002B0AD1FB68DB6A01227A
:1038100002FA03F3DA432B4B1B681340294A136067
:10382000264B1B68DA6AFB68DA62F86801F0C2FCB2
:1038300003461846FCF7FCFCFB68DB6A01229A4051
:10384000204B1B6813431F4A1360FB68DA6A134658
:103850009B0013449B001A4A1A44FB680433194620
:10386000104600F0F5F904E0144B1B68DA6AFB68B7
:10387000DA62F86801F09EFC03461C46F86801F025
:1038800099FC034619460320FDF76CF903462246CE
:1038900003218E20FCF776FEF86801F08BFC0346CE
:1038A0001946064B1B68DB6ADBB21A460320FDF79C
:1038B0001DF900BF1437BD4690BD00BF3C0100207C
:1038C000400100201004002090B587B000AF786060
:1038D0007B683B6100237B617B68002B00F0938059
:1038E0004B4B1B683A699A4209D04FF0500383F35F
:1038F0001188BFF36F8FBFF34F8FBB60FEE73B694B
:10390000DB6C002B09D14FF0500383F31188BFF318
:103910006F8FBFF34F8FFB60FEE73B69DB6C5A1E76
:103920003B69DA643B69DA6A3B699B6C9A426AD00C
:103930003B69DB6C002B66D13B690433184600F011
:10394000E5F90346002B15D13B69DA6A3149134684
:103950009B0013449B000B441B68002B0AD13B695E
:10396000DB6A012202FA03F3DA432B4B1B68134094
:10397000294A1360386901F01DFC03461C4638696A
:1039800001F018FC034619460320FDF7EBF8034647
:10399000224603218F20FCF7F5FD386901F00AFC6F
:1039A000034619463B699B6CDBB21A460320FDF7C0
:1039B0009DF83B699A6C3B69DA623B69DB6AC3F14B
:1039C0001E023B699A61386901F0F4FB0346184610
:1039D000FCF72EFC3B69DB6A01229A400E4B1B6808
:1039E00013430D4A13603B69DA6A13469B00134484
:1039F0009B00084A1A443B6904331946104600F0FC
:103A000027F901237B617B6918461C37BD4690BDB1
:103A10003C010020400100201004002080B400AFD1
:103A2000074B1B68002B04D0054B1B68DA6C013276
:103A3000DA64034B1B681846BD465DF8047B70478B
:103A40003C01002080B487B000AF7860396000236B
:103A50007B6100233B610023FB6000237B6176E0F8
:103A600001227B6902FA03F33B613B681A683B69F8
:103A70001340FB60FA683B699A4265D17B681A681B
:103A80007B695B00032101FA03F3DB431A407B6887
:103A90001A607B681A683B681B7919467B695B0072
:103AA00001FA03F31A437B681A603B681B79012B08
:103AB00003D03B681B79022B2ED17B689A687B6907
:103AC0005B00032101FA03F3DB431A407B689A6031
:103AD0007B689A683B685B7919467B695B0001FAF1
:103AE00003F31A437B689A607B685A687B699BB2D0
:103AF000012101FA03F3DB431A407B685A607B68BB
:103B00005A683B689B7919467B699BB201FA03F3BB
:103B10009BB21A437B685A607B68DA687B699BB208
:103B20005B00032101FA03F3DB431A407B68DA6090
:103B30007B68DA683B68DB7919467B695B0001FAD0
:103B400003F31A437B68DA607B6901337B617B692D
:103B50000F2B85D900BF1C37BD465DF8047B70472D
:103B600080B485B000AF78600B467B8013467B70D5
:103B70000023FB600023BB607A787B8803F0070397
:103B80009B0002FA03F3FB607B88DB089BB21846BC
:103B90007B88DB089BB21A467B68083253F82220E8
:103BA0007B8803F007039B000F2101FA03F3DB433B
:103BB00002EA03017B6800F1080243F822107B88C7
:103BC000DB089BB21A467B68083253F82220FB6858
:103BD0001343BB607B88DB089BB21A467B680832C4
:103BE000B96843F8221000BF1437BD465DF8047B66
:103BF000704700BF80B483B000AF78607B6803F18A
:103C000008027B685A607B684FF0FF329A607B68DD
:103C100003F108027B68DA607B6803F108027B68C5
:103C20001A617B6800221A6000BF0C37BD465DF840
:103C3000047B704780B483B000AF78607B6800225B
:103C40001A6100BF0C37BD465DF8047B704700BFAA
:103C500080B485B000AF786039607B685B68FB60DA
:103C60003B68FA685A60FB689A683B689A60FB6830
:103C70009B683A685A60FB683A689A603B687A6861
:103C80001A617B681B685A1C7B681A6000BF143776
:103C9000BD465DF8047B704780B485B000AF7860A6
:103CA00039603B681B68BB60BB68B3F1FF3F03D161
:103CB0007B681B69FB600CE07B680833FB6002E0FB
:103CC000FB685B68FB60FB685B681A68BB689A42CC
:103CD000F6D9FB685A683B685A603B685B683A688B
:103CE0009A603B68FA689A60FB683A685A603B6879
:103CF0007A681A617B681B685A1C7B681A6000BF6F
:103D00001437BD465DF8047B704700BF80B485B0B2
:103D100000AF78607B681B69FB607B685B687A68D2
:103D200092689A607B689B687A6852685A60FB6800
:103D30005A687B689A4203D17B689A68FB685A602C
:103D40007B6800221A61FB681B685A1EFB681A60B8
:103D5000FB681B6818461437BD465DF8047B704746
:103D600080B500AF164A164BD3F8883043F4700381
:103D7000C2F88830134A134B1B6843F001031360E9
:103D8000104B00229A600F4A0E4B1B6823F084737D
:103D900023F4803313600B4B0B4A5A60094A094BDA
:103DA0001B6823F480231360064B0022DA6000F0C6
:103DB0000DF8034B4FF000629A6000BF80BD00BF5A
:103DC00000ED00E0003802401030002480B483B0E1
:103DD00000AF00237B6000233B60434A424B1B68DB
:103DE00043F480331360404B1B6803F400333B60A3
:103DF0007B6801337B603B68002B03D17B68B3F5A4
:103E0000A04FF0D1384B1B6803F40033002B02D0D5
:103E100001233B6001E000233B603B68012B02D1A2
:103E2000314B324A5A60304A2F4B1B6C43F080535F
:103E300013642F4A2E4B1B6843F4404313602A4AF5
:103E4000294B9B689360284A274B9B6843F40043A7
:103E50009360254A244B9B6843F4A0539360224A05
:103E6000214B1B6843F08073136000BF1E4B1B681F
:103E700003F00073002BF9D01D4A1D4B1B6843F45F
:103E80008033136000BF1A4B5B6803F48033002B50
:103E9000F9D0174A164B1B6843F40033136000BF78
:103EA000134B5B6803F40033002BF9D0114B40F245
:103EB00005721A600C4A0C4B9B6823F00303936055
:103EC000094A094B9B6843F00203936000BF064B0D
:103ED0009B6803F00C03082BF9D100BF0C37BD46DB
:103EE0005DF8047B704700BF00380240085A400765
:103EF00000700040003C024080B500AFFDF7AAFA18
:103F000000BF80BD80B586B000AF0023FB75284B95
:103F10001B68002B04D12748FDF788FE002343E0EF
:103F2000254B1B68002B3CD1EFF31083BB60BB68B3
:103F3000FB6001237B607B6883F310881F4B1B6849
:103F400001331E4A13601A4B1B6801221A6301F0E9
:103F50003FF90346184601F02DF90346FB75FB7D3A
:103F6000002B10D10320FDF729FC0346FB75FB7DD8
:103F7000134A19460320FDF7ABFDFB7D00221946CD
:103F80000320FCF7B3FDFB7D1846FCF75FFC0B4BF1
:103F90001B68013B094A1360FB683B613B6983F383
:103FA0001088034B1B681B6B18461837BD4680BD35
:103FB000E800002008700008F0000020EC0000205D
:103FC0005470000880B500AF064B1B6800221A63CE
:103FD000054B1B68002B02D0034B1B68984700BFA2
:103FE00080BD00BFE80000203004002080B582B012
:103FF00000AF78607B68002B04D10748FDF716FE00
:10400000002304E000217868FDF7C0FD0346184650
:104010000837BD4680BD00BF8C73000880B485B0F2
:1040200000AFF860B9607A60FB68043BFB60FB6836
:104030004FF080721A60FB68043BFB60BA68FB6853
:104040001A60FB68043BFB600C4AFB681A60FB6863
:10405000143BFB607A68FB681A60FB68043BFB60FA
:10406000FB686FF002021A60FB68203BFB60FB6894
:1040700018461437BD465DF8047B70478140000840
:1040800080B483B000AF0C4B1B68B3F1FF3F09D085
:104090004FF0500383F31188BFF36F8FBFF34F8F3F
:1040A0003B60FEE74FF0500383F31188BFF36F8F3F
:1040B000BFF34F8F7B60FEE72C000020064B196892
:1040C0000868B0E8F04F80F30988BFF36F8F4FF0B6
:1040D000000080F3118870473C01002000BF00BF42
:1040E00006480068006880F3088862B661B6BFF3CE
:1040F0004F8FBFF36F8F00DF00BF00BF08ED00E000
:1041000080B586B000AF3B4B1B683B4A934209D158
:104110004FF0500383F31188BFF36F8FBFF34F8FBE
:10412000FB60FEE7334B1B68344A934209D14FF0E2
:10413000500383F31188BFF36F8FBFF34F8F3B6141
:10414000FEE72F4B7B617B691B78DBB2BB607B6931
:10415000FF221A707B691B78DBB2FB71FB79DBB243
:1041600003F05003DAB2274B1A70274B07221A606C
:1041700009E0254B1B68013B234A1360FB79DBB246
:104180005B00DBB2FB71FB79DBB2DBB25BB2002B15
:10419000EFDB1D4B1B681B021B4A13601A4B1B688D
:1041A00003F4E063184A1360BB68DAB27B691A70E3
:1041B000164A164B1B6843F470031360134A134BE3
:1041C0001B6843F07043136000F0D2F8104B0022DC
:1041D0001A6000F0E9F80F4A0E4B1B6843F04043A9
:1041E0001360FFF77DFFFFF74BFF002318461837DA
:1041F000BD4680BD00ED00E071C20F4170C20F41AD
:1042000000E400E04C0400205004002020ED00E019
:104210002C00002034EF00E080B483B000AF4FF0FA
:10422000500383F31188BFF36F8FBFF34F8F3B6051
:104230000E4B1B6801330D4A13600C4B1B68012B9E
:104240000ED10B4B1B68DBB2002B09D04FF0500393
:1042500083F31188BFF36F8FBFF34F8F7B60FEE74F
:1042600000BF0C37BD465DF8047B70472C00002072
:1042700004ED00E080B483B000AF114B1B68002B4D
:1042800009D14FF0500383F31188BFF36F8FBFF351
:104290004F8F3B60FEE70A4B1B68013B084A1360E7
:1042A000074B1B68002B04D100237B607B6883F3E2
:1042B000118800BF0C37BD465DF8047B704700BF16
:1042C0002C000020EFF30980BFF36F8F144B1A68A6
:1042D0001EF0100F08BF20ED108A20E9F04F10608B
:1042E0004DF8043D4FF0500080F31188BFF34F8F1D
:1042F000BFF36F8FFEF750FE4FF0000080F3118880
:1043000008BC19680868B0E8F04F1EF0100F08BF2D
:10431000B0EC108A80F30988BFF36F8F704700BF3D
:104320003C01002000BF00BF80B584B000AFEFF3B8
:1043300011824FF0500383F31188BFF36F8FBFF3E7
:104340004F8FBA607B60FEF74FFD0346002B03D012
:10435000064B4FF080521A600023FB60FB6883F32A
:10436000118800BF1037BD4680BD00BF04ED00E0DE
:1043700080B400AF084A094B1B680949A1FB03132D
:104380009B09013B1360074B07221A6000BFBD4623
:104390005DF8047B704700BF14E000E018000020C7
:1043A000D34D621010E000E0DFF80C00016841F42A
:1043B00070010160704700BF88ED00E080B485B0F7
:1043C00000AFEFF30583FB60FB680F2B13D9164A90
:1043D000FB6813441B78FB72144B1B78FA7A9A42E1
:1043E00009D24FF0500383F31188BFF36F8FBFF3EF
:1043F0004F8F3B60FEE70E4B1B6803F4E0620D4BF2
:104400001B689A4209D94FF0500383F31188BFF318
:104410006F8FBFF34F8F7B60FEE700BF1437BD4641
:104420005DF8047B704700BFF0E300E04C0400201F
:104430000CED00E05004002080B584B000AF78603F
:1044400039607B68FB60FB68002B09D14FF050039B
:1044500083F31188BFF36F8FBFF34F8FBB60FEE70D
:10446000FFF7DAFEFB681A68FB68DB6BF968096C1A
:1044700001FB03F31A44FB685A60FB6800229A634D
:10448000FB681A68FB689A60FB681A68FB68DB6B5C
:10449000013BF968096C01FB03F31A44FB68DA601D
:1044A000FB684FF0FF325A64FB684FF0FF329A64AA
:1044B0003B68002B14D1FB681B69002B1AD0FB68EA
:1044C00010331846FEF79CFE0346012B12D10D4B0C
:1044D0004FF080521A60BFF34F8FBFF36F8F09E028
:1044E000FB6810331846FFF785FBFB68243318463A
:1044F000FFF780FBFFF7BEFE012318461037BD46CD
:1045000080BD00BF04ED00E0B0B58AB000AFF86038
:10451000B9601346FB7100233B62FB68002B09D195
:104520004FF0500383F31188BFF36F8FBFF34F8FAA
:104530007B61FEE7BB68002B02D100237B6205E0B4
:10454000FB68BA6802FB03F301337B627B6A543376
:10455000184601F0E3FBF861FB69002B53D0BB6800
:10456000002B03D1FB69FA691A6004E0FB6903F1CF
:104570005402FB691A60FB69FA68DA63FB69BA687E
:104580001A640121F869FFF757FFFB69FA7983F88C
:104590005020F86900F002FE03461A46234B9B5C4C
:1045A0001846FDF70BF903461A46FB69DA64F86909
:1045B00000F0F4FD03461A461C4B9B5C1833DBB23B
:1045C0001D46F86900F0EAFD03461A46174B9C5C4D
:1045D000F86900F0D5FD03461A4621462846FBF748
:1045E00031FFF86900F0DAFD03461A460F4B9C5C78
:1045F000F86900F0C5FD0346002219462046FCF785
:10460000EFFAFB693B623B6A002B09D14FF0500384
:1046100083F31188BFF36F8FBFF34F8FBB61FEE74A
:104620003B6A18462837BD46B0BD00BF30000020A9
:10463000B0B58EB000AFF860B9607A603B6000231F
:104640007B63FB683B633B6B002B09D14FF050034E
:1046500083F31188BFF36F8FBFF34F8FFB61FEE7CA
:10466000BB68002B03D13B6B1B6C002B01D10123DA
:1046700000E00023002B09D14FF0500383F3118891
:10468000BFF36F8FBFF34F8F3B62FEE73B68022B98
:1046900003D13B6BDB6B012B01D1012300E0002335
:1046A000002B09D14FF0500383F31188BFF36F8FB4
:1046B000BFF34F8F7B62FEE7FFF748F80346002BFE
:1046C00002D17B68002B01D1012300E00023002BE5
:1046D00009D14FF0500383F31188BFF36F8FBFF3FD
:1046E0004F8FBB62FEE7FFF797FD3B6B9A6B3B6B0F
:1046F000DB6B9A4202D33B68022B64D1386B00F02B
:104700004DFD03461A46884B9B5C2033DBB21D46A9
:10471000386B00F043FD03461A46834B9C5C386BB4
:1047200000F02EFD03461A4621462846FBF78AFE76
:10473000386B00F033FD03461A467B4B9C5C386BAC
:1047400000F01EFD03461D46386B00F027FD0346B2
:104750001A46754B9B5C022B05D03B6B9B6BDBB207
:104760000133DBB200E000231A4629462046FCF75D
:1047700037FA3A68B968386B00F090FBF8623B6B27
:104780005B6A002B10D03B6B24331846FEF738FDD4
:104790000346012B13D1654B4FF080521A60BFF3D3
:1047A0004F8FBFF36F8F0AE0FB6A002B07D05F4B80
:1047B0004FF080521A60BFF34F8FBFF36F8FFFF738
:1047C00059FD0123ABE07B68002B1DD1FFF752FDA3
:1047D000386B00F0E3FC03461A46534B9B5C4833AE
:1047E000DBB21D46386B00F0D9FC03461A464E4B2F
:1047F0009C5C386B00F0C4FC03461A4621462846F0
:10480000FBF720FE00238AE07B6B002B06D107F12B
:1048100014031846FEF75CFD01237B63FFF72AFDB6
:10482000FEF72AFAFFF7F8FC3B6B5B6CB3F1FF3F36
:1048300002D13B6B00225A643B6B9B6CB3F1FF3F90
:1048400002D13B6B00229A64FFF714FD3A1D07F179
:10485000140311461846FEF75FFD0346002B3ED1B8
:10486000386B00F00FFC0346002B32D0386B00F0A1
:1048700095FC03461A462C4B9B5C7033DBB21D46FD
:10488000386B00F08BFC03461A46274B9C5C386B58
:1048900000F076FC03461A4621462846FBF7D2FD77
:1048A0003B6B10337A6811461846FEF7D7FB386B1E
:1048B00000F086FBFEF7EEF90346002B7FF413AF02
:1048C0001A4B4FF080521A60BFF34F8FBFF36F8FB8
:1048D00009E7386B00F074FBFEF7DCF903E7386B8F
:1048E00000F06EFBFEF7D6F9386B00F057FC03467C
:1048F0001A460D4B9B5C4833DBB21D46386B00F00B
:104900004DFC03461A46084B9C5C386B00F038FCA3
:1049100003461A4621462846FBF794FD0023184615
:104920003837BD46B0BD00BF3000002004ED00E0C8
:10493000B0B58EB000AFF860B9607A603B60FB68DC
:104940003B633B6B002B09D14FF0500383F311887D
:10495000BFF36F8FBFF34F8FBB61FEE7BB68002BC8
:1049600003D13B6B1B6C002B01D1012300E0002322
:10497000002B09D14FF0500383F31188BFF36F8FE1
:10498000BFF34F8FFB61FEE73B68022B03D13B6B0C
:10499000DB6B012B01D1012300E00023002B09D1A7
:1049A0004FF0500383F31188BFF36F8FBFF34F8F26
:1049B0003B62FEE7FFF702FDEFF311824FF0500379
:1049C00083F31188BFF36F8FBFF34F8F7A627B61E0
:1049D0007B6ABB623B6B9A6B3B6BDB6B9A4202D38D
:1049E0003B68022B53D1386B00F0D8FB03461A46C4
:1049F0003A4B9B5C3033DBB21D46386B00F0CEFB8C
:104A000003461A46354B9C5C386B00F0B9FB0346F5
:104A10001A4621462846FBF715FD386B00F0BEFB11
:104A200003461A462D4B9C5C386B00F0A9FB0346ED
:104A300019463B6B9B6BDBB20133DBB21A46204657
:104A4000FCF7CEF83A68B968386B00F027FA3B6B90
:104A50009B6CB3F1FF3F12D13B6B5B6A002B13D011
:104A60003B6B24331846FEF7CBFB0346002B0BD0E1
:104A70007B68002B08D07B6801221A6004E03B6B46
:104A80009B6C5A1C3B6B9A6401237B631BE0386B65
:104A900000F084FB03461A46104B9B5C5833DBB294
:104AA0001D46386B00F07AFB03461A460B4B9C5CA4
:104AB000386B00F065FB03461A4621462846FBF793
:104AC000C1FC00237B63BB6AFB62FB6A83F3118832
:104AD0007B6B18463837BD46B0BD00BF30000020A4
:104AE000B0B58CB000AFF860B9607A603B6000236D
:104AF000FB62FB68BB62BB6A002B09D14FF050031D
:104B000083F31188BFF36F8FBFF34F8FBB61FEE755
:104B1000BB68002B03D1BB6A1B6C002B01D10123A6
:104B200000E00023002B09D14FF0500383F31188DC
:104B3000BFF36F8FBFF34F8FFB61FEE7FEF706FEFB
:104B40000346002B02D17B68002B01D1012300E03A
:104B50000023002B09D14FF0500383F31188BFF3DA
:104B60006F8FBFF34F8F3B62FEE7FFF755FBBB6ACA
:104B70009B6B002B00F0A380BB6ADB687B62B9688B
:104B8000B86A00F0F7F93B68002B63D1B86A00F00F
:104B900005FB03461A46B24B9B5C2833DBB21D462D
:104BA000B86A00F0FBFA03461A46AD4B9C5CB86A43
:104BB00000F0E6FA03461A4621462846FBF742FC77
:104BC000B86A00F0EBFA03461A46A54B9C5CB86A3B
:104BD00000F0D6FA03461D46B86A00F0DFFA034635
:104BE0001A469F4B9B5C022B07D100F0F1FA03465B
:104BF000184600F0DFFA034604E0BB6A9B6BDBB2A9
:104C0000013BDBB21A4629462046FBF7E9FFBB6AA7
:104C10009B6B5A1EBB6A9A63BB6A1B68002B04D14C
:104C2000FEF7FCFE0246BB6A5A60BB6A1B69002B9A
:104C300041D0BB6A10331846FEF7E2FA0346012B57
:104C400039D1884B4FF080521A60BFF34F8FBFF3BA
:104C50006F8F30E0B86A00F0A1FA03461A46804B25
:104C60009B5C7833DBB21D46B86A00F097FA0346C6
:104C70001A467B4B9C5CB86A00F082FA03461A46DF
:104C800021462846FBF7DEFBBB6A7A6ADA60BB6A1C
:104C90005B6A002B0FD0BB6A24331846FEF7B0FACC
:104CA0000346002B07D06F4B4FF080521A60BFF3C2
:104CB0004F8FBFF36F8FFFF7DDFA0123CBE07B68E7
:104CC000002B1DD1FFF7D6FAB86A00F067FA034649
:104CD0001A46634B9B5C5033DBB21D46B86A00F04A
:104CE0005DFA03461A465E4B9C5CB86A00F048FACF
:104CF00003461A4621462846FBF7A4FB0023AAE0F8
:104D0000FB6A002B06D107F110031846FEF7E0FA04
:104D10000123FB62FFF7AEFAFDF7AEFFFFF77CFA67
:104D2000BB6A5B6CB3F1FF3F02D1BB6A00225A64DD
:104D3000BB6A9B6CB3F1FF3F02D1BB6A00229A644D
:104D4000FFF798FA3A1D07F1100311461846FEF7CF
:104D5000E3FA0346002B5ED1B86A00F07DF9034602
:104D6000002B52D0B86A00F019FA03461A463C4BA1
:104D70009B5C6833DBB21D46B86A00F00FFA03464D
:104D80001A46374B9C5CB86A00F0FAF903461A469B
:104D900021462846FBF756FBB86A00F0FFF90346A8
:104DA0001A462F4B9B5C022B09D000F011FA0346E8
:104DB000184600F0FFF903461846FBF789FFBB6A67
:104DC0001B68002B08D1FFF727FABB6A5B681846FF
:104DD000FEF7DAFCFFF74EFABB6A24337A68114615
:104DE0001846FEF73BF9B86A00F0EAF8FDF752FF03
:104DF0000346002B7FF4B9AE1A4B4FF080521A6075
:104E0000BFF34F8FBFF36F8FAFE6B86A00F0D8F8EB
:104E1000FDF740FFA9E6B86A00F0D2F8FDF73AFFC7
:104E2000B86A00F0BBF903461A460D4B9B5C503341
:104E3000DBB21D46B86A00F0B1F903461A46084BCA
:104E40009C5CB86A00F09CF903461A462146284645
:104E5000FBF7F8FA002318463037BD46B0BD00BF57
:104E60003000002004ED00E080B483B000AF786033
:104E70007B68DB6C18460C37BD465DF8047B7047D9
:104E800080B483B000AF78607B6893F850301846E8
:104E90000C37BD465DF8047B704700BF80B586B017
:104EA00000AFF860B9607A6000237B61FB681B6C1F
:104EB000002B0DD1FB681B68002B50D1FB685B6891
:104EC0001846FEF701FD7861FB6800225A6046E053
:104ED0007B68002B19D1FB689868FB681B6C1A462D
:104EE000B96801F02DF8FB689A68FB681B6C1A44DE
:104EF000FB689A60FB689A68FB685B689A422ED3ED
:104F0000FB681A68FB689A6029E0FB68D868FB6850
:104F10001B6C1A46B96801F013F8FB68DA68FB6885
:104F20001B6C5B421A44FB68DA60FB68DA68FB685A
:104F30001B689A4207D2FB685A68FB681B6C5B428D
:104F40001A44FB68DA607B68022B08D1FB689B6B14
:104F5000002B04D0FB689B6B5A1EFB689A63FB68AE
:104F60009B6B5A1CFB689A637B6918461837BD46D1
:104F700080BD00BF80B582B000AF786039607B68CB
:104F80001B6C002B18D07B68DA687B681B6C1A449A
:104F90007B68DA607B68DA687B685B689A4203D377
:104FA0007B681A687B68DA607B68D9687B681B6CF1
:104FB0001A46386800F0C4FF00BF0837BD4680BD00
:104FC00080B582B000AF7860FFF726F912E07B6809
:104FD0005B6A002B13D07B6824331846FEF710F968
:104FE0000346002B01D0FEF7F5F97B689B6C5A1E37
:104FF0007B689A647B689B6C002BE8DC00E000BF58
:105000007B684FF0FF329A64FFF734F9FFF704F939
:1050100012E07B681B69002B13D07B6810331846A5
:10502000FEF7EEF80346002B01D0FEF7D3F97B68BC
:105030005B6C5A1E7B685A647B685B6C002BE8DCF7
:1050400000E000BF7B684FF0FF325A64FFF712F9AF
:1050500000BF0837BD4680BD80B584B000AF786022
:10506000FFF7DAF87B689B6B002B02D10123FB6012
:1050700001E00023FB60FFF7FDF8FB6818461037DE
:10508000BD4680BD80B584B000AF7860FFF7C4F83E
:105090007B689A6B7B68DB6B9A4202D10123FB60D1
:1050A00001E00023FB60FFF7E5F8FB6818461037C6
:1050B000BD4680BD90B585B000AF786039600023F3
:1050C000FB6024E0154AFB6852F83330002B1BD1FB
:1050D0001249FB683A6841F83320104AFB68DB004C
:1050E00013447A685A60786800F058F803461A4604
:1050F0000B4B9C5C786800F043F803463A6819460D
:105100002046FCF7E5FC05E0FB680133FB60FB682B
:10511000072BD7D900BF1437BD4690BD4477012077
:105120003000002080B586B000AFF860B9607A60CA
:10513000FB687B61FFF770F87B695B6CB3F1FF3F45
:1051400002D17B6900225A647B699B6CB3F1FF3FFB
:1051500002D17B6900229A64FFF78CF87B699B6B14
:10516000002B06D17B6924337A68B9681846FDF7AD
:10517000C3FF7869FFF724FF00BF1837BD4680BD25
:1051800080B582B000AF78607868FFF76DFE0346A7
:10519000DBB218460837BD4680BD00BF80B582B07F
:1051A00000AF78607868FFF76BFE03461846083753
:1051B000BD4680BD80B582B000AF78607868FEF7EC
:1051C00015F90346DBB218460837BD4680BD00BF5F
:1051D00080B500AFFEF7AAFA0346184680BD00BFAF
:1051E00080B400AF4F4B1B680722DA654D4B1B683C
:1051F0000A2283F864204B4B1B680A2283F865203F
:10520000484B1B680A2283F86620464B1B680F2216
:1052100083F86720434B1B68052283F86820414BC5
:105220001B68022283F869203E4B1B68022283F828
:105230006A203C4B1B680F2283F86C20394B1B689B
:105240000F2283F86D20374B1B680F2283F86E20E6
:10525000344B1B680F2283F86F20324B1B680F22E0
:1052600083F870202F4B1B680F2283F871202D4B81
:105270001B680F2283F872202A4B1B68102283F8C8
:105280007420284B1B68102283F87520254B1B685F
:10529000102283F87620234B1B68132283F8772093
:1052A000204B1B68112283F878201E4B1B681022AC
:1052B00083F879201B4B1B68132283F87A20194B43
:1052C0001B680022A3F87C20164B1B68A022A3F8C1
:1052D0007E20144B1B684FF4A072A3F88020114B62
:1052E0001B684FF4F072A3F882200E4B1B6840F24B
:1052F000FD22A3F884200B4B1B6840F25232A3F826
:105300008620084B1B6840F27232A3F88820054BB8
:105310001B684FF466721A6600BFBD465DF8047BD9
:10532000704700BFE800002080B400AF254B00228A
:10533000DA81244BDA89234B1A80224B0A221A8203
:10534000204B1A8A1F4B5A801E4B14225A821D4B27
:105350005A8A1C4B9A801B4B1E229A82194B9A8A9E
:10536000184BDA80174B2D22DA82164BDA8A154B4E
:105370001A81144B32221A83124B1A8B114B5A8109
:10538000104B34225A830F4B5A8B0E4B9A810D4B84
:1053900009229A830B4B1322DA830A4B1D221A84AB
:1053A000084B2C225A84074B31229A84054B332216
:1053B000DA84044B35221A8500BFBD465DF8047BB4
:1053C000704700BF7800002080B483B000AF034670
:1053D000FB71FB79062B1FD801A252F823F000BF06
:1053E0000D5400080554000809540008FD53000836
:1053F0000154000811540008155400080A4B0CE031
:105400000A4B0AE00A4B08E00A4B06E00A4B04E0AC
:105410000A4B02E00A4B00E00A4B18460C37BD4627
:105420005DF8047B704700BFBC730008F47300088C
:105430002C74000870740008AC740008E87400084C
:10544000247500086875000880B582B000AF034677
:105450000A46FB711346BB71FB79062B04D95148F0
:10546000FCF7E4FB012399E04F4B1A68FB791344E6
:1054700093F86430BA799A4204D94C48FCF7D6FBC9
:1054800001238BE0FB79062B00F2848001A252F805
:1054900023F000BF23550008D7540008FD5400082E
:1054A000B154000895550008495500086F5500088B
:1054B000BB792133DB103E4AD35CD9B2BB792133AF
:1054C00003F00703012202FA03F3DBB20A4613409A
:1054D000DBB2DBB262E0BB790B33DB10344AD35C66
:1054E000D9B2BB790B3303F00703012202FA03F3AD
:1054F000DBB20A461340DBB2DBB24FE0BB791633B6
:10550000DB102B4AD35CD9B2BB79163303F0070307
:10551000012202FA03F3DBB20A461340DBB2DBB22C
:105520003CE0BB79DB08DBB21A46214B9B5CD9B26D
:10553000BB7903F00703012202FA03F3DBB20A4648
:105540001340DBB2DBB229E0BB793133DB10184A00
:10555000D35CD9B2BB79313303F00703012202FADD
:1055600003F3DBB20A461340DBB2DBB216E0BB79D1
:105570003433DB100E4AD35CD9B2BB79343303F039
:105580000703012202FA03F3DBB20A461340DBB23F
:10559000DBB203E00748FCF749FB01231846083754
:1055A000BD4680BD98750008E8000020E075000841
:1055B0004C00002020760008002103E00A4B5B58D5
:1055C0004350043109480A4B42189A42F6D3094A1B
:1055D00002E0002342F8043B074B9A42F9D3FEF75E
:1055E000BFFBFBF7F3FE7047BD760008000000200C
:1055F000440000204400002084770120FEE70000E2
:1056000080B582B000AF78607B68174A93420AD1B8
:1056100001214FF40010FCF79FFE00214FF4001011
:10562000FCF79AFE1CE07B68104A93420AD10121E4
:105630004FF48000FCF790FE00214FF48000FCF74F
:105640008BFE0DE07B680A4A934209D101214FF499
:105650000000FCF781FE00214FF40000FCF77CFE07
:1056600000BF0837BD4680BD0054004000580040D0
:10567000005C004080B58AB000AF786039600023DC
:10568000FB8400237B840423BB84574BFB617B6832
:105690009B88FB84FB8C23F03F03FB8407F10C0306
:1056A0001846FCF74FFD7B69FB61FB694F4AA2FB83
:1056B00003239B0C7B84FA8C7B8C1343FB847B68D9
:1056C000FA8C9A807B681B889BB223F001039AB204
:1056D0007B681A800023FB843B681B68444A934222
:1056E00015D83B681B685B00FA69B2FBF3F3BB8417
:1056F000BB8C032B01D80423BB84FA8CBB8C1343D3
:10570000FB847B8C01339AB27B681A8440E03B684F
:10571000DB884BF6FF72934209D13B681A68134647
:105720005B001344FA69B2FBF3F3BB840EE03B6801
:105730001A6813469B0013449A001344FA69B2FB9B
:10574000F3F3BB84BB8C43F48043BB84BB8CC3F3B7
:105750000B03002B03D1BB8C43F00103BB84BA8C39
:10576000FB8C13439BB26FEA43436FEA5343FB84C2
:105770007B8C4FF4967202FB03F31E4A82FB0312EA
:105780009211DB17D31A9BB201339AB27B681A8449
:105790007B68FA8C9A837B681B889BB243F0010379
:1057A0009AB27B681A807B681B88FB84FB8C23F48D
:1057B000816323F00203FB843B689A883B685B8922
:1057C00013439AB2FB8C1343FB847B68FA8C1A80D8
:1057D0003B689A893B681B8913439AB27B681A819C
:1057E00000BF2837BD4680BD00127A0083DE1B4310
:1057F000A0860100D34D621080B483B000AF786002
:105800000B46FB70FB78002B08D07B681B889BB293
:1058100043F001039AB27B681A8007E07B681B881B
:105820009BB223F001039AB27B681A8000BF0C3749
:10583000BD465DF8047B704780B483B000AF7860EC
:105840000B46FB70FB78002B08D07B681B889BB253
:1058500043F480739AB27B681A8007E07B681B88E8
:105860009BB223F480739AB27B681A8000BF0C3716
:10587000BD465DF8047B704780B483B000AF7860AC
:105880000B46FB70FB78002B08D07B681B889BB213
:1058900043F400739AB27B681A8007E07B681B8828
:1058A0009BB223F400739AB27B681A8000BF0C3756
:1058B000BD465DF8047B704780B483B000AF78606C
:1058C0000B46FB701346BB70BB78002B04D0FB78F3
:1058D00043F00103FB7003E0FB7823F00103FB704E
:1058E000FB789AB27B681A8200BF0C37BD465DF820
:1058F000047B704780B483B000AF78600B46FB70C8
:10590000FB78002B08D07B681B889BB243F4806334
:105910009AB27B681A8007E07B681B889BB223F4ED
:1059200080639AB27B681A8000BF0C37BD465DF871
:10593000047B704780B483B000AF78600B46FB7087
:10594000FB78002B0AD07B681B889BB26FEA43432D
:105950006FEA53439AB27B681A8007E07B681B8822
:105960009BB2C3F30E039AB27B681A8000BF0C3758
:10597000BD465DF8047B704780B483B000AF7860AB
:105980000B46FB70FB789AB27B681A8200BF0C371B
:10599000BD465DF8047B704780B483B000AF78608B
:1059A0007B681B8A9BB2DBB218460C37BD465DF89C
:1059B000047B704780B487B000AF78603960002303
:1059C000FB7500233B610023FB607B68FB603B6849
:1059D0001B0F3B613B6823F07F433B603B69002B1F
:1059E00003D0FB681433FB6005E03B681B0C3B6095
:1059F000FB681833FB60FB681A683B681340002B98
:105A000002D00123FB7501E00023FB75FB7D1846E6
:105A10001C37BD465DF8047B704700BF80B582B07F
:105A200000AF7860012000F00FFA012000F024FAA6
:105A3000F8E700BF80B485B000AF78600023FB605A
:105A4000344BFB607B689B79002B4FD03149314B45
:105A50001A687B681B68DB4313400B602D492D4B94
:105A60005A687B681B68DB4313404B607B681B797B
:105A70001A46FB681344FB60FB68FA6811687A6891
:105A800012680A431A602349224B9A687B681B6894
:105A9000DB4313408B601F491E4BDA687B681B6831
:105AA000DB431340CB607B685B79102B0ED1194927
:105AB000184B9A687B681B6813438B601549154B1C
:105AC000DA687B681B681343CB601DE0114BFB60F9
:105AD0007B685B791A46FB681344FB60FB68FA68D5
